:020000040800F2
:1010000000500020D5600008D3600008D1600008BF
:10101000D1600008D1600008D16000080000000025
:10102000000000000000000000000000D360000885
:10103000D360000800000000D3600008D3600008FF
:10104000D1600008D1600008D1600008D1600008BC
:10105000D1600008D1600008D1600008D1600008AC
:10106000D1600008D1600008D1600008D16000089C
:10107000D1600008D1600008D1600008D16000088C
:10108000D1600008D1600008D1600008054E00085A
:10109000E54D0008F54D0008D1600008D16000085A
:1010A000D1600008D1600008D1600008D16000085C
:1010B000D1600008291D0008D1600008D160000837
:1010C000D1600008D1600008D1600008D16000083C
:1010D000D1600008D1600008D1600008D16000082C
:1010E000D1600008D1600008D1600008D16000081C
:1010F000D1600008D1600008D1600008D16000080C
:10110000D1600008D1600008D1600008D1600008FB
:10111000D1600008D1600008D1600008D1600008EB
:10112000D1600008D1600008D1600008D1600008DB
:10113000D1600008D1600008D1600008314E00087D
:10114000114E0008214E0008D1600008D16000084F
:10115000F8B5222001F0DEF9C4B21C2001F0E2F95A
:10116000012C194D194F03D12B780BB90A233B6081
:101170003B68174E002B0DDD013B80F001013B6009
:10118000C9B21C2001F0D8F91A2001F0C3F92C7063
:101190003060F8BD372001F0BDF9002801DD0121E4
:1011A000EFE700211C2001F0C7F9012CECD11A2037
:1011B00001F0B0F933689842E6D01A2001F0AAF99C
:1011C000013040003860DFE7E8090020E409002032
:1011D000E009002010B50446222001F09BF9012807
:1011E00004D12046BDE8104003F056B810BD000001
:1011F0006FF4A463C31870B505460C46072B55D889
:10120000DFE803F0040E18222C36404A04F02EFCCE
:101210002146BDE87040024640F2215002F074BA07
:1012200004F024FC2146BDE87040024640F2225002
:1012300002F07CBA04F01AFC2146BDE87040024678
:1012400040F2235002F0BCBA04F010FC2146BDE885
:101250007040024640F2245002F0E6BA04F006FC68
:101260002146BDE87040024640F2255002F00ABB1C
:1012700004F0FCFB2146BDE87040024640F22650D7
:1012800002F012BB04F0F2FB2146BDE870400246BA
:1012900040F2275002F01ABB04F0E8FB2146BDE8FB
:1012A000704002464FF4A56002F02EBB114B1B7834
:1012B00033B904F0DBFB21460246284603F0EEFD7D
:1012C0000D4E3378012B14D104F0D0FB2146024699
:1012D000284602F09BFB094B18703378012B08D18C
:1012E00004F0C4FB214602462846BDE8704002F0E7
:1012F0009BBB70BDBF090020BE090020C8090020AB
:1013000008B5084B1B78012B0AD12F2001F0FCF8FF
:10131000054B40B2B3F90010BDE8084002F00ABD29
:1013200008BD00BFBF090020C0090020818808B5A2
:10133000006804F0A5FC003818BF012008BD8188B2
:10134000006804F098BC8188006804F096BC000036
:10135000F8B52F4B2520196801F0EEF82D4B27200A
:10136000196801F0E9F82C4B2620196801F0E4F81F
:101370000E2001F0C9F80F2001F0C6F807461B2027
:1013800001F0C2F80446222001F0C4F806462348C2
:1013900002F03FF840F221114001B0FBF1F135209D
:1013A00001F0D2F8252001F0AFF88742054610DAA7
:1013B0001B4B1B88312B05D81A48FFF7C4FF1A486E
:1013C000FFF7C1FF2220002101F0B6F8022002F051
:1013D00063FF022E1AD104EBD474B5EB640F15DA57
:1013E00004F044FB114B1B6803F5FA7398420DD9C6
:1013F0000D48FFF79BFF48B10B48FFF7A4FF032000
:1014000002F04AFF0321222001F096F82846F8BD99
:10141000600D00205C0D0020580D00205C0C0020A9
:10142000220E00201C0C00203C0C0020CC090020C7
:101430005D4B73B509201C8801F06CF884424FF0B5
:1014400008005A4C29DA01F05FF820603B2001F0D7
:1014500069F80546062001F05DF80228064669D1C4
:1014600004F004FB524B0446186802F0D9FF241A1A
:10147000312C17D82A2001F04DF800902B2001F0D4
:1014800049F801900021684602F03CF8002862D13A
:101490004848FFF754FF042008E001F07FF8036993
:1014A0002360D3E74348FFF74AFF0620FFF792FE89
:1014B0000020019002F0BAF80190252001F024F8F4
:1014C000014601A802F000F9322001F01DF804469F
:1014D000122001F019F801AA0146204602F0D6F8C0
:1014E00028B13448FFF72BFF072002F0D5FE332048
:1014F00001F00AF80446132001F006F801AA01469B
:10150000204602F0C3F828B12A48FFF718FF082048
:1015100002F0C2FE2E20019901F016F80B2000F017
:10152000F3FF019B984224483BDDFFF708FF019839
:1015300002B070BD214801F06CFF0090204801F01E
:1015400068FF009901902A2000F0F6FF2B200199F6
:1015500000F0F2FF96E7012101A801F0D3FF012E70
:10156000044608D16846019901F0F6FF70B16CB1EC
:10157000144B5B6801932F2000F0CCFF002898D01B
:10158000DDE900012A4602F013F892E70948FFF767
:10159000D6FE0420FFF71EFE00212E2000F0CCFF17
:1015A00086E7FFF7D0FEC2E7220E0020EC0C0020F9
:1015B000C4090020F40B0020EC0B0020E00C0020FC
:1015C000E40C0020040D0020B24B2DE9F041998875
:1015D000186804F058FB04F05FFBAF4BAF4D186880
:1015E00000F068FF0A21400190FBF1F1462000F075
:1015F000ABFF02F07FFE0146232000F09DFF2F206D
:1016000000F088FF46B2072000F084FF2B7810F02E
:10161000020F14BF4FF0FF340124012B00F0AC8007
:10162000072000F077FF042875D13C2000F07AFFF6
:10163000002869D13D2000F075FF002814BF4FF04D
:10164000FF3401242B78012B14D102F0F3FA002887
:1016500008BF002402F0EEFA022808BF002402F0BE
:10166000E9FA012808BF4FF0FF3402F0E3FA03283B
:1016700008BF012421468A4C2F2000F05DFFFFF7B0
:1016800067FE2378874F012B78D04FF0804004F01D
:101690003DFB854804F03AFB00233B702378002B88
:1016A00000F0E9802E78012E10D1804C02F0C8FAAB
:1016B000237833B902F0F4F902F0F2F902F0F0F90C
:1016C00026707B4B4320197800F036FF2B78012BD6
:1016D00006D00021754A062B117001D102F0EAFCF8
:1016E00004F0C4F9642807D91F2000F013FF18B9CB
:1016F000704B186802F0CDFEBDE8F0416E4B34200F
:10170000B3F9001000F018BF3D2000F00BFF0028D7
:1017100090D0002496E7072000F0FCFE10F0010FA7
:101720004FF03C0014D100F0FDFE58B93C2000F011
:10173000F9FE002886D13D2000F0F4FEE0B16442BD
:1017400064B27FE73D2000F0EDFE0028E1D1EDE737
:1017500000F0E8FE06463D2000F0E4FE8642D8D0C8
:101760003C2000F0DFFE00287FF46CAF3D2000F04D
:10177000D9FE0028CDD0E2E7344663E702F0FEFB55
:101780004E4E0146442000F0D7FE96F80080B8F196
:10179000010F0CD14A48FFF7D6FD4A48FFF7D3FDA9
:1017A0004948FFF7D0FD4146452000F0C5FE367898
:1017B00066B94348FFF7C7FD4248FFF7C0FD4248FE
:1017C000FFF7BDFD3146452000F0B6FE3B782BB952
:1017D00000F06CFD00F0A0FD01233B703B4B0021AD
:1017E0001A883148A2F10A03394A5A43462392FB28
:1017F000F3F202F2537292B204F0A1FB3548FFF704
:1018000095FD0146402000F097FE3348FFF78EFD1E
:101810000146412000F090FE3048FFF787FD014669
:10182000422000F089FE2E4B3220B3F9001000F068
:1018300083FE2C4801F0EDFD06462B4801F0E9FD42
:1018400010218046304602F09FFB284E1021308048
:10185000404602F099FBB6F90230B6F90010B080AC
:101860009942B8BF1946332000F066FE2378012B59
:101870003FF418AF09E703F0F3FA1D4B3220B3F938
:10188000001000F059FE1B4B3320B3F9001000F09C
:1018900053FE07E7040C0020D4090020BE090020F5
:1018A000BF090020BD090020002C0140C90900200B
:1018B000C8090020C4090020540D0020BC090020E4
:1018C000BC0B0020DC0B0020E40B0020D009002022
:1018D00056FAFFFF240C00202C0C0020340C0020B2
:1018E000E80D0020D80C0020DC0C0020DA090020D4
:1018F000260E00201C0E00202DE9F843282000F0C1
:1019000009FE07B2222000F005FE0446FFF720FD85
:10191000804604F0ABF802F0B9FC222000F0FAFD9A
:10192000012840F05381FFF783FDAF4A87EAE77350
:101930001588A3EBE7739BB29D428CBF054600253B
:10194000AA4E32788AB903F005FBA94B2F20B3F9D0
:1019500000704FF43E63C5EBC52595FBF3F500F031
:10196000D3FD29B240B203F069FA3378012B0BD1D1
:1019700040F6AC5045434FF43E6095FBF0F59D4B6F
:101980001D809D4BB3F900703946282000F0D4FD2E
:10199000332000F0B9FD362000F0BCFDDFF898924E
:1019A000054699F80030002818BF43F0010389F874
:1019B000003004F05BF8914B0646186802F030FDE9
:1019C000361A312E0AD999F800303BB10021362061
:1019D00000F0B2FD062002F05FFC00258848FFF70A
:1019E000A5FC05F001010143C9B2392000F0A4FDB6
:1019F0008448FFF79BFCC5F340010143C9B23A207C
:101A000000F09AFD8048FFF791FCC5F38001014387
:101A1000C9B23B2000F090FD7C48FFF787FCC5F37E
:101A2000C0010143C9B23C2000F086FD7848FFF7B1
:101A30007DFCC5F300110143C9B23D2000F07CFDDF
:101A4000AB0600F1C7807348FFF770FC0146724D8A
:101A50003E2000F071FD2B78052B06D1322000F0DE
:101A600053FD81B2B8B202F0D1FA2B7893B932208B
:101A700000F04AFD0646B8B201F064FFA6234120FB
:101A80000F3E734393FBF0F3583398B201F078FFA5
:101A900001F0A8FF2B78012B10D1604B1B782BB1E4
:101AA000282000F031FD80B202F00CF83B2000F05D
:101AB0002BFD003818BF012002F024F82E2000F082
:101AC00029FD00284FF01B00D4BF0026402600F05F
:101AD0001BFD4045CCBF042700270F2000F014FD5C
:101AE00037434045D4BF082600263E4394B93A20E8
:101AF00000F018FD10B9494B1B785BB14848FFF75F
:101B00001EFC0221222000F017FD03F0AFFF02248B
:101B1000444B18602B78012B09D1032C07D13F4B84
:101B20001F7827B93946222000F006FD3C462B7865
:101B3000012B0BD0032C09D13A2000F0F3FC07460F
:101B400020B90146222000F0F7FC3C46002E45D18A
:101B50003A2000F0E7FC00283ED1304B1F78002CE3
:101B600008BF4FF480763146242000F0E5FC2B7846
:101B7000012B02D1294B1B7893B377B12A48FFF789
:101B8000DEFB2A48FFF7DFFB2948FFF7D8FB0121DE
:101B9000222000F0D1FC02F0A1FBACB92248FFF7F3
:101BA000D2FB2248FFF7CFFB1D48FFF7CCFB2048B4
:101BB000FFF7C9FB3946222000F0BEFC2B78012B31
:101BC00002D100221B4B1A70BDE8F883FFF730FCEE
:101BD0000025B5E601213AE70127C0E70027C2E763
:101BE000002FDBD01C46C9E7CA090020BF0900202E
:101BF000220E0020C0090020EE0D0020C4090020A4
:101C00004C0C0020440C0020140C0020CC0B0020B5
:101C1000D40B0020C40B0020BE090020C8090020FE
:101C20003C0C0020CC0900201C0C0020F40B0020F0
:101C3000FC0B0020C9090020D80900201E2838B557
:101C400007D12C4B1C6800F065FCC1B2204602F0A5
:101C5000C9FB022000F05EFC274D284C28600320C1
:101C600000F058FC2060042000F054FC686005205F
:101C700000F050FC6060142000F046FC204B18601F
:101C8000152000F041FC1F4B1860112000F03CFCB7
:101C90001D4B1860102000F037FC1C4B18600E2004
:101CA00000F032FC1E234343194A5B1100201360ED
:101CB00000F030FC174BC1B21870302000F03CFC33
:101CC000012000F027FC144BC1B21870312000F045
:101CD00033FC162000F01EFC104B1870172000F08B
:101CE00019FC0F4B18800A2000F014FC0D4B1880D3
:101CF00038BD00BFC40900200C0D0020040D0020D9
:101D00001C0D0020200D0020000D0020FC0C0020E8
:101D1000180D0020BF090020BE090020BC090020CA
:101D2000D0090020CA090020014B186800F092BBBE
:101D3000D40900202DE9F0410026ADF6C82D00F0B1
:101D400089F99D4F00F0A6FA9C4B314621209C4C0E
:101D50001E7000F0F1FB394605229A489A4D01F0B9
:101D600099FB39460622994801F094FB214602224C
:101D7000974801F08FFB29460122964801F08AFB23
:101D800032462146944801F085FB294602234FF450
:101D90000072924801F00AF9294602231022904865
:101DA00001F004F9022321461A468E4801F0FEF89C
:101DB0002946022320228C4801F0F8F82946022304
:101DC00010228A4801F0F2F833462146082288485A
:101DD00001F0ECF8214604238022864801F0E6F861
:101DE000214604234FF40052834801F0DFF82946CE
:101DF00004234FF48062814801F0D8F8DFF8508264
:101E00002146042320227E4801F0D0F821460423F5
:101E10004FF480727B4801F0C9F821464046042304
:101E20004FF4007201F0C2F82146042340227648A4
:101E300001F0BCF8294604234FF40042734801F036
:101E4000B5F8294604234FF48042714801F0AEF8FA
:101E5000214602234FF480526E4801F0A7F8022376
:101E600004226D496D4801F0A1F829460223082299
:101E70006B4801F09BF8042310223946694801F0B1
:101E800095F801F04DFA10214FF0007003F032FC8C
:101E900000F030F900F0A6F900F0D6F900F0E4FB0C
:101EA00002F0C8F94720FFF7C9FE4046FFF74BFA9A
:101EB0001E2000F02FFB0AACC2B25B49204602F0A4
:101EC000FDFE1E2000F026FB584DC2B258490DF50C
:101ED000AF6002F0F3FE2946204602F040FA2946A0
:101EE0000DF5AF6002F03BFA4FF4ED71204602F0C1
:101EF00019FC40F25A51204602F014FC4FF498713C
:101F00000DF5AF6002F00EFC4FF4C9710DF5AF6036
:101F100002F008FC40F22151204602F003FC40F29E
:101F20002251204602F0FEFB40F22351204602F0EF
:101F3000F9FB40F22451204602F0F4FB40F2255117
:101F4000204602F0EFFB40F22651204602F0EAFB69
:101F500040F22751204602F0E5FB4FF4A5612046F0
:101F600002F0E0FB334B684633491C6000F018FA7E
:101F7000324B684601223249C3F800D000F034FAEF
:101F800068460A222F4900F02FFA684664222E493B
:101F900000F02AFA4FF4FA7268462C4900F024FA4D
:101FA0000421202000F0C8FA00F060FB30460DF656
:101FB000C82DBDE8F08100BF00080140E9090020FC
:101FC00000100140E00C0020000C0140E40C002057
:101FD0005C0C0020D80C0020DC0C00204C0C0020F5
:101FE000440C0020140C0020CC0B0020D40B00204B
:101FF000C40B00201C0C0020040C0020F40B00205B
:10200000EC0B00203C0C0020DC0B0020E40B00203B
:10201000BC0B0020240C0020001401402C0C0020DC
:10202000340C00200C0C002000640040F11100086A
:1020300000680040C409002000040040D4090020CA
:1020400001130008F9180008C9150008511100080B
:10205000FC0B002008B503F067FC022003F03CFCF9
:10206000224B234A40F202301A6003F0E2FF40F2B2
:10207000033003F0DEFF4FF4417003F0DAFF40F26B
:10208000053003F0D6FF40F2923003F0D2FF40F269
:10209000913003F0CEFF40F20B3003F0CAFF4FF453
:1020A000607003F0C6FF40F2813003F0C2FF40F2DF
:1020B000823003F0BEFF4FF4207003F0BAFF40F20D
:1020C000093003F0B6FF40F2862003F0B2FF4FF470
:1020D000407003F0AEFF40F2993003F0AAFFBDE874
:1020E000084040F29A3003F0A4BF00BF0CED00E0BE
:1020F0000003FA0508B502224FF480630321334838
:1021000003F0C6FA4FF4E131314803F031FF082102
:102110002F4803F041FF4FF400512D4803F045FFD5
:102120000C212B4803F04DFF0021294803F043FF09
:102130000021274803F04BFF254803F05EFF254BA5
:102140001B78EBB1224803F05DFF0221224803F027
:10215000F5FC0221204803F054FD02211F4A1E48CD
:1021600003F06AFD002202211B4803F01FFD02213B
:102170001948002203F00EFD0221174803F022FD4A
:102180000321174803F0DAFC0321144A144803F032
:1021900053FD00220321124803F008FD0022032111
:1021A0000F4803F0F7FC03210D4803F00BFD4FF43B
:1021B000405203210A4803F0E1FC0948032103F0DF
:1021C00029FDBDE80840024803F007BF00100140A8
:1021D00000480040E9090020000402400448004093
:1021E0000000024010B5164C0423204602220321B1
:1021F00003F04EFA0823012220460021A4F54444AE
:1022000003F046FA20460F4903F0B2FE20460821AB
:1022100003F0C2FE2046002103F0C7FE20460C2139
:1022200003F0CFFE2046002103F0C5FE204600212A
:1022300003F0CDFE2046BDE8104003F0CEBE00BF47
:102240000008014020A1070008B5112003F094FF09
:10225000F021112003F09EFF102003F08DFFF021EC
:10226000102003F097FF1D2003F086FF00211D20A2
:1022700003F090FF142003F07FFFE021142003F00F
:1022800089FF132003F078FFBDE80840E021132008
:1022900003F080BF08B503204FF41C7103F018FC55
:1022A000BDE80840002003F0EBBB000010B5184C5F
:1022B0004FF4807302220321164803F0E9F9204607
:1022C00003F024FD002320221946204603F001FDDF
:1022D0002046102103F01FFD07222046002103F0B5
:1022E0001EFD0021204603F0E0FD204603F037FEEE
:1022F00020464FF47A72002103F021FE204640F67A
:10230000340103F00AFD2046BDE8104003F0F9BC9B
:10231000002C01400008014008B5022303211A46A1
:102320001D4803F0B5F94FF0804003F0EFFC0023A7
:102330004FF080401A46194603F0CBFC00214FF0C5
:10234000804003F0E8FC4FF0804003F0CBFC4FF0FE
:10235000804003F0D1FC8F214FF0804003F0DDFC82
:1023600002214FF0804003F0C5FD062202214FF00C
:10237000804003F0D4FC02214FF0804003F095FD33
:102380004FF080404822022103F0D9FDBDE808400B
:102390004FF0804003F0B5BC0008014070470000DA
:1023A00038B50D4604460162084603F09BFC2846FA
:1023B00003F09DFC284640F2CF2103F0ACFC2846F8
:1023C0004FF6FF7103F0A9FC064B2046C4E9003329
:1023D000C4E902334FF0FF33C4E9043300236362DE
:1023E00038BD00BF9D230008F8B5436A0446032B9F
:1023F0000E4615462ADC006A03F088FC144F636A17
:102400000122F95C206A03F08AFC636A0022F95C0D
:10241000206A03F094FD0221636A05EB850505EB54
:10242000850503F10802AD0044F82360994024F8C3
:102430001250206A03F040FC0021206A03F096FD50
:10244000206A03F05EFC636A01336362F8BD00BF7B
:10245000B46100082DE9F04704460025022600F18A
:10246000100700F1180806FA05FA5146206A03F031
:1024700027FCD0B1206A03F077FD51468146206ADF
:1024800003F024FC236A37F81520343353F8251061
:102490000A4443F8252054F825309847206A03F071
:1024A00063FDA0EB090028F815000135042DDAD1F1
:1024B000BDE8F08730B500F1100100F118030A25DE
:1024C00000200C46228924886A43B2FBF4F20231D0
:1024D0008B421044F5D130BD1C2210B5084C02FBD4
:1024E0000042D4688C4209DC12698A4206DB054A44
:1024F00042F82010FFF7A2FB002010BDFF20FCE7F0
:102500001C01002000000020014B53F82000704700
:1025100000000020024B53F820004011704700BF1C
:1025200000000020034B53F820004011431E584286
:102530005841704700000020024B490143F8201029
:10254000704700BF00000020014B43F82010704787
:102550000000002070B506460024074D314668682B
:1025600000F082FC08B9E0B270BD0134472C05F1DF
:102570001C05F3D14820F7E71C0100200023064A80
:102580009169814201D1D8B270470133472B02F1E2
:102590001C02F5D1482070471C0100201C22024B70
:1025A00002FB0030704700BF1C0100201C22044BBE
:1025B00002FB0033D3E90303C01A18BF01207047A0
:1025C0001C0100200023064A0649906910B1506999
:1025D00041F823000133472B02F11C02F5D170476B
:1025E0001C01002000000020014B1954704700BF5F
:1025F000EA090020024B1A5C11431954704700BFCE
:10260000EA090020024A135C23EA010313547047CD
:10261000EA090020014B185C704700BFEA0900205E
:10262000024B1A68024BC3F8DC237047AC09002048
:102630001C01002010B50A4C0321204603F0F3FAD8
:1026400020460321074A03F000FB20460321802295
:1026500003F00BFB2046BDE81040032103F0DABA7B
:10266000000002403C0A0020FFF7E4BF2DE9F04FD4
:102670000024A046404F414DA1B00321384603F04D
:10268000EDFA8146C0F1800608B9FFF7D3FFA246F4
:10269000DFF8F0B0564539DCB442B8BF3446002EFE
:1026A000EBDDC9F17F0915F809300A2B01D00D2B9C
:1026B00053D1002320212846AB5500F0F3FB90F8BE
:1026C00000800446B8F1000F28D10A21284600F006
:1026D000E9FB04468DF80080237823B90D212846B4
:1026E00000F0E0FB04460023DFF89C802370D8F85C
:1026F0000010C1B9FFF79EFF012E04D0204C214EDF
:1027000014F8011B29BB0024A046B6E715F80A10EF
:10271000584603F067FC0AF1010ABBE7411C684612
:1027200000F0B0FBD8E7284600F09EFB044610B14D
:1027300008F10808DBE7D8F80030002BDAD0FFF703
:1027400079FF104803F06BFC6846D8F804309847CE
:1027500093E7304603F046FCD2E72B78212B8CD14F
:10276000B8F1000F89D0FFF765FF6846D8F804304C
:102770009847002481E700BF000002403C0A002087
:10278000D866000800480040EC6A00082DE9F041D6
:10279000254B1B7833B981B2244803F023FC002079
:1027A000BDE8F081224C23492268234D0B68D201F9
:1027B000C7B22A440A280E46D75401D07F2B2FD106
:1027C000DFF87C801D4F02224046114603F0CCF911
:1027D00010B93B68002BF6D00221194803F023FA08
:1027E000326802210132164892B203F03EFA2268A2
:1027F0000221134805EBC21203F027FA0222104807
:10280000114603F0ABF902210D4803F003FA2368E7
:10281000B3FA83F35B09236000233B603360BEE7B8
:1028200001330B60BBE700BFE9090020004800400E
:10283000340A0020380A0020BC0A0020E0080020EA
:1028400000000240704708B503F08EFC01F06EBD39
:10285000044B0548196853F8042C083B1B6800F02A
:1028600051BD00BFF0F7FF1FF36600082DE9F047E8
:1028700086B000F065FB0678702E08D1002001F0CC
:1028800091FE4D4906B0BDE8F04701F050BE632E01
:102890000AD1002001F086FE01F06BFF474806B028
:1028A000BDE8F04700F02EBD202100F0FBFA0378D0
:1028B0000BB94348F3E700F043FB2021074600F043
:1028C000F1FA037805460BB9642EF2D1002438469C
:1028D00005F8014BFFF73EFE0746284600F030FBA7
:1028E000482F824601D13748D9E7642E0CD12046C3
:1028F00001F058FE394602F016F90146324806B09A
:10290000BDE8F04700F0FEBCA1460DF1080820210B
:10291000504600F0C7FA037805460BB9032CC8D11E
:10292000504605F8019B00F0F2FA48F824002846CA
:1029300000F006FB0134042C8246E8D1DDE90248B0
:10294000742E4FF00000049DBDF9149011D101F0D8
:1029500029FE434622463946CDE9005901F071FF70
:10296000431D0146042B1CD8DFE803F01619131091
:102970000D0001F017FE434622463946CDE90059C5
:1029800001F06DFFECE721461048B8E741461048DA
:10299000B5E729460F48B2E721460F48AFE70F4891
:1029A0007DE70F4B0F4A0128D8BF1A460E4806B0E4
:1029B000BDE8F04700F0A6BCED290008FC66000861
:1029C0001E67000831670008456700085A6700085D
:1029D0006E6700088267000896670008BE670008F7
:1029E00070680008D7650008DA6700082DE9F0472D
:1029F000DDF820809DF824900C4615461E46FFF712
:102A0000CDFD47680A4800F07DFCB9F1000F0CD0FD
:102A1000084800F077FC2B4622463946CDE9086885
:102A2000BDE8F047044800F06DBC0448F1E700BF82
:102A30000468000809680008116800080D680008AB
:102A4000F8B50C4800F05EFC00240B4FE6B23046AF
:102A5000FFF7A4FD05463046FFF7DCFDC30704D4AD
:102A6000D5E90112384600F04DFC0134472CEDD178
:102A7000F8BD00BF2268000844680008F8B50024CB
:102A8000084EE5B22846FFF789FD47682846FFF75C
:102A90003BFD013402463946304600F033FC472CFA
:102AA000EFD1F8BD4E6800082DE9F04100F048FA7A
:102AB0000446104FDFF840802C21204600F0F2F948
:102AC00000230678054603702046FFF743FD48289B
:102AD0000CD0FFF719FD014640462C4600F012FCD1
:102AE0002C2E04F8016BE7D0BDE8F0812146384672
:102AF000F3E700BF57680008526800082DE9F04F5F
:102B00002F488DB000F0FEFB00262027DFF8C480A0
:102B1000DFF8C490DFF8C4A0F5B22846FFF73EFD09
:102B200004462846FFF776FD10F0010B3AD16268A3
:102B3000A368284605920493FFF7E6FCDDE904321A
:102B400039460090404600F0DDFB584601F02AFD72
:102B50000DF11F0302930BAB01930AAB00932946BF
:102B600009AB08AA01F0FEFB78B19DF81F10154AC9
:102B7000154B1648002908BF134601930B9B089973
:102B80000093DDE9092300F0BDFB2846FFF70EFDA9
:102B900088B1236850460093E168D4E9042300F02B
:102BA000B1FB2C270136472EB6D1094800F0AAFB0D
:102BB0000DB0BDE8F08F484600F0A4FBF1E700BF80
:102BC0007C6800087668000871680008A46800083E
:102BD0003D6900087E6800082C690008E568000867
:102BE000F7B5114800F08EFB104800F08BFB002574
:102BF0000F4FEEB23046FFF7D1FC04463046FFF7E8
:102C0000D5FC60B13046FFF705FDC30707D4636903
:102C1000384600936168D4E9032300F073FB013563
:102C2000472DE6D103B0F0BD436900085A6900089A
:102C30007669000808B501F08DFA0146064800F0F3
:102C400061FB002001F0AEFC01F0D2FFBDE80840BE
:102C5000024800F057BB00BF89690008A569000859
:102C600008B5FFF7AFFCBDE80840014800F04ABBDB
:102C7000B56900082DE9F04F85B000F061F9044610
:102C800000F045F920210546204600F00BF90378B5
:102C90002BB92C4805B0BDE8F04F00F033BB00263F
:102CA000B046DFF8B090441C2C21204600F0FAF822
:102CB000074690F800A080F800802046FFF74AFC05
:102CC0003C46482804F801AB1DD004AB334403F85C
:102CD0000C0C01363B782C2B01D1092EE4DD1A486F
:102CE00003F099F9DFF86080DFF86C90202140460E
:102CF00003F099F9044618B9002D08DC6A1C06D0C7
:102D000005B0BDE8F08F484600F0FCFAE2E70F4F4F
:102D1000DFF848A00DF1040BA6420BD01BF804000D
:102D2000FFF7F2FB39460246504600F0EBFA4F46F9
:102D30000134F1E7064800F0E5FA6B1CD6D0013DFE
:102D4000D4E700BFC7690008004800407068000869
:102D50006E680008316700087D700008E6690008A9
:102D6000F8B500F0EDF82021074600F09BF8037855
:102D7000044623B91648BDE8F84000F0C3BA00265F
:102D800006703846FFF7E6FB482805461AD06378F8
:102D9000212B0AD07E2B08D02F2B06D0611C0D488A
:102DA00000F062F820B10C48E5E70126A11CF6E727
:102DB000012128461EB1FFF725FC0848DBE7FFF795
:102DC00019FCFAE73946BDE8F840054800F09ABA20
:102DD000EB690008FB690008026A0008116A000834
:102DE000226A000838B500F0ABF82021044600F054
:102DF00059F8037823B90F48BDE8384000F082BA8B
:102E0000002300F8013B00F022F905462046FFF7B9
:102E1000A1FB482807D02946FFF75EFB08B9064802
:102E2000EAE70648E8E72146BDE83840044800F0F4
:102E300069BA00BF396A0008546A00085D6A000870
:102E4000226A000808B501F0F5F930B9FEF7F6FE80
:102E50000348BDE8084000F055BA0248F9E700BF52
:102E6000726A0008866A0008431E013913F8010FD0
:102E700011F8012F10B10AB19042F7D0801A18BF93
:102E800001207047013911F8013F0BB903707047F9
:102E900000F8013BF7E7034600201A5C02B97047CF
:102EA0000130FAE70346184613F8012B0AB18A42AB
:102EB000F9D1704700290346F0B520DA2D2003F838
:102EC000010B012049421D46C71A91FBF2FC02FB8F
:102ED0001C11303129702C46BCF1000105F10105AF
:102EE0001E4605EB0700F0DC00232B70B4420BD923
:102EF0003378227806F8012B04F80139F6E704D17B
:102F00003022417002700120F0BD0020DBE730B5B7
:102F100003782D2B11D14FF0FF34013000210A2509
:102F2000431E01E005FB012113F8012F303AD0B216
:102F30000928F7D904FB01F030BD0124EEE70000B9
:102F400010B5134C02780146A2F10A03DBB2162B2E
:102F500000F1010017D9A2B10846FFF79CFF0C4C05
:102F6000013808448142024609D2137801380A3BED
:102F7000DBB2162B03D824FA03F3DB07F2D40023C9
:102F80005370084610BD24FA03F3DA07DAD4E3E7F6
:102F900009004000002310B5934200D110BD51F844
:102FA000234040F823400133F6E70000013BDBB249
:102FB000032B70B50C4615460160828011D80B4A70
:102FC0000B48D15C0B4AC65CD25C2B46204602F013
:102FD0005FFB012E09D129462046BDE8704002F072
:102FE0004ABE002602223146EFE770BD746B00082E
:102FF0007C6B0008786B00080029B4BF4FF0FF32EB
:10300000012270B5642401FB02F3591103F01F0380
:10301000634301324FEA6314054604BF2D2305F8CC
:10302000013B06460A222846FFF744FF2E23092CBF
:103030002B54D8BF302305EB0002CEBF501C537079
:10304000901C21460A22FFF735FF304670BDF0B5CF
:10305000027803462D2A15D14FF0FF3001330025A9
:103060000A2702E00B4607FB0545194611F8012B1C
:10307000A2F13004E6B2092EF4D98AB902EB451266
:103080005043F0BD0120EAE74901B1FBF4F17C4374
:103090000A4413F8011F3039CEB2092EF4D9EDE7F6
:1030A0000A2400222746F4E7034608462BB11A6893
:1030B00011701A6801321A607047FFF767BB2DE97B
:1030C000F843141E06460D4616DC4FF02008DB07B9
:1030D0001FD500235F1B21E00132A95C0029FBD131
:1030E000A242ACBF0C46A41A13F0020F0CBF4FF063
:1030F00020084FF03008EAE70022EEE7414630466C
:10310000FFF7D2FF013F002FF8DC24EAE473E41A52
:10311000E0E72746F7E73046FFF7C6FF07EB05096C
:1031200015F8011B0029F6D12546002D07DC002CDF
:10313000ACBF09EB040009F10000BDE8F88341468B
:103140003046FFF7B1FF013DEFE72DE9FF4780462D
:10315000DDE90C7A15461C4651B930233A46ADF8E4
:10316000043001A95346FFF7AAFF04B0BDE8F08779
:1031700023B10A2A29D1002927DA494200238DF8F0
:103180000F300E9B0DF10F023A3BB1FBF5F005FB42
:103190001016092E88BFF61830368D4202F1FF391D
:1031A00002F8016C13D944B1A7B11AF0020F11D083
:1031B0002D214046FFF778FF013F53463A464946E6
:1031C0004046FFF77CFF2044CFE70024D6E70146C6
:1031D0004A46DAE72D23002409F8013CA2F102094E
:1031E000EBE700002DE9F04307460E4614460025A4
:1031F0004FF00A08DFF808918BB033783BB917B16C
:1032000000223B681A7028460BB0BDE8F083252BDE
:103210006FD17378002BF2D0252B06F1010267D015
:103220002D2B0ABF01230023B21C164612F8011BE6
:10323000302915D00022304610F8011BA1F1300CC6
:103240005FFA8CFEBEF1090F0DD973290FD12168E9
:103250000434002908BF49463846FFF730FF14E020
:1032600043F00203E1E7064608FB02C2E3E76429F4
:103270000ED161202146CDE90130012300920A22BE
:10328000384609680434FFF760FF05440136B4E7A7
:10329000782907D121466120CDE901300092002331
:1032A0001022EDE7582902D121464120F4E7752983
:1032B00006D161202146CDE9013000920023DEE7EE
:1032C00066290AD1216807A8CDE904230434FFF751
:1032D00093FEDDE9042307A9BEE76329D6D121685F
:1032E00004348DF8181000218DF8191006A9B3E7E1
:1032F000164638463178FFF7D7FE0135C6E700BFDE
:10330000806B00080FB407B504AA52F8041B002014
:103310000192FFF767FF03B05DF804EB04B070475C
:1033200007B52D4801F0F0FE2B4801F0F2FE2A48C7
:1033300001F0F9FE284801F0F1FE0121264801F0D4
:10334000CEFE254801F09EFE0023244A0193019BF6
:10335000934203DC019B01330193F8E71E4801F01F
:10336000A1FE1D4801F0B1FE05211D4A1A4801F0D9
:10337000DFFE194801F025FF01211A4A1A4802F020
:103380005BFC0121194A184802F05FFC4FF480727F
:103390000121154802F00AFC4FF480620121124815
:1033A00002F0F8FB3C2201210F4802F05EFC0121F3
:1033B0000D4802F007FC01210B4802F00CFC012132
:1033C000094802F027FC044801F0F1FE024803B06E
:1033D0005DF804EB01F05EBE002401407F3801007F
:1033E000540C00204C24014000000240600C0020DE
:1033F00003468B42084606DD914203DC9342A8BF98
:103400001346184670479342FBDC9142A8BF104612
:10341000704773B56E46056805F11E04963534F89D
:103420000A2C34F8141C34F81E0CFFF7E1FF1E348C
:10343000AC4226F8020BF2D1BDF80230BDF8000014
:103440001844BDF804301844BDF806301844C0F3E1
:103450008F0002B070BD00000D4B98420BD003F5F9
:10346000806398420DD0A3F5006398420ED10729DE
:103470000CDCC8B27047012908DC01F10800C0B2B9
:103480007047052902DC01F10A00F8E710207047B7
:10349000000C0140012370B593400C4615460022F4
:1034A000064611469BB2204602F0F2F82946204615
:1034B000FFF7D2FF3368034A9B1A034AC3F34F0353
:1034C000D05470BD600C0020540C0020074B084AFB
:1034D000991C1360074A1160074A191D1160074AB9
:1034E000991D1160064A083313607047600C002074
:1034F000E00C0020E40C00205C0C0020D80C002024
:10350000DC0C0020124B30B553F82120114B53F83E
:1035100021401346A242A8BF2346016801F1C80515
:103520009D4206DBA242B8BF224602F1C804A14276
:1035300003DD013B0360002030BD994203DA013B0B
:1035400003600120F8E79142C8BF0260F9E700BFBD
:10355000040D00200C0D0020F0B5134F134E7D68B4
:1035600074686422A54218DD0B1B53432C1B93FB8C
:10357000F4F3D31A02683968541A64226243346837
:10358000641A92FBF4F29B1A002BB8BF5B42642BC7
:10359000CABF016001200020F0BD491B4A43631BE4
:1035A00092FBF3F3E6E700BF0C0D0020040D0020B2
:1035B000034670B572B31848184D00686E688E42A5
:1035C0000EDC8C1B4FF448616143154C6468A41BEE
:1035D00091FBF4F141436420491191FBF0F1481E45
:1035E000BAB9104A2C6811681B1B5A0101F54863CF
:1035F00053430B4A5B111268121B93FBF2F35B1AE5
:1036000043BF584320F01F0090FBF1F0184648BF1D
:10361000404270BD0448CFE7E80C00200C0D0020AC
:10362000040D0020F80C0020F40C0020124B134A6B
:103630001B6811469842A8BF1846114B1B68984258
:10364000B8BF18461368834207DC0E4909680B446B
:103650009842A8BF1846106070470028FBDC03EAB8
:10366000E373834205DB084A12689B1A9842B8BF8D
:1036700018460860704700BF1C0D0020F00C0020A9
:10368000200D0020EC0C0020240D0020884212DDCB
:103690003F318142ACBF4FF4C86000201368002B5B
:1036A0000CDB8342A8BF0346B0F5486FACBF0020D7
:1036B0000120136070474FF44860EFE741428B42AE
:1036C000B8BF0B46F0E7000010B50468002C0BDB18
:1036D0000B4B1B68C91A01EB810121EAE17294428C
:1036E000A8BF1446046010BD064B1B68C91A01EB45
:1036F000810101EAE1739C42B8BF1C46F2E700BFBA
:10370000180D0020140D0020064A13880133138081
:103710004FF47A72D1F8023093FBF2F3024A13604D
:10372000704700BF640D00205C0D00201C4B70B57D
:103730001A88D1F80210013292B21A804FF47A73CB
:1037400091FBF3F1174B184C1960184B2488184D56
:103750001B88952A88B2234498BF2880154C2E8850
:10376000A0EB03039BB298BF2380B14202DA962AF2
:1037700088BF2880104D2E88B14202DD962A88BF6E
:1037800028802188994202D9962A88BF23800B4934
:103790000888984202D2962A88BF0B8070BD00BF6D
:1037A000640D0020600D00204E0D00204C0D002007
:1037B000520D00202A0D0020500D0020280D002061
:1037C000144A8878138801339BB21380CA7812494F
:1037D00040EA02204FF47A72B0FBF2F2B0F57A6F51
:1037E00028BF0E480A8022BF0088121A0A80952B33
:1037F0000A880B4901D80A8004E00888904201D960
:10380000962BF8D107490888904202D2962B88BFA0
:103810000A807047640D00204C0D00204E0D0020E2
:103820002E0D00202C0D0020124B10B51A881248C6
:10383000013292B21A80CB788978952A41EA032125
:103840004FF47A73B1FBF3F303800C4801D8038083
:1038500008E004889C4205D9962A03D042F6F72452
:10386000A142F4D806490888984202D2962A88BF15
:103870000B8010BD640D00204E0D0020320D002085
:10388000300D0020064A138801331380CA788B78E4
:1038900043EA02230A22B3FBF2F3024A1380704781
:1038A000640D0020540D0020064A13880133138054
:1038B0004FF47A72D1F8023093FBF2F3024A1360AC
:1038C000704700BF640D0020580D002010B54FF464
:1038D0006164094A0948138801331380D1F8022032
:1038E000074B08491A600B680A60D31A93FBF4F37C
:1038F00004682344036010BD640D0020340D0020D3
:10390000380D0020440D002010B54FF47A74094A98
:103910000948138801331380D1F80220074B084966
:103920001A600B680A60D31A93FBF4F3046823440B
:10393000036010BD640D0020400D00203C0D0020F0
:10394000480D0020B0F52F4F07B528BF4FF42F408A
:103950000523B0F5965F38BF4FF49650ADF80030B0
:103960000023ADF802000120019300F01BFE0823A4
:103970006A4640F2163100F056FD03B05DF804FBD4
:1039800007B5164B00201A788DF801008DF800203D
:10399000C522ADF80220124A019011780131C9B256
:1039A000152994BF11701070127812B911221A7073
:1039B00003E0082A0DD00F2A0DD0012000F0F2FDFF
:1039C00008236A4640F2293100F02DFD03B05DF86E
:1039D00004FB8622EBE7D922E9E700BF670D002050
:1039E000660D002007B50022074B0120CDE900231A
:1039F00000F0D8FD08236A4640F2455100F013FD5F
:103A000003B05DF804FB00BF7E100018B0F5987F8E
:103A1000044B05D10A78452A0CBF012200221A70F6
:103A200018787047780D0020B0F5C97F21D10B6858
:103A3000154A23F07F431360144A93421AD002F5CB
:103A400098423D3293420BD0114A934211D1032246
:103A5000104B1A700822104B1A7078220F4B07E097
:103A600000220C4B1A7003220B4B1A70E1220B4BF5
:103A70001A7070470122074B1A700222064B1A7007
:103A8000D222064BF4E700BF6C0D00202D0480000D
:103A900074038000790D0020E8080020E908002068
:103AA00048F2612307B50120ADF8003000F07AFD3F
:103AB00002236A4640F2323100F0B5FC03B05DF8F3
:103AC00004FB000040F2EE23984207B538BF1846C9
:103AD0000A4B18600A4B8000009349F68013ADF83A
:103AE00004000120ADF8063000F05CFD08236A46B2
:103AF000AA2100F098FC03B05DF804FB740D0020CF
:103B00005F59FF0000282DE9F34114BF642104210F
:103B1000404F4FF00F0838783F4E00F5FC725318B5
:103B20001A46DBB203EB12238DF800304EF221036C
:103B3000ADF8023041F621738DF801000120ADF897
:103B400004308DF806808DF8071000F02BFD6A46D2
:103B5000A821082300F067FC304D337801208DF850
:103B600000302B782E4C8DF801304DF67973ADF87E
:103B700002302C4B019300F015FD08236A46A92161
:103B800000F051FC284B21781878ADF802804218DB
:103B900002F5E4731A468DF80000FF204FF000088C
:103BA000DBB203EB12238DF8010001208DF8053004
:103BB0008DF806108DF8048000F0F4FC07236A46A7
:103BC000BA2100F030FC1949194A0B7820780133EA
:103BD0000B703B78013001333B7033782070013338
:103BE00033702B7801332B7013780133DBB25C2BED
:103BF00013700BD1BE230B70E92333704D23137068
:103C0000802387F8008085F80080237002B0BDE82B
:103C1000F08100BF680D0020E5080020690D00203C
:103C2000E70800201DC7E021E8080020E408002084
:103C3000E6080020014B1878704700BF790D00207E
:103C400013B5114B114C1B7801208DF800300C235B
:103C50008DF801308F238DF8023023788DF80330F2
:103C6000F0238DF8043000F09DFC05236A464FF4E4
:103C7000E97100F0D8FB23781033DBB2ED2B08BFDD
:103C80000D23237002B010BDE9080020700D002044
:103C900038B505461A4C0721204601F04FFF204653
:103CA0000721184A01F0C8FF2A462046072101F0E3
:103CB000CCFF50222046072101F0D7FF20460721E4
:103CC00001F09FFF2046072101F07CFF20460022E3
:103CD000072101F06BFF20460022072101F05AFF67
:103CE00020464FF48052072101F048FF204607216B
:103CF00001F090FFBDE83840034802F083B900BFEF
:103D000000000240044400400044004000220849F2
:103D100010B513460C4611F8010B01320344622A18
:103D20009BB2F8D1B4F86200C31A5842584110BD92
:103D3000800D0020F8B57E4D2B78042B62D8DFE88B
:103D400003F0033C5F62A30006217A4801F0F6FE0F
:103D50000621794A774801F06FFF0621774A7548B6
:103D600001F073FF64220621724801F07EFF0621F4
:103D7000704801F03DFF06216E4801F023FF00224C
:103D800006216C4801F012FF00220621694801F06B
:103D900001FF00220621674801F0F0FE0621654878
:103DA00001F038FF664802F028F9664B99881868D8
:103DB00001F063FF2B78013323E0624B624C99885A
:103DC000186801F058FF23787BB90222072159486F
:103DD00001F0CAFE0028EDD002220721554801F06B
:103DE000BDFE5A48FFF754FFE4E75948FFF750FF7C
:103DF000524B5B78002BDDD02378013B2370D9E751
:103E000003232B70F8BDFFF781FF4C4C514E38B99E
:103E100000233370002384F8623084F86330C9E7EC
:103E200002220621434801F09FFE0028F0D0022222
:103E30000621404801F092FE01233370B4F852305D
:103E4000454A053B03EBD3735B10138094F82B209A
:103E500094F82A3043EA0223404A138094F857200A
:103E600094F8563043EA02233D4A1380E279A3795D
:103E700043EA02233B4A138094F82020E37F43EA7D
:103E80000223394A1380C5E7384E002848D13080D4
:103E90000024374F2920B6F900103C80FEF74CFB78
:103EA000314A304912880988284B0A44712112B2DC
:103EB00092FBF1F239781A70B7F90020880083F884
:103EC0004B00494290115242C9B2C2F307225971C4
:103ED0009A71D9721A733178727883F84C00997696
:103EE000DA7683F8201083F82120214622461846EE
:103EF00013F8014B013122444E2992B2F8D11D4BE7
:103F000080F84E201A80121280F84F201A4A138827
:103F1000642B8EBF002301339BB21380002370E714
:103F2000202802D02030B3D149423180B0E700BF11
:103F3000E40D00200000024004440040800D0020F9
:103F4000004400400C0C0020EA0800203B0900203F
:103F5000EB080020F20D0020E60D0020E80D002007
:103F6000EA0D0020EC0D0020EE0D00207C0D00205D
:103F70007A0D00207E0D0020F00D0020014B1878F6
:103F8000704700BFF20D00201429F0B539D80B2975
:103F90001D4D88BF05390C0105EB01118E7A4FF6D6
:103FA000FF72012E18BF0122CF6891F809C00021CD
:103FB0003B8813449BB28C451FD9012E37F8112042
:103FC00011D1824216DB101A4001D31A5B01400165
:103FD00090FBF3F02A19127A2C59504301FB02414D
:103FE000C0EB41100CE02EB9824203DC801A400184
:103FF0009B1AEBE713460131DDE72C446068400172
:10400000F0BD0020FCE700BFF06D0008B0F52F4FB9
:104010007FB528BF4FF42F400523B0F5965F38BF1A
:104020004FF496500022ADF80030204BADF802005E
:1040300018880192152888BF1A801A88A2F10800F2
:10404000062830D90F2A34BF1120D92001321A8016
:10405000C523ADF80A300023CDE90333144B8DF8A6
:10406000080001208DF80910059300F09BFA6A46BC
:10407000082340F2163100F0D6F9012000F092FA40
:10408000082340F229310DEB030200F0CCF90120A6
:1040900000F088FA082340F2455104AA00F0C3F961
:1040A00007B05DF804FB8620D0E700BFF40D0020C8
:1040B0007E10001830B5204A204B89B0CDE901238D
:1040C0001F49204B204CCDE90313204B204D059375
:1040D0000023ADF81930237808AA63F07F038DF828
:1040E00018302B680120134413F81C2C8DF81B206A
:1040F00013F8182C8DF81C2013F8142C8DF81D20A3
:1041000013F8102C13F80C3C8DF81E208DF81F307E
:1041100000F048FA08234FF4B06106AA00F083F9D2
:104120002B68013303F003032B602378013303F082
:104130000F03237009B030BD0F287F281E10001018
:104140007056F0560C48A748F60D0020469028906F
:10415000F80D00202DE9F047ADF5006D6D46002407
:1041600001F0D0FC2E46A846A146E7B23846FEF73D
:104170001DFAF0B9FF274FF6FF7A4FF0FF3905EB34
:10418000C406FF2C06F1080635D04FF0FF3006F8C4
:10419000067C06F8057C26F808AC46F8049C01F07D
:1041A000B9FC4FF0FF3001F0B5FC0134C5F8F80759
:1041B000E7E7FF2C06F108061DD03846FEF7EEF9BA
:1041C000824606F8069C3846FEF724FADAF81830DC
:1041D00006F8050C26F8083C3846FEF795F9074620
:1041E00046F8040C56F8080C01F094FC384601F02F
:1041F00091FC0134B9E74FF0FF33C5F8FC3701F00B
:1042000041FF0A4801F008FA084C094E204655F8CB
:10421000041B043401F050FFB442F7D101F03EFF1B
:10422000D8F8F8070DF5006DBDE8F08700F8010833
:104230000000020870B5144C01F064FC4FF4FF71EB
:10424000204601F06DFCD4F8F837834219D10025DF
:10425000EC0004F1006404F5FC342088FEF78EF9CC
:104260004828064608D0238833B16168FEF76CF908
:104270003046E178FEF7B8F90135FF2DE8D100208E
:1042800070BD4FF0FF30FBE700F80108014B1860EC
:10429000704700BF0C0E002030B50B4C235C93B967
:1042A0000A4B1D687DB10A4B0A490B4A18700B680E
:1042B00002F8330002EBC30255600122134403F0FD
:1042C000030322540B6030BD000E00200C0E0020B2
:1042D000100E0020FC0D00208C0900200023194640
:1042E000034A0133092B02F8011BFAD1704700BFC2
:1042F000000E0020014B1878704700BF100E002000
:10430000074B10B403EBC1021479064A53F831305D
:1043100052F82420014610BC0348FEF7F3BF00BF4B
:10432000D070000818710008E46F000838B5094C17
:10433000636823B9BDE838400748FEF7E3BF0025AE
:10434000606830B114F8081B0135FFF7D9FF042D60
:10435000F6D138BD8C090020F46F00087047C0F812
:10436000301570472DE9F04F00240B9E074634703E
:104370004FF0010904464FF6FF7AE51BB5F5E17FE2
:1043800029DCB4F800E0D64525D004F1020C6546DE
:1043900095F90580B8F1000F1BDDB5F800B08B452D
:1043A00011D10120C2F800E02A791A60099BB5F901
:1043B0000220C3F800800A9B1A60BDE8F08F00F568
:1043C000FA742746D9E70635A5EB0C08B8F12A0F91
:1043D000DEDD3234D1E7347886F80090002CEED060
:1043E0000020EAE70C220023514330B50B4C8BB080
:1043F000621895685268CDE9073305926258CDE995
:104400000133CDE903320122069500921946D0F816
:104410004C0500F0E7FE0BB030BD00BF2471000872
:10442000D0F8E8037047F7B504460F46D0F84C05BE
:10443000012115461E4600F0CBFF002339461A46DF
:10444000CDE90065D4F84C0500F0C7FF002812DA6A
:10445000D4F82C0513280EDC04EB0013C3F8F0632A
:1044600029680130C3F8F4136A68A3F8EC73C3F841
:10447000F823C4F82C05D4F82C35002B07DD0121D6
:10448000D4F84C0503B0BDE8F04000F09DBF03B088
:10449000F0BD2DE9F74F06464FF6FF7900F13205E2
:1044A00035F8323C2F464B4539D000234FF0010BF5
:1044B000CDE90033A5F1300AA5F12A0414F9013C35
:1044C000A046002B1EDD14F8060CFEF71DF834F98B
:1044D000043C14F8022C584314F9013C1F2A0BFA2F
:1044E00003F303F1FF3303EA60131BD9203A93402F
:1044F000019A13430193A8EB0A08B8F12A0F04F1BB
:104500000604DBDD35F8321C00236A463046BF1B4B
:10451000FFF789FFB7F5E17F05F13205C0DD03B094
:10452000BDE8F08F9340009A13430093E3E72DE931
:10453000F04F0446814600274FF6FF7A85B0CDE95B
:104540000201A4EB0903B3F5E17F22DC2388534584
:104550001FD004F1020B04F1080515F9013CA8462F
:10456000002B11DD15F8022C15F8060C019735F912
:10457000041C039E00912188A8EB0B08B047B8F1FA
:104580002A0F05F10605E8DD3234DAE7A1460127F6
:10459000D7E7029B03F5FA74002FF7D005B0BDE80A
:1045A000F08F00000128DABF024B53F820000020F2
:1045B000704700BF140E002013B50446D4F82C3504
:1045C000002B1ADD5A1E04EB031304EB021203F551
:1045D0007973B2F8EC13019392F8F033D4F84C05E8
:1045E000009300231A4600F0F8FE002805DBD4F8FB
:1045F0002C35013BC4F82C35E0E7D4F82C353BB919
:104600000121D4F84C0502B0BDE8104000F0E0BE36
:1046100002B010BDF0B51C4626880F467601B1B237
:104620000126106885B09B88029606400196E688B0
:10463000154662887601B6B25B0152019BB292B216
:10464000009600F0B1FE00233B602A6801322A6028
:10465000E380A3806380238005B0F0BD2DE9FF4196
:10466000002340F20162CDE90233ADF808200122B7
:1046700004460025D0F84C150092284A00F2345622
:1046800091421EBF264B1B68C3F305230193D4F848
:104690004825009BAA4212DD04AA02EB430236F829
:1046A000021B0133042B22F8081C009305D1694634
:1046B000204602AB01AAFFF7ADFF0135E7E74FF651
:1046C000FF7804F5FA7704F2262535F8322C2E46C9
:1046D0004245009B0BD1009B002B05DD694620461F
:1046E00002AB01AAFFF796FF04B0BDE8F08104A970
:1046F00001EB43010133042B21F8082C009305D171
:104700006946204602AB01AAFFF784FFF61BB6F507
:10471000E17F05F13205D8DDDDE700BF0064004030
:10472000006A0040D0F8482510B5092A0ADC00EBE1
:1047300042040132A4F83415C0F84825FFF78EFF73
:10474000012010BD0020FCE74FF6FF70002301F5AB
:10475000FA720880CB714B73CB744B76CB7781F8B0
:10476000253081F82B3081F8313032318A42F0D156
:10477000704710B504460146FFF7E6FF204604F5F2
:10478000FA71FFF7E1FF2046BDE81040FFF766BF72
:10479000002310B5CC5AC818944204D03233B3F574
:1047A000FA7FF7D1002010BD2DE9F843B3F5006F73
:1047B0008146DDE908760C461546984632DA3F2FE9
:1047C00033DC202E34DC1A46FFF7E2FF38B94FF60F
:1047D000FF724846FFF7DCFF68B3A0F800800230A4
:1047E00090F90530002B01DD0630F9E7013325D0C3
:1047F000BDF9283005804380077146714FF6FF717F
:10480000002004F1320333F8325C1A468D4207D09F
:10481000121BB2F5E17F00F1010003F13203F2DD7A
:10482000BDE8F8834FF0FF30FAE76FF00100F7E7DB
:104830006FF00200F4E76FF00300F1E76FF004009F
:10484000EEE71FB5BDF91C400294069CCDE900348B
:1048500013460A460146FFF7A7FF04B010BD30B566
:1048600085B0BDF9245004460295089DCDE9003578
:1048700013460A4600F5FA71FFF796FF05462046F3
:10488000FFF7ECFE284605B030BDF7B5B1F8016082
:104890000746B6F5005F0C461CD1C878462841D8BB
:1048A0000B78402B0FD14968FDF716FE60BB232320
:1048B00023700823224640F28151384603B0BDE8F8
:1048C000F040FFF7B0BD222BF3D1FDF71DFE4323CF
:1048D0006060EDE7A6F54053B3F5C05F22D2C9781A
:1048E00046291FD82378402BE3D16568C6F30A0216
:1048F000C5F3072CEBB22D14CDE900C575040ED518
:10490000FFF7ADFF0028D2DA802323703023237114
:10491000002363710923A3710623E371C9E7FFF73D
:1049200090FFEFE78023237000232371637102233C
:10493000F1E72DE9F04705460E464FF001088AB031
:10494000002305930DF11A0303930DF11B0302934A
:104950000DF1190308AC019306AB00930122D5F8C1
:104960004C05049407ABF1B200F0AEFD002854D022
:1049700040F20163079A9A4208D19DF81A30082B39
:1049800004D121462846FFF780FFD9E7284605F5E0
:10499000FA71FFF7FDFE002839D000F1020900F19D
:1049A000080A1AF9011C5746002904DC01F05EF8D8
:1049B000C5F8E803C4E71AF8024C08FA01F11F2C05
:1049C00093BF089B099A203C23FA04F401F1FF31BC
:1049D00088BF22FA04F40C403AF9041C1AF8060CB9
:1049E00064014C43FDF7E2FD641121463AF8063CB0
:1049F00048B1D8B2FDF770FDA7EB09072A2F0AF1DD
:104A0000060ACEDDD2E7D8B2FDF79EFDF4E72146D7
:104A10001046D5F83035984792E70AB0BDE8F087E0
:104A20002DE9F04100240F46164698462546444598
:104A30000CDA56F8240001F06DF856F824100546FB
:104A400007EB840001F038FB0134F0E72846BDE8AD
:104A5000F08100202DE9F04F054685B0009201F16C
:104A6000320403934FF6FF7334F8328C0194984567
:104A700039D0A4F130030293322300274FF0010C08
:104A800003FB05FE009B03EB0E0AA4F12A0313F9B6
:104A9000019C1A46B9F1000F18DD33F8069C039EFD
:104AA000B14523D006269C4606FB07A95CF806BD47
:104AB0000137C9F802B0BCF804C0A9F806C04FF02D
:104AC000000C029E0633961B2A2EE0DDBCF1000F7F
:104AD00003D1009B013523F80E80019B32345B1A11
:104AE000B3F5E17FBEDD05B0BDE8F08F0130E8E74A
:104AF000F0B5044616460D46FFB001A9FFF724FEA7
:104B00003346294601AA2046FFF7A3FF0746204661
:104B1000FFF71AFE33462A46204601A9FFF799FF00
:104B200038467FB0F0BD70B50A460D4601460446D2
:104B3000FFF7DEFF2A46064604F5FA712046FFF726
:104B4000D7FF304470BD2DE9F0470E464FF6FF7990
:104B500001F1320434F8323C27464B451CD0A4F115
:104B6000300AA4F12A0515F9013CA846002B0DDDF9
:104B700015F8060CFDF712FDA8EB0A088369B8F1D9
:104B80002A0F25F8063C05F10605ECDDBF1BB7F53D
:104B9000E17F04F13204DDDDBDE8F0872DE9F04767
:104BA0000E464FF6FF7901F1320434F8323C2746C5
:104BB0004B451BD0A4F1300AA4F12A0515F9013C9C
:104BC000A846002B0CDD35F8060CFDF7D7FCA8EB4A
:104BD0000A08B8F12A0F25F8060C05F10605EDDDE7
:104BE000BF1BB7F5E17F04F13204DEDDBDE8F087DD
:104BF00073B50446194E00F085FF01F043FA022018
:104C000001F036FA304600F007FD04F5FA7521464A
:104C10002046FFF798FF29462046FFF794FF2246DB
:104C200031467D232046FFF7FBFE2A467D232046A2
:104C30000B49FFF7F5FE012301AA0A49019020461E
:104C4000FFF7EEFE01F02AFA21462046FFF7A6FF05
:104C500029462046FFF7A2FF02B070BD00F0010810
:104C6000F4F10108E8F3010838B5114B04461D685A
:104C700000F048FFFA210F4800F052FF854215D19D
:104C80007D2220460B4904F5FA75FEF783F97D2253
:104C900028460949FEF77EF921462046FFF77EFFA8
:104CA00020462946FFF77AFF012038BD0020FCE7A7
:104CB000E8F3010800F00108F4F10108F8B5002557
:104CC00004460E46424BC0F84C15C0F83035C0F8CB
:104CD000E853C0F82C55C0F848551746FFF749FD72
:104CE0002046FFF7C1FF3B4B9E421AD003F580637D
:104CF0009E4241D0D4F84C0500F068FA394620466F
:104D0000FFF770FB2046FFF7A9FCD4F84C05022101
:104D100000F05AFBD4F84C05102100F055FB20465A
:104D2000F8BD4FF40063022229462B4800F0B0FC86
:104D30004FF40061284800F09EFF4FF48053022298
:104D40000321254800F0A4FC142001F015FAF021FD
:104D5000142001F01FFA152001F00EFAF0211520A1
:104D600001F018FA132001F007FAF021132001F0E6
:104D700011FA1A4B1C60BDE74FF4805302222946FA
:104D8000174800F085FC4FF48051154800F073FF80
:104D90004FF4005302220321114800F079FC402017
:104DA00001F0EAF9F021402001F0F4F9412001F08E
:104DB000E3F9F021412001F0EDF93F2001F0DCF9A9
:104DC000F0213F2001F0E6F9044B5C6092E700BF60
:104DD0005D4300080064004000080140140E0020FC
:104DE000000C0140024B00211868FFF7A2BD00BF74
:104DF000140E0020024B01211868FFF79ABD00BF76
:104E0000140E0020014B1868FFF7D6BB140E0020CB
:104E1000024B00215868FFF78CBD00BF140E002024
:104E2000024B01215868FFF784BD00BF140E00201B
:104E3000014B5868FFF7C0BB140E0020074B28B980
:104E400018802920B3F90010FDF776BB202802D086
:104E50002030F6D149421980F3E700BF1E0E002032
:104E6000034A1378013303F003031370704700BF44
:104E7000280E002003B20920203B03EB830313F527
:104E8000916F93FBF0F004DBB3F5906F04DA40B25E
:104E900070476FF07F0070477F207047B0F5ED7F5F
:104EA00008B51BD14B780A789B1143EA8203134A59
:104EB00013800A794B7943EA022347F6FF721BB24B
:104EC000934208BF00230E4A13808B7913F0B00F72
:104ED00014BF012200220B4B1A8008BD40F25A5326
:104EE0009842FAD18878FFF7C5FF074B18804878B9
:104EF000FFF7C0FF054B1880EFE700BF240E00202E
:104F0000220E0020200E0020260E00201C0E002065
:104F10000023F0B50126C371441EC51D072214F8F5
:104F2000017F06FA02FE1EEA070F14BF4FF0010EC2
:104F30004FF0000E4FFA83FC0EEB4303BCF1000F61
:104F4000DBB2B8BF4B40013AEBD2A542E6D1C37108
:104F5000F0BD000007B5444B444A0093C023ADF8B0
:104F60000430137885218DF806300133DBB2032B32
:104F700088BF002368461370FFF7CAFF0020FFF7C1
:104F800011FB08236A464FF48D71FFF74CFA40F28B
:104F9000F773374AADF80030364BB2F90010B3F969
:104FA0000030994218BF138003F5006292B2B2F547
:104FB000805F55D21A12C3F3061122F07F020A4312
:104FC0001B018DF802208DF803302B4A68461378B8
:104FD00099010133DBB2032B88BF002313704423F4
:104FE0008DF80530302341F007018DF8041085213C
:104FF0008DF80630FFF78CFF0020FFF7D3FA6A46E2
:1050000008234FF4EA71FFF70EFA00221B49002033
:105010000B7800928DF806300133DBB2032B94BF7E
:105020000B700A70ADF804208DF80720FFF7BAFA6C
:105030006A4640F2DB110823FFF7F5F90020104B18
:10504000ADF8040000938DF80600FFF7ABFA0723D4
:105050006A4640F20B51FFF7E6F903B05DF804FB36
:105060000023ADF80230B0E74E4000AA2B0E00201E
:105070002C0E00201E0E0020290E00202A0E0020DB
:10508000000006C08368DB075EBF836843F001034E
:10509000836070478368DB0742BF836843F0010386
:1050A00083607047836800F1080243F0080383605F
:1050B00013681B07FCD47047836843F004038360C4
:1050C00070478068C0F38000704708B50246FFF75C
:1050D000F3FF1046FFF7F5FF0028FAD108BD0022C4
:1050E000134610B501FA02F403321E2A43EA040300
:1050F000F8D10022036101FA02F40332182A43EACC
:105100000403F8D1C36010BD836823F001038360FA
:105110007047436843F4807343607047836823F4A7
:10512000006383607047836843F0020383607047C5
:105130001029F0B50CD8002501232F462E46DCB2ED
:10514000A14206D2013946EA0156C66207634563A9
:10515000F0BD062C0BD802EB030C1CF801CC03EBC2
:10516000830EAEF1050E0CFA0EFC45EA0C05A4F117
:10517000070CBCF1050F0BD802EB030C1CF801CC9B
:1051800003EB830EAEF1230E0CFA0EFC47EA0C077C
:105190000D3C052C09D8D41814F8014C03EB830CF2
:1051A000ACF1410C04FA0CF426430133C7E78368E1
:1051B00000F1080243F48003836013685B02FCD4AF
:1051C0007047836843F4807383607047044B984250
:1051D0000CBF40F2192040F21A2000F037BF00BF88
:1051E000006400402DE9F34104689DF8208024F01C
:1051F0000204046004689DF824E044F001040460A3
:105200004FF6FF749DF828C09DF83C609DF84070F3
:105210000194019C051D013C019414B14468E4070C
:10522000F7D52C68E40770D50024C461002951D05B
:10523000016841F080010160002A4FD0026842F00D
:1052400040020260002B4DD0036843F0200303604E
:105250000368B8F1000F49D043F0100303600368FE
:10526000BEF1000F45D043F0080303600368BCF1B2
:10527000000F41D043F004030360C369002F3ED008
:1052800043F00043C361C369002E3BD043F0804329
:10529000C3610E9B0D99013BC3F309030B430C99AA
:1052A000C2690B430B990B431343C361036823F09B
:1052B000010303604FF6FF730193019B013B0193D0
:1052C00013B12B68DB07F8D4286800F0010002B0A6
:1052D000BDE8F081016821F08001ACE7026822F0AE
:1052E0004002AEE7036823F02003B0E723F0100389
:1052F000B4E723F00803B8E723F00403BCE723F086
:105300000043BFE723F08043C2E70120DFE700004E
:10531000F0B501241F4E844035689DF81C7045F09F
:1053200001053560E6431C4DD5F800C00CEA060CBB
:10533000C5F800C0DFF86CC009B3DCF800102143E9
:10534000CCF800101549F2B10A68224300F1006060
:1053500000F6C8400A60C0000360069A059B4360DF
:105360000F4B9AB11A6822431A6017B12B681C437D
:105370002C60084A136823F001031360F0BDDCF8C9
:1053800000103140DCE70A683240DFE71A68164057
:105390001E60EAE7006600401C66004004660040AC
:1053A000146600400C66004030B4BDF808409DF81B
:1053B000105044EA03430293049542EA014330BC8F
:1053C00001220021FFF7A4BF4369194341617047DF
:1053D000436923EA0101416170472DE9F0418046AC
:1053E00080689DF818E04601079D2AD4D8F8080087
:1053F00004012AD4D8F80800C00050D54FF4D07664
:10540000022006EB080422B3C90041F0040146F86B
:1054100008101BB1236843F002032360636823F084
:105420000F03636062680EF00F03134363600EF1B5
:10543000FF33072B2AD8DFE803F02623201B18159B
:10544000120E4FF4C0760020DBE74FF4C87601203F
:10545000D7E74905DBE70027EB7963F31F67AB79F3
:1054600063F317476B7963F30F272B7963F3070710
:105470004FF0000CEB7863F31F6CAB7863F3174CC1
:105480006B7863F30F2C2B7863F3070CC4F808C018
:10549000E760236843F001032360BDE8F0814FF02B
:1054A000FF30FAE721B9C36843F02003C3607047B7
:1054B000036943F020030361704719B9C06800F025
:1054C000030070470069FAE72DE9F3470546DDE977
:1054D0000AA80E469946DDE90E43FFF7EEFF4FF4AA
:1054E000E07107464FF4D870CDE9000102A901EB45
:1054F000860151F8081C55F801C068181CF0040C0E
:1055000015BF4FF0010C8AF800C08AF800C055F8AA
:1055100001C016BF55F801C04FEA5C5C4FEADC0CD5
:10552000C9F800C0695811F0020118BF012188F8BC
:10553000001041684FEA112C0C9981F800C04168B5
:1055400001F00F0C0D9981F800C013B14168090CEE
:1055500019808168C368C1F3072021706070C1F3AE
:105560000740C1F30761E170C3F307212371617143
:10557000C3F30741C3F30763A070A171E3711AB1CC
:1055800031462846FFF78EFF384602B0BDE8F08767
:10559000064B1868064B1B88B3F5007F82BF054B8E
:1055A0001B68184300F03500704700BF0C20024014
:1055B000E0F7FF1F4C20024038B504460D4600F0CE
:1055C00075FD114B1B88B3F5007F18D90F4B9C421A
:1055D00015D90F4A136843F001031360258000F0CA
:1055E00065FD094B1B88B3F5007F0AD9074B9C4228
:1055F00007D9074A136823F00103136038BD054A31
:10560000E8E7044AF6E700BFE0F7FF1FFFFF0708DF
:10561000502002401020024010B5044600F046FD24
:10562000154B1B88B3F5007F1DD9144B9C421AD92A
:10563000134B1A6842F002021A60124A14601A6888
:1056400042F040021A6000F031FD0B4B1B88B3F5AD
:10565000007F0FD9094B9C420CD9094A136823F0EB
:105660000203136010BD084B1A6842F002021A6070
:10567000064AE3E7044AF1E7E0F7FF1FFFFF0708E8
:1056800050200240542002401020024014200240CA
:105690002DE9F04300264FF00F0E43F6F8789C46B4
:1056A000036847684CFA06F4E4071BD5072E94BF3D
:1056B0009946B946B4B28BBF4444A400A400A4B236
:1056C00088BFA4B20EFA04F529EA0509A51C02FA5E
:1056D00005F501FA04F42C4344EA0904082E2CBF12
:1056E000274623460136102EDCD103604760BDE813
:1056F000F0830000034A136823F0E0631943014379
:105700001160704704000140024A136843F080733F
:105710001360704700100240062822D8DFE800F02E
:1057200004090E13181D1F000F4B1868C0F34060CA
:1057300070470D4B1868C0F3C06070470A4B18687B
:10574000C0F340707047084B1868C0F34040704782
:10575000054B1868C0F340007047044BF9E7044B51
:10576000F7E70020704700BF001002402010024001
:1057700024100240024608B51046FFF7CDFF00286E
:10578000FAD008BD06280CD8DFE800F004060C119A
:10579000161B1D00FFF7B8BF0C4A136843F0806367
:1057A00013607047094A136843F08053F8E7074ACB
:1057B000136843F48033F3E7044A136843F00103AA
:1057C000EEE7034AF9E7034AF7E700BF001002409B
:1057D0002010024024100240034A136823F0030300
:1057E00018431060704700BF04100240034A13685A
:1057F00023F4701343EA80401060704704100240A5
:10580000034A136823F4803343EA00401060704772
:1058100004100240034A136823F4003343EA404073
:105820001060704704100240024B186800F40040FA
:10583000704700BF20100240024A136843F400433F
:10584000136070472010024006283DD8DFE800F0C2
:1058500037373726370415001C4B1A6842F001020F
:105860001A601A689007FCD51A6822F440721A6010
:105870001A6842F480721A607047154B1A6842F039
:1058800001021A601A689107FCD5104B1A6822F4BD
:1058900040721A601A6842F40072ECE70D4B1A6805
:1058A00042F480321A601A689203FCD5074B1A68DA
:1058B00022F440721A601A6842F44072DBE7034A2D
:1058C000136823F440731360704700BF2010024038
:1058D0002410024000100240034A136823F440439E
:1058E00043EA80301060704704100240034A136896
:1058F00023F4605343EAC020106070470410024054
:10590000034A136823F4E06343EA00201060704701
:1059100004100240034A136823F0F00343EA001026
:10592000106070470410024008B50420FFF72AFFFA
:105930000420FFF71FFF0020FFF74EFF0320FFF7B3
:1059400021FF0320FFF716FF0120FFF745FF00208E
:10595000FFF7E0FF0320FFF7BFFF0420FFF7D0FFB2
:105960000020FFF7C3FF022000F082FB0720FFF7B3
:105970003DFF0120FFF744FF0020FFF74BFFFFF73B
:10598000C3FE0020FFF7F6FE0220FFF725FF044BC1
:10599000044A05491360054A1160054A136008BDB1
:1059A00000A24A04B009002000512502B4090020D9
:1059B000B8090020044B1A689206FCD51A6842F018
:1059C00010021A60704700BF04280040044B1A6898
:1059D00022F010021A601A689206FCD5704700BFC8
:1059E0000428004038B5044600254FF4677000F0E5
:1059F00020FB40F29B3000F01CFB00F055F92046E4
:105A0000FFF722FF0D4C0E4B1D602560FFF714FFC2
:105A1000FFF7D0FF0B4B0C4A1D605D601D615D619F
:105A20004FF6FF7313605360FFF7D0FF236823F036
:105A30000803236023681B07FCD538BD04280040F9
:105A400000280040082800402028004008B5FFF743
:105A5000B1FF054B82B2C0F303401A6043F8040C57
:105A6000BDE80840FFF7B2BF0C280040034B1868A0
:105A700004331B6843EA0040704700BF1828004009
:105A800008B5FFF797FF044B020C80B21A6058600C
:105A9000BDE80840FFF79ABF1828004008B54FF44A
:105AA000677000F0C6FA40F29B3000F0C2FA00F0D6
:105AB000FBF8064B1A6822F008021A601A681107F0
:105AC000FCD51A689206FCD508BD00BF042800402A
:105AD00038B505464FF467700C4600F0AAFA40F25C
:105AE0009B3000F0A6FAFFF79FFE18B1BDE83840E2
:105AF000FFF7D4BF2846FFF775FF2046BDE83840C2
:105B0000FFF7A4BF024A136843F001031360704714
:105B100008300240014B186018687047003002409E
:105B2000002310B5044A8B4201DB106810BD50F809
:105B3000234001331460F6E70030024014230022B2
:105B4000013903FB01039A60DA601A615A618B0024
:105B50000F21426899401143416070470139890023
:105B600002FA01F14160704701390368890002FAC5
:105B700001F1194214BF012000207047142301399C
:105B8000594308300B5823F440530B500B581A4319
:105B90000A50704714230139594308300B5823F435
:105BA00040630B500B581A430A50704714230139B5
:105BB000594308300B5823F440730B500B581A43C9
:105BC0000A50704714230139594308300B5843F0E9
:105BD00080030B50704714230139594308300B5888
:105BE00043F020030B500B5823F480430B507047B5
:105BF00014230139594308300B5823F010030B507C
:105C0000704714230139594308300B5843F01003EF
:105C10000B50704714230139594308300B5843F097
:105C200001030B50704714230139594308300B58B6
:105C300023F001030B5070471423013903FB0100CB
:105C40008368DB0758BF026170471423013903FBE7
:105C500001008368DB0758BF426170471423013994
:105C600059430C30085880B2704714230139594306
:105C70000C300A5070470161704709040161704798
:105C8000806808407047C36801EA030221EA030103
:105C900041EA0241016170474AF6AA22014B1A60AB
:105CA000704700BF00300040024A136843F480731D
:105CB0001360704700700040C3681943C1607047AB
:105CC00003690B4214BF012000207047C9430161E2
:105CD000704710B50468134324F45C740B432343EA
:105CE000036010BD036843F08003036070470368DE
:105CF00023F0100303607047036823F00803036078
:105D00007047036843F0010303607047036823F0A2
:105D100001030360704781627047C16270470629C2
:105D20007AD8DFE801F004793379637992008369E6
:105D300023F00303836183698361836923F0700324
:105D40008361072A68D8DFE802F03304090D1115D2
:105D5000191D836943F0100383617047836943F021
:105D60002003F9E7836943F03003F5E7836943F0E3
:105D70004003F1E7836943F05003EDE7836943F0A3
:105D80006003E9E7836943F07003E5E7836923F47F
:105D90004073836183698361836923F4E043836192
:105DA000072A39D8DFE802F004060A0E12161A1E76
:105DB0008369D1E7836943F48053CDE7836943F472
:105DC0000053C9E7836943F44053C5E7836943F44B
:105DD0008043C1E7836943F4A043BDE7836943F48B
:105DE000C043B9E7836943F4E043B5E7C36923F0EF
:105DF0000303C361C369C361C36923F07003C36153
:105E0000072A09D8DFE802F03304090D1115191D1E
:105E1000C36943F01003C3617047C36943F02003B3
:105E2000F9E7C36943F03003F5E7C36943F0400382
:105E3000F1E7C36943F05003EDE7C36943F0600342
:105E4000E9E7C36943F07003E5E7C36923F44073EE
:105E5000C361C369C361C36923F4E043C361072A13
:105E6000DAD8DFE802F004060A0E12161A1EC36919
:105E7000D1E7C36943F48053CDE7C36943F40053CA
:105E8000C9E7C36943F44053C5E7C36943F480439A
:105E9000C1E7C36943F4A043BDE7C36943F4C0430A
:105EA000B9E7C36943F4E043B5E7062909D8DFE859
:105EB00001F0041509190D1D1100036A43F00103D7
:105EC00003627047036A43F01003F9E7036A43F47F
:105ED0008073F5E7036A43F48053F1E7036A43F004
:105EE0000403EDE7036A43F04003E9E7036A43F480
:105EF0008063E5E7062909D8DFE801F004150919F0
:105F00000D1D1100036A23F0010303627047036A49
:105F100023F01003F9E7036A23F48073F5E7036ABB
:105F200023F48053F1E7036A23F00403EDE7036AE7
:105F300023F04003E9E7036A23F48063E5E70629D9
:105F40000CD8DFE801F0040B060B080B0A004263D3
:105F5000704782637047C263704702647047436C46
:105F600043F4004343647047406A7047416270479E
:105F7000064A074B90421B6804BF064B1B6803EBA5
:105F80005103B3FBF1F18160704700BF003801405D
:105F9000B4090020B8090020C36808290CBF23F405
:105FA000805343F48053C3607047036923F4405324
:105FB000194301617047C36823F4C0631943C1608A
:105FC0007047C36823F00C031943C16070474369ED
:105FD00023F44073194341617047C36843F400538D
:105FE000C360704738B504460D4600F018F82946DE
:105FF0002046BDE8384000F00AB8436943F040034A
:1060000043617047436943F0800343617047C1F3C4
:106010000801416070474068C0F30800704703689A
:106020001B06FCD5704703680B4214BF01200020FB
:106030007047430900F01F02012003F1804303F57C
:1060400004331968904008431860704700F01F023D
:106050004309012003F1804303F50433196890409C
:10606000014319601A6822EA0000186070470000B6
:10607000034A136823F0070318431060704700BFFA
:1060800000200240034B044A1A6002F188321A6071
:10609000704700BF0420024023016745024A13688D
:1060A00043F08003136070471020024008B5FFF7EB
:1060B0006FFAC307FBD408BD38B505460C4689B254
:1060C000FFF77AFA210CA81CBDE83840FFF774BA34
:1060D000FEE77047002238B51849194C1948531883
:1060E000834217D30021184A934217D3174A184CFA
:1060F0001368184D43F400731360AC4211D3164C6F
:10610000164DAC4211D3FBF715FE154C154DAC42A4
:106110000FD338BD135953500432E0E719600433EC
:10612000E2E754F8043B9847E7E754F8043B984704
:10613000E7E754F8043B9847E9E700BF0000002078
:106140005C710008BC090020300E002014ED00E056
:106150005471000854710008547100085C71000803
:106160005C7100085C710008014B024A1A60FEE78E
:106170000CED00E00400FA05012243099B0003F145
:10618000604300F01F0003F5614302FA00F018605D
:1061900070470000432893BF00F16040044B00F0BB
:1061A0000F0000F564408CBFC1540170704700BF00
:1061B00014ED00E00002040656656869636C652012
:1061C0004D6F64756C6500496E766572746572001A
:1061D000303D4C6561665F47656E312C20313D472F
:1061E00053343530482C20323D5573657243414E4F
:1061F0002C20333D5A6F6D6269650056656869638E
:106200006C6500303D424D575F4534362C20313DA2
:10621000424D575F4536352C20323D557365722C03
:1062200020333D4E6F6E65202C20353D424D575F2B
:10623000453339202C20363D564147005468726F53
:1062400074746C6500706F746D696E0064696700CA
:10625000706F746D617800706F74326D696E00706C
:106260006F74326D617800706F746D6F64650030AB
:106270003D53696E676C65526567656E2C20313DD4
:106280004475616C4368616E6E656C2C20323D43D1
:10629000414E006469726D6F646500303D427574F3
:1062A000746F6E2C20313D5377697463682C2032F3
:1062B0003D427574746F6E52657665727365642CB9
:1062C00020333D53776974636852657665727365F0
:1062D000642C20343D44656661756C74466F72773A
:1062E000617264007468726F7472616D7000252F42
:1062F00031306D73007468726F7472616D7072709A
:106300006D007265766C696D0062726B6F757400FA
:106310002500626D736C696D6869676800626D73F2
:106320006C696D6C6F77007564636D696E00560003
:106330007564636C696D006964636D61780069649C
:10634000636D696E00746D7068736D617800C2B0C2
:106350004300746D706D6D6178007468726F746D58
:106360006178007468726F746D696E004765617260
:10637000626F7820436F6E74726F6C0047454152B4
:1063800000303D4C4F572C20313D484947482C2088
:10639000323D4155544F004F696C50756D7000434C
:1063A000727569736520436F6E74726F6C006372EF
:1063B000756973657374657000637275697365726E
:1063C000616D700072706D2F3130306D73007265C9
:1063D00067656E6C6576656C00436F6E746163749F
:1063E0006F7220436F6E74726F6C007564637377A5
:1063F000006372756973656C6967687400303D4F3E
:1064000066662C20313D4F6E2C20323D6E6100655A
:1064100072726C696768747300303D4F66662C2039
:10642000343D4550432C20383D656E67696E6500EC
:10643000436F6D6D756E69636174696F6E00636142
:106440006E737065656400303D3235306B2C2031E1
:106450003D3530306B2C20323D3830306B2C2033C2
:106460003D314D0063616E706572696F6400303D4F
:106470003130306D732C20313D31306D73007665D5
:106480007273696F6E00343D312E30302E410068DA
:106490007776657200303D526576312C20313D5261
:1064A0006576322C20323D526576332C20333D54B4
:1064B00065736C61006F706D6F646500303D4F6691
:1064C000662C20313D52756E2C20323D5072656332
:1064D00068617267652C20333D5063684661696C62
:1064E000006C61737465727200737461747573000B
:1064F000303D4E6F6E652C20313D5564634C6F7797
:106500002C20323D556463486967682C20343D5522
:10651000646342656C6F7755646353772C20383D14
:106520005564634C696D2C2031363D456D6379535C
:10653000746F702C2033323D4D50726F742C2036A6
:10654000343D506F74507265737365642C20313222
:10655000383D546D7048732C203235363D57616993
:106560007453746172740075646300706F77657240
:10657000006B570069646300746F72717565007019
:106580006F7400706F743200706F746272616B654B
:10659000006272616B65707265737375726500700D
:1065A0006F746E6F6D00646972002D313D526576B7
:1065B000657273652C20303D4E65757472616C2C6C
:1065C00020313D466F727761726400696E760076A5
:1065D000656800746D70687300746D706D00746D23
:1065E0007061757800756175780063616E696F0020
:1065F000313D4372756973652C20323D537461726D
:10660000742C20343D4272616B652C20383D4677F6
:10661000642C2031363D5265762C2033323D426D5C
:106620007300637275697365737065656400637286
:106630007569736573747400303D4E6F6E652C2000
:10664000313D4F6E2C20323D44697361626C652C84
:1066500020343D5365744E2C20383D5365745000F2
:1066600064696E5F6372756973650064696E5F73F8
:10667000746172740064696E5F6272616B6500645C
:10668000696E5F666F72776172640064696E5F72D3
:106690006576657273650064696E5F626D7300682C
:1066A000616E6462726B00476561723100476561BB
:1066B000723200476561723300543135537461742E
:1066C00000496E76537461740047656172464200FA
:1066D0006370756C6F616400556E6B6E6F776E20C2
:1066E000636F6D6D616E642073657175656E636552
:1066F0000D0A002558255825580D0A00416C6C20BC
:106700006D65737361676520646566696E69746938
:106710006F6E7320636C65617265640D0A004D696C
:106720007373696E6720617267756D656E740D0AAB
:1067300000556E6B6E6F776E20706172616D65745F
:1067400065720D0A00256420656E74726965732098
:1067500072656D6F7665640D0A00496E76616C69CD
:10676000642043414E2049642025780D0A00496E7B
:1067700076616C6964204F66667365742025640DCC
:106780000A00496E76616C6964206C656E67746896
:106790002025640D0A0043616E6E6F74206D617078
:1067A00020616E796D6F7265206974656D732074F8
:1067B0006F2043414E2069642025640D0A004D611D
:1067C00078206D65737361676520636F756E7420E3
:1067D000726561636865640D0A0043414E206D6116
:1067E00070207375636365737366756C2C20256404
:1067F000206D6573736167652573206163746976C5
:10680000650D0A0063616E200072782000747820A4
:106810000025732025642025642025642025640D2F
:106820000A00417661696C61626C65207061726119
:106830006D657465727320616E642076616C756538
:10684000730D0A002573205B25735D0D0A00257307
:10685000090925660D0A00556E6B6E6F776E207004
:106860006172616D657465723A20272573270D0A80
:1068700000747275650066616C7365007B0025634A
:106880000D0A202020222573223A207B22756E6972
:1068900074223A222573222C2276616C7565223A85
:1068A00025662C002263616E6964223A25642C22DD
:1068B00063616E6F6666736574223A25642C226389
:1068C000616E6C656E677468223A25642C22636180
:1068D0006E6761696E223A25642C22697372782290
:1068E0003A25732C00226973706172616D223A74CB
:1068F0007275652C226D696E696D756D223A25661B
:106900002C226D6178696D756D223A25662C2264A2
:10691000656661756C74223A25662C226361746524
:10692000676F7279223A222573227D002269737083
:106930006172616D223A66616C73657D000D0A7D3E
:106940000D0A00506172616D657465722061747426
:10695000726962757465730D0A004E616D6509098F
:106960006D696E202D206D6178205B6465666175B0
:106970006C745D0D0A00257309092566202D2025FC
:1069800066205B25665D0D0A00506172616D65745D
:106990006572732073746F7265642C204352433D9B
:1069A00025780D0A0043414E4D41502073746F729B
:1069B00065640D0A0044656661756C7473206C6FC4
:1069C000616465640D0A0055736167653A207374EC
:1069D0007265616D206E2076616C312C76616C324F
:1069E0002E2E2E0D0A0025732566004E6F20666C34
:1069F000616720676976656E0D0A00686964646581
:106A00006E00556E6B6E6F776E20666C61670D0A57
:106A100000466C6167206368616E6765204F4B0DAF
:106A20000A00556E6B6E6F776E20706172616D65D6
:106A30007465722025730D0A004E6F2070617261BB
:106A40006D657465722076616C7565206769766521
:106A50006E0D0A00536574204F4B0D0A0056616C91
:106A60007565206F7574206F662072616E67650DA5
:106A70000A00506172616D6574657273206C6F619C
:106A80006465640D0A00506172616D657465722001
:106A9000435243206572726F720D0A00676574007D
:106AA000666C61670073747265616D006465666130
:106AB000756C747300616C6C006C69737400617444
:106AC0007200736176650068656C70006A736F6E42
:106AD0000063616E0073657269616C006572726F4C
