:020000040800F2
:1010000000500020A16000089F6000089D6000085B
:101010009D6000089D6000089D60000800000000C1
:101020000000000000000000000000009F600008B9
:101030009F600008000000009F6000089F6000089B
:101040009D6000089D6000089D6000089D6000088C
:101050009D6000089D6000089D6000089D6000087C
:101060009D6000089D6000089D6000089D6000086C
:101070009D6000089D6000089D6000089D6000085C
:101080009D6000089D6000089D600008D14D00082B
:10109000B14D0008C14D00089D6000089D6000082A
:1010A0009D6000089D6000089D6000089D6000082C
:1010B0009D600008251D00089D6000089D600008D7
:1010C0009D6000089D6000089D6000089D6000080C
:1010D0009D6000089D6000089D6000089D600008FC
:1010E0009D6000089D6000089D6000089D600008EC
:1010F0009D6000089D6000089D6000089D600008DC
:101100009D6000089D6000089D6000089D600008CB
:101110009D6000089D6000089D6000089D600008BB
:101120009D6000089D6000089D6000089D600008AB
:101130009D6000089D6000089D600008FD4D00084E
:10114000DD4D0008ED4D00089D6000089D60000821
:10115000F8B5222001F0DAF9C5B21C2001F0DEF961
:10116000012D194E194C03D133780BB90A23236092
:101170002368174F002B0DDD013B80F00101236038
:10118000C9B21C2001F0D4F91A2001F0BFF9357062
:101190003860F8BD372001F0B9F9002801DD0121E0
:1011A000EFE700211C2001F0C3F9012DECD11A203A
:1011B00001F0ACF93B689842E6D01A2001F0A6F99C
:1011C000013040002060DFE7E8090020E40900204A
:1011D000E009002010B50446222001F097F901280B
:1011E00004D12046BDE8104003F06CB810BD0000EB
:1011F0006FF4A463C31870B505460C46072B55D889
:10120000DFE803F0040E18222C36404A04F014FCE8
:101210002146BDE87040024640F2215002F05EBA1D
:1012200004F00AFC2146BDE87040024640F222501C
:1012300002F066BA04F000FC2146BDE870400246A8
:1012400040F2235002F0A6BA04F0F6FB2146BDE8B6
:101250007040024640F2245002F0D0BA04F0ECFB99
:101260002146BDE87040024640F2255002F0F2BA35
:1012700004F0E2FB2146BDE87040024640F22650F1
:1012800002F0FABA04F0D8FB2146BDE870400246ED
:1012900040F2275002F002BB04F0CEFB2146BDE82D
:1012A000704002464FF4A56002F016BB114B1B784C
:1012B00033B904F0C1FB21460246284603F0D4FDB1
:1012C0000D4E3278012A08D104F0B6FB21460246C1
:1012D000284602F08FFB094B18703378012B08D198
:1012E00004F0AAFB214602462846BDE8704002F001
:1012F0008FBB70BDBF090020BE090020C8090020B7
:1013000008B5084B1B78012B0AD12F2001F0F8F803
:10131000054B40B2B3F90010BDE8084002F004BD2F
:1013200008BD00BFBF090020C0090020818808B5A2
:10133000006804F08BFC003018BF012008BD8188D4
:10134000006804F07EBC8188006804F07CBC00006A
:10135000F8B52F4B2520196801F0EAF82D4B27200E
:10136000196801F0E5F82C4B2620196801F0E0F827
:101370000E2001F0C5F80F2001F0C2F807461B202F
:1013800001F0BEF80546222001F0C0F806462348C9
:1013900002F02CF840F22113410191FBF3F13520CA
:1013A00001F0CEF8252001F0ABF88742044610DAB0
:1013B0001B4B1B88312B05D81A48FFF7C4FF1A486E
:1013C000FFF7C1FF2220002101F0B2F8022002F055
:1013D00079FF022E19D195FBF6F5A54215DD04F033
:1013E0002BFB124B1B6803F5FA7398420DD90E487C
:1013F000FFF79CFF48B10C48FFF7A5FF032002F060
:1014000061FF0321222001F093F82046F8BD00BFC0
:10141000600D00205C0D0020580D00205C0C0020A9
:10142000220E00201C0C00203C0C0020CC090020C7
:101430005D4B73B509201C8801F068F884425B4C51
:101440004FF0080029DA01F05BF820603B2001F042
:1014500065F80646062001F059F80228054669D1CC
:1014600004F0EAFA524B0446186802F0EFFF201A23
:10147000312817D82A2001F049F800902B2001F0DC
:1014800045F801900021684602F028F8002862D152
:101490004848FFF754FF042008E001F07FF8036993
:1014A0002360D3E74348FFF74AFF0620FFF792FE89
:1014B0000020019002F0A4F80190252001F020F80E
:1014C000014601A802F0EAF8322001F019F80446BA
:1014D000122001F015F801AA0146204602F0C0F8DA
:1014E00028B13448FFF72BFF072002F0EBFE332032
:1014F00001F006F80446132001F002F801AA0146A3
:10150000204602F0ADF828B12A48FFF718FF08205E
:1015100002F0D8FE01992E2001F012F80B2000F005
:10152000EFFF019B984224483BDDFFF708FF01983D
:1015300002B070BD214801F059FF0090204801F031
:1015400055FF009901902A2000F0F2FF01992B200D
:1015500000F0EEFF96E7012101A801F0BFFF012D89
:10156000044608D10199684601F0E0FF70B16CB102
:10157000144B5B6801932F2000F0C8FF002898D01F
:10158000DDE90001324601F0FDFF92E70948FFF76F
:10159000D6FE0420FFF71EFE00212E2000F0C8FF1B
:1015A00086E7FFF7D0FEC2E7220E0020EC0C0020F9
:1015B000C4090020F40B0020EC0B0020E00C0020FC
:1015C000E40C0020040D0020F8B5AF4BAF4E998815
:1015D000186804F03EFB04F045FBAD4B186800F0C2
:1015E00064FF0A23410191FBF3F1462000F0A8FFBC
:1015F00002F094FE0146232000F09AFF2F2000F015
:1016000085FF44B2072000F081FF337810F0020F0D
:1016100014BF4FF0FF350125012B13D0072000F038
:1016200075FF042840F0FD803C2000F077FF002883
:1016300040F0EF803D2000F071FF002814BF4FF014
:10164000FF3401243378012B14D102F0EFFA002883
:1016500008BF002402F0EAFA022808BF002402F0C2
:10166000E5FA012808BF4FF0FF3402F0DFFA032843
:1016700008BF01242146874C2F2000F059FFFFF7B7
:1016800067FE2378012B75D102F088FC824D01465C
:10169000442000F04DFF2F78012F0CD17F48FFF739
:1016A00052FE7F48FFF74FFE7E48FFF74CFE39465B
:1016B000452000F03DFF2D7865B97848FFF743FEDF
:1016C0007748FFF740FE7748FFF739FE2946452067
:1016D00000F02EFF744D2B782BB900F0E5FD00F0E3
:1016E00019FE01232B70714B00211A887048A2F15A
:1016F0000A03704A5A43462392FBF3F202F25372F2
:1017000092B204F002FC6C48FFF710FE0146402044
:1017100000F00EFF6948FFF709FE0146412000F086
:1017200007FF6748FFF702FE0146422000F000FF76
:10173000644B3220B3F9001000F0FAFE624801F069
:1017400055FE0546614801F051FE10210746284626
:1017500002F02AFC5E4D10212880384602F024FC5D
:10176000B5F9001000B281426880B8BF014633204D
:1017700000F0DEFE2378012B09D04FF0804004F00A
:10178000ABFA4B4804F0A8FA0022474B1A702378B2
:101790006BB903F04BFB4F4B3220B3F9001000F054
:1017A000C7FE4D4B3320B3F9001000F0C1FE357871
:1017B000012D10D1494C02F03FFA237833B902F0E1
:1017C00063F902F061F902F05FF92570444B4320A0
:1017D000197800F0ADFE3378012B06D000213F4A86
:1017E000062B117001D102F079FC04F025F9642870
:1017F00007D91F2000F08AFE18B93A4B186802F08A
:101800005EFE394B3420B3F90010BDE8F84000F01B
:101810008FBE3D2000F082FE00283FF40BAF002475
:1018200010E7072000F072FE10F0010F4FF03C00AF
:1018300015D100F073FE60B93C2000F06FFE00BBD4
:101840003D2000F06BFE00283FF4FCAE6C4264B219
:10185000F8E63D2000F062FE0028E0D1ECE700F061
:101860005DFE04463D2000F059FE8442D7D03C2066
:1018700000F054FE28B93D2000F050FE0028CED0E4
:10188000E4E72C46DEE600BF040C0020BE09002081
:10189000D4090020BF090020BC090020BC0B002097
:1018A000DC0B0020E40B0020BD090020D009002043
:1018B000002C014056FAFFFF240C00202C0C0020C5
:1018C000340C0020E80D0020D80C0020DC0C002097
:1018D000DA090020260E00201C0E0020C909002075
:1018E000C8090020C4090020540D00202DE9F84348
:1018F000282000F00BFE06B2222000F007FE05466D
:10190000FFF726FD074604F097F802F0D5FC2220E9
:1019100000F0FCFD012840F05781FFF789FDB14B35
:1019200086EAE6741B88A4EBE6749C42B4BF0446C6
:101930000024AD4B1A7898468AB903F0F1FAAB4B04
:10194000C4EBC424B3F900604FF43E632F2094FB32
:10195000F3F400F0D5FD21B240B203F055FA98F847
:101960000030012B0BD140F6AC535C434FF43E6387
:1019700094FBF3F49E4B1C809E4BB3F90060314600
:10198000282000F0D5FD332000F0BAFD362000F00D
:10199000BDFDDFF8A082044698F80030002818BF8B
:1019A00043F0010388F8003004F046F8924B81467A
:1019B000186802F04BFDA9EB000031280AD998F80D
:1019C00000303BB10021362000F0B2FD062002F0CD
:1019D00079FC00248948FFF7A9FC04F001010143C8
:1019E000C9B2392000F0A4FD8548FFF79FFCC4F37D
:1019F00040010143C9B23A2000F09AFD8148FFF747
:101A000095FCC4F380010143C9B23B2000F090FD76
:101A10007D48FFF78BFCC4F3C0010143C9B23C20F1
:101A200000F086FD7948FFF781FCC4F30011014303
:101A3000C9B23D2000F07CFDA30600F1C9807448C6
:101A4000FFF774FC0146734C3E2000F071FD2378D3
:101A5000052B06D1322000F053FD81B2B0B202F066
:101A6000E3FA2378A3B9322000F04AFD8046B0B2F1
:101A700001F050FFA6204123A8F10F0800FB08F059
:101A800090FBF3F0583080B201F066FF01F09EFF4A
:101A90002378012B10D1604B1B782BB1282000F04C
:101AA00035FD00B202F002F83B2000F029FD0030C5
:101AB00018BF012002F01EF82E2000F027FD00289C
:101AC0004FF01B00D4BF0026402600F019FDB8429D
:101AD000CCBF0420002006430F2000F011FDB842C7
:101AE000D4BF08200020064395B93A2000F016FD27
:101AF00010B9494B1B785BB14848FFF720FC022125
:101B0000222000F015FD03F097FF0225444B1860DA
:101B10002378012B09D1032D07D13F4B1F7827B91B
:101B20003946222000F004FD3D462378012B0BD0DE
:101B3000032D09D13A2000F0F1FC074620B90146F7
:101B4000222000F0F5FC3D46002E45D13A2000F061
:101B5000E5FC00283ED1304B1F78002D08BF4FF424
:101B600080763146242000F0E3FC2378012B02D15B
:101B7000294B1B7893B377B12A48FFF7E0FB2A483B
:101B8000FFF7E1FB2948FFF7DAFB0121222000F0F3
:101B9000CFFC02F0B9FBADB92248FFF7D4FB2248D5
:101BA000FFF7D1FB1D48FFF7CEFB2048FFF7CBFB2B
:101BB0003946222000F0BCFC2378012B02D1002200
:101BC0001B4B1A70BDE8F883FFF732FC0024B0E627
:101BD000012138E70127C0E70027C2E7002FDBD04B
:101BE0001D46C9E7CA090020BF090020220E0020B7
:101BF000C0090020EE0D0020C40900204C0C00207C
:101C0000440C0020140C0020CC0B0020D40B00202E
:101C1000C40B0020BE090020C80900203C0C002095
:101C2000CC0900201C0C0020F40B0020FC0B002031
:101C3000C9090020D80900201E2838B507D12C4B2F
:101C40001C6800F063FCC1B2204602F0E1FB0220F8
:101C500000F05CFC274D284C2860032000F056FC67
:101C60002060042000F052FC6860052000F04EFC6B
:101C70006060142000F044FC204B1860152000F038
:101C80003FFC1F4B1860112000F03AFC1D4B186000
:101C9000102000F035FC1C4B18600E2000F030FCCA
:101CA0001E235843194B40111860002000F02EFCF1
:101CB000174BC1B21870302000F03AFC012000F040
:101CC00025FC144BC1B21870312000F031FC1620F5
:101CD00000F01CFC104B1870172000F017FC0F4B85
:101CE00018800A2000F012FC0D4B188038BD00BF90
:101CF000C40900200C0D0020040D00201C0D002044
:101D0000200D0020000D0020FC0C0020180D0020EC
:101D1000BF090020BE090020BC090020D009002016
:101D2000CA090020014B186800F092BBD4090020BA
:101D30002DE9F0410026ADF6C82D00F089F99D4F40
:101D400000F0A6FA9C4B314621209C4C1E7000F0FE
:101D5000EFFB394605229A489A4D01F087FB394638
:101D60000622994801F082FB21460222974801F0A1
:101D70007DFB29460122964801F078FB3246214638
:101D8000944801F073FB294602234FF400729248F5
:101D900001F006F9294602231022904801F000F9CB
:101DA000022321461A468E4801F0FAF829460223FA
:101DB00020228C4801F0F4F82946022310228A4898
:101DC00001F0EEF8334621460822884801F0E8F891
:101DD000214604238022864801F0E2F821460423AC
:101DE0004FF40052834801F0DBF8294604234FF4F6
:101DF0008062814801F0D4F8DFF850822146042344
:101E000020227E4801F0CCF8214604234FF4807252
:101E10007B4801F0C5F82146404604234FF4007288
:101E200001F0BEF8214604234022764801F0B8F8BC
:101E3000294604234FF40042734801F0B1F82946C3
:101E400004234FF48042714801F0AAF8214602238E
:101E50004FF480526E4801F0A3F8022304226D492A
:101E60006D4801F09DF82946022308226B4801F0D5
:101E700097F8042310223946694801F091F801F0DF
:101E80003FFA10214FF0007003F01AFC00F030F917
:101E900000F0A6F900F0D6F900F0E8FB02F0E0F956
:101EA0004720FFF7C9FE4046FFF74DFA1E2000F01D
:101EB0002DFB0AACC2B25B49204602F0E5FE1E20B3
:101EC00000F024FB584DC2B258490DF5AF6002F046
:101ED000DBFE2946204602F056FA29460DF5AF6092
:101EE00002F051FA4FF4ED71204602F019FC40F275
:101EF0005A51204602F014FC4FF498710DF5AF6072
:101F000002F00EFC4FF4C9710DF5AF6002F008FC51
:101F100040F22151204602F003FC40F222512046BB
:101F200002F0FEFB40F22351204602F0F9FB40F2A2
:101F30002451204602F0F4FB40F22551204602F0E5
:101F4000EFFB40F22651204602F0EAFB40F2275117
:101F5000204602F0E5FB4FF4A561204602F0E0FBCD
:101F6000334B344968461C6000F018FA324B68461F
:101F700001223249C3F800D000F034FA68460A2240
:101F80002F4900F02FFA684664222E4900F02AFA01
:101F90004FF4FA7268462C4900F024FA04212020FC
:101FA00000F0C6FA00F064FB30460DF6C82DBDE81F
:101FB000F08100BF00080140E90900200010014045
:101FC000E00C0020000C0140E40C00205C0C002020
:101FD000D80C0020DC0C00204C0C0020440C00200D
:101FE000140C0020CC0B0020D40B0020C40B0020CC
:101FF0001C0C0020040C0020F40B0020EC0B002033
:102000003C0C0020DC0B0020E40B0020BC0B00206B
:10201000240C0020001401402C0C0020340C002063
:102020000C0C002000640040F11100080068004022
:10203000C409002000040040D40900200113000856
:10204000ED180008C915000851110008FC0B00200C
:1020500008B503F04FFC022003F024FC224B234A76
:1020600040F202301A6003F0CAFF40F2033003F07E
:10207000C6FF4FF4417003F0C2FF40F2053003F099
:10208000BEFF40F2923003F0BAFF40F2913003F00D
:10209000B6FF40F20B3003F0B2FF4FF4607003F074
:1020A000AEFF40F2813003F0AAFF40F2823003F02D
:1020B000A6FF4FF4207003F0A2FF40F2093003F0B6
:1020C0009EFF40F2862003F09AFF4FF4407003F029
:1020D00096FF40F2993003F092FFBDE8084040F2CD
:1020E0009A3003F08CBF00BF0CED00E00003FA054E
:1020F00008B502224FF480630321334803F0AEFA9F
:102100004FF4E131314803F019FF08212F4803F063
:1021100029FF4FF400512D4803F02DFF0C212B48CF
:1021200003F035FF0021294803F02BFF0021274849
:1021300003F033FF254803F046FF254B1B78EBB136
:10214000224803F045FF0221224803F0DDFC022172
:10215000204803F03CFD204A02211E4803F052FDB6
:10216000002202211B4803F007FD0221194800222A
:1021700003F0F6FC0221174803F00AFD032117487B
:1021800003F0C2FC144A0321144803F03BFD002273
:102190000321124803F0F0FC002203210F4803F052
:1021A000DFFC03210D4803F0F3FC4FF44052032100
:1021B0000A4803F0C9FC0948032103F011FDBDE8FA
:1021C0000840024803F0EFBE001001400048004004
:1021D000E9090020000402400448004000000240D9
:1021E00010B5164C042320460222032103F036FAD0
:1021F0000823012220460021A4F5444403F02EFACE
:1022000020460F4903F09AFE2046082103F0AAFE5B
:102210002046002103F0AFFE20460C2103F0B7FE5C
:102220002046002103F0ADFE2046002103F0B5FE5C
:102230002046BDE8104003F0B6BE00BF00080140D4
:1022400020A1070008B5112003F07CFFF021112028
:1022500003F086FF102003F075FFF021102003F03B
:102260007FFF1D2003F06EFF00211D2003F078FF8B
:10227000142003F067FFE021142003F071FF132006
:1022800003F060FFBDE80840E021132003F068BFC1
:1022900008B503204FF41C7103F000FCBDE80840B2
:1022A000002003F0D3BB000010B5184C4FF480732E
:1022B00002220321164803F0D1F9204603F00CFD59
:1022C000002320221946204603F0E9FC2046102175
:1022D00003F007FD07222046002103F006FD002140
:1022E000204603F0C8FD204603F01FFE20464FF4B1
:1022F0007A72002103F009FE204640F6340103F013
:10230000F2FC2046BDE8104003F0E1BC002C014087
:102310000008014008B5022303211A461D4803F0B6
:102320009DF94FF0804003F0D7FC00234FF0804030
:102330001A46194603F0B3FC00214FF0804003F029
:10234000D0FC4FF0804003F0B3FC4FF0804003F02E
:10235000B9FC8F214FF0804003F0C5FC02214FF003
:10236000804003F0ADFD062202214FF0804003F0D3
:10237000BCFC02214FF0804003F07DFD4FF0804017
:102380004822022103F0C1FDBDE808404FF0804023
:1023900003F09DBC000801407047000038B50446BA
:1023A0000D462162084603F083FC284603F085FCB5
:1023B000284640F2CF2103F094FC28464FF6FF71E7
:1023C00003F091FC064B2046C4E90033C4E9023314
:1023D0004FF0FF33C4E904330023636238BD00BF0C
:1023E00099230008F8B5436A0446032B0F461546A7
:1023F0002ADC006A03F070FC144E636A0122F15C6F
:10240000206A03F072FC636A0022F15C206A03F028
:102410007CFD0221636A05EB850505EB850503F16B
:102420000802AD0044F82370994024F81250206A45
:1024300003F028FC0021206A03F07EFD206A03F0EF
:1024400046FC636A01336362F8BD00BF8061000827
:102450002DE9F04105460024022707FA04F8414619
:10246000286A03F013FCD8B1286A03F063FD4146E3
:102470000646286A03F010FC2B6A05EB4408343347
:1024800053F82410B8F810200A4443F8242055F8D3
:1024900024309847286A03F04DFD801BA8F81800E7
:1024A0000134042CD9D1BDE8F08130B500F110021F
:1024B00000F118010A2500201446238924886B4363
:1024C00093FBF4F3023291421844F5D130BD000081
:1024D0001C2310B5084C03FB0043DC688C4209DC6C
:1024E0001B698B4206DB054B43F82010FFF7A4FB6A
:1024F000002010BDFF20FCE71C0100200000002090
:10250000014B53F82000704700000020024B53F8A5
:1025100020004011704700BF00000020034B53F81B
:1025200020004011431E58425841704700000020CF
:10253000024B490143F82010704700BF0000002003
:10254000014B43F82010704700000020F8B5054605
:1025500000241C27074E07FB04632946586800F037
:102560007BFC08B9E0B2F8BD0134472CF3D1482018
:10257000F9E700BF1C01002000231C2110B5064A0A
:1025800001FB0324A469844201D1D8B210BD0133F8
:10259000472BF5D14820F9E71C0100201C22024BF3
:1025A00002FB0030704700BF1C0100201C23044ABE
:1025B00003FB0023D3E90303C01A18BF01207047AF
:1025C0001C01002000231C2030B50649064C00FBEE
:1025D0000312956915B1526944F823200133472B42
:1025E000F5D130BD1C01002000000020014B195422
:1025F000704700BFEA090020024A135C19431154D6
:10260000704700BFEA090020024A135C23EA010177
:1026100011547047EA090020014B185C704700BF55
:10262000EA090020024B1A68024BC3F8DC2370470A
:10263000AC0900201C01002010B50A4C03212046E3
:1026400003F0D7FA2046084A032103F0E4FA2046B3
:102650000321802203F0EFFA2046BDE81040032159
:1026600003F0BEBA000002403C0A0020FFF7E4BFBE
:102670002DE9F04F00242646DFF8F480394DA1B053
:102680000321404603F0D0FA8146C0F1800708B923
:10269000FFF7D2FFA246DFF8D4B0BA4554463DDB7F
:1026A000002FEDDDC9F17F0915F809300A2B01D0A3
:1026B0000D2B4ED1002320212846EB5500F0EBFBDB
:1026C0000478064694BB0A21284600F0E4FB06463F
:1026D0008DF80040337823B90D21284600F0DBFB4C
:1026E00006460024DFF88C90347054F8091004EB8F
:1026F000090629B1284600F0AFFB08340028F4D1C0
:102700003368C3B9FFF798FF012F04D0164C174E5A
:1027100014F8011FC9B900242646B1E715F80A10BC
:10272000584603F045FC0AF1010AB6E7411C684629
:1027300000F0A0FBCEE7FFF77FFF0C4803F055FC4D
:1027400073686846984700249AE7304603F030FCE7
:10275000DEE72B78212B93D1002E91D0FFF76CFF71
:10276000EEE700BF3C0A0020A366000800480040D6
:1027700000000240C0660008264B2DE9F0411B789E
:1027800033B981B2244803F013FC0020BDE8F08186
:10279000224C234F2268234D3B68D201C1B22A4408
:1027A0000A283E46D15401D07F2B2FD1DFF87C8000
:1027B0001D4F02224046114603F0BCF910B93B6898
:1027C000002BF6D00221194803F013FA32680221D7
:1027D000013292B2154803F02EFA2268022105EB6D
:1027E000C212124803F017FA02221048114603F0F1
:1027F0009BF902210D4803F0F3F92368B3FA83F340
:102800005B09236000233B603360BEE701333B601C
:10281000BBE700BFE909002000480040340A00205F
:10282000380A0020BC0A0020E00800200000024016
:10283000704708B503F07EFC01F08CBD044B0548E1
:10284000196853F8042C083B1B6800F04BBD00BF0F
:10285000F0F7FF1F8A6700082DE9F04786B000F007
:1028600069FB0678702E08D1002001F0A1FE4E49C8
:1028700006B0BDE8F04701F066BE632E0AD1002025
:1028800001F096FE01F073FF484806B0BDE8F0473E
:1028900000F028BD202100F0FEFA03780BB944486F
:1028A000F3E700F047FB2021074600F0F4FA037835
:1028B0000BB9642EF3D105460024384605F8014BC8
:1028C000FFF744FE0746284600F034FB482F8046B9
:1028D00001D13848D9E7642E0CD1204601F068FEBA
:1028E000394602F016F90146334806B0BDE8F04714
:1028F00000F0F8BCA2460DF108092021404600F086
:10290000CAFA03780BB9032CC9D10546404605F82D
:1029100001AB00F0F6FA49F82400284600F00AFB63
:102920000134042C8046E8D1DDE90245742EDDF83F
:102930001080BDF914904FF0000010D101F038FE66
:10294000CDE900892B462246394601F073FF431D2D
:10295000042B1CD8DFE803F0161913100D0001F04A
:1029600027FECDE900892B462246394601F070FF4B
:10297000EDE702991148B8E703991148B5E70499C2
:102980001048B2E702991048AFE710487DE7104BB6
:10299000104A01460128C8BF1A460F4806B0BDE8D4
:1029A000F04700F09FBC00BFDD290008D668000892
:1029B000F86800080B6900081F69000834690008FE
:1029C000486900085C690008706900089869000897
:1029D000A3650008F7690008B46900082DE9F0470D
:1029E000DDF820809DF824900D4616461F46FFF71F
:1029F000D5FD44680A4800F075FCB9F1000F0CD011
:102A0000084800F06FFCCDE9087833462A46214695
:102A1000BDE8F047044800F065BC0448F1E700BF9A
:102A20006C6700087167000879670008756700081F
:102A3000F8B50C4800F056FC00240B4FE6B23046C7
:102A4000FFF7ACFD05463046FFF7E6FDC30704D4AB
:102A5000D5E90112384600F045FC0134472CEDD190
:102A6000F8BD00BFC56A0008E76A0008F8B5002491
:102A7000084EE5B22846FFF791FD47682846FFF764
:102A80003FFD013402463946304600F02BFC472C0E
:102A9000EFD1F8BDCD6800082DE9F04100F04AFA09
:102AA0000446104FDFF840802C21204600F0F3F957
:102AB00000230678054603702046FFF747FD4828A7
:102AC0000CD0FFF71DFD014640462C4600F00AFCE5
:102AD0002C2E04F8016BE7D0BDE8F0812146384682
:102AE000F3E700BFDE690008D16800082DE9F04F68
:102AF0002F488DB000F0F6FB00262027DFF8C480B9
:102B0000DFF8C490DFF8C4A0F5B22846FFF746FD11
:102B100004462846FFF780FD10F0010B3AD16268A9
:102B2000A368284605920493FFF7EAFCDDE9043226
:102B300039460090404600F0D5FB584601F038FD7C
:102B40000DF11F0302930BAB01930AAB009308AA8C
:102B500009AB294601F01AFC78B19DF81F10154AFF
:102B6000154B1648002908BF134601930B9B089983
:102B70000093DDE9092300F0B5FB2846FFF716FDB9
:102B800088B1236850460093D4E90423E16800F03B
:102B9000A9FB2C270136472EB6D1094800F0A2FB2D
:102BA0000DB0BDE8F08F484600F09CFBF1E700BF98
:102BB0000668000800680008FB6700082E68000827
:102BC000C768000808680008B66800086F68000851
:102BD000F7B5114800F086FB104800F083FB002495
:102BE0000F4FE6B23046FFF7D9FC05463046FFF7F7
:102BF000DDFC60B13046FFF70FFDC30707D46B69FA
:102C000038460093D5E90323696800F06BFB013473
:102C1000472CE6D103B0F0BD316A0008486A0008CD
:102C2000646A000808B501F0A9FA0146064800F0F8
:102C300059FB002001F0BCFC01F0BEFFBDE80840DC
:102C4000024800F04FBB00BFCF670008EB670008E9
:102C500008B5FFF7B7FCBDE80840014800F042BBEB
:102C6000936700082DE9F04F85B000F063F9044642
:102C700000F047F920210646204600F00CF90378C1
:102C80002BB92C4805B0BDE8F04F00F02BBB002558
:102C9000A846DFF8B090441C2C21204600F0FBF839
:102CA000074690F800A080F800802046FFF74EFC11
:102CB0003C46482804F801AB1CD004AB2B4403F875
:102CC0000C0C01353B782C2B01D1092DE4DD1A4881
:102CD00003F087F9DFF86080DFF86C902021404630
:102CE00003F087F918B9002E08DC721C06D005B075
:102CF000BDE8F08F484600F0F5FAE3E704460F4FD1
:102D0000DFF848A00DF1040BA5420BD01BF804001E
:102D1000FFF7F6FB39460246504600F0E3FA01346D
:102D20004F46F1E7064800F0DDFA731CD6D0013EAD
:102D3000D4E700BF4867000800480040F769000872
:102D4000F56900080B6900089970000867670008BA
:102D5000F8B500F0EFF82021074600F09CF8037862
:102D6000044623B91648BDE8F84000F0BBBA002578
:102D700005703846FFF7EAFB482806461AD0637804
:102D8000212B0AD07E2B08D02F2B06D0611C0D489A
:102D900000F062F820B10C48E5E7A11C0125F6E738
:102DA000012130461DB1FFF72FFC0848DBE7FFF794
:102DB00023FCFAE73946BDE8F840054800F092BA2E
:102DC000776A0008876A00088E6A00089D6A000812
:102DD000AE6A000838B500F0ADF82021044600F0D6
:102DE0005AF8037823B90F48BDE8384000F07ABAA2
:102DF000002300F8013B00F026F905462046FFF7C6
:102E0000A5FB482807D02946FFF762FB08B906480A
:102E1000EAE70648E8E72146BDE83840044800F004
:102E200061BA00BFF8690008136A00081C6A00084C
:102E3000AE6A000808B501F013FA30B9FEF7FCFEDF
:102E40000348BDE8084000F04DBA0248F9E700BF6A
:102E5000A5670008B96700080138013910F8012F8B
:102E600011F8013F12B10BB19A42F7D0D01A18BF36
:102E700001207047013911F8013F0BB90370704709
:102E800000F8013BF7E702460346981A13F8011BC6
:102E90000029FAD170470346184613F8012B0AB1EE
:102EA0008A42F9D170470029F0B5034607DA2D2090
:102EB00003F8010B012049421C46C71A06E01ED147
:102EC0003022417002700120F0BD2C4691FBF2FCD3
:102ED000254602FB1C11303105F8011BBCF1000135
:102EE0001E4605EB0700F0DC00232B70B442EBD943
:102EF0003378227806F8012B04F80139F6E7002030
:102F0000DAE730B503782D2B11D14FF0FF340130C3
:102F1000431E00210A2501E005FB012113F8012FC2
:102F2000303AD0B20928F7D904FB01F030BD0124B2
:102F3000EEE7000010B51349044610F8012BA2F18A
:102F40000A03DBB2162B19D821FA03F3DA07F3D4FC
:102F50002046FFF798FF0B4901382044844202467F
:102F600009D2137801380A3BDBB2162B03D821FAB9
:102F700003F3DB07F2D40023537001E0002AE7D10A
:102F8000204610BD09004000002310B5934200D137
:102F900010BD51F8234040F823400133F6E700000C
:102FA000013BDBB2032B70B50C46154601608280F5
:102FB00011D80B4A0B48D15C0B4AC65CD25C2B463D
:102FC000204602F04BFB012E09D129462046BDE8E0
:102FD000704002F036BE002602223146EFE770BD97
:102FE0003E6B0008466B0008426B00080029B4BF26
:102FF0004FF0FF320122642370B501FB02F401326D
:103000004FEA641104F01F04054603FB04F404BFF7
:103010002D2305F8013B06460A222846FFF743FF09
:103020002E226411092C2A5498BF302205EB00038C
:1030300003F101009CBF5A70981C0A222146FFF739
:1030400032FF304670BDF0B503782D2B16D14FF00E
:10305000FF35013000240A2702E0104607FB041464
:10306000024612F8013BA3F13001CEB2092EF4D989
:1030700093B903EB441305FB03F0F0BD0125E9E729
:10308000520192FBF1F27943134410F8012F303AC8
:10309000D6B2092EF4D9ECE70A2100230F46F4E753
:1030A00028B103681970036801330360704708464C
:1030B000FFF762BB2DE9F843141E80460D4613DD71
:1030C0000A46501B12F8011B0029FAD18442CCBFDA
:1030D000241A0C4613F0020F0CBF20273027DB0701
:1030E0000FD500235E1B11E02027F8E73946404644
:1030F000FFF7D6FF013E002EF8DC24EAE473E41A61
:10310000F0E72646F7E74046FFF7CAFF06EB05095A
:1031100015F8011B0029F6D12546002D07DC002CEF
:10312000ACBF09EB040009F10000BDE8F8833946A3
:103130004046FFF7B5FF013DEFE72DE9FF410746A8
:10314000DDE90A681C4651B9302304A921F80C3D79
:1031500032464346FFF7AEFF04B0BDE8F08123B12D
:103160000A2A1BD1002919DA4942002304AD05F8C7
:10317000013D0C9B3A3B99B944B1EEB118F0020FF6
:103180001AD02D213846FFF78BFF013E43463246C9
:1031900029463846FFF78EFF2044DDE70024E4E7A8
:1031A000B1FBF2F002FB1011092988BFC9183031B8
:1031B00005F8011D0146DEE72D23013D2B7000249B
:1031C000E4E700002DE9F04307460E4614460025CB
:1031D0004FF00A08DFF808918BB033783BB917B18C
:1031E00000223B681A7028460BB0BDE8F083252BFF
:1031F00070D17378002BF2D0252B06F1010268D034
:103200002D2B06BFB21C0123002316463278711CF9
:10321000302A15D00022304610F8011BA1F1300CE5
:103220005FFA8CFEBEF1090F0ED9732910D1216807
:103230000434002908BF49463846FFF73BFF15E034
:1032400043F002030E46E1E708FB02C20646E2E74E
:1032500064290ED161202146CDE90130012300927D
:103260000A22096838460434FFF767FF054401362F
:10327000B3E7782907D121466120CDE901300092DA
:1032800000231022EDE7582902D121464120F4E71E
:10329000752906D161202146CDE901300092002335
:1032A000DEE766290AD1216807A8CDE904230434A2
:1032B000FFF79CFEDDE9042307A9BDE76329D6D10A
:1032C000216804348DF8181000218DF8191006A912
:1032D000B2E7164631783846FFF7E2FE0135C6E719
:1032E0004A6B00080FB407B504AA52F8041B00206B
:1032F0000192FFF767FF03B05DF804EB04B070477D
:1033000007B52D4801F0E6FE2B4801F0E8FE2A48FB
:1033100001F0EFFE284801F0E7FE0121264801F008
:10332000C4FE254801F094FE0023244A0193019B2A
:10333000934203DC019B01330193F8E71E4801F03F
:1033400097FE1D4801F0A7FE1D4A05211A4801F00D
:10335000D5FE194801F01BFF1A4A01211A4802F054
:1033600051FC1A4A0121184802F055FC4FF48072B2
:103370000121154802F000FC4FF48062012112483F
:1033800002F0EEFB3C2201210F4802F054FC012127
:103390000D4802F0FDFB01210B4802F002FC012167
:1033A000094802F01DFC044801F0E7FE024803B0A2
:1033B0005DF804EB01F054BE002401407F380100A9
:1033C000540C00204C24014000000240600C0020FE
:1033D000884207DD914203DC01469142A8BF1146B5
:1033E000084670479042F8DD0146F9E713B500241E
:1033F00003681E3333F80A2C33F8141C33F81E0C00
:10340000FFF7E6FF2DF814000134042C03F11E032E
:10341000F0D1BDF80230BDF800001844BDF804300A
:103420001844BDF806301844C0F38F0002B010BD38
:103430000D4B98420BD003F5806398420DD0A3F555
:10344000006398420ED107290CDCC8B270470129ED
:1034500008DC01F10800C0B27047052902DC01F167
:103460000A00F8E710207047000C0140012370B5F6
:1034700093400C4615460022064611469BB2204654
:1034800002F0ECF829462046FFF7D2FF3368034AE2
:103490009B1A034AC3F34F03D05470BD600C002045
:1034A000540C0020074B084A991C1360074A11600E
:1034B000074A191D1160074A991D1160064A083311
:1034C00013607047600C0020E00C0020E40C00202A
:1034D0005C0C0020D80C0020DC0C0020114B124AA0
:1034E00053F8213052F8212010B59342C2BF114643
:1034F0001A460B46016801F1C8049C4203DB02F145
:10350000C804A14203DD013B0360002010BD9942C5
:1035100003DA013B03600120F8E79142C8BF026073
:10352000F9E700BF040D00200C0D002070B5134E0C
:10353000134D74686A686423944218DD891A5943EC
:10354000A21A91FBF2F1591A036832689C1A64239B
:1035500063432C68A41A93FBF4F3C91A0029B8BF7B
:1035600049426429CABF02600120002070BD091BC6
:103570004B43111B93FBF1F1E6E700BF0C0D00205C
:10358000040D002070B5044672B3184B184D18682E
:103590006E688E420EDC8B1B4FF448615943154B0D
:1035A0005B689B1B91FBF3F141436420491191FB44
:1035B000F0F1481EBAB9104B2D681A68641B6401FB
:1035C00002F5486363430B495B110968491B93FB90
:1035D000F1F39B1A43BF584320F01F0090FBF2F019
:1035E000184648BF404270BD044BCFE7E80C0020AE
:1035F0000C0D0020040D0020F80C0020F40C00201D
:10360000124B134A1B6811469842A8BF1846114B2B
:103610001B689842B8BF18461368834207DC0E49FE
:1036200009680B449842A8BF1846106070470028EC
:10363000FBDC03EAE373834205DB084A12689B1A4A
:103640009842B8BF18460860704700BF1C0D0020A4
:10365000F00C0020200D0020EC0C0020240D002098
:10366000884212DD3F318142ACBF4FF4C860002078
:103670001368002B0CDB8342D4BF13601060B0F5DD
:10368000486FACBF0020012070474FF44860EFE75F
:1036900041429942ACBF11601360F0E70368002B10
:1036A0000BDB0C4A1268891A01EB810121EAE171F6
:1036B0009942D4BF016003607047074A1268891AB3
:1036C00001EB810101EAE1719942ACBF0160036045
:1036D000704700BF180D0020140D0020064A138803
:1036E000013313804FF47A72D1F8023093FBF2F376
:1036F000024A1360704700BF640D00205C0D00207B
:103700001C4B70B51A88D1F80210013292B21A809F
:103710004FF47A7391FBF3F1174B184C1960184B67
:103720002488184D1B88952A88B2234498BF288086
:10373000A0EB0303144C2E889BB298BF2380B142A8
:1037400002DA962A88BF2880104D2E88B14202DD09
:10375000962A88BF28802188994202D9962A88BF54
:1037600023800B490888984202D2962A88BF0B8092
:1037700070BD00BF640D0020600D00204E0D0020C4
:103780004C0D0020520D00202A0D0020500D00206D
:10379000280D0020144BC8781A88013292B21A8082
:1037A0008B784FF47A7143EA0023B3FBF1F3032BD8
:1037B00088BF0E480E4988BF00880B8084BF1B1A43
:1037C0000B800B880B49952A98BF0B80088898427C
:1037D00002D9962A88BF0B8007490888984202D2EE
:1037E000962A88BF0B807047640D00204E0D002084
:1037F0004C0D00202E0D00202C0D0020114BC87800
:103800001A88013292B21A808B784FF47A7143EAA7
:103810000023B3FBF1F30C49952A0B800B4998BFA9
:103820000B800888984204D9962A02D90A2B88BFAF
:103830000B8007490888984202D2962A88BF0B80DD
:10384000704700BF640D00204E0D0020320D002097
:10385000300D0020064A138801331380CA788B7814
:1038600043EA02230A22B3FBF2F3024A13807047B1
:10387000640D0020540D0020064A13880133138084
:103880004FF47A72D1F8023093FBF2F3024A1360DC
:10389000704700BF640D0020580D002010B54FF494
:1038A0006164094A0948138801331380D1F8022062
:1038B000074B08491A600B680A60D31A93FBF4F3AC
:1038C00004682344036010BD640D0020340D002003
:1038D000380D0020440D002010B54FF47A74094AC9
:1038E0000948138801331380D1F80220074B084997
:1038F0001A600B680A60D31A93FBF4F3046823443C
:10390000036010BD640D0020400D00203C0D002020
:10391000480D0020B0F52F4F07B528BF4FF42F40BA
:103920000523B0F5965F38BF4FF49650ADF80030E0
:1039300000238DF8020000128DF80300012001938E
:1039400000F036FE08236A4640F2163100F081FD91
:1039500003B05DF804FB000007B5C521194A8DF8D6
:103960000210137818498DF80030002308788DF87C
:1039700001300130C0B2152894BF08700B708DF86B
:1039800003308DF804308DF805308DF806308DF851
:1039900007300B786BB911231370012000F008FE7B
:1039A00008236A4640F2293100F053FD03B05DF868
:1039B00004FB082B01D18623EEE70F2BEDD1D92391
:1039C000EAE700BF670D0020660D002007B5002262
:1039D000074B0120CDE9002300F0EAFD08236A46E9
:1039E00040F2455100F035FD03B05DF804FB00BF27
:1039F0007E100018B0F5987F044B05D10A78452A4F
:103A00000CBF012200221A7018787047780D002030
:103A1000B0F5C97F21D10B68154A23F07F431360AD
:103A2000144A93421AD002F598423D3293420BD089
:103A3000114A934211D10322104B1A700822104BE5
:103A40001A70104B782207E000220C4B1A700322E8
:103A50000B4B1A70E1220B4B1A7070470122074B77
:103A60001A700222064B1A70064BD222F4E700BFEE
:103A70006C0D00202D04800074038000790D00205F
:103A8000E8080020E908002048F2612313B502ACE1
:103A900024F8083D012000F08BFD0223224640F26D
:103AA000323100F0D6FC02B010BD000040F2EE232F
:103AB000984207B5B8BF18460C4B18600C4B8000F5
:103AC000009349F6801380B28DF80400000A8DF847
:103AD00005000120ADF8063000F06AFD08236A46B3
:103AE000AA2100F0B6FC03B05DF804FB740D0020C1
:103AF0005F59FF0000282DE9F34114BF6421042120
:103B0000DFF824810F2698F80000414F00F5FC7380
:103B10000B44DAB202EB13238DF800304EF221038E
:103B2000ADF8023041F621738DF801000120ADF8A7
:103B300004308DF806608DF8071000F039FD6A46F4
:103B4000A821082300F085FC324D3B7801208DF838
:103B500000302B78304C8DF801304DF67973ADF88C
:103B600002304CF21D73ADF8043042F2E013ADF8B0
:103B7000063000F01DFD08236A46A92100F069FC0B
:103B8000264B21781A788DF8026053188DF80020A2
:103B9000FF22002603F5E4738DF80120DAB202EB70
:103BA000132301208DF805308DF806108DF8036081
:103BB0008DF8046000F0FCFC07236A46BA2100F08F
:103BC00048FC1749174A0B78207801330B7098F896
:103BD00000300130013388F800303B782070013329
:103BE0003B702B7801332B7013780133DBB25C2BE5
:103BF00013700AD1BE230B70E9233B704D23137061
:103C0000802388F800602E70237002B0BDE8F08138
:103C1000E5080020690D0020E7080020E8080020E2
:103C2000E4080020E6080020680D0020014B187809
:103C3000704700BF790D002013B5114B114C1B7854
:103C400001208DF800300C238DF801308F238DF882
:103C5000023023788DF80330F0238DF8043000F023
:103C6000A7FC05236A464FF4E97100F0F2FB2378C4
:103C70001033DBB2ED2B08BF0D23237002B010BD53
:103C8000E9080020700D002038B505461A4C0721C0
:103C9000204601F039FF2046184A072101F0B2FF03
:103CA0002A462046072101F0B6FF50222046072170
:103CB00001F0C1FF2046072101F089FF20460721BE
:103CC00001F066FF20460022072101F055FF204643
:103CD0000022072101F044FF20464FF480520721C3
:103CE00001F032FF2046072101F07AFFBDE838409D
:103CF000034802F06DB900BF0000024004440040D8
:103D000000440040002213460649505C013203443F
:103D1000622A9BB2F9D1B1F86200C31A58425841E5
:103D2000704700BF800D002070B5894C2378042BAC
:103D300062D8DFE803F0033C5F62A30006218548F8
:103D400001F0E2FE844A0621824801F05BFF834ACB
:103D50000621804801F05FFF642206217D4801F0C2
:103D60006AFF06217B4801F029FF0621794801F00E
:103D70000FFF00220621774801F0FEFE00220621F7
:103D8000744801F0EDFE00220621724801F0DCFECD
:103D90000621704801F024FF714802F014F9714BBC
:103DA0009988186801F04FFF2378013323E06D4BA9
:103DB0006D4D9988186801F044FF2B787BB9022279
:103DC0000721644801F0B6FE0028EDD00222072149
:103DD000604801F0A9FE6548FFF756FFE4E7644834
:103DE000FFF752FF5D4B5B78002BDDD02B78013B5A
:103DF0002B70D9E70323237070BDFFF783FF574D66
:103E00005C4E38B900233370002385F8623085F8A2
:103E10006330C9E7022206214E4801F08BFE0028DC
:103E2000F0D0022206214B4801F07EFE012302223F
:103E30003370B5F85230053B93FBF2F34E4A1380D2
:103E400095F82B2095F82A3043EA02234B4A138039
:103E500095F8572095F8563043EA0223484A1380D4
:103E6000EA79AB7943EA0223464A138095F8202089
:103E7000EB7F43EA0223444A1380C5E7434D002801
:103E80005DD12880203018BF0422B5F900100EBF84
:103E9000002301EB810393FBF2F33D4E2920338095
:103EA000FEF746FB384A3749128809882F4B0A44E7
:103EB000712112B292FBF1F21A70B6F90020D1B260
:103EC000880083F84B0090115242C2F30722494206
:103ED0009A711A73B5F90020C9B25971D972D1B269
:103EE000C2F30722DA7683F82120782283F83F2074
:103EF000EC2283F840206C2283F841206B2283F867
:103F000042200022997683F82010114683F84C0055
:103F1000585C013102444E2992B2F9D11D4983F80F
:103F20004E200A800021121283F84F201A4A217075
:103F30001388642B96BF0133118013805CE720281F
:103F400001D129809EE710F1200F9BD14942F8E76B
:103F5000E40D00200000024004440040800D0020D9
:103F6000004400400C0C0020EA0800203B0900201F
:103F7000EB080020F20D0020E60D0020E80D0020E7
:103F8000EA0D0020EC0D0020EE0D00207C0D00203D
:103F90007A0D00207E0D0020F00D0020014B1878D6
:103FA000704700BFF20D00201429F0B538D80B2956
:103FB00088BF05391B4C09016218967A4FF6FF75C8
:103FC000012E18BF0125D76892F809C03B882B4401
:103FD00000259BB2AC451FD9012E37F8152011D111
:103FE000824216DB101A4001D31A5B01400190FB9C
:103FF000F3F06218127A6158504305FB0215C0EBCA
:1040000045100CE02EB9824203DC801A40019B1A55
:10401000EBE701351346DDE7214448684001F0BD78
:104020000020FCE7B86D0008B0F52F4F7FB528BF22
:104030004FF42F400523B0F5965F38BF4FF49650EC
:104040000022ADF80030234B8DF8020000128DF8ED
:10405000030018880192152888BF1A801A88A2F1D7
:104060000800062833D90F2A34BF1120D920013285
:104070001A80C523ADF80A300023ADF80C30ADF836
:104080000E300493144B8DF8080001208DF80910B0
:10409000059300F08DFA6A46082340F2163100F0CD
:1040A000D8F9012000F084FA082340F229310DEB01
:1040B000030200F0CEF9012000F07AFA082304AAE6
:1040C00040F2455100F0C5F907B05DF804FB8620C9
:1040D000CDE700BFF40D00207E10001830B5204A57
:1040E000204B89B0CDE901231F49204B204CCDE95D
:1040F000031300231F48204DCDE90503237808AAA8
:1041000063F07F038DF818302B680120134413F8F7
:104110001C2C8DF81B2013F8182C8DF81C2013F87C
:10412000142C8DF81D2013F8102C13F80C3C8DF86E
:104130001E208DF81F3000F03BFA082306AA4FF42A
:10414000B06100F086F92B68013303F003032B60A4
:104150002378013303F00F03237009B030BD00BF93
:104160000F287F281E1000107056F0560C48A748E4
:10417000F60D002046902890F80D00202DE9F04122
:104180000024ADF5006D01F0A3FC6D46A046E6B23B
:104190003046FEF70BFAF0B9FF254FF6FF774FF0E8
:1041A000FF360DEBC4040DF500680834444533D0E8
:1041B00004F8065C04F8055C24F8087C44F8046CF8
:1041C0004FF0FF3001F08CFC4FF0FF3001F088FC25
:1041D000CDF8F807E9E7FF2C05F108051CD03046BB
:1041E000FEF7DCF9074605F8068C3046FEF714FAB0
:1041F000BB6905F8050C25F8083C3046FEF780F948
:10420000064645F8040C55F8080C01F069FC3046E8
:1042100001F066FC0134BAE74FF0FF33CDF8FC370C
:1042200001F016FF0C4801F0DDF90B4C0B4D04F1C9
:104230007843A3F5FC3320465DF80310043401F005
:1042400021FFAC42F3D101F00FFFDDF8F8070DF5C7
:10425000006DBDE8F08100BF00F801080000020811
:1042600070B5144C01F034FC4FF4FF71204601F09E
:104270003DFCD4F8F837834219D10025EC0004F155
:10428000006404F5FC342088FEF776F948280646D9
:1042900008D0238833B16168FEF752F9E1783046DF
:1042A000FEF7A4F90135FF2DE8D1002070BD4FF0D5
:1042B000FF30FBE700F80108014B1860704700BFB2
:1042C0000C0E002030B50B4C235C93B90A4B1D68D3
:1042D0007DB10A4B0A490B4A18700B6802F833008B
:1042E00002EBC30255600122134403F0030322547E
:1042F0000B6030BD000E00200C0E0020100E0020C0
:10430000FC0D00208C09002000231946024A995414
:104310000133092BFBD17047000E0020014B1878A8
:10432000704700BF100E0020074B10B403EBC10212
:104330001479064A53F8313052F82420014610BC53
:104340000348FEF7CFBF00BFAC6F0008F46F000852
:104350000070000838B5094D6B6823B9BDE83840D6
:104360000748FEF7BFBF00242B19586828B1295D04
:104370000834FFF7D9FF202CF6D138BD8C09002076
:10438000107000087047C0F8301570472DE9F04FE5
:1043900000240B9E074634704FF0010904464FF687
:1043A000FF7AE51BB5F5E17F2ADCB4F800C0D445FF
:1043B00026D004F1020E7546A5EB0E08B8F12A0FBF
:1043C0001CDC95F90580B8F1000F17DDB5F800B0D9
:1043D0008B4511D10120C2F800C02A791A60099BCF
:1043E000B5F90220C3F800800A9B1A60BDE8F08F7F
:1043F00000F5FA742746D4E70635DDE73234D0E716
:10440000347886F80090002CF2D00020EEE700000F
:104410000C220023514330B50B4C8BB062189568C9
:104420005268CDE9073305926258CDE90133CDE9F1
:1044300003320122069500921946D0F84C0500F08F
:10444000B7FE0BB030BD00BFEC700008D0F8E80339
:104450007047F7B504460F46D0F84C0501211546C4
:104460001E4600F09BFF0023CDE900651A46394641
:10447000D4F84C0500F097FF002812DAD4F82C3558
:10448000132B0EDC04EB0312C2F8F063286801332F
:10449000C2F8F4036968A2F8EC73C2F8F813C4F820
:1044A0002C35D4F82C35002B07DD0121D4F84C0530
:1044B00003B0BDE8F04000F06DBF03B0F0BD2DE9E2
:1044C000F34105464FF6FF76841CA31E5B1BB3F534
:1044D000E17F35DC34F8023CB34231D0002327467B
:1044E0004FF00108CDE900333B1B2A2B1FDC97F965
:1044F0000530002B1BDD3878FEF702F8B7F90230E3
:10450000584397F9053008FA03F3013B03EA6010BA
:104510003B791F2B06D9203B9840019B1843019003
:104520000637E1E79840009B18430090F8E734F81D
:10453000021C00236A462846FFF78BFF3234C4E78B
:1045400002B0BDE8F0812DE9F74F07468A460446E0
:10455000804600264FF6FF7BA4EB0803B3F5E17F0E
:104560001FDC23885B451CD004F102094D46A5EBF6
:1045700009032A2B13DC063515F9013C002B0EDD4F
:1045800015F8022C218815F8060C019635F904CC93
:10459000CDF800C0D047EAE7A0460126DCE7323478
:1045A000DAE707F5FA74002EF6D003B0BDE8F08F15
:1045B0000128DABF024B53F820000020704700BFEB
:1045C000140E002013B50446D4F82C35002B1ADD48
:1045D0005A1E04EB031304EB021203F57973B2F8CD
:1045E000EC13019392F8F033D4F84C0500930023B8
:1045F0001A4600F0D8FE002805DBD4F82C35013B24
:10460000C4F82C35E0E7D4F82C353BB90121D4F8B7
:104610004C0502B0BDE8104000F0C0BE02B010BDB5
:10462000F0B501271C46106885B09B8802970740AB
:104630000197E78815460E46628821887F01BFB240
:104640005B01520149019BB292B289B2009700F01E
:1046500091FE002333602A6801322A60E380A38040
:104660006380238005B0F0BD002340F20162F0B505
:1046700085B0CDE902230122044600250092D0F83E
:104680004C15254A00F2345691421EBF234B1B683D
:10469000C3F305230193D4F84825009BAA4212DDF9
:1046A00004AA02EB430236F8021B0133042B22F862
:1046B000081C009305D102AB01AA69462046FFF70A
:1046C000AFFF0135E7E704F5FA7635464FF6FF7799
:1046D000AA1BB2F5E17F009B13DC2A88BA4210D0F6
:1046E00004A901EB43010133042B21F8082C0093AA
:1046F00005D102AB01AA69462046FFF791FF32358A
:10470000E6E7002B05DD02AB01AA69462046FFF76C
:1047100087FF05B0F0BD00BF00640040006A0040A4
:10472000D0F8483510B5092B0ADC00EB43040133FF
:10473000A4F83415C0F84835FFF796FF012010BDE6
:104740000020FCE74FF6FF70002301F5FA720880A5
:10475000CB714B73CB744B76CB7781F8253081F8D6
:104760002B3081F8313032319142F0D1704710B5A1
:1047700004460146FFF7E6FF204604F5FA71FFF70D
:10478000E1FF2046BDE81040FFF76EBF002310B5E3
:10479000CC5AC818944204D03233B3F5FA7FF7D11B
:1047A000002010BD2DE9F843B3F5006F8146DDE927
:1047B00008760C4690461D462CDA3F2F2EDC202E24
:1047C0002FDC1A46FFF7E2FF30B94FF6FF7248467A
:1047D000FFF7DCFF40B30580023090F90530002B75
:1047E00001DD0630F9E7013321D0BDF92830A0F80A
:1047F0000080438007714671234600204FF6FF7208
:10480000191BB1F5E17F07DC1988914204D0013012
:104810003233F5E74FF0FF30BDE8F8836FF0010069
:10482000FAE76FF00200F7E76FF00300F4E76FF0CC
:104830000400F1E71FB5BDF91C400294069CCDE9C8
:10484000003413460A460146FFF7ACFF04B010BD22
:1048500030B585B0BDF9245004460295089DCDE9D8
:10486000003513460A4600F5FA71FFF79BFF05462F
:104870002046FFF7F9FE284605B030BDF7B5B1F880
:1048800001500646B5F5005F0C461CD1C878462895
:1048900019D80B78402B0FD14968FDF719FE70BB72
:1048A000232323700823224640F28151304603B06F
:1048B000BDE8F040FFF7CDBD222BF3D1FDF720FE80
:1048C00043236060EDE7A5F54053B3F5C05F24D204
:1048D000E178462921D82378402BE3D16068C5F3DD
:1048E0000A02C0F30727C3B26D044FEA2040CDE9A6
:1048F000007030460ED5FFF7ABFF0028D0DA8023DA
:10490000237030232371002363710923A3710623CD
:10491000E371C7E7FFF78EFFEFE7802323700023E3
:10492000237163710223F1E72DE9F04305460E463A
:1049300001278BB0002305930DF11A0303930DF1AA
:104940001B0302930DF119030DF12008019306AB2F
:104950000093CDF8108007AB0122F1B2D5F84C05D9
:1049600000F098FD002856D040F20163079C9C425D
:1049700008D19DF81A30082B04D141462846FFF78C
:104980007DFFD7E7224605F5FA712846FFF7FEFEC0
:1049900000283AD000F1020800F10809A9F1060345
:1049A000A3EB08032A2B2BDC19F9011C002927DDB6
:1049B00019F8024C07FA01F11F2C93BF089B099AC2
:1049C000203C23FA04F401F1FF3188BF22FA04F4F9
:1049D0000C4039F9041C640119F8060C4C43FDF72E
:1049E000E5FD641139F8063C214628B1D8B2FDF73F
:1049F0006FFD09F10609D1E7D8B2FDF7A1FDF8E78F
:104A000001F01AF8C5F8E80394E7D5F830354146C7
:104A1000204698478EE70BB0BDE8F0832DE9F843B8
:104A200000248846174699462646151F4C450CDA41
:104A300055F8040F01F054F8064608EB0500296804
:104A4000C01B01F01FFB0134F0E73046BDE8F883DE
:104A500000202DE9F04F06468C1CA51E6D1AB5F5F9
:104A6000E17F39DC4FF6FF7534F8028CA84533D06E
:104A7000322500274FF0010905FB06FEA51D02EBBC
:104A80000E0AA5F1060CACEB040BBBF12A0F1BDCE4
:104A900015F901BCBBF1000F16DD35F806BC9B45CE
:104AA00010D04FF0060909FB07A955F806BC0137DD
:104AB000C9F802B035F802CCA9F806C04FF00009D9
:104AC0000635DEE70130FBE7B9F1000F02D122F82D
:104AD0000E8001363234C0E7BDE8F08FF0B50446F1
:104AE00016460D46FFB001A9FFF72CFE334601AA7A
:104AF00029462046FFF7ACFF07462046FFF722FE77
:104B000033462A4601A92046FFF7A2FF38467FB068
:104B1000F0BD70B50A460D4601460446FFF7DEFFBC
:104B20002A46064604F5FA712046FFF7D7FF3044BF
:104B300070BDF8B50E464FF6FF778C1CA31E9B1B6D
:104B4000B3F5E17F16DC34F8023CBB4212D02546B7
:104B50002B1B2A2B0CDC063515F9013C002B07DD3D
:104B600015F8060CFDF71AFD836925F8063CEFE7FA
:104B70003234E3E7F8BDF8B50E464FF6FF778C1CEC
:104B8000A31E9B1BB3F5E17F15DC34F8023CBB424E
:104B900011D025462B1B2A2B0BDC063515F9013CC1
:104BA000002B06DD35F8060CFDF7E6FC25F8060CB3
:104BB000F0E73234E4E7F8BD73B504461A4E00F06E
:104BC00087FF01F045FA022001F038FA304600F084
:104BD00009FD04F5FA7521462046FFF7AAFF29468C
:104BE0002046FFF7A6FF224631467D232046FFF7E9
:104BF00015FF2A467D230D492046FFF70FFF02AA25
:104C000042F8040D01230A492046FFF707FF01F08F
:104C10002BFA21462046FFF7AEFF29462046FFF734
:104C2000AAFF02B070BD00BF00F00108F4F1010856
:104C3000E8F3010838B5114B04461D6800F048FF41
:104C4000FA210F4800F052FF854215D17D220C4910
:104C5000204604F5FA75FEF797F97D2209492846A2
:104C6000FEF792F921462046FFF785FF20462946A8
:104C7000FFF781FF012038BD0020FCE7E8F30108C1
:104C800000F00108F4F10108F8B5044600250E46CD
:104C9000424BC0F8E853C0F83035C0F82C55C0F886
:104CA0004855C4F84C151746FFF761FD2046FFF73D
:104CB000C1FF3B4B9E421AD003F580639E4241D018
:104CC000D4F84C0500F068FA39462046FFF7A0FBFF
:104CD0002046FFF7C9FCD4F84C05022100F05AFB2E
:104CE000D4F84C05102100F055FB2046F8BD4FF4D8
:104CF0000063022229462B4800F0B0FC4FF400610B
:104D0000284800F09EFF4FF48053022203212548DB
:104D100000F0A4FC142001F015FAF021142001F099
:104D20001FFA152001F00EFAF021152001F018FAF3
:104D3000132001F007FAF021132001F011FA1A4BA9
:104D40001C60BDE74FF4805302222946174800F04B
:104D500085FC4FF48051154800F073FF4FF4005369
:104D600002220321114800F079FC402001F0EAF909
:104D7000F021402001F0F4F9412001F0E3F9F021A5
:104D8000412001F0EDF93F2001F0DCF9F0213F2056
:104D900001F0E6F9044B5C6092E700BF8543000830
:104DA0000064004000080140140E0020000C014087
:104DB000024B00211868FFF7B7BD00BF140E00209A
:104DC000024B01211868FFF7AFBD00BF140E002091
:104DD000014B1868FFF7F6BB140E0020024B0021B0
:104DE0005868FFF7A1BD00BF140E0020024B01213F
:104DF0005868FFF799BD00BF140E0020014B58689A
:104E0000FFF7E0BB140E0020074B28B91880B3F958
:104E100000102920FDF78CBB202801D11980F6E76E
:104E20002030F4D14942F9E71E0E0020034A1378DE
:104E3000013303F003031370704700BF280E0020F6
:104E4000092300B2203800EB800090FBF3F010F152
:104E5000800F03DB7F2804DC40B270476FF07F00D7
:104E600070477F2070470000B0F5ED7F08B51BD17B
:104E70004B780A789B1143EA8203134A13800A791C
:104E80004B7943EA022347F6FF721BB2934208BFF5
:104E900000230E4A13808B7913F0B00F14BF012248
:104EA00000220B4B1A8008BD40F25A539842FAD1A7
:104EB0008878FFF7C5FF074B18804878FFF7C0FFD9
:104EC000054B1880EFE700BF240E0020220E0020C3
:104ED000200E0020260E00201C0E00200023F0B51E
:104EE0000126C371441EC51D072214F8017F06FA6E
:104EF00002FE1EEA070F14BF4FF0010E4FF0000E26
:104F00004FFA83FC0EEB4303BCF1000FDBB2B8BFDA
:104F10004B4012F1FF32EAD2A542E5D1C371F0BD98
:104F200007B5444B444A0093C023ADF804301378CE
:104F300085218DF806300133DBB2032B88BF0023B7
:104F400068461370FFF7CAFF0020FFF731FB082304
:104F50006A464FF48D71FFF77CFA40F2F773374AD7
:104F6000ADF80030364BB2F90010B3F90030994279
:104F700018BF138003F5006292B2B2F5805F55D27C
:104F80001A12C3F3061122F07F020A431B018DF8A7
:104F900002208DF803302B4A6846137899010133BB
:104FA000DBB2032B88BF0023137044238DF8053038
:104FB000302341F007018DF8041085218DF806306B
:104FC000FFF78CFF0020FFF7F3FA6A4608234FF43F
:104FD000EA71FFF73EFA00221B4900200B7800928D
:104FE0008DF806300133DBB2032B94BF0B700A70CF
:104FF000ADF804208DF80720FFF7DAFA6A4640F290
:10500000DB110823FFF725FA0020104BADF8040050
:1050100000938DF80600FFF7CBFA07236A4640F2AB
:105020000B51FFF716FA03B05DF804FB0023ADF84F
:105030000230B0E74E4000AA2B0E00202C0E0020BC
:105040001E0E0020290E00202A0E0020000006C09F
:105050008368DB075EBF836843F0010383607047AA
:105060008368DB0742BF836843F0010383607047B6
:10507000836800F1080243F00803836013681B078C
:10508000FCD47047836843F00403836070478068F2
:10509000C0F38000704708B50246FFF7F3FF1046E3
:1050A000FFF7F5FF0028FAD108BD0022134610B51E
:1050B00001FA02F403321E2A43EA0403F8D1002263
:1050C000036101FA02F40332182A43EA0403F8D117
:1050D000C36010BD836823F0010383607047436899
:1050E00043F4807343607047836823F400638360F4
:1050F0007047836843F00203836070471029F0B55E
:105100000CD8002501232F462E46DCB2A14206D240
:10511000013946EA0156C66207634563F0BD062CB5
:105120000BD802EB030C1CF801CC03EB830EAEF1A1
:10513000050E0CFA0EFC45EA0C05A4F1070CBCF1B7
:10514000050F0BD802EB030C1CF801CC03EB830E0C
:10515000AEF1230E0CFA0EFC47EA0C070D3C052CB1
:1051600009D8D41814F8014C03EB830CACF1410CB2
:1051700004FA0CF426430133C7E7836800F1080200
:1051800043F48003836013685B02FCD47047836838
:1051900043F4807383607047044B98420CBF40F225
:1051A000192040F21A2000F037BF00BF0064004011
:1051B0002DE9F34104689DF8208024F00204046086
:1051C00004689DF824E044F0010404604FF6FF7485
:1051D0009DF828C09DF83C609DF840700194019CAA
:1051E000051D013C019414B14468E407F7D52C680F
:1051F000E40770D50024C461002951D0016841F052
:1052000080010160002A4FD0026842F04002026033
:10521000002B4DD0036843F0200303600368B8F10E
:10522000000F49D043F0100303600368BEF1000F84
:1052300045D043F0080303600368BCF1000F41D080
:1052400043F004030360C369002F3ED043F00043E2
:10525000C361C369002E3BD043F08043C3610E9B02
:105260000D99013BC3F309030B430C99C2690B432E
:105270000B990B431343C361036823F001030360DD
:105280004FF6FF730193019B013B019313B12B6810
:10529000DB07F8D4286800F0010002B0BDE8F08117
:1052A000016821F08001ACE7026822F04002AEE71D
:1052B000036823F02003B0E723F01003B4E723F0E2
:1052C0000803B8E723F00403BCE723F00043BFE77B
:1052D00023F08043C2E70120DFE70000F0B501249E
:1052E0001F4E844035689DF81C7045F001053560FF
:1052F000E6431C4DD5F800C00CEA060CC5F800C00A
:10530000DFF86CC009B3DCF800102143CCF80010C2
:105310001549F2B10A68224300F1006000F6C84066
:105320000A60C0000360069A059B43600F4B9AB168
:105330001A6822431A6017B12B681C432C60084A74
:10534000136823F001031360F0BDDCF80010314056
:10535000DCE70A683240DFE71A6816401E60EAE7B9
:10536000006600401C660040046600401466004071
:105370000C66004030B4BDF808409DF8105044EA77
:1053800003430293049542EA014330BC0122002109
:10539000FFF7A4BF4369194341617047436923EA9A
:1053A0000101416170472DE9F041804680689DF818
:1053B00018E04601079D2AD4D8F8080004012AD431
:1053C000D8F80800C00050D54FF4D076022006EB84
:1053D000080422B3C90041F0040146F808101BB1CB
:1053E000236843F002032360636823F00F036360C4
:1053F00062680EF00F03134363600EF1FF33072B57
:105400002AD8DFE803F02623201B1815120E4FF4CC
:10541000C0760020DBE74FF4C8760120D7E74905C6
:10542000DBE70027EB7963F31F67AB7963F317477B
:105430006B7963F30F272B7963F307074FF0000CA9
:10544000EB7863F31F6CAB7863F3174C6B7863F303
:105450000F2C2B7863F3070CC4F808C0E7602368AF
:1054600043F001032360BDE8F0814FF0FF30FAE71D
:1054700021B9C36843F02003C3607047036943F058
:1054800020030361704719B9C06800F0030070473A
:105490000069FAE72DE9F3470546DDE90AA80E465B
:1054A0009946DDE90E43FFF7EEFF4FF4E071074642
:1054B0004FF4D870CDE9000102A901EB860151F843
:1054C000081C55F801C068181CF0040C15BF4FF0FB
:1054D000010C8AF800C08AF800C055F801C016BF58
:1054E00055F801C04FEA5C5C4FEADC0CC9F800C01B
:1054F000695811F0020118BF012188F800104168B5
:105500004FEA112C0C9981F800C0416801F00F0C92
:105510000D9981F800C013B14168090C19808168A8
:10552000C368C1F3072021706070C1F30740C1F365
:105530000761E170C3F3072123716171C3F3074170
:10554000C3F30763A070A171E3711AB13146284615
:10555000FFF78EFF384602B0BDE8F087064B1868AB
:10556000064B1B88B3F5007F82BF054B1B681843B1
:1055700000F03500704700BF0C200240E0F7FF1F2D
:105580004C20024038B504460D4600F075FD114B25
:105590001B88B3F5007F18D90F4B9C4215D90F4AD1
:1055A000136843F001031360258000F065FD094B8B
:1055B0001B88B3F5007F0AD9074B9C4207D9074ADD
:1055C000136823F00103136038BD054AE8E7044A75
:1055D000F6E700BFE0F7FF1FFFFF0708502002407B
:1055E0001020024010B5044600F046FD154B1B8804
:1055F000B3F5007F1DD9144B9C421AD9134B1A687E
:1056000042F002021A60124A14601A6842F0400224
:105610001A6000F031FD0B4B1B88B3F5007F0FD9EA
:10562000094B9C420CD9094A136823F0020313600A
:1056300010BD084B1A6842F002021A60064AE3E7FE
:10564000044AF1E7E0F7FF1FFFFF07085020024080
:105650005420024010200240142002402DE9F04363
:1056600000264FF00F0E43F6F8789C460368476813
:105670004CFA06F4E4071BD5072E94BF9946B946A9
:10568000B4B28BBF4444A400A400A4B288BFA4B2A7
:105690000EFA04F529EA0509A51C02FA05F501FA36
:1056A00004F42C4344EA0904082E2CBF2746234661
:1056B0000136102EDCD103604760BDE8F0830000A6
:1056C000034A136823F0E0631943014311607047F4
:1056D00004000140024A136843F08073136070476E
:1056E00000100240062822D8DFE800F004090E135B
:1056F000181D1F000F4B1868C0F3406070470D4B1A
:105700001868C0F3C06070470A4B1868C0F3407057
:105710007047084B1868C0F340407047054B186845
:10572000C0F340007047044BF9E7044BF7E7002053
:10573000704700BF001002402010024024100240B9
:10574000024608B51046FFF7CDFF0028FAD008BD85
:1057500006280CD8DFE800F004060C11161B1D000B
:10576000FFF7B8BF0C4A136843F0806313607047BB
:10577000094A136843F08053F8E7074A136843F473
:105780008033F3E7044A136843F00103EEE7034A6A
:10579000F9E7034AF7E700BF00100240201002407B
:1057A00024100240034A136823F0030318431060D7
:1057B000704700BF04100240034A136823F47013BB
:1057C00043EA80401060704704100240034A1368A7
:1057D00023F4803343EA0040106070470410024015
:1057E000034A136823F4003343EA404010607047D3
:1057F00004100240024B186800F40040704700BFDC
:1058000020100240024A136843F4004313607047BB
:105810002010024006283DD8DFE800F03737372651
:10582000370415001C4B1A6842F001021A601A680E
:105830009007FCD51A6822F440721A601A6842F484
:1058400080721A607047154B1A6842F001021A60A4
:105850001A689107FCD5104B1A6822F440721A603E
:105860001A6842F40072ECE70D4B1A6842F4803279
:105870001A601A689203FCD5074B1A6822F440722A
:105880001A601A6842F44072DBE7034A136823F493
:1058900040731360704700BF201002402410024084
:1058A00000100240034A136823F4404343EA803067
:1058B0001060704704100240034A136823F46053D9
:1058C00043EAC0201060704704100240034A136886
:1058D00023F4E06343EA00201060704704100240A4
:1058E000034A136823F0F00343EA00101060704786
:1058F0000410024008B50420FFF72AFF0420FFF738
:105900001FFF0020FFF74EFF0320FFF721FF0320BA
:10591000FFF716FF0120FFF745FF0020FFF7E0FF2C
:105920000320FFF7BFFF0420FFF7D0FF0020FFF7A1
:10593000C3FF022000F082FB0720FFF73DFF01209C
:10594000FFF744FF0020FFF74BFFFFF7C3FE0020E7
:10595000FFF7F6FE0220FFF725FF044B044A054936
:105960001360054A1160054A136008BD00A24A048D
:10597000B009002000512502B4090020B809002018
:10598000044B1A689206FCD51A6842F010021A609D
:10599000704700BF04280040044B1A6822F0100230
:1059A0001A601A689206FCD5704700BF04280040B0
:1059B00038B5044600254FF4677000F020FB40F234
:1059C0009B3000F01CFB00F055F92046FFF722FF4A
:1059D0000D4C0E4B1D602560FFF714FFFFF7D0FF45
:1059E0000B4B0C4A1D605D601D615D614FF6FF73DE
:1059F00013605360FFF7D0FF236823F00803236090
:105A000023681B07FCD538BD04280040002800404F
:105A1000082800402028004008B5FFF7B1FF054BDB
:105A200082B2C0F303401A6043F8040CBDE808409A
:105A3000FFF7B2BF0C280040034B186804331B6803
:105A400043EA0040704700BF1828004008B5FFF740
:105A500097FF044B020C80B21A605860BDE8084002
:105A6000FFF79ABF1828004008B54FF4677000F0A0
:105A7000C6FA40F29B3000F0C2FA00F0FBF8064B89
:105A80001A6822F008021A601A681107FCD51A6811
:105A90009206FCD508BD00BF0428004038B5054675
:105AA0004FF467700C4600F0AAFA40F29B3000F009
:105AB000A6FAFFF79FFE18B1BDE83840FFF7D4BF44
:105AC0002846FFF775FF2046BDE83840FFF7A4BF22
:105AD000024A136843F00103136070470830024024
:105AE000014B18601868704700300240002310B561
:105AF000044A8B4201DB106810BD50F8234001338B
:105B00001460F6E70030024014230022013903FB41
:105B100001039A60DA601A615A618B000F214268B2
:105B200099401143416070470139890002FA01F13F
:105B30004160704701390368890002FA01F1194296
:105B400014BF012000207047142301395943083045
:105B50000B5823F440530B500B581A430A5070470C
:105B600014230139594308300B5823F440630B5078
:105B70000B581A430A50704714230139594308300F
:105B80000B5823F440730B500B581A430A507047BC
:105B900014230139594308300B5843F080030B504C
:105BA000704714230139594308300B5843F0200340
:105BB0000B500B5823F480430B50704714230139CA
:105BC000594308300B5823F010030B50704714232F
:105BD0000139594308300B5843F010030B507047FC
:105BE00014230139594308300B5843F001030B507B
:105BF000704714230139594308300B5823F001032F
:105C00000B5070471423013903FB01008368DB0745
:105C100058BF026170471423013903FB01008368F8
:105C2000DB0758BF426170471423013959430C30D8
:105C3000085880B270471423013959430C300A5078
:105C4000704701617047090401617047806808402E
:105C50007047C36801EA030221EA030141EA0241F5
:105C6000016170474AF6AA22014B1A60704700BFD3
:105C700000300040024A136843F480731360704799
:105C800000700040C3681943C160704703690B424C
:105C900014BF012000207047C9430161704710B54F
:105CA0000468134324F45C740B432343036010BD66
:105CB000036843F0800303607047036823F0100318
:105CC00003607047036823F00803036070470368AC
:105CD00043F0010303607047036823F0010303608E
:105CE000704781627047C162704706297AD8DFE841
:105CF00001F00479337963799200836923F0030317
:105D0000836183698361836923F070038361072A58
:105D100068D8DFE802F03304090D1115191D8369F5
:105D200043F0100383617047836943F02003F9E770
:105D3000836943F03003F5E7836943F04003F1E7FB
:105D4000836943F05003EDE7836943F06003E9E7BB
:105D5000836943F07003E5E7836923F4407383614B
:105D600083698361836923F4E0438361072A39D817
:105D7000DFE802F004060A0E12161A1E8369D1E744
:105D8000836943F48053CDE7836943F40053C9E743
:105D9000836943F44053C5E7836943F48043C1E713
:105DA000836943F4A043BDE7836943F4C043B9E783
:105DB000836943F4E043B5E7C36923F00303C36198
:105DC000C369C361C36923F07003C361072A09D89B
:105DD000DFE802F03304090D1115191DC36943F002
:105DE0001003C3617047C36943F02003F9E7C36937
:105DF00043F03003F5E7C36943F04003F1E7C369BB
:105E000043F05003EDE7C36943F06003E9E7C3697A
:105E100043F07003E5E7C36923F44073C361C369CA
:105E2000C361C36923F4E043C361072ADAD8DFE81A
:105E300002F004060A0E12161A1EC369D1E7C369DE
:105E400043F48053CDE7C36943F40053C9E7C36902
:105E500043F44053C5E7C36943F48043C1E7C369D2
:105E600043F4A043BDE7C36943F4C043B9E7C36942
:105E700043F4E043B5E7062909D8DFE801F004154B
:105E800009190D1D1100036A43F0010303627047F5
:105E9000036A43F01003F9E7036A43F48073F5E7FC
:105EA000036A43F48053F1E7036A43F00403EDE728
:105EB000036A43F04003E9E7036A43F48063E5E7DC
:105EC000062909D8DFE801F0041509190D1D110094
:105ED000036A23F0010303627047036A23F010038F
:105EE000F9E7036A23F48073F5E7036A23F4805328
:105EF000F1E7036A23F00403EDE7036A23F04003AC
:105F0000E9E7036A23F48063E5E706290CD8DFE8B4
:105F100001F0040B060B080B0A0042637047826312
:105F20007047C263704702647047436C43F4004398
:105F300043647047406A704741627047064A074BA6
:105F400090421B6804BF064B1B6803EB5103B3FB75
:105F5000F1F18160704700BF00380140B4090020B2
:105F6000B8090020C36808290CBF23F4805343F408
:105F70008053C3607047036923F4405319430161A0
:105F80007047C36823F4C0631943C1607047C36896
:105F900023F00C031943C1607047436923F4407335
:105FA000194341617047C36843F40053C3607047AD
:105FB00038B504460D4600F018F829462046BDE8DD
:105FC000384000F00AB8436943F04003436170472A
:105FD000436943F0800343617047C1F308014160A6
:105FE00070474068C0F30800704703681B06FCD583
:105FF000704703680B4214BF01200020704743091B
:1060000000F01F02012003F1804303F504331968F7
:10601000904008431860704700F01F0243090120B8
:1060200003F1804303F5043319689040014319607C
:106030001A6822EA0000186070470000034A1368DB
:1060400023F0070318431060704700BF0020024090
:10605000034B044A1A6002F188321A60704700BF8D
:106060000420024023016745024A136843F080037D
:10607000136070471020024008B5FFF76FFAC3079E
:10608000FBD408BD38B505460C4689B2FFF77AFA4D
:10609000210CA81CBDE83840FFF774BAFEE7704732
:1060A000002238B51849194C19485318834217D3A0
:1060B0000021184A934217D3174A184C1368184DF9
:1060C00043F400731360AC4211D3164C164DAC422E
:1060D00011D3FBF72DFE154C154DAC420FD338BD37
:1060E000135953500432E0E719600433E2E754F8DF
:1060F000043B9847E7E754F8043B9847E7E754F830
:10610000043B9847E9E700BF000000202471000825
:10611000BC090020300E002014ED00E01C710008C6
:106120001C7100081C71000824710008247100080B
:1061300024710008014B024A1A60FEE70CED00E0F2
:106140000400FA05012243099B0003F1604300F0BB
:106150001F0003F5614302FA00F018607047000069
:10616000432893BF00F16040044B00F00F0000F59E
:1061700064408CBFC1540170704700BF14ED00E053
:106180000002040656656869636C65204D6F64758E
:106190006C6500496E76657274657200303D4C65C1
:1061A00061665F47656E312C20313D475334353091
:1061B000482C20323D5573657243414E2C20333DAF
:1061C0005A6F6D6269650056656869636C65003079
:1061D0003D424D575F4534362C20313D424D575F8F
:1061E0004536352C20323D557365722C20333D4E9B
:1061F0006F6E65202C20353D424D575F4533392069
:106200002C20363D564147005468726F74746C659B
:1062100000706F746D696E0064696700706F746DF3
:10622000617800706F74326D696E00706F74326DDA
:10623000617800706F746D6F646500303D53696EF6
:10624000676C65526567656E2C20313D4475616CE5
:106250004368616E6E656C2C20323D43414E006494
:1062600069726D6F646500303D427574746F6E2C99
:1062700020313D5377697463682C20323D42757438
:10628000746F6E52657665727365642C20333D536E
:10629000776974636852657665727365642C20341F
:1062A0003D44656661756C74466F72776172640017
:1062B0007468726F7472616D7000252F31306D7368
:1062C000007468726F7472616D7072706D007265C7
:1062D000766C696D0062726B6F7574002500626D7B
:1062E000736C696D6869676800626D736C696D6C69
:1062F0006F77007564636D696E0056007564636C3A
:10630000696D006964636D6178006964636D696ECD
:1063100000746D7068736D617800C2B04300746D75
:10632000706D6D6178007468726F746D617800745F
:1063300068726F746D696E0047656172626F782074
:10634000436F6E74726F6C004745415200303D4C94
:106350004F572C20313D484947482C20323D41556C
:10636000544F004F696C50756D70004372756973BE
:106370006520436F6E74726F6C006372756973652C
:10638000737465700063727569736572616D700016
:1063900072706D2F3130306D7300726567656E6C91
:1063A0006576656C00436F6E746163746F72204331
:1063B0006F6E74726F6C00756463737700637275CF
:1063C0006973656C6967687400303D4F66662C20A0
:1063D000313D4F6E2C20323D6E61006572726C69EA
:1063E0006768747300303D4F66662C20343D45501D
:1063F000432C20383D656E67696E6500436F6D6D97
:10640000756E69636174696F6E0063616E73706548
:10641000656400303D3235306B2C20313D353030F5
:106420006B2C20323D3830306B2C20333D314D0009
:1064300063616E706572696F6400303D3130306D3C
:10644000732C20313D31306D730076657273696F46
:106450006E00343D312E30302E4100687776657203
:1064600000303D526576312C20313D526576322C1C
:1064700020323D526576332C20333D5465736C6178
:10648000006F706D6F646500303D4F66662C203183
:106490003D52756E2C20323D5072656368617267A3
:1064A000652C20333D5063684661696C006C6173F4
:1064B000746572720073746174757300303D4E6F51
:1064C0006E652C20313D5564634C6F772C20323D36
:1064D000556463486967682C20343D5564634265A0
:1064E0006C6F7755646353772C20383D5564634C4B
:1064F000696D2C2031363D456D637953746F702C76
:106500002033323D4D50726F742C2036343D506F25
:1065100074507265737365642C203132383D546D4C
:106520007048732C203235363D576169745374615D
:1065300072740075646300706F776572006B57004A
:1065400069646300746F7271756500706F740070B8
:106550006F743200706F746272616B650062726199
:106560006B65707265737375726500706F746E6FB2
:106570006D00646972002D313D52657665727365F8
:106580002C20303D4E65757472616C2C20313D4677
:106590006F727761726400696E7600766568007468
:1065A0006D70687300746D706D00746D70617578D6
:1065B00000756175780063616E696F00313D4372EB
:1065C000756973652C20323D53746172742C2034CC
:1065D0003D4272616B652C20383D4677642C20313A
:1065E000363D5265762C2033323D426D7300637226
:1065F0007569736573706565640063727569736549
:1066000073747400303D4E6F6E652C20313D4F6EBB
:106610002C20323D44697361626C652C20343D53FB
:1066200065744E2C20383D536574500064696E5F6C
:106630006372756973650064696E5F737461727407
:106640000064696E5F6272616B650064696E5F66AB
:106650006F72776172640064696E5F7265766572ED
:1066600073650064696E5F626D730068616E646279
:10667000726B004765617231004765617232004795
:1066800065617233005431355374617400496E761C
:106690005374617400476561724642006370756CA3
:1066A0006F616400556E6B6E6F776E20636F6D6DFA
:1066B000616E642073657175656E63650D0A000017
:1066C0003A6B0008D52D0008F16A0008992A0008E5
:1066D000F56A0008512D0008FA6A0008652C0008C8
:1066E000016B0008512C00080A6B00086D2A000895
:1066F0000E6B0008312A0008136B0008D12B00082C
:10670000176B0008252C00089F660008352E00082E
:106710001C6B000831280008216B0008ED2A0008D6
:10672000266B0008592800082A6B00083D2800083D
:10673000316B000839280008386B0008332800083E
:10674000000000000000000055736167653A207387
:10675000747265616D206E2076616C312C76616C8F
:10676000322E2E2E0D0A00257325660063616E20E1
:10677000007278200074782000257320256420257D
:10678000642025642025640D0A00255825582558C5
:106790000D0A0044656661756C7473206C6F6164EA
:1067A00065640D0A00506172616D657465727320D5
:1067B0006C6F616465640D0A00506172616D65748F
:1067C000657220435243206572726F720D0A005049
:1067D0006172616D65746572732073746F72656444
:1067E0002C204352433D25780D0A0043414E4D4134
:1067F000502073746F7265640D0A007472756500C1
:1068000066616C7365007B0025630D0A20202022E1
:106810002573223A207B22756E6974223A222573F1
:10682000222C2276616C7565223A25662C00226343
:10683000616E6964223A25642C2263616E6F66661C
:10684000736574223A25642C2263616E6C656E67F1
:106850007468223A25642C2263616E6761696E2236
:106860003A25642C2269737278223A25732C00220F
:106870006973706172616D223A747275652C226D54
:10688000696E696D756D223A25662C226D61786995
:106890006D756D223A25662C2264656661756C748F
:1068A000223A25662C2263617465676F7279223AF9
:1068B000222573227D00226973706172616D223A14
:1068C00066616C73657D000D0A7D0D0A00257309F4
:1068D0000925660D0A00416C6C206D657373616754
:1068E0006520646566696E6974696F6E7320636C98
:1068F00065617265640D0A004D697373696E672086
:10690000617267756D656E740D0A00556E6B6E6F02
:10691000776E20706172616D657465720D0A002575
:106920006420656E74726965732072656D6F76653B
:10693000640D0A00496E76616C69642043414E2003
:1069400049642025780D0A00496E76616C696420DF
:106950004F66667365742025640D0A00496E766182
:106960006C6964206C656E6774682025640D0A008C
:1069700043616E6E6F74206D617020616E796D6F12
:106980007265206974656D7320746F2043414E20D9
:1069900069642025640D0A004D6178206D6573736C
:1069A00061676520636F756E7420726561636865E9
:1069B000640D0A0043414E206D617020737563635E
:1069C00065737366756C2C202564206D6573736127
:1069D00067652573206163746976650D0A00556EDD
:1069E0006B6E6F776E20706172616D657465723A5F
:1069F00020272573270D0A004E6F20706172616D8C
:106A0000657465722076616C756520676976656E60
:106A10000D0A00536574204F4B0D0A0056616C75CA
:106A200065206F7574206F662072616E67650D0A50
:106A300000506172616D6574657220617474726971
:106A400062757465730D0A004E616D6509096D69A3
:106A50006E202D206D6178205B64656661756C74B5
:106A60005D0D0A00257309092566202D2025662065
:106A70005B25665D0D0A004E6F20666C61672067BE
:106A80006976656E0D0A0068696464656E00556E0E
:106A90006B6E6F776E20666C61670D0A00466C61E5
:106AA00067206368616E6765204F4B0D0A00556E65
:106AB0006B6E6F776E20706172616D6574657220A8
:106AC00025730D0A00417661696C61626C65207006
:106AD0006172616D657465727320616E64207661A8
