:020000040800F2
:1010000000500020195E0008175E0008155E0008F9
:10101000155E0008155E0008155E0008000000005F
:10102000000000000000000000000000175E000843
:10103000175E000800000000175E0008175E000839
:10104000155E0008155E0008155E0008155E0008B4
:10105000155E0008155E0008155E0008155E0008A4
:10106000155E0008155E0008155E0008155E000894
:10107000155E0008155E0008155E0008155E000884
:10108000155E0008155E0008155E0008494B000853
:10109000294B0008394B0008155E0008155E000852
:1010A000155E0008155E0008155E0008155E000854
:1010B000155E00081D1C0008155E0008155E00087E
:1010C000155E0008155E0008155E0008155E000834
:1010D000155E0008155E0008155E0008155E000824
:1010E000155E0008155E0008155E0008155E000814
:1010F000155E0008155E0008155E0008155E000804
:10110000155E0008155E0008155E0008155E0008F3
:10111000155E0008155E0008155E0008155E0008E3
:10112000155E0008155E0008155E0008155E0008D3
:10113000155E0008155E0008155E0008754B000876
:10114000554B0008654B0008155E0008155E000849
:10115000F8B5222001F04CF9C4B21C2001F050F97E
:10116000012C194D194F03D12B780BB90A233B6081
:101170003B68174E002B0DDD013B80F001013B6009
:10118000C9B21C2001F046F91A2001F031F92C7087
:101190003060F8BD372001F02BF9002801DD012176
:1011A000EFE700211C2001F035F9012CECD11A20C9
:1011B00001F01EF933689842E6D01A2001F018F9C0
:1011C000013040003860DFE7C4090020C00900207A
:1011D000BC09002010B50446222001F009F90128BD
:1011E00004D12046BDE8104002F0FABE10BD000058
:1011F0006FF4A463C31870B505460C46072B55D889
:10120000DFE803F0040E18222C36404A04F0D0FA2E
:101210002146BDE87040024640F2215002F0E2B99A
:1012200004F0C6FA2146BDE87040024640F2225062
:1012300002F0EAB904F0BCFA2146BDE8704002466B
:1012400040F2235002F02ABA04F0B2FA2146BDE877
:101250007040024640F2245002F054BA04F0A8FA5A
:101260002146BDE87040024640F2255002F078BAAF
:1012700004F09EFA2146BDE87040024640F2265036
:1012800002F080BA04F094FA2146BDE870400246AC
:1012900040F2275002F088BA04F08AFA2146BDE8ED
:1012A000704002464FF4A56002F09CBA114B1B78C7
:1012B00033B904F07DFA21460246284603F090FC3B
:1012C0000D4E3378012B14D104F072FA21460246F8
:1012D000284602F0FFFA094B18703378012B08D129
:1012E00004F066FA214602462846BDE8704002F046
:1012F000FFBA70BD9F0900209E090020A8090020A8
:1013000008B5084B1B78012B0AD12F2001F06AF891
:10131000054B40B2B3F90010BDE8084002F06EBCC6
:1013200008BD00BF9F090020A0090020818808B5E2
:10133000006804F047FB003818BF012008BD818811
:10134000006804F03ABB8188006804F038BB0000F4
:10135000294B70B51968252001F05CF8274B272030
:10136000196801F057F8264B2620196801F052F849
:101370000E2001F037F80F2001F034F806461B204C
:1013800001F030F804461F4801F0B1FF40F221118E
:101390004001B0FBF1F1352001F044F8252001F0C7
:1013A00021F88642054610DA174B1B88312B05D8E9
:1013B0001648FFF7C8FF1648FFF7C5FF2220002197
:1013C00001F028F8022002F00BFE04EBD474B5EB18
:1013D000640F0EDA04F0ECF9B0F5FA7F09D90C4885
:1013E000FFF7A4FF28B10A48FFF7ADFF032002F082
:1013F000F7FD284670BD00BF300D00202C0D0020E9
:10140000280D00202C0C0020EA0D0020EC0B002001
:101410000C0C00205D4B73B509201C8800F0E8FF20
:1014200084424FF008005A4C29DA00F0DBFF2060BC
:101430003B2000F0E5FF0546062000F0D9FF02281A
:10144000064669D104F0B4F9524B0446186802F01C
:101450008BFE241A312C17D82A2000F0C9FF0090E7
:101460002B2000F0C5FF01900021684601F0B8FF75
:10147000002862D14848FFF762FF042008E000F02E
:10148000FBFF03692360D3E74348FFF758FF0620BB
:10149000FFF7A0FE0020019002F036F80190252011
:1014A00000F0A0FF014601A802F07CF8322000F015
:1014B00099FF0446122000F095FF01AA014620463C
:1014C00002F052F828B13448FFF739FF072002F044
:1014D00087FD332000F086FF0446132000F082FFD2
:1014E00001AA0146204602F03FF828B12A48FFF73A
:1014F00026FF082002F074FD2E20019900F092FFD3
:101500000B2000F06FFF019B984224483BDDFFF762
:1015100016FF019802B070BD214801F0E8FE00906E
:10152000204801F0E4FE009901902A2000F072FFAB
:101530002B20019900F06EFF96E7012101A801F030
:101540004FFF012E044608D16846019901F072FF51
:1015500070B16CB1144B5B6801932F2000F048FF11
:10156000002898D0DDE900012A4601F08FFF92E7BC
:101570000948FFF7E4FE0420FFF72CFE00212E208F
:1015800000F048FF86E7FFF7DEFEC2E7EA0D002025
:10159000BC0C0020A4090020CC0B0020C40B0020B0
:1015A000B00C0020B40C0020D40C0020AE4B2DE970
:1015B000F0419988186804F008FA04F00FFAAB4B70
:1015C000AB4D186800F0E4FE0A21400190FBF1F1F8
:1015D000452000F027FF02F031FD0146232000F0F6
:1015E00019FF2F2000F004FF46B2072000F000FF93
:1015F0002B7810F0020F14BF4FF0FF340124012BA1
:1016000000F09480072000F0F3FE04285ED13C2017
:1016100000F0F6FE002852D13D2000F0F1FE002837
:1016200014BF4FF0FF3401242B78012B14D102F0AA
:1016300065FA002808BF002402F060FA022808BFFB
:10164000002402F05BFA012808BF4FF0FF3402F0DB
:1016500055FA032808BF01242146864C2F2000F0AC
:10166000D9FEFFF775FE2378834F012B60D04FF032
:10167000804004F0EDF9814804F0EAF900233B7062
:101680002378002B00F0CB802E787D4C012E00F0CB
:10169000D5800023237004F08BF8642807D91F201D
:1016A00000F0A6FE18B9774B186802F095FDBDE86A
:1016B000F041754B3420B3F9001000F0ABBE3D2073
:1016C00000F09EFE0028A7D00024ADE7072000F020
:1016D0008FFE10F0010F4FF03C0014D100F090FE8F
:1016E00058B93C2000F08CFE00289DD13D2000F030
:1016F00087FED8B1644264B296E73D2000F080FED8
:101700000028E1D1EDE700F07BFE06463D2000F029
:1017100077FE8642D8D03C2000F072FE002883D1AC
:101720003D2000F06DFE0028CED0E3E734467BE795
:10173000564E96F80080B8F1010F0CD15448FFF7CF
:1017400002FE5448FFF7FFFD5348FFF7FCFD4146FA
:10175000442000F05FFE367866B94D48FFF7F3FD90
:101760004C48FFF7ECFD4C48FFF7E9FD31464420BB
:1017700000F050FE3B782BB900F006FD00F03AFD7A
:1017800001233B70454B00211A883C48A2F10A0313
:10179000434A5A43462392FBF3F202F2537292B247
:1017A00004F06FFA3F48FFF7C1FD0146402000F00A
:1017B00031FE3D48FFF7BAFD0146412000F02AFE08
:1017C0003A48FFF7B3FD0146422000F023FE384BB4
:1017D0003220B3F9001000F01DFE364801F087FDFD
:1017E0000646354801F083FD10218046304602F060
:1017F00013FB324E10213080404602F00DFBB6F94B
:101800000230B6F90010B0809942B8BF19463320B3
:1018100000F000FE2378012B3FF436AF27E703F0FA
:10182000C1F9274B3220B3F9001000F0F3FD254B2E
:101830003320B3F9001000F0EDFD25E702F064F964
:10184000237833B902F090F802F08EF802F08CF8A9
:1018500026701D4B4320197800F0DCFD2B78012BFE
:101860003FF419AF15E700BFD40B0020B0090020EA
:101870009E0900209F0900209D090020002C0140A6
:10188000A9090020A4090020240D00209C090020A3
:10189000940B0020B40B0020BC0B0020AC090020EE
:1018A00056FAFFFFF40B0020FC0B0020040C002074
:1018B000B80D0020A80C0020AC0C0020B6090020B8
:1018C000EE0D0020E40D0020A80900202DE9F041D4
:1018D000282000F08DFD05B2222000F089FD06468B
:1018E000FFF736FD074603F063FF02F073FB22208B
:1018F00000F07EFD012840F0EB80FFF78BFD7A4A77
:1019000085EAE5731488A3EBE5739BB29C428CBF18
:1019100004460024754B1A7898468AB903F0BCF93E
:10192000734B2F20B3F900504FF43E63C4EBC42433
:1019300094FBF3F400F056FD21B240B203F020F91D
:1019400098F80030012B0BD140F6AC5044434FF4D3
:101950003E6094FBF0F4674B1C80674BB3F900507A
:101960002946282000F056FD332000F03BFD3620AC
:1019700000F03EFDDFF8B481044698F800300028FE
:1019800018BF43F0010388F8003003F011FF5B4BF0
:101990000546186802F0E8FB2D1A312D0AD998F88F
:1019A00000303BB10021362000F034FD062002F06B
:1019B00017FB00245248FFF7B9FC04F00101014372
:1019C000C9B2392000F026FD4E48FFF7AFFCC4F342
:1019D00040010143C9B23A2000F01CFD4A48FFF71C
:1019E000A5FCC4F380010143C9B23B2000F012FD05
:1019F0004648FFF79BFCC4F3C0010143C9B23C2039
:101A000000F008FD4248FFF791FCC4F300110143C8
:101A1000C9B23D2000F0FEFCA3065DD43D48FFF7AF
:101A200085FC01463C4C3E2000F0F4FC22782AB9AB
:101A300001F0F6FE01F008FF01F038FF2378012BDA
:101A40000DD1282000F0CEFC80B201F09FFF3B209A
:101A500000F0C8FC003818BF012001F0B9FF2E20AB
:101A600000F0C6FC00284FF01B00D4BF0024402427
:101A700000F0B8FCB842CCBF042500250F2000F0D0
:101A8000B1FC2543B842D4BF082400242C4327D1FD
:101A90003A2000F0B5FC08BB204B1D78002E08BF93
:101AA0004FF480742146242000F0B4FCD5B11C48CA
:101AB000FFF745FC1B48FFF746FC1B48FFF743FCBC
:101AC0000121222000F0A6FCBDE8F04102F0AABAF4
:101AD000FFF7A0FC00241DE70121A3E70125DDE7B6
:101AE0000025DFE7BDE8F081AA0900209F0900205A
:101AF000EA0D0020A0090020BE0D0020A40900204E
:101B00001C0C0020140C0020E40B0020A40B00206F
:101B1000AC0B00209C0B00209E090020A80900208F
:101B2000EC0B0020CC0B00200C0C0020B409002092
:101B30001E2838B507D12C4B1C6800F059FCC1B2E7
:101B4000204602F0F3FA022000F052FC274D284C08
:101B50002860032000F04CFC2060042000F048FCCA
:101B60006860052000F044FC6060142000F03AFC3E
:101B7000204B1860152000F035FC1F4B1860112019
:101B800000F030FC1D4B1860102000F02BFC1C4BAB
:101B900018600E2000F026FC1E234343194A5B11F7
:101BA0000020136000F024FC174BC1B218703020E5
:101BB00000F030FC012000F01BFC144BC1B2187087
:101BC000312000F027FC162000F012FC104B18709A
:101BD000172000F00DFC0F4B18800A2000F008FCC5
:101BE0000D4B188038BD00BFA4090020DC0C00207C
:101BF000D40C0020EC0C0020F00C0020D00C0020B5
:101C0000CC0C0020E80C00209F0900209E09002039
:101C10009C090020AC090020AA090020014B18688B
:101C200000F086BBB00900202DE9F0410026ADF69A
:101C3000282D00F07DF9984F00F09AFA974B314625
:101C40002120974C1E7000F0E5FB3946052295488F
:101C5000954D01F08DFB39460622944801F088FB32
:101C600021460222924801F083FB29460122914835
:101C700001F07EFB324621468F4801F079FB294670
:101C800002234FF400728D4801F0FEF8294602232A
:101C900010228B4801F0F8F8022321461A468948A1
:101CA00001F0F2F8294602232022874801F0ECF8DF
:101CB000294602231022854801F0E6F833462146E2
:101CC0000822834801F0E0F821460423802281485D
:101CD00001F0DAF8214604234FF400527E4801F067
:101CE000D3F8DFF84882294604234FF480627B480A
:101CF00001F0CAF8214604232022794801F0C4F8F3
:101D00002146404604234FF4007201F0BDF82146FD
:101D100004234022734801F0B7F8294604234FF406
:101D20000042714801F0B0F8294604234FF4804284
:101D30006E4801F0A9F8214602234FF480526C4806
:101D400001F0A2F8022304226A496B4801F09CF8D2
:101D5000294602230822694801F096F8042310223C
:101D60003946674801F090F801F048FA10214FF029
:101D7000007003F061FB00F02BF900F0A1F900F016
:101D8000D1F900F0DFFB02F0F9F84620FFF7D0FEB2
:101D90001E2000F02DFB0AACC2B25A49204602F0C8
:101DA0002FFE1E2000F024FB574DC2B257490DF5FF
:101DB000A56002F025FE2946204602F074F9294666
:101DC0000DF5A56002F06FF94FF4ED71204602F0B9
:101DD0004BFB40F25A51204602F046FB4FF49871FB
:101DE000204602F041FB4FF4C971204602F03CFB53
:101DF00040F22151204602F037FB40F222512046AA
:101E000002F032FB40F22351204602F02DFB40F25B
:101E10002451204602F028FB40F22551204602F0D2
:101E200023FB40F22651204602F01EFB40F22751D0
:101E3000204602F019FB4FF4A561204602F014FB86
:101E4000334B684633491C6000F018FA324B684641
:101E500001223249C3F800D000F034FA68460A2261
:101E60002F4900F02FFA684664222E4900F02AFA22
:101E70004FF4FA7268462C4900F024FA4046FFF706
:101E80005EFA0421202000F0C5FA00F05DFB304628
:101E90000DF6282DBDE8F08100080140C50900209D
:101EA00000100140B00C0020000C0140B40C0020D8
:101EB0002C0C0020A80C0020AC0C00201C0C0020D6
:101EC000140C0020E40B0020A40B0020AC0B00201D
:101ED0009C0B0020EC0B0020D40B0020CC0B00202E
:101EE000C40B0020B40B0020BC0B0020940B00207E
:101EF000F40B002000140140FC0B0020040C002017
:101F0000DC0B002000640040F11100080068004074
:101F1000A409002000040040B009002001130008BB
:101F2000CD180008AD150008511100080C0C002058
:101F300008B503F09BFB022003F070FB224B234A01
:101F400040F202301A6003F016FF40F2033003F053
:101F500012FF4FF4417003F00EFF40F2053003F022
:101F60000AFF40F2923003F006FF40F2913003F096
:101F700002FF40F20B3003F0FEFE4FF4607003F0FE
:101F8000FAFE40F2813003F0F6FE40F2823003F0B8
:101F9000F2FE4FF4207003F0EEFE40F2093003F041
:101FA000EAFE40F2862003F0E6FE4FF4407003F0B4
:101FB000E2FE40F2993003F0DEFEBDE8084040F258
:101FC0009A3003F0D8BE00BF0CED00E00003FA0524
:101FD00008B502224FF480630321334803F0FAF975
:101FE0004FF4E131314803F065FE08212F4803F03A
:101FF00075FE4FF400512D4803F079FE0C212B485B
:1020000003F081FE0021294803F077FE00212748D4
:1020100003F07FFE254803F092FE254B1B78EBB1C1
:10202000224803F091FE0221224803F029FC0221FC
:10203000204803F088FC02211F4A1E4803F09EFC42
:10204000002202211B4803F053FC02211948002200
:1020500003F042FC0221174803F056FC0321174805
:1020600003F00EFC0321144A144803F087FC0022FD
:102070000321124803F03CFC002203210F4803F027
:102080002BFC03210D4803F03FFC4FF44052032189
:102090000A4803F015FC0948032103F05DFCBDE884
:1020A0000840024803F03BBE0010014000480040D9
:1020B000C50900200004024004480040000002401E
:1020C00010B5164C042320460222032103F082F9A6
:1020D0000823012220460021A4F5444403F07AF9A4
:1020E00020460F4903F0E6FD2046082103F0F6FDE7
:1020F0002046002103F0FBFD20460C2103F003FEE7
:102100002046002103F0F9FD2046002103F001FEE6
:102110002046BDE8104003F002BE00BF00080140A9
:1021200020A1070008B5F021112003F0D5FE1120F1
:1021300003F0C4FEF021102003F0CEFE102003F0C7
:10214000BDFE1D2003F0BAFE00211D2003F0C4FED9
:10215000142003F0B3FEE021142003F0BDFE132091
:1021600003F0ACFEBDE80840E021132003F0B4BE4C
:1021700008B503204FF41C7103F04CFBBDE8084088
:10218000002003F01FBB000010B5184C4FF4807303
:1021900002220321164803F01DF9204603F058FCE3
:1021A000002320221946204603F035FC204610214A
:1021B00003F053FC07222046002103F052FC0021CB
:1021C000204603F014FD204603F06BFD20464FF43B
:1021D0007A72002103F055FD204640F6340103F0E9
:1021E0003EFC2046BDE8104003F02DBC002C014011
:1021F0000008014008B5022303211A461D4803F0D8
:10220000E9F84FF0804003F023FC00234FF08040BA
:102210001A46194603F0FFFB00214FF0804003F0FF
:102220001CFC4FF0804003F0FFFB4FF0804003F0B8
:1022300005FC8F214FF0804003F011FC02214FF08C
:10224000804003F0F9FC062202214FF0804003F0A9
:1022500008FC02214FF0804003F0C9FC4FF08040A1
:102260004822022103F00DFDBDE808404FF08040F8
:1022700003F0E9BB000801407047000038B50D4687
:1022800004460162084603F0CFFB284603F0D1FB69
:10229000284640F2CF2103F0E0FB28464FF6FF71BD
:1022A00003F0DDFB064B2046C4E90033C4E90233EA
:1022B0004FF0FF33C4E904330023636238BD00BF2D
:1022C00079220008F8B5436A0446032B0E461546EA
:1022D0002ADC006A03F0BCFB144F636A0122F95C3C
:1022E000206A03F0BEFB636A0022F95C206A03F0F7
:1022F000C8FC0221636A05EB850505EB850503F142
:102300000802AD0044F82360994024F81250206A76
:1023100003F074FB0021206A03F0CAFC206A03F07A
:1023200092FB636A01336362F8BD00BFF85E000888
:102330002DE9F04704460025022600F1100700F1C0
:10234000180806FA05FA5146206A03F05BFBD0B183
:10235000206A03F0ABFC51468146206A03F058FB2B
:10236000236A37F81520343353F825100A4443F80C
:10237000252054F825309847206A03F097FCA0EBFD
:10238000090028F815000135042DDAD1BDE8F087E1
:1023900030B500F1100100F118030A2500200C46A9
:1023A000228924886A43B2FBF4F202318B42104442
:1023B000F5D130BD1C2210B5084C02FB0042D46898
:1023C0008C4209DC12698A4206DB054A42F8201079
:1023D000FFF7AEFB002010BDFF20FCE71801002036
:1023E00000000020014B53F820007047000000203F
:1023F000024B53F820004011704700BF000000203E
:10240000034B53F820004011431E58425841704777
:1024100000000020024B490143F82010704700BF24
:1024200000000020014B43F82010704700000020FE
:1024300070B506460024074D3146686800F082FCFE
:1024400008B9E0B270BD0134462C05F11C05F3D18A
:102450004720F7E7180100200023064A91698142CE
:1024600001D1D8B270470133462B02F11C02F5D1DD
:1024700047207047180100201C22024B02FB00304D
:10248000704700BF180100201C22044B02FB0033E0
:10249000D3E90303C01A18BF0120704718010020B8
:1024A0000023064A0649906910B1506941F823009B
:1024B0000133462B02F11C02F5D1704718010020B0
:1024C00000000020014B1954704700BFC6090020CE
:1024D000024B1A5C11431954704700BFC609002013
:1024E000024A135C23EA010313547047C609002013
:1024F000014B185C704700BFC6090020024B1A68E8
:10250000024BC3F8DC2370478C090020180100201F
:1025100010B50A4C0321204603F027FA2046032178
:10252000074A03F034FA20460321802203F03FFAE1
:102530002046BDE81040032103F00EBA000002401F
:10254000140A0020FFF7E4BF2DE9F04F0024A04655
:10255000404F414DA1B00321384603F021FA814696
:10256000C0F1800608B9FFF7D3FFA246DFF8F0B04C
:10257000564539DCB442B8BF3446002EEBDDC9F114
:102580007F0915F809300A2B01D00D2B53D10023F8
:1025900020212846AB5500F0F3FB90F8008004465C
:1025A000B8F1000F28D10A21284600F0E9FB0446C3
:1025B0008DF80080237823B90D21284600F0E0FB38
:1025C00004460023DFF89C802370D8F80010C1B9BE
:1025D000FFF79EFF012E04D0204C214E14F8011B62
:1025E00029BB0024A046B6E715F80A10584603F0A8
:1025F0009BFB0AF1010ABBE7411C684600F0B0FBF7
:10260000D8E7284600F09EFB044610B108F1080800
:10261000DBE7D8F80030002BDAD0FFF779FF10485D
:1026200003F09FFB6846D8F80430984793E730469C
:1026300003F07AFBD2E72B78212B8CD1B8F1000F75
:1026400089D0FFF765FF6846D8F804309847002422
:1026500081E700BF00000240140A00205164000816
:1026600000480040646800082DE9F041254B1B78C4
:1026700033B981B2244803F057FB0020BDE8F08154
:10268000224C23492268234D0B68D201C7B22A4449
:102690000A280E46D75401D07F2B2FD1DFF87C803B
:1026A0001D4F02224046114603F000F910B93B6865
:1026B000002BF6D00221194803F057F932680221A5
:1026C0000132164892B203F072F9226802211348CF
:1026D00005EBC21203F05BF902221048114603F029
:1026E000DFF802210D4803F037F92368B3FA83F3CA
:1026F0005B09236000233B603360BEE701330B605E
:10270000BBE700BFC5090020004800400C0A0020BC
:10271000100A0020940A0020C00800200000024097
:10272000704708B503F0C2FB01F0A4BC044B054898
:10273000196853F8042C083B1B6800F051BD00BF1A
:10274000F0F7FF1F6C6400082DE9F04786B000F039
:1027500065FB0678702E08D1002001F0C5FD4D49BB
:1027600006B0BDE8F04701F085BD632E0AD1002018
:1027700001F0BAFD01F09FFE474806B0BDE8F04702
:1027800000F02EBD202100F0FBFA03780BB943487E
:10279000F3E700F043FB2021074600F0F1FA03784D
:1027A00005460BB9642EF2D10024384605F8014BDA
:1027B000FFF73EFE0746284600F030FB472F8246D3
:1027C00001D13748D9E7642E0CD1204601F08CFDA9
:1027D000394602F04AF80146324806B0BDE8F047F3
:1027E00000F0FEBCA1460DF108082021504600F083
:1027F000C7FA037805460BB9032CC8D1504605F833
:10280000019B00F0F2FA48F82400284600F006FB8D
:102810000134042C8246E8D1DDE90248742E4FF0E1
:102820000000049DBDF9149011D101F05DFD4346F7
:1028300022463946CDE9005901F0A5FE431D014667
:10284000042B1CD8DFE803F0161913100D0001F05B
:102850004BFD434622463946CDE9005901F0A1FE21
:10286000ECE721461048B8E741461048B5E729464D
:102870000F48B2E721460F48AFE70F487DE70F4BFF
:102880000F4A0128D8BF1A460E4806B0BDE8F047E7
:1028900000F0A6BCC9280008756400089764000809
:1028A000AA640008BE640008D3640008E764000856
:1028B000FB6400080F65000837650008E96500083B
:1028C00058630008536500082DE9F047DDF82080C3
:1028D0009DF824900C4615461E46FFF7CDFD47682F
:1028E0000A4800F07DFCB9F1000F0CD0084800F058
:1028F00077FC2B4622463946CDE90868BDE8F0470B
:10290000044800F06DBC0448F1E700BF7D65000895
:10291000826500088A65000886650008F8B50C48DD
:1029200000F05EFC00240B4FE6B23046FFF7A4FD3A
:1029300005463046FFF7DCFDC30704D4D5E9011294
:10294000384600F04DFC0134462CEDD1F8BD00BFF7
:102950009B650008BD650008F8B50024084EE5B287
:102960002846FFF789FD47682846FFF73BFD0134FD
:1029700002463946304600F033FC462CEFD1F8BD14
:10298000C76500082DE9F04100F048FA0446104FF1
:10299000DFF840802C21204600F0F2F90023067871
:1029A000054603702046FFF743FD47280CD0FFF78C
:1029B00019FD014640462C4600F012FC2C2E04F86E
:1029C000016BE7D0BDE8F08121463846F3E700BF50
:1029D000D0650008CB6500082DE9F04F2F488DB079
:1029E00000F0FEFB00262027DFF8C480DFF8C4904B
:1029F000DFF8C4A0F5B22846FFF73EFD044628469E
:102A0000FFF776FD10F0010B3AD16268A368284603
:102A100005920493FFF7E6FCDDE9043239460090A5
:102A2000404600F0DDFB584601F05EFC0DF11F034F
:102A300002930BAB01930AAB0093294609AB08AA9A
:102A400001F034FB78B19DF81F10154A154B16485C
:102A5000002908BF134601930B9B08990093DDE9F9
:102A6000092300F0BDFB2846FFF70EFD88B123685F
:102A700050460093E168D4E9042300F0B1FB2C2711
:102A80000136462EB6D1094800F0AAFB0DB0BDE8CC
:102A9000F08F484600F0A4FBF1E700BFF5650008A1
:102AA000EF650008EA6500081D660008B6660008C4
:102AB000F7650008A56600085E660008F7B51148CE
:102AC00000F08EFB104800F08BFB00250F4FEEB29C
:102AD0003046FFF7D1FC04463046FFF7D5FC60B125
:102AE0003046FFF705FDC30707D4636938460093F6
:102AF0006168D4E9032300F073FB0135462DE6D16C
:102B000003B0F0BDBC660008D3660008EF6600089D
:102B100008B501F0C3F90146064800F061FB00204A
:102B200001F0E2FB01F006FFBDE80840024800F0BA
:102B300057BB00BF026700081E67000808B5FFF713
:102B4000AFFCBDE80840014800F04ABB2E67000812
:102B50002DE9F04F85B000F061F9044600F045F929
:102B600020210546204600F00BF903782BB92C48AC
:102B700005B0BDE8F04F00F033BB0026B046DFF8EB
:102B8000B090441C2C21204600F0FAF8074690F83B
:102B900000A080F800802046FFF74AFC3C4647280A
:102BA00004F801AB1DD004AB334403F80C0C013620
:102BB0003B782C2B01D1092EE4DD1A4803F0CDF827
:102BC000DFF86080DFF86C902021404603F0CDF8FC
:102BD000044618B9002D08DC6A1C06D005B0BDE813
:102BE000F08F484600F0FCFAE2E70F4FDFF848A00C
:102BF0000DF1040BA6420BD01BF80400FFF7F2FB0B
:102C000039460246504600F0EBFA4F460134F1E7F0
:102C1000064800F0E5FA6B1CD6D0013DD4E700BFB2
:102C20004067000800480040E9650008E7650008C3
:102C3000AA640008F56D00085F670008F8B500F0A9
:102C4000EDF82021074600F09BF80378044623B9ED
:102C50001648BDE8F84000F0C3BA002606703846B2
:102C6000FFF7E6FB472805461AD06378212B0AD0E8
:102C70007E2B08D02F2B06D0611C0D4800F062F887
:102C800020B10C48E5E70126A11CF6E70121284602
:102C90001EB1FFF725FC0848DBE7FFF719FCFAE750
:102CA0003946BDE8F840054800F09ABA6467000864
:102CB000746700087B6700088A6700089B67000844
:102CC00038B500F0ABF82021044600F059F803783D
:102CD00023B90F48BDE8384000F082BA002300F85D
:102CE000013B00F022F905462046FFF7A1FB4728EB
:102CF00007D02946FFF75EFB08B90648EAE7064811
:102D0000E8E72146BDE83840044800F069BA00BF52
:102D1000B2670008CD670008D66700089B67000807
:102D200008B501F02BF930B9FEF702FF0348BDE802
:102D3000084000F055BA0248F9E700BFEB67000809
:102D4000FF670008431E013913F8010F11F8012F26
:102D500010B10AB19042F7D0801A18BF0120704715
:102D6000013911F8013F0BB90370704700F8013BBE
:102D7000F7E7034600201A5C02B970470130FAE712
:102D80000346184613F8012B0AB18A42F9D170475D
:102D900000290346F0B520DA2D2003F8010B0120AD
:102DA00049421D46C71A91FBF2FC02FB1C1130314F
:102DB00029702C46BCF1000105F101051E4605EB0A
:102DC0000700F0DC00232B70B4420BD93378227853
:102DD00006F8012B04F80139F6E704D130224170DE
:102DE00002700120F0BD0020DBE730B503782D2B09
:102DF00011D14FF0FF34013000210A25431E01E0BC
:102E000005FB012113F8012F303AD0B20928F7D978
:102E100004FB01F030BD0124EEE7000010B5134CB7
:102E200002780146A2F10A03DBB2162B00F1010081
:102E300017D9A2B10846FFF79CFF0C4C0138084493
:102E40008142024609D2137801380A3BDBB2162BC5
:102E500003D824FA03F3DB07F2D4002353700846A7
:102E600010BD24FA03F3DA07DAD4E3E709004000DF
:102E7000002310B5934200D110BD51F8234040F813
:102E800023400133F6E70000013BDBB2032B70B5B2
:102E90000C4615460160828011D80B4A0B48D15C64
:102EA0000B4AC65CD25C2B46204602F093FA012EF8
:102EB00009D129462046BDE8704002F07EBD0026BB
:102EC00002223146EFE770BDEC680008F4680008A4
:102ED000F06800080029B4BF4FF0FF32012270B53E
:102EE000642401FB02F3591103F01F036343013211
:102EF0004FEA6314054604BF2D2305F8013B06463F
:102F00000A222846FFF744FF2E23092C2B54D8BF52
:102F1000302305EB0002CEBF501C5370901C21469D
:102F20000A22FFF735FF304670BDF0B50278034640
:102F30002D2A15D14FF0FF30013300250A2702E07A
:102F40000B4607FB0545194611F8012BA2F1300489
:102F5000E6B2092EF4D98AB902EB45125043F0BD0E
:102F60000120EAE74901B1FBF4F17C430A4413F87C
:102F7000011F3039CEB2092EF4D9EDE70A24002220
:102F80002746F4E7034608462BB11A6811701A6801
:102F900001321A607047FFF767BB2DE9F843141E32
:102FA00006460D4616DC4FF02008DB071FD5002330
:102FB0005F1B21E00132A95C0029FBD1A242ACBF1A
:102FC0000C46A41A13F0020F0CBF4FF020084FF06C
:102FD0003008EAE70022EEE741463046FFF7D2FF2D
:102FE000013F002FF8DC24EAE473E41AE0E7274607
:102FF000F7E73046FFF7C6FF07EB050915F8011B99
:103000000029F6D12546002D07DC002CACBF09EBCA
:10301000040009F10000BDE8F88341463046FFF79F
:10302000B1FF013DEFE72DE9FF478046DDE90C7A6E
:1030300015461C4651B930233A46ADF8043001A973
:103040005346FFF7AAFF04B0BDE8F08723B10A2A70
:1030500029D1002927DA494200238DF80F300E9B31
:103060000DF10F023A3BB1FBF5F005FB1016092EEE
:1030700088BFF61830368D4202F1FF3902F8016C34
:1030800013D944B1A7B11AF0020F11D02D21404637
:10309000FFF778FF013F53463A4649464046FFF75F
:1030A0007CFF2044CFE70024D6E701464A46DAE712
:1030B0002D23002409F8013CA2F10209EBE70000EE
:1030C0002DE9F04307460E46144600254FF00A0846
:1030D000DFF808918BB033783BB917B100223B6819
:1030E0001A7028460BB0BDE8F083252B6FD173789A
:1030F000002BF2D0252B06F1010267D02D2B0ABF41
:1031000001230023B21C164612F8011B302915D0EA
:103110000022304610F8011BA1F1300C5FFA8CFE42
:10312000BEF1090F0DD973290FD12168043400298C
:1031300008BF49463846FFF730FF14E043F002036A
:10314000E1E7064608FB02C2E3E764290ED16120ED
:103150002146CDE90130012300920A223846096850
:103160000434FFF760FF05440136B4E7782907D13E
:1031700021466120CDE90130009200231022EDE7C5
:10318000582902D121464120F4E7752906D1612052
:103190002146CDE9013000920023DEE766290AD1FD
:1031A000216807A8CDE904230434FFF793FEDDE985
:1031B000042307A9BEE76329D6D1216804348DF81A
:1031C000181000218DF8191006A9B3E716463846E5
:1031D0003178FFF7D7FE0135C6E700BFF868000871
:1031E0000FB407B504AA52F8041B00200192FFF7A0
:1031F00067FF03B05DF804EB04B0704707B52D48D6
:1032000001F024FE2B4801F026FE2A4801F02DFE95
:10321000284801F025FE0121264801F002FE25483C
:1032200001F0D2FD0023244A0193019B934203DC69
:10323000019B01330193F8E71E4801F0D5FD1D48BD
:1032400001F0E5FD05211D4A1A4801F013FE194859
:1032500001F059FE01211A4A1A4802F08FFB0121A0
:10326000194A184802F093FB4FF480720121154867
:1032700002F03EFB4FF480620121124802F02CFB69
:103280003C2201210F4802F092FB01210D4802F07F
:103290003BFB01210B4802F040FB0121094802F0F1
:1032A0005BFB044801F025FE024803B05DF804EB27
:1032B00001F092BD002401407F380100240C002061
:1032C0004C24014000000240300C002003468B4299
:1032D000084606DD914203DC9342A8BF1346184618
:1032E00070479342FBDC9142A8BF1046704773B50C
:1032F0006E46056805F11E04963534F80A2C34F83C
:10330000141C34F81E0CFFF7E1FF1E34AC4226F803
:10331000020BF2D1BDF80230BDF800001844BDF830
:1033200004301844BDF806301844C0F38F0002B0D2
:1033300070BD00000D4B98420BD003F5806398429E
:103340000DD0A3F5006398420ED107290CDCC8B25A
:103350007047012908DC01F10800C0B27047052957
:1033600002DC01F10A00F8E710207047000C014070
:10337000012370B593400C461546002206461146BF
:103380009BB2204602F026F829462046FFF7D2FFDE
:103390003368034A9B1A034AC3F34F03D05470BDEA
:1033A000300C0020240C0020074B084A991C1360A5
:1033B000074A1160074A191D1160074A991D1160DB
:1033C000064A083313607047300C0020B00C002010
:1033D000B40C00202C0C0020A80C0020AC0C002009
:1033E000124B30B553F82120114B53F821401346AE
:1033F000A242A8BF2346016801F1C8059D4206DB31
:10340000A242B8BF224602F1C804A14203DD013B3B
:103410000360002030BD994203DA013B03600120C4
:10342000F8E79142C8BF0260F9E700BFD40C002062
:10343000DC0C0020F0B5134F134E7D6874686422D5
:10344000A54218DD0B1B53432C1B93FBF4F3D31A3B
:1034500002683968541A642262433468641A92FB21
:10346000F4F29B1A002BB8BF5B42642BCABF016009
:1034700001200020F0BD491B4A43631B92FBF3F37C
:10348000E6E700BFDC0C0020D40C0020034670B53A
:1034900072B31848184D00686E688E420EDC8C1BA3
:1034A0004FF448616143154C6468A41B91FBF4F12F
:1034B00041436420491191FBF0F1481EBAB9104A0A
:1034C0002C6811681B1B5A0101F5486353430B4AD2
:1034D0005B111268121B93FBF2F35B1A43BF584354
:1034E00020F01F0090FBF1F0184648BF404270BD2D
:1034F0000448CFE7B80C0020DC0C0020D40C0020DE
:10350000C80C0020C40C0020124B134A1B68114643
:103510009842A8BF1846114B1B689842B8BF18467E
:103520001368834207DC0E4909680B449842A8BF20
:103530001846106070470028FBDC03EAE3738342FF
:1035400005DB084A12689B1A9842B8BF1846086003
:10355000704700BFEC0C0020C00C0020F00C0020D5
:10356000BC0C0020F40C0020884212DD3F31814267
:10357000ACBF4FF4C86000201368002B0CDB834203
:10358000A8BF0346B0F5486FACBF00200120136010
:1035900070474FF44860EFE741428B42B8BF0B469B
:1035A000F0E7000010B50468002C0BDB0B4B1B6828
:1035B000C91A01EB810121EAE1729442A8BF1446C5
:1035C000046010BD064B1B68C91A01EB810101EABA
:1035D000E1739C42B8BF1C46F2E700BFE80C002034
:1035E000E40C0020064A1388013313804FF47A72EA
:1035F000D1F8023093FBF2F3024A1360704700BF28
:10360000340D00202C0D00201C4B70B51A88D1F809
:103610000210013292B21A804FF47A7391FBF3F1E7
:10362000174B184C1960184B2488184D1B88952A85
:1036300088B2234498BF2880154C2E88A0EB030342
:103640009BB298BF2380B14202DA962A88BF2880B5
:10365000104D2E88B14202DD962A88BF288021882D
:10366000994202D9962A88BF23800B49088898423C
:1036700002D2962A88BF0B8070BD00BF340D002097
:10368000300D00201E0D00201C0D0020220D0020FA
:10369000FA0C0020200D0020F80C0020144A887835
:1036A000138801339BB21380CA78124940EA022082
:1036B0004FF47A72B0FBF2F2B0F57A6F28BF0E4881
:1036C0000A8022BF0088121A0A80952B0A880B49AB
:1036D00001D80A8004E00888904201D9962BF8D1DD
:1036E00007490888904202D2962B88BF0A8070470B
:1036F000340D00201C0D00201E0D0020FE0C0020AB
:10370000FC0C0020124B10B51A881248013292B2FC
:103710001A80CB788978952A41EA03214FF47A738D
:10372000B1FBF3F303800C4801D8038008E0048860
:103730009C4205D9962A03D042F6F724A142F4D838
:1037400006490888984202D2962A88BF0B8010BD8D
:10375000340D00201E0D0020020D0020000D002061
:10376000064A138801331380CA788B7843EA022310
:103770000A22B3FBF2F3024A13807047340D002093
:10378000240D0020064A1388013313804FF47A7207
:10379000D1F8023093FBF2F3024A1360704700BF86
:1037A000340D0020280D002010B54FF46164094A43
:1037B0000948138801331380D1F80220074B0849C8
:1037C0001A600B680A60D31A93FBF4F3046823446D
:1037D000036010BD340D0020040D0020080D0020F2
:1037E000140D002010B54FF47A74094A0948138863
:1037F00001331380D1F80220074B08491A600B6887
:103800000A60D31A93FBF4F304682344036010BDE9
:10381000340D0020100D00200C0D0020180D00208C
:10382000002307B5074A0120CDE9002300F05CFD25
:1038300008236A4640F2163100F099FC03B05DF8A7
:1038400004FB00BF0500C01207B5164B00201A7814
:103850008DF801008DF80020C522ADF80220124A33
:10386000019011780131C9B2152994BF11701070FF
:10387000127812B911221A7003E0082A0DD00F2A0B
:103880000DD0012000F030FD08236A4640F22931B6
:1038900000F06DFC03B05DF804FB8622EBE7D92253
:1038A000E9E700BF370D0020360D002007B50022E4
:1038B000074B0120CDE9002300F016FD08236A46DE
:1038C00040F2455100F053FC03B05DF804FB00BF2B
:1038D0007E100018B0F5987F044B05D10A78452A70
:1038E0000CBF012200221A7018787047480D002082
:1038F000B0F5C97F21D10B68154A23F07F431360CF
:10390000144A93421AD002F598423D3293420BD0AA
:10391000114A934211D10322104B1A700822104B06
:103920001A7078220F4B07E000220C4B1A7003220A
:103930000B4B1A70E1220B4B1A7070470122074B98
:103940001A700222064B1A70D222064BF4E700BF0F
:103950003C0D00202D04800074038000490D0020E0
:10396000C9080020CA08002048F2612307B50120D9
:10397000ADF8003000F0B8FC02236A4640F2323164
:1039800000F0F5FB03B05DF804FB000040F2EE230D
:10399000984207B538BF18460B4B18600B4B800098
:1039A000009303880120ADF8043049F68013ADF888
:1039B000063000F099FC08236A46AA2100F0D7FBE4
:1039C00003B05DF804FB00BF440D00205F59FF0009
:1039D0002DE9F341414B424C197822780F278B187F
:1039E00000268DF80010FF21054603F5E47303EB74
:1039F000132301208DF80110ADF802708DF8053009
:103A00008DF806208DF8046000F06EFC6A460723EE
:103A1000BA2100F0ACFBB54214BF64220422314D40
:103A2000DFF8D480297801208B1803F5FC7303EBB1
:103A300013238DF800304EF22103ADF8023041F629
:103A400021738DF80110ADF804308DF806708DF8F3
:103A5000072000F049FC6A46A821082300F087FBF4
:103A6000214F98F8003001208DF800303B788DF818
:103A700001304DF67973ADF802301C4B019300F024
:103A800033FC08236A46A92100F071FB1849194A42
:103A90000B78207801330B702B78013001332B70B9
:103AA00098F800302070013388F800303B780133FB
:103AB0003B7013780133DBB25C2B13700BD1BE2348
:103AC0000B70D0232B70E92388F800304D2313703E
:103AD00080233E70237002B0BDE8F081C908002049
:103AE000C8080020C5080020380D00201DC7E021AF
:103AF000C4080020C7080020C6080020014B187821
:103B0000704700BF490D002013B5114B114C1B78B5
:103B100001208DF800300C238DF801308F238DF8B3
:103B2000023023788DF80330F0238DF8043000F054
:103B3000DBFB05236A464FF4E97100F018FB23789C
:103B40001033DBB2ED2B08BF0D23237002B010BD84
:103B5000CA080020400D002038B505461A4C072140
:103B6000204601F08DFE20460721184A01F006FF8D
:103B70002A462046072101F00AFF5022204607214D
:103B800001F015FF2046072101F0DDFE2046072148
:103B900001F0BAFE20460022072101F0A9FE2046CE
:103BA0000022072101F098FE20464FF480520721A1
:103BB00001F086FE2046072101F0CEFEBDE8384028
:103BC000034802F0C1B800BF0000024004440040B6
:103BD000004400400022084910B513460C4611F875
:103BE000010B01320344622A9BB2F8D1B4F862009F
:103BF000C31A5842584110BD500D0020F8B5734DFE
:103C00002B78042B40D8DFE803F0034057598D0090
:103C100006216F4801F034FE06216E4A6C4801F01F
:103C2000ADFE06216C4A6A4801F0B1FE642206210D
:103C3000674801F0BCFE0621654801F07BFE0621C5
:103C4000634801F061FE00220621614801F050FE48
:103C5000002206215E4801F03FFE002206215C485A
:103C600001F02EFE06215A4801F076FE5B4802F074
:103C700066F800225A4B1A805A4B9988186801F04E
:103C80009EFE2B7801332B70F8BD564B564C99880D
:103C9000186801F092FE23781BB95448FFF75CFFC7
:103CA000EFE75348FFF758FF4B4B5B78002BE8D00A
:103CB0002378013B2370E4E70323E4E7FFF78AFF5F
:103CC000454B40B3464A1288642A24D1B3F85220A7
:103CD0004849053A02EBD27252100A8093F82B1031
:103CE00093F82A2042EA012243490A8093F85710A8
:103CF00093F8562042EA012240490A80D9799A79FC
:103D000042EA01223E490A8093F82010DA7F42EA13
:103D100001223C490A80002283F8622083F8632054
:103D20000423B0E7384E002848D130800024374FB4
:103D30002920B6F900103C80FEF76CFB314A30496F
:103D400012880988294B0A44712112B292FBF1F2C0
:103D500039781A70B7F90020880083F84B0049427F
:103D600090115242C9B2C2F3072259719A71D972A5
:103D70001A733178727883F84C009976DA7683F882
:103D8000201083F8212021462246184613F8014BC3
:103D9000013122444E2992B2F8D11D4B80F84E20B9
:103DA0001A80121280F84F201A4A1388642B8EBF93
:103DB000002301339BB21380002364E7202802D044
:103DC0002030B3D149423180B0E700BFB40D0020AC
:103DD0000000024004440040500D00200044004018
:103DE000C20D0020DC0B0020CB0800201C090020A5
:103DF000CC080020B60D0020B80D0020BA0D002020
:103E0000BC0D0020BE0D00204C0D00204A0D0020EE
:103E10004E0D0020C00D00201429F0B539D80B2913
:103E20001D4D88BF05390C0105EB01118E7A4FF647
:103E3000FF72012E18BF0122CF6891F809C000213E
:103E40003B8813449BB28C451FD9012E37F81120B3
:103E500011D1824216DB101A4001D31A5B014001D6
:103E600090FBF3F02A19127A2C59504301FB0241BE
:103E7000C0EB41100CE02EB9824203DC801A4001F5
:103E80009B1AEBE713460131DDE72C4460684001E3
:103E9000F0BD0020FCE700BF686B00082DE9F0478B
:103EA000ADF5006D6D46002401F0CEFC2E46A8460F
:103EB000A146E7B23846FEF7E7FAF0B9FF274FF61A
:103EC000FF7A4FF0FF3905EBC406FF2C06F1080618
:103ED00035D04FF0FF3006F8067C06F8057C26F852
:103EE00008AC46F8049C01F0B7FC4FF0FF3001F03D
:103EF000B3FC0134C5F8F807E7E7FF2C06F1080624
:103F00001DD03846FEF7B8FA824606F8069C3846B9
:103F1000FEF7EEFADAF8183006F8050C26F8083C39
:103F20003846FEF75FFA074646F8040C56F8080CC8
:103F300001F092FC384601F08FFC0134B9E74FF0F4
:103F4000FF33C5F8FC3701F03FFF0A4801F006FADD
:103F5000084C094E204655F8041B043401F04EFF6E
:103F6000B442F7D101F03CFFD8F8F8070DF5006D29
:103F7000BDE8F08700F801080000020870B5144C95
:103F800001F062FC4FF4FF71204601F06BFCD4F8A5
:103F9000F837834219D10025EC0004F1006404F5E0
:103FA000FC342088FEF758FA4728064608D02388B4
:103FB00033B16168FEF736FA3046E178FEF782FAEF
:103FC0000135FF2DE8D1002070BD4FF0FF30FBE739
:103FD00000F80108014B1860704700BFD40D0020A5
:103FE00030B50B4C235C93B90A4B1D687DB10A4B6D
:103FF0000A490B4A18700B6802F8330002EBC3023F
:1040000055600122134403F0030322540B6030BDBA
:10401000C80D0020D40D0020D80D0020C40D0020B4
:104020006C09002000231946034A0133092B02F8CA
:10403000011BFAD1704700BFC80D0020014B187852
:10404000704700BFD80D0020074B10B403EBC1022E
:104050001479064A53F8313052F82420014610BC36
:104060000348FFF7BDB800BF486E0008906E000817
:104070005C6D000838B5094C636823B9BDE8384069
:104080000748FFF7ADB80025606830B114F8081B89
:104090000135FFF7D9FF042DF6D138BD6C0900209A
:1040A0006C6D00087047C0F8E01470472DE9F04FC0
:1040B00000240B9E074634704FF0010904464FF66A
:1040C000FF7AE51BB5F5E17F29DCB4F800E0D645C1
:1040D00025D004F1020C654695F90580B8F1000F72
:1040E0001BDDB5F800B08B4511D10120C2F800E00E
:1040F0002A791A60099BB5F90220C3F800800A9B4F
:104100001A60BDE8F08F00F5FA742746D9E7063546
:10411000A5EB0C08B8F12A0FDEDD3234D1E7347894
:1041200086F80090002CEED00020EAE70C22002355
:10413000514330B50B4C8BB0621895685268CDE98D
:10414000073305926258CDE90133CDE903320122EC
:10415000069500921946D0F8FC0400F0E5FE0BB07D
:1041600030BD00BF9C6E0008D0F8E8037047F7B57B
:1041700004460E46D0F8FC04012115461F4600F007
:10418000C9FF002331461A46CDE90075D4F8FC0476
:1041900000F0C5FF002811DAD4F8DC34132B0DDC55
:1041A0000C2000FB03402A680133C0F8F0236A6842
:1041B000A0F8EC63C0F8F423C4F8DC34D4F8DC34A1
:1041C000002B07DD0121D4F8FC0403B0BDE8F0406A
:1041D00000F09CBF03B0F0BD2DE9F74F06464FF647
:1041E000FF7900F1320535F8323C2F464B4539D086
:1041F00000234FF0010BCDE90033A5F1300AA5F102
:104200002A0414F9013CA046002B1EDD14F8060C0C
:10421000FEF7E8F834F9043C14F8022C584314F97A
:10422000013C1F2A0BFA03F303F1FF3303EA601387
:104230001BD9203A9340019A13430193A8EB0A0833
:10424000B8F12A0F04F10604DBDD35F8321C002337
:104250006A463046BF1BFFF78AFFB7F5E17F05F1DD
:104260003205C0DD03B0BDE8F08F9340009A1343E0
:104270000093E3E72DE9F04F0446814600274FF60F
:10428000FF7A85B0CDE90201A4EB0903B3F5E17F24
:1042900022DC238853451FD004F1020B04F10805EA
:1042A00015F9013CA846002B11DD15F8022C15F874
:1042B000060C019735F9041C039E00912188A8EB98
:1042C0000B08B047B8F12A0F05F10605E8DD3234D6
:1042D000DAE7A1460127D7E7029B03F5FA74002F1E
:1042E000F7D005B0BDE8F08F0128DABF024B53F8D4
:1042F00020000020704700BFDC0D002073B504468D
:104300000C250826D4F8DC34002B17DD013B6B4369
:10431000E21803F57C732344B2F8EC13CDE9006393
:104320000023D4F8FC041A4600F0F9FE002805DB4F
:10433000D4F8DC34013BC4F8DC34E3E7D4F8DC34F3
:104340003BB90121D4F8FC0402B0BDE8704000F094
:10435000E1BE02B070BDF0B51C4626880F4676015E
:10436000B1B20126106885B09B880296064001967E
:10437000E688154662887601B6B25B0152019BB2AF
:1043800092B2009600F0B2FE00233B602A68013230
:104390002A60E380A3806380238005B0F0BD000025
:1043A0002DE9FF41002340F20162CDE90233ADF86F
:1043B0000820012204460025D0F8FC140092284A67
:1043C00000F2E44691421EBF264B1B68C3F305234F
:1043D0000193D4F8F824009BAA4212DD04AA02EB50
:1043E000430236F8021B0133042B22F8081C009309
:1043F00005D16946204602AB01AAFFF7ACFF0135A3
:10440000E7E74FF6FF7804F5FA7704F2262535F84A
:10441000322C2E464245009B0BD1009B002B05DD24
:104420006946204602AB01AAFFF795FF04B0BDE83C
:10443000F08104A901EB43010133042B21F8082C7E
:10444000009305D16946204602AB01AAFFF783FF1E
:10445000F61BB6F5E17F05F13205D8DDDDE700BFDB
:1044600000640040006A0040D0F8F82410B5092A22
:104470000ADC00EB42040132A4F8E414C0F8F8248A
:10448000FFF78EFF012010BD0020FCE74FF6FF7004
:10449000002301F5FA720880CB714B73CB744B7615
:1044A000CB7781F8253081F82B3081F831303231EB
:1044B0008A42F0D1704710B504460146FFF7E6FF87
:1044C000204604F5FA71FFF7E1FF2046BDE81040F1
:1044D000FFF766BF002310B5CC5AC818944204D029
:1044E0003233B3F5FA7FF7D1002010BD2DE9F84340
:1044F000B3F5006F8146DDE908760C46154698460F
:1045000032DA3F2F33DC202E34DC1A46FFF7E2FF8D
:1045100038B94FF6FF724846FFF7DCFF68B3A0F8E2
:104520000080023090F90530002B01DD0630F9E7FC
:10453000013325D0BDF928300580438007714671CD
:104540004FF6FF71002004F1320333F8325C1A4653
:104550008D4207D0121BB2F5E17F00F1010003F19B
:104560003203F2DDBDE8F8834FF0FF30FAE76FF079
:104570000100F7E76FF00200F4E76FF00300F1E7E6
:104580006FF00400EEE71FB5BDF91C400294069CD5
:10459000CDE9003413460A460146FFF7A7FF04B0F1
:1045A00010BD30B585B0BDF9245004460295089D74
:1045B000CDE9003513460A4600F5FA71FFF796FF7C
:1045C00005462046FFF7ECFE284605B030BDF7B59E
:1045D000B1F801600746B6F5005F0C461CD1C878FB
:1045E000452841D80B78402B0FD14968FDF7E2FEF2
:1045F00060BB232323700823224640F281513846B2
:1046000003B0BDE8F040FFF7B2BD222BF3D1FDF7B8
:10461000E9FE43236060EDE7A6F54053B3F5C05FC4
:1046200022D2C97845291FD82378402BE3D1656869
:10463000C6F30A02C5F3072CEBB22D14CDE900C571
:1046400075040ED5FFF7ADFF0028D2DA8023237062
:1046500030232371002363710923A3710623E371BF
:10466000C9E7FFF790FFEFE7802323700023237152
:1046700063710223F1E72DE9F04705460E464FF03E
:1046800001088AB0002305930DF11A0303930DF17D
:104690001B0302930DF1190308AC019306AB0093C1
:1046A0000122D5F8FC04049407ABF1B200F0AEFD92
:1046B000002854D040F20163079A9A4208D19DF82D
:1046C0001A30082B04D121462846FFF780FFD9E78E
:1046D000284605F5FA71FFF7FDFE002839D000F1F4
:1046E000020900F1080A1AF9011C5746002904DCE6
:1046F00001F05EF8C5F8E803C4E71AF8024C08FABE
:1047000001F11F2C93BF089B099A203C23FA04F463
:1047100001F1FF3188BF22FA04F40C403AF9041C7D
:104720001AF8060C64014C43FDF7AEFE64112146F5
:104730003AF8063C48B1D8B2FDF73CFEA7EB0907B2
:104740002A2F0AF1060ACEDDD2E7D8B2FDF76AFEBB
:10475000F4E721461046D5F8E034984792E70AB0CE
:10476000BDE8F0872DE9F04100240F461646984633
:10477000254644450CDA56F8240001F06DF856F849
:104780002410054607EB840001F038FB0134F0E704
:104790002846BDE8F08100202DE9F04F054685B0A0
:1047A000009201F1320403934FF6FF7334F8328C18
:1047B0000194984539D0A4F13003029332230027A5
:1047C0004FF0010C03FB05FE009B03EB0E0AA4F166
:1047D0002A0313F9019C1A46B9F1000F18DD33F8CA
:1047E000069C039EB14523D006269C4606FB07A9DE
:1047F0005CF806BD0137C9F802B0BCF804C0A9F8DE
:1048000006C04FF0000C029E0633961B2A2EE0DDF8
:10481000BCF1000F03D1009B013523F80E80019BF2
:1048200032345B1AB3F5E17FBEDD05B0BDE8F08F31
:104830000130E8E7F0B5044616460D46FFB001A981
:10484000FFF724FE3346294601AA2046FFF7A3FFBF
:1048500007462046FFF71AFE33462A46204601A99E
:10486000FFF799FF38467FB0F0BD70B50A460D4698
:1048700001460446FFF7DEFF2A46064604F5FA71B4
:104880002046FFF7D7FF304470BD2DE9F0470E46B4
:104890004FF6FF7901F1320434F8323C27464B459C
:1048A0001CD0A4F1300AA4F12A0515F9013CA84650
:1048B000002B0DDD15F8060CFDF7DEFDA8EB0A0850
:1048C0008369B8F12A0F25F8063C05F10605ECDDF1
:1048D000BF1BB7F5E17F04F13204DDDDBDE8F087F1
:1048E0002DE9F0470E464FF6FF7901F1320434F816
:1048F000323C27464B451BD0A4F1300AA4F12A05CF
:1049000015F9013CA846002B0CDD35F8060CFDF727
:10491000A3FDA8EB0A08B8F12A0F25F8060C05F14B
:104920000605EDDDBF1BB7F5E17F04F13204DEDDE6
:10493000BDE8F08773B50446194E00F085FF01F01D
:1049400043FA022001F036FA304600F007FD04F584
:10495000FA7521462046FFF798FF29462046FFF7C3
:1049600094FF224631467D232046FFF7FBFE2A4670
:104970007D2320460B49FFF7F5FE012301AA0A49D2
:1049800001902046FFF7EEFE01F02AFA214620466C
:10499000FFF7A6FF29462046FFF7A2FF02B070BD31
:1049A00000F00108F4F10108E8F3010838B5114BF3
:1049B00004461D6800F048FFFA210F4800F052FF3E
:1049C000854215D17D2220460B4904F5FA75FEF784
:1049D0004FFA7D2228460949FEF74AFA2146204629
:1049E000FFF77EFF20462946FFF77AFF012038BDFA
:1049F0000020FCE7E8F3010800F00108F4F10108E9
:104A0000F8B5002504460E46424BC0F8FC14C0F829
:104A1000E034C0F8E853C0F8DC54C0F8F854174646
:104A2000FFF749FD2046FFF7C1FF3B4B9E421AD0DE
:104A300003F580639E4241D0D4F8FC0400F068FA8C
:104A400039462046FFF772FB2046FFF7A9FCD4F851
:104A5000FC04022100F05AFBD4F8FC04102100F001
:104A600055FB2046F8BD4FF40063022229462B482F
:104A700000F0B0FC4FF40061284800F09EFF4FF4B6
:104A8000805302220321254800F0A4FC142001F0E9
:104A900015FAF021142001F01FFA152001F00EFA8A
:104AA000F021152001F018FA132001F007FAF02187
:104AB000132001F011FA1A4B1C60BDE74FF480532C
:104AC00002222946174800F085FC4FF48051154812
:104AD00000F073FF4FF4005302220321114800F04D
:104AE00079FC402001F0EAF9F021402001F0F4F9CE
:104AF000412001F0E3F9F021412001F0EDF93F20E0
:104B000001F0DCF9F0213F2001F0E6F9044B5C6094
:104B100092E700BFA5400008006400400008014083
:104B2000DC0D0020000C0140024B00211868FFF74B
:104B3000A2BD00BFDC0D0020024B01211868FFF769
:104B40009ABD00BFDC0D0020014B1868FFF7D6BBF3
:104B5000DC0D0020024B00215868FFF78CBD00BF20
:104B6000DC0D0020024B01215868FFF784BD00BF17
:104B7000DC0D0020014B5868FFF7C0BBDC0D0020A6
:104B8000074B28B918802920B3F90010FDF742BC63
:104B9000202802D02030F6D149421980F3E700BF27
:104BA000E60D0020034A1378013303F0030313706A
:104BB000704700BFF00D002003B20920203B03EB3B
:104BC000830313F5916F93FBF0F004DBB3F5906F63
:104BD00004DA40B270476FF07F0070477F20704763
:104BE000B0F5ED7F08B51BD14B780A789B1143EAED
:104BF0008203134A13800A794B7943EA022347F66A
:104C0000FF721BB2934208BF00230E4A13808B79B8
:104C100013F0B00F14BF012200220B4B1A8008BD05
:104C200040F25A539842FAD18878FFF7C5FF074BF4
:104C300018804878FFF7C0FF054B1880EFE700BFEA
:104C4000EC0D0020EA0D0020E80D0020EE0D002004
:104C5000E40D00200023F0B50126C371441EC51DDC
:104C6000072214F8017F06FA02FE1EEA070F14BF9E
:104C70004FF0010E4FF0000E4FFA83FC0EEB430392
:104C8000BCF1000FDBB2B8BF4B40013AEBD2A542FA
:104C9000E6D1C371F0BD000007B5444B444A009310
:104CA000C023ADF80430137885218DF80630013328
:104CB000DBB2032B88BF002368461370FFF7CAFFDF
:104CC0000020FFF711FB08236A464FF48D71FFF7B0
:104CD0004EFA40F2F773374AADF80030364BB2F96E
:104CE0000010B3F90030994218BF138003F5006239
:104CF00092B2B2F5805F55D21A12C3F3061122F0B8
:104D00007F020A431B018DF802208DF803302B4AE5
:104D10006846137899010133DBB2032B88BF002367
:104D2000137044238DF80530302341F007018DF8CE
:104D3000041085218DF80630FFF78CFF0020FFF767
:104D4000D3FA6A4608234FF4EA71FFF710FA0022FB
:104D50001B4900200B7800928DF806300133DBB23E
:104D6000032B94BF0B700A70ADF804208DF8072058
:104D7000FFF7BAFA6A4640F2DB110823FFF7F7F9AA
:104D80000020104BADF8040000938DF80600FFF7EB
:104D9000ABFA07236A4640F20B51FFF7E8F903B07C
:104DA0005DF804FB0023ADF80230B0E74E4000AAE6
:104DB000F30D0020F40D0020E60D0020F10D002081
:104DC000F20D0020000006C08368DB075EBF836829
:104DD00043F00103836070478368DB0742BF836849
:104DE00043F0010383607047836800F1080243F0D9
:104DF0000803836013681B07FCD47047836843F083
:104E00000403836070478068C0F38000704708B572
:104E10000246FFF7F3FF1046FFF7F5FF0028FAD12F
:104E200008BD0022134610B501FA02F403321E2A0F
:104E300043EA0403F8D10022036101FA02F40332C9
:104E4000182A43EA0403F8D1C36010BD836823F035
:104E5000010383607047436843F480734360704785
:104E6000836823F4006383607047836843F0020320
:104E7000836070471029F0B50CD8002501232F4618
:104E80002E46DCB2A14206D2013946EA0156C6627C
:104E900007634563F0BD062C0BD802EB030C1CF82E
:104EA00001CC03EB830EAEF1050E0CFA0EFC45EAC5
:104EB0000C05A4F1070CBCF1050F0BD802EB030C99
:104EC0001CF801CC03EB830EAEF1230E0CFA0EFCA2
:104ED00047EA0C070D3C052C09D8D41814F8014CEE
:104EE00003EB830CACF1410C04FA0CF426430133C0
:104EF000C7E7836800F1080243F480038360136806
:104F00005B02FCD47047836843F48073836070470E
:104F1000044B98420CBF40F2192040F21A2000F0D6
:104F200037BF00BF006400402DE9F34104689DF8DD
:104F3000208024F00204046004689DF824E044F01A
:104F4000010404604FF6FF749DF828C09DF83C6092
:104F50009DF840700194019C051D013C019414B121
:104F60004468E407F7D52C68E40770D50024C461D1
:104F7000002951D0016841F080010160002A4FD022
:104F8000026842F040020260002B4DD0036843F0FB
:104F9000200303600368B8F1000F49D043F0100309
:104FA00003600368BEF1000F45D043F008030360BF
:104FB0000368BCF1000F41D043F004030360C369F0
:104FC000002F3ED043F00043C361C369002E3BD0A5
:104FD00043F08043C3610E9B0D99013BC3F309036A
:104FE0000B430C99C2690B430B990B431343C361E9
:104FF000036823F0010303604FF6FF730193019BE5
:10500000013B019313B12B68DB07F8D4286800F04B
:10501000010002B0BDE8F081016821F08001ACE739
:10502000026822F04002AEE7036823F02003B0E7F5
:1050300023F01003B4E723F00803B8E723F00403D8
:10504000BCE723F00043BFE723F08043C2E7012021
:10505000DFE70000F0B501241F4E844035689DF85D
:105060001C7045F001053560E6431C4DD5F800C0C5
:105070000CEA060CC5F800C0DFF86CC009B3DCF818
:1050800000102143CCF800101549F2B10A68224300
:1050900000F1006000F6C8400A60C0000360069A94
:1050A000059B43600F4B9AB11A6822431A6017B1EF
:1050B0002B681C432C60084A136823F0010313601B
:1050C000F0BDDCF800103140DCE70A683240DFE771
:1050D0001A6816401E60EAE7006600401C66004041
:1050E00004660040146600400C66004030B4BDF811
:1050F00008409DF8105044EA03430293049542EAA5
:10510000014330BC01220021FFF7A4BF43691943CA
:1051100041617047436923EA0101416170472DE90C
:10512000F041804680689DF818E04601079D2AD42A
:10513000D8F8080004012AD4D8F80800C00050D5D7
:105140004FF4D076022006EB080422B3C90041F0E8
:10515000040146F808101BB1236843F002032360E2
:10516000636823F00F03636062680EF00F0313435C
:1051700063600EF1FF33072B2AD8DFE803F0262304
:10518000201B1815120E4FF4C0760020DBE74FF4F9
:10519000C8760120D7E74905DBE70027EB7963F301
:1051A0001F67AB7963F317476B7963F30F272B798D
:1051B00063F307074FF0000CEB7863F31F6CAB78D9
:1051C00063F3174C6B7863F30F2C2B7863F3070CA6
:1051D000C4F808C0E760236843F001032360BDE81A
:1051E000F0814FF0FF30FAE721B9C36843F02003A4
:1051F000C3607047036943F020030361704719B926
:10520000C06800F0030070470069FAE72DE9F34732
:105210000546DDE90AA80E469946DDE90E43FFF78B
:10522000EEFF4FF4E07107464FF4D870CDE900016E
:1052300002A901EB860151F8081C55F801C0681855
:105240001CF0040C15BF4FF0010C8AF800C08AF85E
:1052500000C055F801C016BF55F801C04FEA5C5CAC
:105260004FEADC0CC9F800C0695811F0020118BF00
:10527000012188F8001041684FEA112C0C9981F83F
:1052800000C0416801F00F0C0D9981F800C013B106
:105290004168090C19808168C368C1F30720217037
:1052A0006070C1F30740C1F30761E170C3F30721E8
:1052B00023716171C3F30741C3F30763A070A17148
:1052C000E3711AB131462846FFF78EFF384602B027
:1052D000BDE8F087064B1868064B1B88B3F5007FC6
:1052E00082BF054B1B68184300F03500704700BFB4
:1052F0000C200240E0F7FF1F4C20024038B5044666
:105300000D4600F075FD114B1B88B3F5007F18D9D1
:105310000F4B9C4215D90F4A136843F001031360E9
:10532000258000F065FD094B1B88B3F5007F0AD985
:10533000074B9C4207D9074A136823F00103136007
:1053400038BD054AE8E7044AF6E700BFE0F7FF1F6B
:10535000FFFF0708502002401020024010B504460D
:1053600000F046FD154B1B88B3F5007F1DD9144B8B
:105370009C421AD9134B1A6842F002021A60124A70
:1053800014601A6842F040021A6000F031FD0B4BC5
:105390001B88B3F5007F0FD9094B9C420CD9094AF1
:1053A000136823F00203136010BD084B1A6842F023
:1053B00002021A60064AE3E7044AF1E7E0F7FF1F3A
:1053C000FFFF0708502002405420024010200240F6
:1053D000142002402DE9F04300264FF00F0E43F653
:1053E000F8789C46036847684CFA06F4E4071BD536
:1053F000072E94BF9946B946B4B28BBF4444A4006B
:10540000A400A4B288BFA4B20EFA04F529EA0509E3
:10541000A51C02FA05F501FA04F42C4344EA090438
:10542000082E2CBF274623460136102EDCD1036000
:105430004760BDE8F0830000034A136823F0E0638F
:10544000194301431160704704000140024A136888
:1054500043F080731360704700100240062822D882
:10546000DFE800F004090E13181D1F000F4B186829
:10547000C0F3406070470D4B1868C0F3C0607047C0
:105480000A4B1868C0F340707047084B1868C0F3A7
:1054900040407047054B1868C0F340007047044B0C
:1054A000F9E7044BF7E70020704700BF0010024007
:1054B0002010024024100240024608B51046FFF7B3
:1054C000CDFF0028FAD008BD06280CD8DFE800F090
:1054D00004060C11161B1D00FFF7B8BF0C4A136819
:1054E00043F0806313607047094A136843F08053A8
:1054F000F8E7074A136843F48033F3E7044A136874
:1055000043F00103EEE7034AF9E7034AF7E700BF78
:10551000001002402010024024100240034A136889
:1055200023F0030318431060704700BF04100240CB
:10553000034A136823F4701343EA804010607047F5
:1055400004100240034A136823F4803343EA004006
:105550001060704704100240034A136823F40033BC
:1055600043EA40401060704704100240024B186844
:1055700000F40040704700BF20100240024A136848
:1055800043F40043136070472010024006283DD8C2
:10559000DFE800F037373726370415001C4B1A6850
:1055A00042F001021A601A689007FCD51A6822F4CA
:1055B00040721A601A6842F480721A607047154B84
:1055C0001A6842F001021A601A689107FCD5104B64
:1055D0001A6822F440721A601A6842F40072ECE70A
:1055E0000D4B1A6842F480321A601A689203FCD597
:1055F000074B1A6822F440721A601A6842F440722B
:10560000DBE7034A136823F440731360704700BF5D
:10561000201002402410024000100240034A136888
:1056200023F4404343EA8030106070470410024086
:10563000034A136823F4605343EAC02010607047A4
:1056400004100240034A136823F4E06343EA002095
:105650001060704704100240034A136823F0F003FF
:1056600043EA0010106070470410024008B504209F
:10567000FFF72AFF0420FFF71FFF0020FFF74EFF70
:105680000320FFF721FF0320FFF716FF0120FFF79C
:1056900045FF0020FFF7E0FF0320FFF7BFFF0420D6
:1056A000FFF7D0FF0020FFF7C3FF022000F082FBCE
:1056B0000720FFF73DFF0120FFF744FF0020FFF721
:1056C0004BFFFFF7C3FE0020FFF7F6FE0220FFF7B7
:1056D00025FF044B044A05491360054A1160054A39
:1056E000136008BD00A24A04900900200051250261
:1056F0009409002098090020044B1A689206FCD5F2
:105700001A6842F010021A60704700BF0428004077
:10571000044B1A6822F010021A601A689206FCD52F
:10572000704700BF0428004038B5044600254FF4F8
:10573000677000F020FB40F29B3000F01CFB00F093
:1057400055F92046FFF722FF0D4C0E4B1D602560DA
:10575000FFF714FFFFF7D0FF0B4B0C4A1D605D6095
:105760001D615D614FF6FF7313605360FFF7D0FF5B
:10577000236823F00803236023681B07FCD538BD8A
:10578000042800400028004008280040202800404D
:1057900008B5FFF7B1FF054B82B2C0F303401A60B2
:1057A00043F8040CBDE80840FFF7B2BF0C280040E6
:1057B000034B186804331B6843EA0040704700BF7E
:1057C0001828004008B5FFF797FF044B020C80B281
:1057D0001A605860BDE80840FFF79ABF18280040DB
:1057E00008B54FF4677000F0C6FA40F29B3000F045
:1057F000C2FA00F0FBF8064B1A6822F008021A60A1
:105800001A681107FCD51A689206FCD508BD00BFBE
:105810000428004038B505464FF467700C4600F088
:10582000AAFA40F29B3000F0A6FAFFF79FFE18B1EB
:10583000BDE83840FFF7D4BF2846FFF775FF204684
:10584000BDE83840FFF7A4BF024A136843F00103E4
:105850001360704708300240014B186018687047A9
:1058600000300240002310B5044A8B4201DB10686F
:1058700010BD50F8234001331460F6E700300240B9
:1058800014230022013903FB01039A60DA601A61D4
:105890005A618B000F214268994011434160704763
:1058A0000139890002FA01F141607047013903684A
:1058B000890002FA01F1194214BF0120002070474B
:1058C00014230139594308300B5823F440530B502B
:1058D0000B581A430A5070471423013959430830B2
:1058E0000B5823F440630B500B581A430A5070476F
:1058F00014230139594308300B5823F440730B50DB
:105900000B581A430A507047142301395943083081
:105910000B5843F080030B5070471423013959434F
:1059200008300B5843F020030B500B5823F48043EE
:105930000B50704714230139594308300B5823F09A
:1059400010030B50704714230139594308300B588A
:1059500043F010030B5070471423013959430830AA
:105960000B5843F001030B5070471423013959437E
:1059700008300B5823F001030B50704714230139F2
:1059800003FB01008368DB0758BF026170471423E3
:10599000013903FB01008368DB0758BF4261704790
:1059A0001423013959430C30085880B2704714232E
:1059B000013959430C300A5070470161704709049E
:1059C00001617047806808407047C36801EA0302BC
:1059D00021EA030141EA0241016170474AF6AA2225
:1059E000014B1A60704700BF00300040024A136844
:1059F00043F480731360704700700040C36819431C
:105A0000C160704703690B4214BF0120002070473A
:105A1000C9430161704710B50468134324F45C74F2
:105A20000B432343036010BD036843F0800303600E
:105A30007047036823F0100303607047036823F086
:105A4000080303607047036843F001030360704775
:105A5000036823F001030360704781627047C162ED
:105A6000704706297AD8DFE801F004793379637941
:105A70009200836923F003038361836983618369EF
:105A800023F070038361072A68D8DFE802F033044B
:105A9000090D1115191D836943F0100383617047C7
:105AA000836943F02003F9E7836943F03003F5E7A6
:105AB000836943F04003F1E7836943F05003EDE766
:105AC000836943F06003E9E7836943F07003E5E726
:105AD000836923F44073836183698361836923F459
:105AE000E0438361072A39D8DFE802F004060A0E92
:105AF00012161A1E8369D1E7836943F48053CDE7F8
:105B0000836943F40053C9E7836943F44053C5E70D
:105B1000836943F48043C1E7836943F4A043BDE74D
:105B2000836943F4C043B9E7836943F4E043B5E7CD
:105B3000C36923F00303C361C369C361C36923F06D
:105B40007003C361072A09D8DFE802F03304090DA6
:105B50001115191DC36943F01003C3617047C36970
:105B600043F02003F9E7C36943F03003F5E7C36965
:105B700043F04003F1E7C36943F05003EDE7C36925
:105B800043F06003E9E7C36943F07003E5E7C369E5
:105B900023F44073C361C369C361C36923F4E04361
:105BA000C361072ADAD8DFE802F004060A0E1216EB
:105BB0001A1EC369D1E7C36943F48053CDE7C369B3
:105BC00043F40053C9E7C36943F44053C5E7C369CD
:105BD00043F48043C1E7C36943F4A043BDE7C3690D
:105BE00043F4C043B9E7C36943F4E043B5E706298A
:105BF00009D8DFE801F0041509190D1D1100036A29
:105C000043F0010303627047036A43F01003F9E7AE
:105C1000036A43F48073F5E7036A43F48053F1E7C2
:105C2000036A43F00403EDE7036A43F04003E9E746
:105C3000036A43F48063E5E7062909D8DFE801F049
:105C4000041509190D1D1100036A23F001030362F5
:105C50007047036A23F01003F9E7036A23F48073A3
:105C6000F5E7036A23F48053F1E7036A23F00403A2
:105C7000EDE7036A23F04003E9E7036A23F4806356
:105C8000E5E706290CD8DFE801F0040B060B080B4A
:105C90000A004263704782637047C26370470264C0
:105CA0007047436C43F4004343647047406A704755
:105CB00041627047064A074B90421B6804BF064B7F
:105CC0001B6803EB5103B3FBF1F18160704700BF28
:105CD000003801409409002098090020C368082971
:105CE0000CBF23F4805343F48053C36070470369AF
:105CF00023F44053194301617047C36823F4C06320
:105D00001943C1607047C36823F00C031943C16095
:105D10007047436923F44073194341617047C36876
:105D200043F40053C360704738B504460D4600F095
:105D300018F829462046BDE8384000F00AB8436903
:105D400043F0400343617047436943F0800343617C
:105D50007047C1F30801416070474068C0F3080014
:105D6000704703681B06FCD5704703680B4214BFDD
:105D7000012000207047430900F01F02012003F1B9
:105D8000804303F504331968904008431860704756
:105D900000F01F024309012003F1804303F504339F
:105DA00019689040014319601A6822EA00001860DF
:105DB00070470000034A136823F00703184310607C
:105DC000704700BF00200240034B044A1A6002F1F2
:105DD00088321A60704700BF0420024023016745E3
:105DE000024A136843F0800313607047102002409A
:105DF00008B5FFF76FFAC307FBD408BD38B50546F1
:105E00000C4689B2FFF77AFA210CA81CBDE838408D
:105E1000FFF774BAFEE77047002238B51849194CED
:105E200019485318834217D30021184A934217D3B5
:105E3000174A184C1368184D43F400731360AC42B2
:105E400011D3164C164DAC4211D3FBF7EDFE154C99
:105E5000154DAC420FD338BD135953500432E0E70F
:105E600019600433E2E754F8043B9847E7E754F835
:105E7000043B9847E7E754F8043B9847E9E700BF3D
:105E800000000020D46E00089C090020F80D0020BE
:105E900014ED00E0CC6E0008CC6E0008CC6E00085B
:105EA000D46E0008D46E0008D46E0008014B024A7C
:105EB0001A60FEE70CED00E00400FA050122430938
:105EC0009B0003F1604300F01F0003F5614302FAF9
:105ED00000F0186070470000432893BF00F1604055
:105EE000044B00F00F0000F564408CBFC1540170FA
:105EF000704700BF14ED00E00002040656656869B3
:105F0000636C65204D6F64756C6500496E766572D3
:105F100074657200303D4C6561665F47656E312C7B
:105F200020313D4753343530482C20323D55736580
:105F30007243414E2C20333D5A6F6D6269650056A5
:105F4000656869636C6500303D424D575F45343686
:105F50002C20313D424D575F4536352C20323D5582
:105F60007365722C20333D4E6F6E65005468726FFE
:105F700074746C6500706F746D696E00646967009D
:105F8000706F746D617800706F74326D696E00703F
:105F90006F74326D617800706F746D6F646500307E
:105FA0003D53696E676C65526567656E2C20313DA7
:105FB0004475616C4368616E6E656C2C20323D43A4
:105FC000414E006469726D6F646500303D427574C6
:105FD000746F6E2C20313D5377697463682C2032C6
:105FE0003D427574746F6E52657665727365642C8C
:105FF00020333D53776974636852657665727365C3
:10600000642C20343D44656661756C74466F72770C
:10601000617264007468726F7472616D7000252F14
:1060200031306D73007468726F7472616D7072706C
:106030006D007265766C696D0062726B6F757400CD
:106040002500626D736C696D6869676800626D73C5
:106050006C696D6C6F77007564636D696E005600D6
:106060007564636C696D006964636D61780069646F
:10607000636D696E00746D7068736D617800C2B095
:106080004300746D706D6D6178007468726F746D2B
:106090006178007468726F746D696E004765617233
:1060A000626F7820436F6E74726F6C004745415287
:1060B00000303D4C4F572C20313D484947482C205B
:1060C000323D4155544F004F696C50756D7000431F
:1060D000727569736520436F6E74726F6C006372C2
:1060E0007569736573746570006372756973657241
:1060F000616D700072706D2F3130306D730072659C
:1061000067656E6C6576656C00436F6E7461637471
:106110006F7220436F6E74726F6C00756463737777
:10612000006372756973656C6967687400303D4F10
:1061300066662C20313D4F6E2C20323D6E6100652D
:1061400072726C696768747300303D4F66662C200C
:10615000343D4550432C20383D656E67696E6500BF
:10616000436F6D6D756E69636174696F6E00636115
:106170006E737065656400303D3235306B2C2031B4
:106180003D3530306B2C20323D3830306B2C203395
:106190003D314D0063616E706572696F6400303D22
:1061A0003130306D732C20313D31306D73007665A8
:1061B0007273696F6E00343D312E30302E410068AD
:1061C0007776657200303D526576312C20313D5234
:1061D0006576322C20323D526576332C20333D5487
:1061E00065736C61006F706D6F646500303D4F6664
:1061F000662C20313D52756E2C20323D4D616E75FE
:10620000616C52756E2C20333D426F6F73742C207D
:10621000343D4275636B2C20353D53696E652C20EF
:10622000363D4163486561742C20373D4368617297
:10623000676553746172742C20383D436F6E6E65D0
:1062400063746F724C6F636B2C20393D43686172CD
:1062500067652C2031303D43686172676553746F08
:1062600070006C617374657272007374617475731D
:1062700000303D4E6F6E652C20313D5564634C6F90
:10628000772C20323D556463486967682C20343D83
:1062900055646342656C6F7755646353772C20387F
:1062A0003D5564634C696D2C2031363D456D6379F5
:1062B00053746F702C2033323D4D50726F742C200C
:1062C00036343D506F74507265737365642C2031A1
:1062D00032383D546D7048732C203235363D57614D
:1062E000697453746172740075646300706F7765CC
:1062F00072006B570069646300746F72717565009A
:10630000706F7400706F743200706F746272616BC2
:1063100065006272616B657072657373757265009A
:10632000706F746E6F6D00646972002D313D52653F
:1063300076657273652C20303D4E65757472616CA4
:106340002C20313D466F727761726400696E760071
:1063500076656800746D70687300746D706D00749C
:106360006D7061757800756175780063616E696F35
:1063700000313D4372756973652C20323D53746161
:1063800072742C20343D4272616B652C20383D467E
:1063900077642C2031363D5265762C2033323D42D5
:1063A0006D7300637275697365737065656400630E
:1063B000727569736573747400303D4E6F6E652C31
:1063C00020313D4F6E2C20323D44697361626C6513
:1063D0002C20343D5365744E2C20383D5365745049
:1063E0000064696E5F6372756973650064696E5FEE
:1063F00073746172740064696E5F6272616B6500D0
:1064000064696E5F666F72776172640064696E5F63
:10641000726576657273650064696E5F626D7300A4
:1064200068616E6462726B00476561723100476536
:1064300061723200476561723300543135537461C3
:106440007400476561724642006370756C6F6164E9
:1064500000556E6B6E6F776E20636F6D6D616E644D
:106460002073657175656E63650D0A0025582558A2
:1064700025580D0A00416C6C206D6573736167656A
:1064800020646566696E6974696F6E7320636C65FC
:10649000617265640D0A004D697373696E672061EE
:1064A0007267756D656E740D0A00556E6B6E6F7751
:1064B0006E20706172616D657465720D0A002564ED
:1064C00020656E74726965732072656D6F766564A0
:1064D0000D0A00496E76616C69642043414E204983
:1064E000642025780D0A00496E76616C6964204F3E
:1064F00066667365742025640D0A00496E76616CCA
:106500006964206C656E6774682025640D0A004319
:10651000616E6E6F74206D617020616E796D6F7247
:1065200065206974656D7320746F2043414E206946
:10653000642025640D0A004D6178206D65737361D8
:10654000676520636F756E7420726561636865644A
:106550000D0A0043414E206D6170207375636365C1
:10656000737366756C2C202564206D657373616789
:10657000652573206163746976650D0A0063616E39
:106580002000727820007478200025732025642074
:1065900025642025642025640D0A00417661696C1C
:1065A00061626C6520706172616D657465727320E3
:1065B000616E642076616C7565730D0A0025732029
:1065C0005B25735D0D0A002573090925660D0A0018
:1065D000556E6B6E6F776E20706172616D6574655C
:1065E000723A20272573270D0A00747275650066BC
:1065F000616C7365007B0025630D0A202020222535
:1066000073223A207B22756E6974223A2225732206
:106610002C2276616C7565223A25662C0022636116
:106620006E6964223A25642C2263616E6F6666731C
:106630006574223A25642C2263616E6C656E677402
:1066400068223A25642C2263616E6761696E223A82
:1066500025642C2269737278223A25732C002269F2
:1066600073706172616D223A747275652C226D6966
:106670006E696D756D223A25662C226D6178696DA3
:10668000756D223A25662C2264656661756C7422EC
:106690003A25662C2263617465676F7279223A220B
:1066A0002573227D00226973706172616D223A66E2
:1066B000616C73657D000D0A7D0D0A005061726189
:1066C0006D65746572206174747269627574657346
:1066D0000D0A004E616D6509096D696E202D206DF2
:1066E0006178205B64656661756C745D0D0A0025D8
:1066F0007309092566202D202566205B25665D0D22
:106700000A00506172616D65746572732073746FF5
:106710007265642C204352433D25780D0A004341A5
:106720004E4D41502073746F7265640D0A004465CC
:106730006661756C7473206C6F616465640D0A002A
:1067400055736167653A2073747265616D206E20C0
:1067500076616C312C76616C322E2E2E0D0A00255E
:10676000732566004E6F20666C61672067697665E9
:106770006E0D0A0068696464656E00556E6B6E6F1D
:10678000776E20666C61670D0A00466C6167206356
:1067900068616E6765204F4B0D0A00556E6B6E6F1A
:1067A000776E20706172616D657465722025730D5E
:1067B0000A004E6F20706172616D6574657220769B
:1067C000616C756520676976656E0D0A00536574A6
:1067D000204F4B0D0A0056616C7565206F75742053
:1067E0006F662072616E67650D0A00506172616D9F
:1067F0006574657273206C6F616465640D0A005086
:106800006172616D657465722043524320657272D6
:106810006F720D0A0067657400666C6167007374BF
:106820007265616D0064656661756C747300616C9E
:106830006C006C697374006174720073617665003A
:1068400068656C70006A736F6E0063616E007365DB
:106850007269616C006572726F7273007265736544
:10686000740000005E680008C12C0008156800086C
:1068700085290008196800083D2C00081E680008DA
:10688000512B0008256800083D2B00082E680008E1
:1068900059290008326800081D29000837680008D7
:1068A000BD2A00083B680008112B00084C64000852
:1068B000212D0008406800082127000845680008CD
:1068C000D92900084A680008492700084E680008CE
:1068D0002D27000855680008292700085C68000873
:1068E0002327000800000000000000000000000353
:1068F0000201000001000000286E756C6C29000088
:106900000F0F6B0D210CA30A6E0982082C07490694
:1069100080059C04E2036403ED027E023E02F20164
:10692000AF0175013A011501310044005B007700A9
:106930009900C100EF0022015C019B01DF012702E9
:106940007402C30214036703BB030F04F307B00709
:106950006D072B07E906A9066B062E06F205B90599
:1069600081054C051805E704B8048A045F04350462
:106970000D04E703C2039F037E03EB08B7088308F7
:106980004D081708E207AB079007740740070A078E
:10699000D606A306710640061006E105B305860576
:1069A0005C0531050905E204BC0497047404510434
:1069B00031041104F203D403B8039C0383036C0372
:1069C000580339004C0064008400AB00DC0018015F
:1069D0006101B801200299022503C30375043A0539
:1069E0000F06F306E307DC08DB09DB0AD80BCF0C44
:1069F000BF0DA40E7C0F47100F0F060FF90EE90E06
:106A0000D40EB90E970E6C0E370EF70DAA0D4E0D63
:106A1000E40C6B0CE30B4D0BAB0A000A4E09990812
:106A2000E50733078806E5054C05BE043C04C603AC
:106A30005B03FB02A50259021602DA01A6017701E7
:106A400050012D010E01F300DB00B809000A450AD0
:106A5000880AC80A050B400B790BAF0BE40B170C27
:106A6000480C780CA60CD20CFD0C270D4F0D760DA2
:106A70009C0DC10DA90FA70FA40FA00F9C0F960F7F
:106A80008F0F860F7B0F6E0F5F0F4D0F370F1E0F8F
:106A9000010FE00EBA0E8E0E5E0E280EEC0DAB0D41
:106AA000630D160DC30C6C0C0F0CAE0B4A0BE20AF7
:106AB000780A0C0AA0093309C7085C08F2078B079B
:106AC0002707C50668060D06B705640516050E08F6
:106AD000CA0785074107FF06BD067D063E0600067C
