:020000040800F2
:101000000050002049540008475400084554000887
:1010100045540008455400084554000800000000ED
:10102000000000000000000000000000475400081D
:1010300047540008000000004754000847540008C7
:10104000455400084554000845540008455400081C
:10105000455400084554000845540008455400080C
:1010600045540008455400084554000845540008FC
:1010700045540008455400084554000845540008EC
:10108000455400084554000845540008A54100088F
:101090008541000895410008455400084554000862
:1010A00045540008455400084554000845540008BC
:1010B00035180008455400084554000845540008F8
:1010C000455400084554000845540008455400089C
:1010D000455400084554000845540008455400088C
:1010E000455400084554000845540008455400087C
:1010F000455400084554000845540008455400086C
:10110000455400084554000845540008455400085B
:10111000455400084554000845540008455400084B
:10112000455400084554000845540008455400083B
:10113000455400084554000845540008D1410008B2
:10114000B1410008C1410008455400084554000859
:10115000F8B5222000F004FFC4B2182000F008FF08
:10116000012C194D194F03D12B780BB90A233B6081
:101170003B68174E002B0DDD013B80F001013B6009
:10118000C9B2182000F0FEFE162000F0E9FE2C7017
:101190003060F8BD362000F0E3FE002801DD0121BB
:1011A000EFE70021182000F0EDFE012CECD1162015
:1011B00000F0D6FE33689842E6D0162000F0D0FE4C
:1011C000013040003860DFE7500800204C08002064
:1011D0004808002010B50446222000F0C1FE012876
:1011E00004D12046BDE8104002F028BA10BD38B541
:1011F0006FF4A463C31805460C46072B55D8DFE8E7
:1012000003F0040E18222C36404A03F0E7FD214675
:10121000BDE83840024640F2215001F0ADBF03F076
:10122000DDFD2146BDE83840024640F2225001F083
:10123000BFBF03F0D3FD2146BDE83840024640F26F
:10124000235002F005B803F0C9FD2146BDE838403F
:10125000024640F2245002F037B803F0BFFD2146A9
:10126000BDE83840024640F2255002F05FB803F076
:10127000B5FD2146BDE83840024640F2265002F056
:101280005DB803F0ABFD2146BDE83840024640F2B0
:10129000275002F06DB803F0A1FD2146BDE83840AB
:1012A00002464FF4A56002F08DB803F097FD214689
:1012B00002462846BDE8384002F0B6BF8188006883
:1012C00003F07CBE8188006803F07ABEA74B70B53E
:1012D0009988186803F07AFE03F082FEA44B186820
:1012E00000F00EFE0A21400190FBF1F13F2000F0DA
:1012F00051FE02F0D1F90146232000F043FE2F20D9
:1013000000F02EFE0546062000F02AFE10F0020F27
:101310004FF0060014BF4FF0FF34012400F020FE10
:1013200004287AD13B2000F023FE00286ED13C2017
:1013300000F01EFE002814BF4FF0FF3401242146A8
:101340002F2000F01FFE0C2000F004FE0D2000F006
:1013500001FE0546172000F0FDFD0446854801F01A
:101360007EFD40F221114001B0FBF1F1342000F08C
:1013700011FE242D10DC804B1B88312B05D87F48B3
:10138000FFF7A0FF7E48FFF79DFF2220002100F01D
:10139000F9FD022002F052F94B2C10DD03F01EFD86
:1013A000B0F5FA7F0BD9764CA188206803F00BFECC
:1013B00028B12046FFF786FF032002F03FF902F034
:1013C00015FF362000F0CCFD0446372000F0C8FDA4
:1013D0006C4B0546197800F00C0200294FD002B979
:1013E0001A7003F0FBFC642840F2BF801F2000F05D
:1013F000B7FD18B9644B186802F01CFA1A2000F007
:10140000AFFDBDE870401B2000F0A4BD3C2000F003
:10141000AFFD00288BD0002491E7062000F0A0FD4E
:1014200010F0010F4FF03B0013D100F0A1FD50B9B7
:101430003B2000F09DFD002881D13C2000F098FD6C
:10144000D8B164427BE73C2000F092FD0028E2D155
:10145000EEE700F08DFD05463C2000F089FD854259
:10146000D9D03B2000F084FD00287FF468AF3C20F9
:1014700000F07EFD0028CED0E3E72C465FE70AB1FE
:1014800001221A703A2000F073FD60B1162000F0BE
:1014900067FD2A0701461AD501310329A8BF032198
:1014A000162000F06FFDEE0718D5222000F058FD41
:1014B000012813D1002C20DC680717D5282000F064
:1014C0004FFD0446314B1860002C27DC09E06B0708
:1014D00044BF00F1FF3121EAE171E1E700222B4B2B
:1014E0001A600021362000F04DFD7AE72907F8D573
:1014F000282000F035FD0446E6E7AA07F1D43A209B
:1015000000F036FD0028ECD115F0080F1F4E15D065
:10151000142000F025FD3368034433601B4D2B6815
:10152000A34213DD152000F01BFD296820448842EA
:10153000D8DC152000F014FD0119D3E76B07EDD5B9
:10154000142000F00DFD33681B1AE6E70BDA1520B6
:1015500000F006FD2968201A8842C3DB152000F040
:10156000FFFC211ABEE72146BCE770BD540A0020EB
:101570003C080020D80A00203A0C0020840A0020F1
:10158000A40A002040080020380800204408002059
:101590002DE9F341222000F0E3FC0646312000F063
:1015A000D9FC382000F0E4FC04463920002500F086
:1015B000DFFC08B144F002043A2000F0D9FC08B185
:1015C00044F004043B2000F0D3FC08B144F00804CC
:1015D0003C2000F0CDFC08B144F010043D2000F0A8
:1015E000C7FC08B144F020042146352000F0CAFCB5
:1015F0007E4B08201C8800F0B3FC84424FF00700AB
:101600007B4C2BDA00F0A6FC20603A2000F0B0FC06
:101610008046052000F0A4FC0228074640F0A88080
:1016200003F0DCFB734B0446186802F0CBF8241A75
:10163000312C18D82A2000F093FC00902B2000F0C9
:101640008FFC01900021684601F094FC002840F0D6
:10165000A0806948FFF732FE042008E000F0C4FCD7
:1016600003692360D1E76448FFF728FE0620FFF7EF
:10167000B1FD019801F012FD0190252000F06AFCF7
:10168000014601A801F058FD302000F063FC04463B
:10169000102000F05FFC01AA0146204601F02EFD5B
:1016A00028B15548FFF70AFE072001F0C7FF312097
:1016B00000F050FC0446112000F04CFC01AA014649
:1016C000204601F01BFD28B14B48FFF7F7FD08202D
:1016D00001F0B4FF2E20019900F05CFC092000F01D
:1016E00039FC019B984245487ADDFFF7E7FD0198F8
:1016F00002F074FD03F072FB01F09AFF02F0F0FDBE
:101700002E2000F02DFC00284FF01700D4BF00243D
:10171000402400F01FFC8542B4BF042700270D20A1
:1017200000F018FC27438542ACBF082400243C434A
:1017300059D1392000F01CFC002E054608BF4FF49B
:1017400080742146242000F01DFC75B12C48FFF761
:10175000B5FD2948FFF7B6FD2A48FFF7B3FD012183
:10176000222000F00FFC01F08BFF02B0BDE8F081F9
:10177000254801F074FB0090244801F070FB0099AB
:1017800001902A2000F0FEFB2B20019900F0FAFBCB
:1017900058E7012101A801F0EDFB012F044608D113
:1017A0006846019901F010FC78B174B1184B5B6880
:1017B00001932F2000F0D4FB00283FF45AAFDDE95D
:1017C0000001424601F02CFC53E70B48FFF776FD81
:1017D0000420FFF7FFFC00212E2000F0D3FB48E798
:1017E000FFF770FD83E70025ABE700BF3A0C002050
:1017F000B00B0020380800204C0A0020440A0020CA
:10180000840A0020A40A0020A40B0020A80B0020BA
:10181000C00B00201E2810B509D1054B1C6800F034
:101820009FFBC1B22046BDE8104001F0ADBF10BD26
:1018300038080020014B186800F032BB3C0800203B
:10184000F0B50027ADF22C5D984C00F081F900F066
:1018500064FA974B394621201F7000F093FB214614
:101860000122944801F03CFB3A462146924801F09F
:1018700037FB214603229148914D01F031FB21466F
:101880000222904801F02CFB214604228E4801F0F0
:1018900027FB8E4E294603228D4801F021FB294665
:1018A00005228C4801F01CFB3A4631468A4801F07B
:1018B00017FB314602232022884801F09DF831466B
:1018C00002234022864801F097F829460223042289
:1018D000844801F091F8294601230822824801F04A
:1018E0008BF8294602231022804801F085F8214612
:1018F000022340227E4801F07FF821460223802205
:101900007C4801F079F8314602234FF480527A483E
:1019100001F072F8214602234FF48072774801F0FB
:101920006BF8022304227649764801F065F801231A
:1019300029461A46744801F05FF8022329461A46E0
:10194000724801F059F8214602234FF400727048A2
:1019500001F052F8214604234FF400526D4801F083
:101960004BF8214604234FF400626B4801F044F821
:10197000214604234FF48052684801F03DF8214687
:1019800004234FF48062664801F036F831460423A0
:101990004FF40072634801F02FF8634D2146042391
:1019A0002022624801F028F82146042320226048C2
:1019B00001F022F8042331460222284601F01CF8E7
:1019C00001F0D4F900F00CF900F0B2F900F078F968
:1019D00000F070FB01F000FE1E2000F0C1FA0AAC1E
:1019E000C2B25449204602F039FB2046524901F068
:1019F00088FE4FF4ED71204602F064F840F25A512F
:101A0000204602F05FF840F22151204602F05AF8D9
:101A100040F22251204602F055F840F22351204670
:101A200002F050F840F22451204602F04BF840F208
:101A30002551204602F046F840F22651204602F099
:101A400041F840F22751204602F03CF84FF4A561DE
:101A5000204602F037F8394B1C6001F011FD4FF0C1
:101A60008041684600F0C2F9354B68460A22354984
:101A7000C3F800D000F0DEF968466422324900F075
:101A8000D9F94FF4FA726846304900F0D3F9284684
:101A9000FFF714FC0421202000F074FA00F00CFB86
:101AA00001F0EEFC38460DF22C5DF0BD0010014057
:101AB00051080020A40B0020A80B0020D40A00200D
:101AC00000080140E00A0020DC0A0020000C014070
:101AD000D80A0020CC0A0020D00A0020B40A002036
:101AE000AC0A00207C0A0020940A0020340A00205E
:101AF0003C0A00201C0A0020240A00202C0A002096
:101B0000001401409C0A00206C0A00205C0A00209E
:101B10008C0A0020840A0020740A0020540A002045
:101B20004C0A0020BC0A0020A40A0020640A0020FD
:101B3000440A002000640040EF110008380800202B
:101B40003C08002091150008CD1200085111000832
:101B500008B503F0A1F8022003F076F81E4B1F4AE7
:101B600040F202301A6003F01EFC40F2033003F032
:101B70001AFC4FF4417003F016FC40F2053003F0FC
:101B800012FC40F2923003F00EFC40F20B3003F0F6
:101B90000AFC4FF4607003F006FC40F2813003F061
:101BA00002FC40F2823003F0FEFB4FF4207003F0A1
:101BB000FAFB40F2093003F0F6FB40F2862003F016
:101BC000F2FB4FF4407003F0EEFBBDE8084040F23A
:101BD000993003F0E8BB00BF0CED00E00003FA050C
:101BE00008B502224FF480630321304802F012FF4F
:101BF0004FF4E1312E4803F075FB08212C4803F027
:101C000085FB4FF400512A4803F089FB0C2128483A
:101C100003F091FB0021264803F087FB00212448B4
:101C200003F08FFB224803F0A2FB224B1B78EBB1A1
:101C30001F4803F0A1FB02211F4803F037F90221DE
:101C40001D4803F081F902211C4A1B4803F097F953
:101C500000220221184803F055F9022116480022FB
:101C600003F044F90221144803F058F90321124803
:101C700003F01CF90321114A0F4803F080F90022F8
:101C800003210D4803F03EF9002203210A4803F026
:101C90002DF90321084803F041F90748032103F017
:101CA0005CF9BDE80840024803F051BB000C01405C
:101CB0000048004051080020000002400448004055
:101CC00008B5192003F012FC1021192003F01CFCA8
:101CD000182003F00BFC0021182003F015FC08204D
:101CE00003F004FC0021082003F00EFC1C2003F08C
:101CF000FDFBE0211C2003F007FC142003F0F6FBA1
:101D0000F021142003F000FC132003F0EFFBBDE8EA
:101D10000840F021132003F0F7BB08B503204FF46F
:101D20001C7103F08DF8BDE80840002003F060B896
:101D300010B52B4C204603F089F90021204603F012
:101D400071F9204603F069F920460622022103F0CA
:101D500086F920460622042103F081F90622204656
:101D6000114603F07CF92046022103F03EFA20469A
:101D7000042103F03AFA2046062103F036FA204601
:101D8000022103F04CFA2046042103F048FA2046D1
:101D9000062103F044FA2046022103F065FA2046AA
:101DA000042103F061FA2046062103F05DFA204683
:101DB000012103F08EFA2046002103F04CF94FF484
:101DC0008051204603F049F9204603F03AF9BDE876
:101DD00010404FF4607302220321024802F01ABE41
:101DE00000080040000C01407047000038B50D4667
:101DF00004460162084603F010F9284603F01CF976
:101E0000284640F2CF2103F026F928464FF6FF710D
:101E100003F023F9064B2046C4E90033C4E902333A
:101E20004FF0FF33C4E904330023636238BD00BFC1
:101E3000E91D0008F8B5436A0446032B0E46154613
:101E40002ADC006A03F002F9144F636A0122F95C8C
:101E5000206A03F004F9636A0022F95C206A03F047
:101E600028FA0221636A05EB850505EB850503F178
:101E70000802AD0044F82360994024F81250206A0B
:101E800003F0BEF80021206A03F029FA206A03F06B
:101E9000D8F8636A01336362F8BD00BF7C5B000859
:101EA0002DE9F04704460025022600F1100700F155
:101EB000180806FA05FA5146206A03F0A5F8D0B1D1
:101EC000206A03F00AFA51468146206A03F0A2F81C
:101ED000236A37F81520343353F825100A4443F8A1
:101EE000252054F825309847206A03F0F6F9A0EB36
:101EF000090028F815000135042DDAD1BDE8F08776
:101F000030B500F1100100F118030A2500200C463D
:101F1000228924886A43B2FBF4F202318B421044D6
:101F2000F5D130BD1C2210B5084C02FB0042D4682C
:101F30008C4209DC12698A4206DB054A42F820100D
:101F4000FFF768FC002010BDFF20FCE70001002027
:101F500000000020014B53F82000704700000020D3
:101F6000024B53F820004011704700BF00000020D2
:101F7000034B53F820004011431E5842584170470C
:101F800000000020024B490143F82010704700BFB9
:101F900000000020014B43F8201070470000002093
:101FA00070B506460024074D3146686800F082FC93
:101FB00008B9E0B270BD0134402C05F11C05F3D125
:101FC0004120F7E7000100200023064A9169814281
:101FD00001D1D8B270470133402B02F11C02F5D178
:101FE00041207047000100201C22024B02FB003000
:101FF000704700BF000100201C22044B02FB00338D
:10200000D3E90303C01A18BF012070470001002064
:102010000023064A0649906910B1506941F823002F
:102020000133402B02F11C02F5D170470001002062
:1020300000000020014B1954704700BF52080020D7
:10204000024B1A5C11431954704700BF520800201C
:10205000024A135C23EA010313547047520800201C
:10206000014B185C704700BF52080020024B1A68F1
:10207000024BC3F8DC237047280800200001002031
:1020800010B50A4C0321204602F070FF20460321C0
:10209000074A02F07DFF20460321802202F088FFDC
:1020A0002046BDE81040032102F057BF0000024067
:1020B0009C080020FFF7E4BF2DE9F04F0024A04664
:1020C000404F414DA1B00321384602F06AFF8146DE
:1020D000C0F1800608B9FFF7D3FFA246DFF8F0B0E1
:1020E000564539DCB442B8BF3446002EEBDDC9F1A9
:1020F0007F0915F809300A2B01D00D2B53D100238D
:1021000020212846AB5500F0F3FB90F800800446F0
:10211000B8F1000F28D10A21284600F0E9FB044657
:102120008DF80080237823B90D21284600F0E0FBCC
:1021300004460023DFF89C802370D8F80010C1B952
:10214000FFF79EFF012E04D0204C214E14F8011BF6
:1021500029BB0024A046B6E715F80A10584603F03C
:10216000FBF80AF1010ABBE7411C684600F0B0FB2E
:10217000D8E7284600F09EFB044610B108F1080895
:10218000DBE7D8F80030002BDAD0FFF779FF1048F2
:1021900003F0FFF86846D8F80430984793E73046D4
:1021A00003F0DAF8D2E72B78212B8CD1B8F1000FAD
:1021B00089D0FFF765FF6846D8F8043098470024B7
:1021C00081E700BF000002409C08002089600008F1
:1021D000004800409C6400082DE9F041254B1B7825
:1021E00033B981B2244803F0B7F80020BDE8F0818C
:1021F000224C23492268234D0B68D201C7B22A44DE
:102200000A280E46D75401D07F2B2FD1DFF87C80CF
:102210001D4F02224046114602F05EFE10B93B6897
:10222000002BF6D00221194802F0A0FE32680221EC
:102230000132164892B202F0BBFE22680221134816
:1022400005EBC21202F0A4FE02221048114602F071
:102250003DFE02210D4802F080FE2368B3FA83F3AD
:102260005B09236000233B603360BEE701330B60F2
:10227000BBE700BF51080020004800409408002040
:10228000980800201C0900200008002000000240DF
:10229000704708B503F022F901F01ABA044B05485B
:1022A000196853F8042C083B1B6800F051BD00BFAF
:1022B000F0F7FF1FA46000082DE9F04786B000F09A
:1022C00065FB0678702E08D1002001F03BFB4D49DC
:1022D00006B0BDE8F04701F0FABA632E0AD100203B
:1022E00001F030FB01F015FC474806B0BDE8F047AF
:1022F00000F02EBD202100F0FBFA03780BB9434813
:10230000F3E700F043FB2021074600F0F1FA0378E1
:1023100005460BB9642EF2D10024384605F8014B6E
:10232000FFF73EFE0746284600F030FB412F82466D
:1023300001D13748D9E7642E0CD1204601F002FBC9
:10234000394601F0BFFD0146324806B0BDE8F0470E
:1023500000F0FEBCA1460DF108082021504600F017
:10236000C7FA037805460BB9032CC8D1504605F8C7
:10237000019B00F0F2FA48F82400284600F006FB22
:102380000134042C8246E8D1DDE90248742E4FF076
:102390000000049DBDF9149011D101F0D3FA434619
:1023A00022463946CDE9005901F01BFC431D014688
:1023B000042B1CD8DFE803F0161913100D0001F0F0
:1023C000C1FA434622463946CDE9005901F017FCCF
:1023D000ECE721461048B8E741461048B5E72946E2
:1023E0000F48B2E721460F48AFE70F487DE70F4B94
:1023F0000F4A0128D8BF1A460E4806B0BDE8F0477C
:1024000000F0A6BC39240008AD600008CF600008C9
:10241000E2600008F66000080B6100081F61000818
:1024200033610008476100086F61000821620008FD
:10243000AA5F00088B6100082DE9F047DDF82080D5
:102440009DF824900C4615461E46FFF7CDFD4768C3
:102450000A4800F07DFCB9F1000F0CD0084800F0EC
:1024600077FC2B4622463946CDE90868BDE8F0479F
:10247000044800F06DBC0448F1E700BFB5610008F6
:10248000BA610008C2610008BE610008F8B50C48D6
:1024900000F05EFC00240B4FE6B23046FFF7A4FDCF
:1024A00005463046FFF7DCFDC30704D4D5E9011229
:1024B000384600F04DFC0134402CEDD1F8BD00BF92
:1024C000D3610008F5610008F8B50024084EE5B2B4
:1024D0002846FFF789FD47682846FFF73BFD013492
:1024E00002463946304600F033FC402CEFD1F8BDAF
:1024F000FF6100082DE9F04100F048FA0446104F52
:10250000DFF840802C21204600F0F2F90023067805
:10251000054603702046FFF743FD41280CD0FFF726
:1025200019FD014640462C4600F012FC2C2E04F802
:10253000016BE7D0BDE8F08121463846F3E700BFE4
:1025400008620008036200082DE9F04F2F488DB0A3
:1025500000F0FEFB00262027DFF8C480DFF8C490DF
:10256000DFF8C4A0F5B22846FFF73EFD0446284632
:10257000FFF776FD10F0010B3AD16268A368284698
:1025800005920493FFF7E6FCDDE90432394600903A
:10259000404600F0DDFB584601F0D4F90DF11F0371
:1025A00002930BAB01930AAB0093294609AB08AA2F
:1025B00001F0AAF878B19DF81F10154A154B16487E
:1025C000002908BF134601930B9B08990093DDE98E
:1025D000092300F0BDFB2846FFF70EFD88B12368F4
:1025E00050460093E168D4E9042300F0B1FB2C27A6
:1025F0000136402EB6D1094800F0AAFB0DB0BDE867
:10260000F08F484600F0A4FBF1E700BF2D62000800
:10261000276200082262000855620008EE62000886
:102620002F620008DD62000896620008F7B51148C5
:1026300000F08EFB104800F08BFB00250F4FEEB230
:102640003046FFF7D1FC04463046FFF7D5FC60B1B9
:102650003046FFF705FDC30707D46369384600938A
:102660006168D4E9032300F073FB0135402DE6D106
:1026700003B0F0BDF46200080B6300082763000894
:1026800008B500F039FF0146064800F061FB002064
:1026900001F058F901F07CFCBDE80840024800F068
:1026A00057BB00BF3A6300085663000808B5FFF740
:1026B000AFFCBDE80840014800F04ABB6663000873
:1026C0002DE9F04F85B000F061F9044600F045F9BE
:1026D00020210546204600F00BF903782BB92C4841
:1026E00005B0BDE8F04F00F033BB0026B046DFF880
:1026F000B090441C2C21204600F0FAF8074690F8D0
:1027000000A080F800802046FFF74AFC3C464128A4
:1027100004F801AB1DD004AB334403F80C0C0136B4
:102720003B782C2B01D1092EE4DD1A4802F02DFE56
:10273000DFF86080DFF86C902021404602F02DFE2B
:10274000044618B9002D08DC6A1C06D005B0BDE8A7
:10275000F08F484600F0FCFAE2E70F4FDFF848A0A0
:102760000DF1040BA6420BD01BF80400FFF7F2FB9F
:1027700039460246504600F0EBFA4F460134F1E785
:10278000064800F0E5FA6B1CD6D0013DD4E700BF47
:102790007863000800480040216200081F620008BA
:1027A000E2600008D065000897630008F8B500F003
:1027B000EDF82021074600F09BF80378044623B982
:1027C0001648BDE8F84000F0C3BA00260670384647
:1027D000FFF7E6FB412805461AD06378212B0AD083
:1027E0007E2B08D02F2B06D0611C0D4800F062F81C
:1027F00020B10C48E5E70126A11CF6E70121284697
:102800001EB1FFF725FC0848DBE7FFF719FCFAE7E4
:102810003946BDE8F840054800F09ABA9C630008C4
:10282000AC630008B3630008C2630008D363000808
:1028300038B500F0ABF82021044600F059F80378D1
:1028400023B90F48BDE8384000F082BA002300F8F1
:10285000013B00F022F905462046FFF7A1FB412885
:1028600007D02946FFF75EFB08B90648EAE70648A5
:10287000E8E72146BDE83840044800F069BA00BFE7
:10288000EA630008056400080E640008D3630008CA
:1028900008B500F0A1FE30B9FEF7BCFF0348BDE863
:1028A000084000F055BA0248F9E700BF2364000869
:1028B00037640008431E013913F8010F11F8012F86
:1028C00010B10AB19042F7D0801A18BF01207047AA
:1028D000013911F8013F0BB90370704700F8013B53
:1028E000F7E7034600201A5C02B970470130FAE7A7
:1028F0000346184613F8012B0AB18A42F9D17047F2
:1029000000290346F0B520DA2D2003F8010B012041
:1029100049421D46C71A91FBF2FC02FB1C113031E3
:1029200029702C46BCF1000105F101051E4605EB9E
:102930000700F0DC00232B70B4420BD933782278E7
:1029400006F8012B04F80139F6E704D13022417072
:1029500002700120F0BD0020DBE730B503782D2B9D
:1029600011D14FF0FF34013000210A25431E01E050
:1029700005FB012113F8012F303AD0B20928F7D90D
:1029800004FB01F030BD0124EEE7000010B5134C4C
:1029900002780146A2F10A03DBB2162B00F1010016
:1029A00017D9A2B10846FFF79CFF0C4C0138084428
:1029B0008142024609D2137801380A3BDBB2162B5A
:1029C00003D824FA03F3DB07F2D40023537008463C
:1029D00010BD24FA03F3DA07DAD4E3E70900400074
:1029E000002310B5934200D110BD51F8234040F8A8
:1029F00023400133F6E70000013BDBB2032B70B547
:102A00000C4615460160828011D80B4A0B48D15CF8
:102A10000B4AC65CD25C2B46204601F0FBFF012E20
:102A200009D129462046BDE8704002F0C7BA002609
:102A300002223146EFE770BD246500082C650008CE
:102A4000286500080029B4BF4FF0FF32012270B59D
:102A5000642401FB02F3591103F01F0363430132A5
:102A60004FEA6314054604BF2D2305F8013B0646D3
:102A70000A222846FFF744FF2E23092C2B54D8BFE7
:102A8000302305EB0002CEBF501C5370901C214632
:102A90000A22FFF735FF304670BDF0B502780346D5
:102AA0002D2A15D14FF0FF30013300250A2702E00F
:102AB0000B4607FB0545194611F8012BA2F130041E
:102AC000E6B2092EF4D98AB902EB45125043F0BDA3
:102AD0000120EAE74901B1FBF4F17C430A4413F811
:102AE000011F3039CEB2092EF4D9EDE70A240022B5
:102AF0002746F4E7034608462BB11A6811701A6896
:102B000001321A607047FFF767BB2DE9F843141EC6
:102B100006460D4616DC4FF02008DB071FD50023C4
:102B20005F1B21E00132A95C0029FBD1A242ACBFAE
:102B30000C46A41A13F0020F0CBF4FF020084FF000
:102B40003008EAE70022EEE741463046FFF7D2FFC1
:102B5000013F002FF8DC24EAE473E41AE0E727469B
:102B6000F7E73046FFF7C6FF07EB050915F8011B2D
:102B70000029F6D12546002D07DC002CACBF09EB5F
:102B8000040009F10000BDE8F88341463046FFF734
:102B9000B1FF013DEFE72DE9FF478046DDE90C7A03
:102BA00015461C4651B930233A46ADF8043001A908
:102BB0005346FFF7AAFF04B0BDE8F08723B10A2A05
:102BC00029D1002927DA494200238DF80F300E9BC6
:102BD0000DF10F023A3BB1FBF5F005FB1016092E83
:102BE00088BFF61830368D4202F1FF3902F8016CC9
:102BF00013D944B1A7B11AF0020F11D02D214046CC
:102C0000FFF778FF013F53463A4649464046FFF7F3
:102C10007CFF2044CFE70024D6E701464A46DAE7A6
:102C20002D23002409F8013CA2F10209EBE7000082
:102C30002DE9F04307460E46144600254FF00A08DA
:102C4000DFF808918BB033783BB917B100223B68AD
:102C50001A7028460BB0BDE8F083252B6FD173782E
:102C6000002BF2D0252B06F1010267D02D2B0ABFD5
:102C700001230023B21C164612F8011B302915D07F
:102C80000022304610F8011BA1F1300C5FFA8CFED7
:102C9000BEF1090F0DD973290FD121680434002921
:102CA00008BF49463846FFF730FF14E043F00203FF
:102CB000E1E7064608FB02C2E3E764290ED1612082
:102CC0002146CDE90130012300920A2238460968E5
:102CD0000434FFF760FF05440136B4E7782907D1D3
:102CE00021466120CDE90130009200231022EDE75A
:102CF000582902D121464120F4E7752906D16120E7
:102D00002146CDE9013000920023DEE766290AD191
:102D1000216807A8CDE904230434FFF793FEDDE919
:102D2000042307A9BEE76329D6D1216804348DF8AE
:102D3000181000218DF8191006A9B3E71646384679
:102D40003178FFF7D7FE0135C6E700BF30650008D0
:102D50000FB407B504AA52F8041B00200192FFF734
:102D600067FF03B05DF804EB04B0704707B52D486A
:102D700001F08CFB2B4801F08EFB2A4801F095FBFB
:102D8000284801F08DFB0121264801F06AFB254807
:102D900001F03AFB0023244A0193019B934203DC98
:102DA000019B01330193F8E71E4801F03DFB1D48EC
:102DB00001F04DFB08211D4A1A4801F07BFB194820
:102DC00001F0C1FB01211A4A1A4802F0D8F801218A
:102DD000194A184802F0DCF84FF4807201211548B6
:102DE00002F090F84FF480620121124802F07EF860
:102DF000602201210F4802F0DBF801210D4802F0AA
:102E00008DF801210B4802F092F80121094802F0E7
:102E1000A4F8044801F08DFB024803B05DF804EB10
:102E200001F0FABA002401407F380100C40A0020F2
:102E30004C24014000000240E40A002003468B427B
:102E4000084606DD914203DC9342A8BF13461846AC
:102E500070479342FBDC9142A8BF1046704773B5A0
:102E60006E46056805F13004F03534F8102C34F85E
:102E7000201C34F8300CFFF7E1FF3034AC4226F868
:102E8000020BF2D1BDF80230BDF800001844BDF8C5
:102E900004301844BDF806301844C0F38F0002B067
:102EA00070BD00000D4B98420BD003F58063984233
:102EB0000DD0A3F5006398420ED107290CDCC8B2EF
:102EC0007047012908DC01F10800C0B270470529EC
:102ED00002DC01F10A00F8E710207047000C014005
:102EE000012370B593400C46154600220646114654
:102EF0009BB2204601F08EFD29462046FFF7D2FF07
:102F00003368034A9B1A034AC3F34F03D05470BD7E
:102F1000E40A0020C40A00200D4B0E4A991C1360DD
:102F20000D4A11600D4A191D11600D4A991D11605D
:102F30000C4A03F1080111600B4A03F10A01116008
:102F40000A4A03F10C011160094A0E3313607047FD
:102F5000E40A0020A40B0020A80B0020D40A0020C3
:102F6000E00A0020DC0A0020D80A0020CC0A002059
:102F7000D00A0020124B30B553F82120114B53F8E2
:102F800021401346A242A8BF2346016801F1C805AB
:102F90009D4206DBA242B8BF224602F1C804A1420C
:102FA00003DD013B0360002030BD994203DA013BA1
:102FB00003600120F8E79142C8BF0260F9E700BF53
:102FC000C00B0020C80B0020F0B5134F134E7D68D6
:102FD00074686422A54218DD0B1B53432C1B93FB22
:102FE000F4F3D31A02683968541A642262433468CD
:102FF000641A92FBF4F29B1A002BB8BF5B420A2BB7
:10300000CABF016001200020F0BD491B4A43631B79
:1030100092FBF3F3E6E700BFC80B0020C00B0020D3
:10302000034670B572B31848184D00686E688E423A
:103030000EDC8C1B4FF448616143154C6468A41B83
:1030400091FBF4F141436420491191FBF0F1481EDA
:10305000BAB9104A2C6811681B1B5A0101F5486364
:1030600053430B4A5B111268121B93FBF2F35B1A7A
:1030700043BF584320F01F0090FBF1F0184648BFB3
:10308000404270BD0448CFE7AC0B0020C80B0020C5
:10309000C00B0020BC0B0020B80B0020124B134AC1
:1030A0001B6811469842A8BF1846114B1B689842EE
:1030B000B8BF18461368834207DC0E4909680B4401
:1030C0009842A8BF1846106070470028FBDC03EA4E
:1030D000E373834205DB084A12689B1A9842B8BF23
:1030E00018460860704700BFD80B0020B40B0020C2
:1030F000DC0B0020B00B0020E00B0020884212DD2A
:103100003F318142ACBF4FF4C86000201368002BF0
:103110000CDB8342A8BF0346B0F5486FACBF00206C
:103120000120136070474FF44860EFE741428B4243
:10313000B8BF0B46F0E7000010B50468002C0BDBAD
:103140000B4B1B68C91A01EB810121EAE172944221
:10315000A8BF1446046010BD064B1B68C91A01EBDA
:10316000810101EAE1739C42B8BF1C46F2E700BF4F
:10317000D40B0020D00B002008B50B4A88781388A8
:1031800001331380CB7840EA032000B202F0B4FA96
:10319000064902F0EBFB02F099FCBDE8084001464D
:1031A0002720FEF7F7BE00BF100C002000007A4475
:1031B00038B51F4BC8781C880134A4B21C808B78AA
:1031C00043EA002002F098FA1A4902F0CFFB02F01D
:1031D000ABFC194B194A1B88128881B21344CB1AD5
:1031E000952C1748174A9BB21AD8018013801648AD
:1031F00005888D4202D2962C88BF018010889842A3
:1032000002D9962C88BF1380104A1088984202D2A7
:10321000962C88BF13802520BDE83840FEF7B2BE4B
:1032200005888D42E3D9962C18BF0180DFE700BFE7
:10323000100C002000007A44080C00200A0C00202A
:103240000E0C0020E60B00200C0C0020E40B0020EC
:10325000174B10B51C88C8780134A4B21C808B7839
:1032600043EA002002F048FA124902F07FFB02F024
:103270005BFC80B2032888BF0F4A104B88BF1288BE
:10328000188084BF801A1880952C1B880C4A01D89E
:10329000138004E01188994201D9962CF8D1094A8B
:1032A0001188994202D2962C88BF138010BD00BFAE
:1032B000100C002000007A440A0C0020080C0020AA
:1032C000EA0B0020E80B0020134B10B51C88C878CF
:1032D0000134A4B21C808B7843EA002002F00CFA7F
:1032E0000E4902F043FB02F01FFC0D4B80B2952CFF
:1032F00018800C4B01D8188006E01A88824203D946
:10330000962C01D00A28F6D8074B1A88824202D29E
:10331000962C88BF188010BD100C002000007A4445
:103320000A0C0020EE0B0020EC0B0020024A138850
:1033300001331380704700BF100C002008B50A4A03
:10334000C8781388013313808B7843EA002002F099
:10335000D3F9064902F00AFB02F0B8FBBDE80840C9
:1033600001462620FEF716BE100C002000007A440D
:10337000F8B50F4A0F4E1388D1F80240013313807D
:1033800030680D4B201A1C6002F0B6F90B4902F0B0
:10339000EDFA0B4F0546386802F0AEF901462846B3
:1033A00002F0C8F802F092FB34603860F8BD00BF4C
:1033B000100C0020000C0020F40B002000006145E0
:1033C000F00B0020F8B50F4A0F4E1388D1F80240D9
:1033D0000133138030680D4B201A1C6002F08CF909
:1033E0000B4902F0C3FA0B4F0546386802F084F926
:1033F0000146284602F09EF802F068FB346038600F
:10340000F8BD00BF100C0020040C0020F80B0020B9
:1034100000007A44FC0B002007B50020064BCDE9E4
:10342000003000F08FFA6A4640F2114100F0CDF909
:1034300003B05DF804FB00BF3400010007B5322380
:103440000020CDE9003000F07DFA6A4640F21141DB
:1034500000F0BBF903B05DF804FB000007B50020E5
:10346000064BCDE9003000F06DFA6A4640F211419A
:1034700000F0ABF903B05DF804FB00BF34010100BC
:103480002DE9F3410026174B60251E702024FFF71D
:10349000C3FF4FF0420802278DF80040002001349E
:1034A0008DF803508DF801808DF802700196E4B21A
:1034B00000F048FA6A4640F2114100F086F91235F0
:1034C000FFF7BCFF292CEDB2E6D1FFF7C7FF064B93
:1034D0001A68064B1A60064B1A68064B1A6002B04F
:1034E000BDE8F08104080020F40B0020000C00204F
:1034F000F80B0020040C00202DE9F047ADF5806D9D
:103500006D46002401F0B6FC2E46A846A146E7B25F
:103510003846FEF771FDF0B9FF274FF6FF7A4FF0FE
:10352000FF3905EBC4067F2C06F1080635D04FF0B5
:10353000FF3006F8067C06F8057C26F808AC46F84D
:10354000049C01F09FFC4FF0FF3001F09BFC013424
:10355000C5F8F803E7E77F2C06F108061DD03846CA
:10356000FEF742FD824606F8069C3846FEF778FDD7
:10357000DAF8183006F8050C26F8083C3846FEF74D
:10358000E9FC074646F8040C56F8080C01F07AFCF2
:10359000384601F077FC0134B9E74FF0FF33C5F846
:1035A000FC3301F029FF0A4801F0F8F9084C094EF4
:1035B000204655F8041B043401F038FFB442F7D11B
:1035C00001F026FFD8F8F8030DF5806DBDE8F0870F
:1035D00000FC01080000020870B5144C01F04AFC20
:1035E000FE21204601F054FCD4F8F833834219D16F
:1035F0000025EC0004F1006404F5FE342088FEF799
:10360000E3FC4128064608D0238833B16168FEF701
:10361000C1FC3046E178FEF70DFD01357F2DE8D184
:10362000002070BD4FF0FF30FBE700BF00FC010839
:10363000014B1860704700BF240C002030B50B4CC4
:10364000235C93B90A4B1D687DB10A4B0A490B4AAA
:1036500018700B6802F8330002EBC30255600122B8
:10366000134403F0030322540B6030BD180C0020F8
:10367000240C0020280C0020140C00200808002036
:1036800000231946034A0133092B02F8011BFAD122
:10369000704700BF180C0020014B1878704700BF1E
:1036A000280C0020074B10B403EBC1021479064A22
:1036B00053F8313052F82420014610BC0348FFF77C
:1036C00047BB00BF20660008686600083765000831
:1036D00038B5094C636823B9BDE838400748FFF79F
:1036E00037BB0025606830B114F8081B0135FFF7BF
:1036F000D9FF042DF6D138BD080800204765000821
:103700007047C0F8E01470472DE9F04F00240B9E7D
:10371000074634704FF0010904464FF6FF7AE51B67
:10372000B5F5E17F29DCB4F800E0D64525D004F1F9
:10373000020C654695F90580B8F1000F1BDDB5F860
:1037400000B08B4511D10120C2F800E02A791A603F
:10375000099BB5F90220C3F800800A9B1A60BDE8F6
:10376000F08F00F5FA742746D9E70635A5EB0C086B
:10377000B8F12A0FDEDD3234D1E7347886F80090D4
:10378000002CEED00020EAE70C220023514330B594
:103790000B4C8BB0621895685268CDE907330592DF
:1037A0006258CDE90133CDE903320122069500923A
:1037B0001946D0F8FC0400F0D7FE0BB030BD00BFB6
:1037C00074660008D0F8E803704773B504460E46E7
:1037D000D0F8FC040121154600F0BCFF082300933B
:1037E000002331461A46D4F8FC04019500F0B7FFD7
:1037F000002811DAD4F8DC34132B0DDC0C2000FB8C
:1038000003402A680133C0F8F0236A68A0F8EC632B
:10381000C0F8F423C4F8DC34D4F8DC34002B07DD22
:103820000121D4F8FC0402B0BDE8704000F08EBF66
:1038300002B070BD2DE9F74F06464FF6FF7900F153
:10384000320535F8323C2F464B4538D000234FF037
:10385000010BCDE90033A5F1300AA5F12A0414F9D2
:10386000013CA046002B1EDD14F8060CFEF772FB8F
:1038700034F9043C14F8022C584314F9013C1F2A73
:103880000BFA03F303F1FF3303EA60131AD9203A6A
:103890009340019A13430193A8EB0A08B8F12A0F49
:1038A00004F10604DBDD35F8321C6A463046BF1BE6
:1038B000FFF78BFFB7F5E17F05F13205C1DD03B0FE
:1038C000BDE8F08F9340009A13430093E4E72DE99D
:1038D000F04F0446814600274FF6FF7A85B0CDE9C8
:1038E0000201A4EB0903B3F5E17F22DC23885345F1
:1038F0001FD004F1020B04F1080515F9013CA8469C
:10390000002B11DD15F8022C15F8060C019735F97E
:10391000041C039E00912188A8EB0B08B047B8F166
:103920002A0F05F10605E8DD3234DAE7A146012762
:10393000D7E7029B03F5FA74002FF7D005B0BDE876
:10394000F08F00000128DABF024B53F8200000205E
:10395000704700BF2C0C002073B504460C250826C8
:10396000D4F8DC34002B17DD013B6B43E21803F580
:103970007C732344B2F8EC13CDE900630023D4F840
:10398000FC041A4600F0EBFE002805DBD4F8DC341A
:10399000013BC4F8DC34E3E7D4F8DC343BB9012163
:1039A000D4F8FC0402B0BDE8704000F0D3BE02B011
:1039B00070BDF0B51C4626880F467601B1B20126CF
:1039C000106885B09B88029606400196E6881546E9
:1039D00062887601B6B25B0152019BB292B2009648
:1039E00000F0A4FE00233B602A6801322A60E380D5
:1039F000A3806380238005B0F0BD00002DE9FF4166
:103A0000002340F20162CDE90233ADF80820012223
:103A100004460025D0F8FC140092284A00F2E4463F
:103A200091421EBF264B1B68C3F305230193D4F8B4
:103A3000F824009BAA4212DD04AA02EB430236F8E6
:103A4000021B0133042B22F8081C009305D16946A0
:103A5000204602AB01AAFFF7ACFF0135E7E74FF6BE
:103A6000FF7804F5FA7704F2262535F8322C2E4635
:103A70004245009B0BD1009B002B05DD694620468B
:103A800002AB01AAFFF795FF04B0BDE8F08104A9DD
:103A900001EB43010133042B21F8082C009305D1DD
:103AA0006946204602AB01AAFFF783FFF61BB6F575
:103AB000E17F05F13205D8DDDDE700BF006400409D
:103AC000006A0040D0F8F82410B5092A0ADC00EB9F
:103AD00042040132A4F8E414C0F8F824FFF78EFF82
:103AE000012010BD0020FCE74FF6FF70002301F518
:103AF000FA720880CB714B73CB744B76CB7781F81D
:103B0000253081F82B3081F8313032318A42F0D1C2
:103B1000704710B504460146FFF7E6FF204604F55E
:103B2000FA71FFF7E1FF2046BDE81040FFF766BFDE
:103B3000002310B5CC5AC818944204D03233B3F5E0
:103B4000FA7FF7D1002010BD2DE9F843B3F5006FDF
:103B50008146DDE908760C461546984632DA3F2F55
:103B600033DC202E34DC1A46FFF7E2FF38B94FF67B
:103B7000FF724846FFF7DCFF68B3A0F80080023010
:103B800090F90530002B01DD0630F9E7013325D02F
:103B9000BDF9283005804380077146714FF6FF71EB
:103BA000002004F1320333F8325C1A468D4207D00C
:103BB000121BB2F5E17F00F1010003F13203F2DDE7
:103BC000BDE8F8834FF0FF30FAE76FF00100F7E748
:103BD0006FF00200F4E76FF00300F1E76FF004000C
:103BE000EEE71FB5BDF91C400294069CCDE90034F8
:103BF00013460A460146FFF7A7FF04B010BD30B5D3
:103C000085B0BDF9245004460295089DCDE90035E4
:103C100013460A4600F5FA71FFF796FF054620465F
:103C2000FFF7ECFE284605B030BDF7B5B1F80160EE
:103C30000746B6F5005F0C461BD1C8783F2840D830
:103C40000B78402B0ED14968FEF76CF958BB232343
:103C50002370224640F28151384603B0BDE8F0405F
:103C6000FFF7B3BD222BF4D1FEF774F94323606054
:103C7000EEE7A6F54053B3F5C05F22D2C9783F29DD
:103C80001FD82378402BE4D16568C6F30A02C5F338
:103C9000072CEBB22D14CDE900C575040ED5FFF746
:103CA000AEFF0028D3DA8023237030232371002352
:103CB00063710923A3710623E371CAE7FFF791FF3C
:103CC000EFE7802323700023237163710223F1E760
:103CD0002DE9F04705460E464FF001088AB0002353
:103CE00005930DF11A0303930DF11B0302930DF1DC
:103CF000190308AC019306AB00930122D5F8FC042C
:103D0000049407ABF1B200F0A1FD002854D040F2BA
:103D10000163079A9A4208D19DF81A30082B04D102
:103D200021462846FFF781FFD9E7284605F5FA71B5
:103D3000FFF7FEFE002839D000F1020900F1080A61
:103D40001AF9011C5746002904DC01F047F8C5F8B0
:103D5000E803C4E71AF8024C08FA01F11F2C93BFDC
:103D6000089B099A203C23FA04F401F1FF3188BF33
:103D700022FA04F40C403AF9041C1AF8060C640107
:103D80004C43FEF739F9641121463AF8063C48B134
:103D9000D8B2FEF7C7F8A7EB09072A2F0AF1060ADF
:103DA000CEDDD2E7D8B2FEF7F5F8F4E721461046AB
:103DB000D5F8E034984792E70AB0BDE8F0872DE9DE
:103DC000F04100240F4616469846254644450CDA35
:103DD00056F8240001F056F856F82410054607EB73
:103DE000840001F023FB0134F0E72846BDE8F081B0
:103DF00000202DE9F04F054685B0009201F1320414
:103E000003934FF6FF7334F8328C0194984539D000
:103E1000A4F130030293322300274FF0010C03FB7F
:103E200005FE009B03EB0E0AA4F12A0313F9019C83
:103E30001A46B9F1000F18DD33F8069C039EB14510
:103E400023D006269C4606FB07A95CF806BD013771
:103E5000C9F802B0BCF804C0A9F806C04FF0000CC5
:103E6000029E0633961B2A2EE0DDBCF1000F03D123
:103E7000009B013523F80E80019B32345B1AB3F5A9
:103E8000E17FBEDD05B0BDE8F08F0130E8E7F0B5B9
:103E9000044616460D46FFB001A9FFF725FE33463E
:103EA000294601AA2046FFF7A3FF07462046FFF751
:103EB0001BFE33462A46204601A9FFF799FF3846E4
:103EC0007FB0F0BD70B50A460D4601460446FFF7C7
:103ED000DEFF2A46064604F5FA712046FFF7D7FFB3
:103EE000304470BD2DE9F0470E464FF6FF7901F1E1
:103EF000320434F8323C27464B451CD0A4F1300A3A
:103F0000A4F12A0515F9013CA846002B0DDD15F892
:103F1000060CFEF769F8A8EB0A088369B8F12A0FC6
:103F200025F8063C05F10605ECDDBF1BB7F5E17F82
:103F300004F13204DDDDBDE8F0872DE9F0470E46DF
:103F40004FF6FF7901F1320434F8323C27464B45F5
:103F50001BD0A4F1300AA4F12A0515F9013CA846AA
:103F6000002B0CDD35F8060CFEF72EF8A8EB0A083E
:103F7000B8F12A0F25F8060C05F10605EDDDBF1B8B
:103F8000B7F5E17F04F13204DEDDBDE8F087000023
:103F900073B50446194E00F06DFF01F02DFA0220B2
:103FA00001F020FA304600F0F9FC04F5FA752146DC
:103FB0002046FFF797FF29462046FFF793FF22464A
:103FC00031467D232046FFF7FAFE2A467D23204610
:103FD0000B49FFF7F4FE012301AA0A49019020468C
:103FE000FFF7EDFE01F014FA21462046FFF7A5FF8A
:103FF00029462046FFF7A1FF02B070BD00F8010876
:10400000F4F90108E8FB010838B5114B04461D68B6
:1040100000F030FFFA210F4800F03AFF854215D139
:104020007D2220460B4904F5FA75FEF7D9FC7D2266
:1040300028460949FEF7D4FC21462046FFF77DFFBC
:1040400020462946FFF779FF012038BD0020FCE714
:10405000E8FB010800F80108F4F90108F8B50025AB
:1040600004460E46424BC0F8FC14C0F8E034C0F8D9
:10407000E853C0F8DC54C0F8F8541746FFF749FD80
:104080002046FFF7C1FF3B4B9E421AD003F58063E9
:104090009E4241D0D4F8FC0400F05AFA394620463A
:1040A000FFF772FB2046FFF7A9FCD4F8FC040221BD
:1040B00000F04CFBD4F8FC04102100F047FB204634
:1040C000F8BD4FF40063022229462B4800F0A2FC01
:1040D0004FF40061284800F071FF4FF48053022232
:1040E0000321254800F096FC142001F0FFF9F0218F
:1040F000142001F009FA152001F0F8F9F02115203B
:1041000001F002FA132001F0F1F9F021132001F07F
:10411000FBF91A4B1C60BDE74FF48053022229467D
:10412000174800F077FC4FF48051154800F046FF27
:104130004FF4005302220321114800F06BFC402091
:1041400001F0D4F9F021402001F0DEF9412001F026
:10415000CDF9F021412001F0D7F93F2001F0C6F957
:10416000F0213F2001F0D0F9044B5C6092E700BFE2
:104170000137000800640040000801402C0C0020BA
:10418000000C0140024B00211868FFF7A1BD00BFE1
:104190002C0C0020024B01211868FFF799BD00BFCD
:1041A0002C0C0020014B1868FFF7D6BB2C0C00200C
:1041B000024B00215868FFF78BBD00BF2C0C00207C
:1041C000024B01215868FFF783BD00BF2C0C002073
:1041D000014B5868FFF7C0BB2C0C0020024B292074
:1041E000B3F90010FDF7CEBE360C0020034A137859
:1041F000013303F003031370704700BF400C00202D
:1042000003B20920203B03EB830313F5916F93FB6B
:10421000F0F004DBB3F5906F04DA40B270476FF052
:104220007F0070477F207047B0F5ED7F08B51BD148
:104230004B780A789B1143EA8203134A13800A7968
:104240004B7943EA022347F6FF721BB2934208BF41
:1042500000230E4A13808B7913F0B00F14BF012294
:1042600000220B4B1A8008BD40F25A539842FAD1F3
:104270008878FFF7C5FF074B18804878FFF7C0FF25
:10428000054B1880EFE700BF3C0C00203A0C0020E3
:10429000380C00203E0C0020340C00200023F0B528
:1042A0000126C371441EC51D072214F8017F06FABA
:1042B00002FE1EEA070F14BF4FF0010E4FF0000E72
:1042C0004FFA83FC0EEB4303BCF1000FDBB2B8BF27
:1042D0004B40013AEBD2A542E6D1C371F0BD0000DC
:1042E00007B5424B424A0093C023ADF8043013781F
:1042F00085218DF806300133DBB2032B88BF002304
:1043000068461370FFF7CAFF0020FFF71BFB6A46E1
:104310004FF48D71FFF759FA40F2F773354AADF853
:104320000030354BB2F90010B3F90030994218BF94
:10433000138003F5006292B2B2F5805F52D21A1276
:10434000C3F3061122F07F020A431B018DF80220FD
:104350008DF80330294A6846137899010133DBB29E
:10436000032B88BF0023137044238DF805303023BE
:1043700041F007018DF8041085218DF80630FFF714
:104380008DFF0020FFF7DEFA6A464FF4EA71FFF76F
:104390001CFA00221A4900200B7800928DF8063092
:1043A0000133DBB2032B94BF0B700A70ADF804200D
:1043B0008DF80720FFF7C6FA6A4640F2DB11FFF7D7
:1043C00004FA00200F4BADF8040000938DF80600AE
:1043D000FFF7B8FA6A4640F20B51FFF7F6F903B05F
:1043E0005DF804FB0023ADF80230B3E74E4000AAAD
:1043F000430C0020440C0020360C0020410C00200F
:10440000420C0020000006C08368DB075EBF8368A3
:1044100043F00103836070478368DB0742BF836812
:1044200043F0010383607047836800F1080243F0A2
:104430000803836013681B07FCD47047836843F04C
:104440000403836070478068C0F38000704708B53C
:104450000246FFF7F3FF1046FFF7F5FF0028FAD1F9
:1044600008BD0022134610B501FA02F403321E2AD9
:1044700043EA0403F8D10022036101FA02F4033293
:10448000182A43EA0403F8D1C36010BD836823F0FF
:10449000010383607047436843F48073436070474F
:1044A000836823F4006383607047836843F00203EA
:1044B000836070471029F0B50CD8002501232F46E2
:1044C0002E46DCB2A14206D2013946EA0156C66246
:1044D00007634563F0BD062C0BD802EB030C1CF8F8
:1044E00001CC03EB830EAEF1050E0CFA0EFC45EA8F
:1044F0000C05A4F1070CBCF1050F0BD802EB030C63
:104500001CF801CC03EB830EAEF1230E0CFA0EFC6B
:1045100047EA0C070D3C052C09D8D41814F8014CB7
:1045200003EB830CACF1410C04FA0CF42643013389
:10453000C7E7836800F1080243F4800383601368CF
:104540005B02FCD47047836843F4807383607047D8
:10455000044B98420CBF40F2192040F21A2000F0A0
:104560002FBF00BF006400402DE9F34104689DF8AF
:10457000208024F00204046004689DF824E044F0E4
:10458000010404604FF6FF749DF828C09DF83C605C
:104590009DF840700194019C051D013C019414B1EB
:1045A0004468E407F7D52C68E40770D50024C4619B
:1045B000002951D0016841F080010160002A4FD0EC
:1045C000026842F040020260002B4DD0036843F0C5
:1045D000200303600368B8F1000F49D043F01003D3
:1045E00003600368BEF1000F45D043F00803036089
:1045F0000368BCF1000F41D043F004030360C369BA
:10460000002F3ED043F00043C361C369002E3BD06E
:1046100043F08043C3610E9B0D99013BC3F3090333
:104620000B430C99C2690B430B990B431343C361B2
:10463000036823F0010303604FF6FF730193019BAE
:10464000013B019313B12B68DB07F8D4286800F015
:10465000010002B0BDE8F081016821F08001ACE703
:10466000026822F04002AEE7036823F02003B0E7BF
:1046700023F01003B4E723F00803B8E723F00403A2
:10468000BCE723F00043BFE723F08043C2E70120EB
:10469000DFE70000F0B501241F4E844035689DF827
:1046A0001C7045F001053560E6431C4DD5F800C08F
:1046B0000CEA060CC5F800C0DFF86CC009B3DCF8E2
:1046C00000102143CCF800101549F2B10A682243CA
:1046D00000F1006000F6C8400A60C0000360069A5E
:1046E000059B43600F4B9AB11A6822431A6017B1B9
:1046F0002B681C432C60084A136823F001031360E5
:10470000F0BDDCF800103140DCE70A683240DFE73A
:104710001A6816401E60EAE7006600401C6600400A
:1047200004660040146600400C66004030B4BDF8DA
:1047300008409DF8105044EA03430293049542EA6E
:10474000014330BC01220021FFF7A4BF4369194394
:1047500041617047436923EA0101416170472DE9D6
:10476000F041804680689DF818E04601079D2AD4F4
:10477000D8F8080004012AD4D8F80800C00050D5A1
:104780004FF4D076022006EB080422B3C90041F0B2
:10479000040146F808101BB1236843F002032360AC
:1047A000636823F00F03636062680EF00F03134326
:1047B00063600EF1FF33072B2AD8DFE803F02623CE
:1047C000201B1815120E4FF4C0760020DBE74FF4C3
:1047D000C8760120D7E74905DBE70027EB7963F3CB
:1047E0001F67AB7963F317476B7963F30F272B7957
:1047F00063F307074FF0000CEB7863F31F6CAB78A3
:1048000063F3174C6B7863F30F2C2B7863F3070C6F
:10481000C4F808C0E760236843F001032360BDE8E3
:10482000F0814FF0FF30FAE721B9C36843F020036D
:10483000C3607047036943F020030361704719B9EF
:10484000C06800F0030070470069FAE72DE9F347FC
:104850000546DDE90AA80E469946DDE90E43FFF755
:10486000EEFF4FF4E07107464FF4D870CDE9000138
:1048700002A901EB860151F8081C55F801C068181F
:104880001CF0040C15BF4FF0010C8AF800C08AF828
:1048900000C055F801C016BF55F801C04FEA5C5C76
:1048A0004FEADC0CC9F800C0695811F0020118BFCA
:1048B000012188F8001041684FEA112C0C9981F809
:1048C00000C0416801F00F0C0D9981F800C013B1D0
:1048D0004168090C19808168C368C1F30720217001
:1048E0006070C1F30740C1F30761E170C3F30721B2
:1048F00023716171C3F30741C3F30763A070A17112
:10490000E3711AB131462846FFF78EFF384602B0F0
:10491000BDE8F087064B1868064B1B88B3F5007F8F
:1049200082BF054B1B68184300F03500704700BF7D
:104930000C200240E0F7FF1F4C20024038B504462F
:104940000D4600F06DFD114B1B88B3F5007F18D9A3
:104950000F4B9C4215D90F4A136843F001031360B3
:10496000258000F05DFD094B1B88B3F5007F0AD957
:10497000074B9C4207D9074A136823F001031360D1
:1049800038BD054AE8E7044AF6E700BFE0F7FF1F35
:10499000FFFF0708502002401020024010B50446D7
:1049A00000F03EFD154B1B88B3F5007F1DD9144B5D
:1049B0009C421AD9134B1A6842F002021A60124A3A
:1049C00014601A6842F040021A6000F029FD0B4B97
:1049D0001B88B3F5007F0FD9094B9C420CD9094ABB
:1049E000136823F00203136010BD084B1A6842F0ED
:1049F00002021A60064AE3E7044AF1E7E0F7FF1F04
:104A0000FFFF0708502002405420024010200240BF
:104A1000142002402DE9F04300264FF00F0E43F61C
:104A2000F8789C46036847684CFA06F4E4071BD5FF
:104A3000072E94BF9946B946B4B28BBF4444A40034
:104A4000A400A4B288BFA4B20EFA04F529EA0509AD
:104A5000A51C02FA05F501FA04F42C4344EA090402
:104A6000082E2CBF274623460136102EDCD10360CA
:104A70004760BDE8F0830000024A136843F080738A
:104A80001360704700100240062822D8DFE800F0CB
:104A900004090E13181D1F000F4B1868C0F3406067
:104AA00070470D4B1868C0F3C06070470A4B186818
:104AB000C0F340707047084B1868C0F3404070471F
:104AC000054B1868C0F340007047044BF9E7044BEE
:104AD000F7E70020704700BF00100240201002409E
:104AE00024100240024608B51046FFF7CDFF00280B
:104AF000FAD008BD06280CD8DFE800F004060C1137
:104B0000161B1D00FFF7B8BF0C4A136843F0806303
:104B100013607047094A136843F08053F8E7074A67
:104B2000136843F48033F3E7044A136843F0010346
:104B3000EEE7034AF9E7034AF7E700BF0010024037
:104B40002010024024100240034A136823F003039C
:104B500018431060704700BF04100240034A1368F6
:104B600023F4701343EA8040106070470410024041
:104B7000034A136823F4803343EA0040106070470F
:104B800004100240034A136823F4003343EA404010
:104B90001060704704100240024B186800F4004097
:104BA000704700BF20100240024A136843F40043DC
:104BB000136070472010024006283DD8DFE800F05F
:104BC00037373726370415001C4B1A6842F00102AC
:104BD0001A601A689007FCD51A6822F440721A60AD
:104BE0001A6842F480721A607047154B1A6842F0D6
:104BF00001021A601A689107FCD5104B1A6822F45A
:104C000040721A601A6842F40072ECE70D4B1A68A1
:104C100042F480321A601A689203FCD5074B1A6876
:104C200022F440721A601A6842F44072DBE7034AC9
:104C3000136823F440731360704700BF20100240D4
:104C40002410024000100240034A136823F440433A
:104C500043EA80301060704704100240034A136832
:104C600023F4605343EAC0201060704704100240F0
:104C7000034A136823F4E06343EA0020106070479E
:104C800004100240034A136823F0F00343EA0010C3
:104C9000106070470410024008B50420FFF72AFF97
:104CA0000420FFF71FFF0020FFF74EFF0320FFF750
:104CB00021FF0320FFF716FF0120FFF745FF00202B
:104CC000FFF7E0FF0320FFF7BFFF0420FFF7D0FF4F
:104CD0000020FFF7C3FF022000F084FB0720FFF74E
:104CE0003DFF0120FFF744FF0020FFF74BFFFFF7D8
:104CF000C3FE0020FFF7F6FE0220FFF725FF044B5E
:104D0000044A05491360054A1160054A136008BD4D
:104D100000A24A042C08002000512502300800207F
:104D200034080020044B1A689206FCD51A6842F039
:104D300010021A60704700BF04280040044B1A6834
:104D400022F010021A601A689206FCD5704700BF64
:104D50000428004038B5044600254FF4677000F081
:104D600022FB40F29B3000F01EFB00F041F9204690
:104D7000FFF722FF0D4C0E4B1D602560FFF714FF5F
:104D8000FFF7D0FF0B4B0C4A1D605D601D615D613C
:104D90004FF6FF7313605360FFF7D0FF236823F0D3
:104DA0000803236023681B07FCD538BD0428004096
:104DB00000280040082800402028004008B5FFF7E0
:104DC000B1FF054B82B2C0F303401A6043F8040CF4
:104DD000BDE80840FFF7B2BF0C280040034B18683D
:104DE00004331B6843EA0040704700BF18280040A6
:104DF00008B5FFF797FF044B020C80B21A605860A9
:104E0000BDE80840FFF79ABF1828004008B54FF4E6
:104E1000677000F0C8FA40F29B3000F0C4FA00F06E
:104E2000E7F8064B1A6822F008021A601A681107A0
:104E3000FCD51A689206FCD508BD00BF04280040C6
:104E400038B505464FF467700C4600F0ACFA40F2F6
:104E50009B3000F0A8FAFFF79FFE18B1BDE838407C
:104E6000FFF7D4BF2846FFF775FF2046BDE838405E
:104E7000FFF7A4BF024A136843F0010313607047B1
:104E800008300240014B186018687047003002403B
:104E9000002310B5044A8B4201DB106810BD50F8A6
:104EA000234001331460F6E700300240142300224F
:104EB000013903FB01039A60DA601A615A618B00C1
:104EC0000F214268994011434160704701398900C0
:104ED00002FA01F14160704701390368890002FA62
:104EE00001F1194214BF0120002070471423013939
:104EF000594308300B5823F440630B500B581A43A6
:104F00000A50704714230139594308300B5823F4D1
:104F100040730B500B581A430A5070471423013941
:104F2000594308300B5843F080030B50704714234B
:104F30000139594308300B5843F020030B500B58EC
:104F400023F480430B507047142301395943083030
:104F50000B5843F010030B50704714230139594389
:104F600008300B5843F001030B50704714230139EC
:104F7000594308300B5823F001030B50704714239A
:104F8000013903FB01008368DB0758BF02617047EA
:104F90001423013903FB01008368DB0758BF42611A
:104FA00070471423013959430C30085880B27047B8
:104FB0001423013959430C300A507047016170477E
:104FC000090401617047806808407047C36801EABE
:104FD000030221EA030141EA024101617047000036
:104FE0004AF6AA22014B1A60704700BF0030004009
:104FF000024A136843F480731360704700700040E6
:10500000C3681943C160704703690B4214BF012094
:1050100000207047C94301617047036843F0800373
:1050200003607047036801F0600123F060030360D0
:105030000368194301607047036823F0100303609D
:105040007047036843F0010303607047036823F06F
:1050500001030360704781627047C162704706298F
:105060007AD8DFE801F004793379637992008369B3
:1050700023F00303836183698361836923F07003F1
:105080008361072A68D8DFE802F03304090D11159F
:10509000191D836943F0100383617047836943F0EE
:1050A0002003F9E7836943F03003F5E7836943F0B0
:1050B0004003F1E7836943F05003EDE7836943F070
:1050C0006003E9E7836943F07003E5E7836923F44C
:1050D0004073836183698361836923F4E04383615F
:1050E000072A39D8DFE802F004060A0E12161A1E43
:1050F0008369D1E7836943F48053CDE7836943F43F
:105100000053C9E7836943F44053C5E7836943F417
:105110008043C1E7836943F4A043BDE7836943F457
:10512000C043B9E7836943F4E043B5E7C36923F0BB
:105130000303C361C369C361C36923F07003C3611F
:10514000072A09D8DFE802F03304090D1115191DEB
:10515000C36943F01003C3617047C36943F0200380
:10516000F9E7C36943F03003F5E7C36943F040034F
:10517000F1E7C36943F05003EDE7C36943F060030F
:10518000E9E7C36943F07003E5E7C36923F44073BB
:10519000C361C369C361C36923F4E043C361072AE0
:1051A000DAD8DFE802F004060A0E12161A1EC369E6
:1051B000D1E7C36943F48053CDE7C36943F4005397
:1051C000C9E7C36943F44053C5E7C36943F4804367
:1051D000C1E7C36943F4A043BDE7C36943F4C043D7
:1051E000B9E7C36943F4E043B5E7062912D8DFE81D
:1051F00001F0041109110D111200836943F0080335
:1052000083617047836943F40063F9E7C36943F03E
:105210000803C3617047C36943F40063F9E70629D3
:1052200009D8DFE801F0041509190D1D1100036A02
:1052300023F0020303627047036A23F02003F9E7B7
:10524000036A23F40073F5E7036A23F40053F1E7DC
:10525000036A23F00803EDE7036A23F08003E9E71C
:10526000036A23F40063E5E7062909D8DFE801F0C3
:10527000041509190D1D1100036A43F001030362AF
:105280007047036A43F01003F9E7036A43F480733D
:10529000F5E7036A43F48053F1E7036A43F004033C
:1052A000EDE7036A43F04003E9E7036A43F48063F0
:1052B000E5E706290CD8DFE801F0040B060B080B24
:1052C0000A004263704782637047C263704702649A
:1052D00070474369194341617047406A70474162B2
:1052E00070470000064A074B90421B6804BF064BFC
:1052F0001B6803EB5103B3FBF1F18160704700BF02
:10530000003801403008002034080020C368082914
:105310000CBF23F4805343F48053C3607047036988
:1053200023F44053194301617047C36823F4C063F9
:105330001943C1607047C36823F00C031943C1606F
:105340007047436923F44073194341617047C36850
:1053500043F40053C360704738B504460D4600F06F
:1053600018F829462046BDE8384000F00AB84369DD
:1053700043F0400343617047436943F08003436156
:105380007047C1F30801416070474068C0F30800EE
:10539000704703681B06FCD5704703680B4214BFB7
:1053A000012000207047430900F01F02012003F193
:1053B000804303F504331968904008431860704730
:1053C00000F01F024309012003F1804303F5043379
:1053D00019689040014319601A6822EA00001860B9
:1053E00070470000034A136823F007031843106056
:1053F000704700BF00200240034B044A1A6002F1CC
:1054000088321A60704700BF0420024023016745BC
:10541000024A136843F08003136070471020024073
:1054200008B5FFF777FAC307FBD408BD38B50546C2
:105430000C4689B2FFF782FA210CA81CBDE838405F
:10544000FFF77CBAFEE77047002238B51849194CBF
:1054500019485318834217D30021184A934217D38F
:10546000174A184C1368184D43F400731360AC428C
:1054700011D3164C164DAC4211D3FCF7E1F9154C83
:10548000154DAC420FD338BD135953500432E0E7E9
:1054900019600433E2E754F8043B9847E7E754F80F
:1054A000043B9847E7E754F8043B9847E9E700BF17
:1054B00000000020AC66000838080020480C0020DE
:1054C00014ED00E0A4660008A4660008A4660008C5
:1054D000AC660008AC660008AC660008014B024AE6
:1054E0001A60FEE70CED00E00400FA050122430912
:1054F0009B0003F1604300F01F0003F5614302FAD3
:1055000000F0186070470000432893BF00F160402E
:10551000044B00F00F0000F564408CBFC1540170D3
:10552000704700BF14ED00E0020120E2000000EA35
:10553000021121E28020B0E18130B011030032116C
:1055400042CCF01143CCF0114700000A222CA0E11C
:10555000233C72E0032082C0011020C0000021C063
:10556000011020C0003063B2190053E31EFF2F81E9
:10557000020110E3020580E3FF04C0E300006012B3
:10558000020111E3021581E3FF14C1E3001061126F
:10559000030032E12E00000A012042E2510390E0B4
:1055A000203063E21113A0E1023100E20100005A51
:1055B000001071E20000E0E2020550E30B00003A47
:1055C000010450E30400003AA000B0E16110A0E142
:1055D000012082E2FE0052E33800002A020151E37A
:1055E000820BA0E00100C003030080E11EFF2FE159
:1055F0008110B0E10000A0E0012052E2020550233A
:10560000F5FFFF2A20C6B0E10006A0010C204202EF
:10561000FF0810E30004A001082042020F0610E377
:105620000002A00104204202030510E30001A001D2
:1056300002204202020550E38000A0310020D2E2A5
:10564000820B80A0002062B2030080A1300283B1EF
:105650001EFF2FE1000032E3021521E202052002C5
:105660000120820201304312CAFFFFEA8130A0E12B
:1056700042CCF0E143CCF0111300000A030032E108
:105680000200000A000032E30100A0011EFF2FE12A
:10569000010030E10000A0131EFF2F11FF0412E3F0
:1056A0000200001A8000B0E1020180231EFF2FE1FA
:1056B000022492E2020580321EFF2F31023100E205
:1056C0007F0483E3020580E31EFF2FE1422CF0E11B
:1056D0000100A011433CF0010010A0118024B0E1B2
:1056E0008134B00101003001010580131EFF2FE15C
:1056F0000030A0E3010000EA023110E20000604245
:1057000000C0B0E11EFF2F014B3483E30010A0E185
:105710000000A0E30F0000EA012090E11EFF2F012E
:105720000030A0E3050000EA012090E11EFF2F01F8
:10573000023111E20100005A000070E20010E1E2C3
:1057400001C0B0E100C0A0010010A0010000A00352
:105750005B3483E301324302023543E21720A0E3C6
:1057600001085CE32CC8A02110204222010C5CE35C
:105770002CC4A0210820422210005CE32CC2A021EE
:105780000420422204005CE302204222AC2042308A
:10579000AC2152E0823B43E0060000BA113283E0C4
:1057A00010C2A0E1202062E202015CE33002A3E02B
:1057B0000100C0031EFF2FE1202082E211C2A0E100
:1057C000202062E28C0090E13102A3E0AC0FC00126
:1057D0001EFF2FE1FFC0A0E3A02B1CE0A13B1C108B
:1057E0000C0032110C0033113E00000A032082E04D
:1057F00001C020E08004B0E18114B0111000000A63
:105800000233A0E3A00283E1A11283E1903181E0A1
:1058100002010CE2020551E38110A031A31F813186
:105820008330A031010080E17F20C2E2FD0052E31D
:105830000F00008A020153E3820BA0E00100C003C5
:105840001EFF2FE1000030E302C10CE28114A00131
:10585000A0048CE1A10480E17F2052E2FF3072C2FB
:10586000820B80C11EFF2FC1020580E30030A0E340
:10587000012052E2350000CA190072E3020100D291
:105880001EFF2FD1002062E28010B0E13112A0E1B2
:10589000202062E210C2A0E16100B0E10000A0E2BD
:1058A0008C3093E1AC0FC0011EFF2FE1000032E30A
:1058B00002C100E28000A0010205100301204202A3
:1058C000FBFFFF0A0C0080E1000033E302C101E2AC
:1058D0008110A0010205110301304302FBFFFF0A02
:1058E0000C1081E1C0FFFFEAA13B0CE00C0032E1AB
:1058F0000C0033110500000A02C1D0E302C1D1132C
:10590000E9FFFF1A010020E0020100E21EFF2FE183
:10591000000030E3020130130100A0010000311348
:10592000020131130D00000A0C0032E10100001ADF
:105930008024B0E10900001A0C0033E10200001AD3
:105940008134B0E10100A0110400001A010020E040
:10595000020100E27F0480E3020580E31EFF2FE1E5
:105960007F0480E3030580E31EFF2FE1FFC0A0E377
:10597000A02B1CE0A13B1C100C0032110C003311B9
:105980003A00000A032042E001C020E08114B0E1A7
:105990008004A0E11C00000A0132A0E3211283E18F
:1059A000203283E102010CE2010053E18330A03197
:1059B0007D20A2E202C5A0E3010053E101304320B3
:1059C0000C008021A10053E1A1304320AC008021D4
:1059D000210153E1213143202C018021A10153E118
:1059E000A1314320AC0180210332B0E12CC2B011BF
:1059F000F0FFFF1AFD0052E39DFFFF8A010053E113
:105A0000820BA0E00100C0031EFF2FE102C10CE2E7
:105A1000A0048CE17F2092E2FF3072C2820B80C131
:105A20001EFF2FC1020580E30030A0E3012052E2F7
:105A30008FFFFFEA000032E302C100E28000A00114
:105A40000205100301204202FBFFFF0A0C0080E167
:105A5000000033E302C101E28110A001020511033D
:105A600001304302FBFFFF0A0C1081E1C4FFFFEA93
:105A7000A13B0CE00C0032E10500001A8024B0E1EB
:105A8000B6FFFF1A0C0033E1AFFFFF1A0100A0E1DF
:105A9000B2FFFFEA0C0033E10300001A8134B0E1E9
:105AA00097FFFF0A0100A0E1ACFFFFEA02C1D0E3CB
:105AB00002C1D113DEFFFF1A0221D0E3A2FFFF1AB9
:105AC0000231D1E38EFFFF1AA4FFFFEA8020A0E19C
:105AD0007F0452E30800003A9E30A0E3222C53E0FA
:105AE0000700009A0034A0E1023183E3020110E3D1
:105AF0003302A0E1000060121EFF2FE10000A0E3CE
:105B00001EFF2FE1610072E30100001A8024B0E162
:105B10000200001A020110E20201E0031EFF2FE161
:105B20000000A0E31EFF2FE18020B0E10800002A62
:105B30007F0452E30600003A9E30A0E3222C53E09B
:105B40000500004A0034A0E1023183E33302A0E102
:105B50001EFF2FE10000A0E31EFF2FE1610072E3B2
:105B60000100001A8024B0E10100001A0000E0E307
:105B70001EFF2FE10000A0E31EFF2FE1000204063C
:105B8000496E766572746572204D6F64756C650040
:105B9000496E76657274657200303D4C6561665F72
:105BA00047656E312C20313D4753343530482C2029
:105BB000323D5573657243414E2C20333D5A6F6D13
:105BC000626965005468726F74746C6500706F74FC
:105BD0006D696E0064696700706F746D6178007044
:105BE0006F74326D696E00706F74326D6178007021
:105BF0006F746D6F646500303D53696E676C6552FC
:105C00006567656E2C20313D4475616C4368616E3B
:105C10006E656C2C20323D43414E006469726D6F9D
:105C2000646500303D427574746F6E2C20313D53B5
:105C300077697463682C20323D427574746F6E52BC
:105C4000657665727365642C20333D5377697463A0
:105C50006852657665727365642C20343D446566D0
:105C600061756C74466F7277617264007468726FEC
:105C70007472616D7000252F31306D73007468721D
:105C80006F7472616D7072706D0062726B6F75749B
:105C900000626D736C696D6869676800626D736C32
:105CA000696D6C6F77007564636D696E0056007581
:105CB00064636C696D006964636D617800410069BB
:105CC00064636D696E00746D7068736D617800C295
:105CD000B04300746D706D6D6178007468726F749C
:105CE0006D6178007468726F746D696E00437275CF
:105CF00069736520436F6E74726F6C0063727569AF
:105D00007365737465700063727569736572616D34
:105D1000700072706D2F3130306D73007265676581
:105D20006E6C6576656C00436F6E746163746F7240
:105D300020436F6E74726F6C0075646373770063D9
:105D400072756973656C6967687400303D4F66668B
:105D50002C20313D4F6E2C20323D6E6100657272F9
:105D60006C696768747300303D4F66662C20343D63
:105D70004550432C20383D656E67696E6500467559
:105D8000656C2047617567650067617567656F665B
:105D9000667365740067617567656761696E006445
:105DA00069672F2500676175676562616C616E6365
:105DB0006500736F637465737400436F6D6D756E0A
:105DC00069636174696F6E0063616E7370656564A9
:105DD00000303D3235306B2C20313D3530306B2C6E
:105DE00020323D3830306B2C20333D314D00636123
:105DF0006E706572696F6400303D3130306D732CA8
:105E000020313D31306D730076657273696F6E00BD
:105E1000343D312E30332E52006877766572003073
:105E20003D526576312C20313D526576322C203240
:105E30003D526576332C20333D5465736C61006FA1
:105E4000706D6F646500303D4F66662C20313D52A9
:105E5000756E2C20323D4D616E75616C52756E2CE5
:105E600020333D426F6F73742C20343D4275636B59
:105E70002C20353D53696E652C20363D41634865C5
:105E800061742C20373D4368617267655374617299
:105E9000742C20383D436F6E6E6563746F724C6F67
:105EA000636B2C20393D4368617267652C2031306B
:105EB0003D43686172676553746F70006C61737401
:105EC0006572720073746174757300303D4E6F6E4D
:105ED000652C20313D5564634C6F772C20323D5545
:105EE0006463486967682C20343D55646342656C7F
:105EF0006F7755646353772C20383D5564634C6944
:105F00006D2C2031363D456D637953746F702C20B4
:105F100033323D4D50726F742C2036343D506F74C7
:105F2000507265737365642C203132383D546D7046
:105F300048732C203235363D576169745374617251
:105F4000740075646300706F776572006B57006949
:105F5000646300746F7271756500706F7400706FA8
:105F6000743200706F746272616B65006272616B93
:105F700065707265737375726500706F746E6F6DA6
:105F800000646972002D313D526576657273652C2F
:105F900020303D4E65757472616C2C20313D466F2A
:105FA000727761726400746D70687300746D706DE7
:105FB00000746D7061757800746D706D6F6400753C
:105FC0006175780063616E696F00313D4372756978
:105FD00073652C20323D53746172742C20343D4221
:105FE00072616B652C20383D4677642C2031363D3C
:105FF0005265762C2033323D426D730063727569B1
:106000007365737065656400637275697365737435
:106010007400303D4E6F6E652C20313D4F6E2C204C
:10602000323D44697361626C652C20343D53657464
:106030004E2C20383D536574500064696E5F637266
:10604000756973650064696E5F737461727400646E
:10605000696E5F6272616B650064696E5F666F7224
:10606000776172640064696E5F72657665727365EC
:106070000064696E5F626D730068616E6462726B6A
:10608000006370756C6F616400556E6B6E6F776E38
:1060900020636F6D6D616E642073657175656E63ED
:1060A000650D0A002558255825580D0A00416C6CCD
:1060B000206D65737361676520646566696E6974D8
:1060C000696F6E7320636C65617265640D0A004DC3
:1060D000697373696E6720617267756D656E740DA3
:1060E0000A00556E6B6E6F776E20706172616D6520
:1060F0007465720D0A00256420656E74726965739B
:106100002072656D6F7665640D0A00496E76616C6C
:1061100069642043414E2049642025780D0A0049D6
:106120006E76616C6964204F6666736574202564C1
:106130000D0A00496E76616C6964206C656E677447
:10614000682025640D0A0043616E6E6F74206D61D6
:106150007020616E796D6F7265206974656D732052
:10616000746F2043414E2069642025640D0A004D60
:106170006178206D65737361676520636F756E74F8
:1061800020726561636865640D0A0043414E206DAD
:106190006170207375636365737366756C2C20255D
:1061A00064206D657373616765257320616374692D
:1061B00076650D0A0063616E2000727820007478A5
:1061C0002000257320256420256420256420256473
:1061D0000D0A00417661696C61626C6520706172C4
:1061E000616D657465727320616E642076616C7593
:1061F00065730D0A002573205B25735D0D0A00256C
:1062000073090925660D0A00556E6B6E6F776E2057
:10621000706172616D657465723A20272573270D70
:106220000A00747275650066616C7365007B0025F9
:10623000630D0A202020222573223A207B22756ECE
:106240006974223A222573222C2276616C756522AC
:106250003A25662C002263616E6964223A25642C1B
:106260002263616E6F6666736574223A25642C2220
:1062700063616E6C656E677468223A25642C2263D4
:10628000616E6761696E223A25642C2269737278A7
:10629000223A25732C00226973706172616D223A73
:1062A000747275652C226D696E696D756D223A2563
:1062B000662C226D6178696D756D223A25662C22F7
:1062C00064656661756C74223A25662C226361747C
:1062D00065676F7279223A222573227D00226973E5
:1062E000706172616D223A66616C73657D000D0AA2
:1062F0007D0D0A00506172616D6574657220617474
:1063000074726962757465730D0A004E616D65097A
:10631000096D696E202D206D6178205B6465666172
:10632000756C745D0D0A00257309092566202D2002
:106330002566205B25665D0D0A00506172616D6502
:10634000746572732073746F7265642C20435243BA
:106350003D25780D0A0043414E4D41502073746F26
:106360007265640D0A0044656661756C7473206C17
:106370006F616465640D0A0055736167653A207347
:10638000747265616D206E2076616C312C76616C63
:10639000322E2E2E0D0A0025732566004E6F2066C4
:1063A0006C616720676976656E0D0A0068696464D0
:1063B000656E00556E6B6E6F776E20666C61670D53
:1063C0000A00466C6167206368616E6765204F4B09
:1063D0000D0A00556E6B6E6F776E20706172616D85
:1063E000657465722025730D0A004E6F207061720E
:1063F000616D657465722076616C7565206769767C
:10640000656E0D0A00536574204F4B0D0A005661EE
:106410006C7565206F7574206F662072616E67659C
:106420000D0A00506172616D6574657273206C6F46
:10643000616465640D0A00506172616D6574657216
:1064400020435243206572726F720D0A00676574B3
:1064500000666C61670073747265616D00646566E7
:1064600061756C747300616C6C006C6973740061AD
:10647000747200736176650068656C70006A736F92
:106480006E0063616E0073657269616C00657272A3
:106490006F72730072657365740000009664000883
:1064A000312800084D640008F524000851640008F4
:1064B000AD27000856640008C12600085D64000886
:1064C000AD26000866640008C92400086A64000854
:1064D0008D2400086F6400082D26000873640008EE
:1064E000812600088460000891280008786400086C
:1064F000912200087D640008492500088264000894
:10650000B9220008866400089D2200088D640008F6
:1065100099220008946400089322000800000000FB
:106520000000000000000003020100000100000064
:10653000286E756C6C29005B25755D3A20257320EB
:106540002D2025730D0A004E6F204572726F7273F5
:106550000D0A0053544F50004445524154450057D2
:1065600041524E00303D4E4F4E452C20313D424D64
:1065700053434F4D4D2C20323D4F564552564F4CB4
:10658000544147452C20333D5052454348415247E2
:10659000452C20343D5448524F54544C45312C2006
:1065A000353D5448524F54544C45322C20363D43CF
:1065B000414E54494D454F55542C20373D544D5074
:1065C00048534D41582C20383D544D504D4D415865
:1065D0002C00424D53434F4D4D004F564552564FA0
:1065E0004C544147450050524543484152474500AD
:1065F0005448524F54544C4531005448524F54540F
:106600004C45320043414E54494D454F555400547A
:106610004D5048534D415800544D504D4D41580038
:106620002162000803000000D2650008000000009D
:10663000DA65000800000000E665000800000000C0
:10664000F065000802000000FA6500080200000082
:1066500004660008020000000F6600080100000048
:10666000186600080100000053650008586500081E
:106670005F650008000008000000500009000000ED
:1066800000000300000020000900000000000400DA
:106690000000200005000000000005000000400090
:0466A00003000000F3
:0866A4006D200008192F000809
:1066AC000000000000000000E0FF0100E0FF01001E
:1066BC00E0FF01000000000020000000800C000042
:1066CC0000C40900C0F9FFFF40060000E0FFFFFF17
:1066DC00403800000041000000710200008FFDFFF7
:1066EC00A00A000080250000800C000080F3FFFF52
:1066FC00001900008002000040000000402900004A
:10670C000000000000000000007D0000A000000060
:10671C004006000000000000000000000000000027
:10672C00000000000000000000000000000000005D
:10673C00000000000000000000000000000000004D
:10674C00000000000000000000000000000000003D
:10675C00000000000000000000000000000000002D
:10676C00000000000000000000000000000000001D
:10677C00000000000000000000000000000000000D
:10678C0000000000000000000000000000000000FD
:10679C0000000000000000000000000000000000ED
:1067AC00805B0008905B0008995B0008000000000B
:1067BC00800000000000000052000000C45B0008D4
:1067CC00CD5B0008D45B000800000000E0FF010076
:1067DC000000000011000000C45B0008D85B00083A
:1067EC00D45B000800000000E0FF0100E0FF0100A6
:1067FC0012000000C45B0008DF5B0008D45B0008DB
:10680C0000000000E0FF0100E0FF01003F0000007D
:10681C00C45B0008E75B0008D45B000800000000C4
:10682C00E0FF0100E0FF010040000000C45B000835
:10683C00EF5B0008F75B0008000000004000000060
:10684C000000000052000000C45B00081B5C000844
:10685C00235C000800000000800000002000000005
:10686C005F000000C45B00086C5C0008765C0008EC
:10687C0003000000800C0000800C000051000000A0
:10688C00C45B00087D5C0008865C0008000000000A
:10689C0000C4090000C4090055000000C45B0008D6
:1068AC008A5C0008A35D000880F3FFFFE0FFFFFF98
:1068BC00C0F9FFFF43000000C45B0008915C0008B6
:1068CC00A35D000800000000800C000040060000E2
:1068DC0037000000C45B00089C5C0008A35D000846
:1068EC0080F3FFFF00000000E0FFFFFF3800000016
:1068FC00C45B0008A65C0008AD5C0008000000004A
:10690C00007D0000403800002A000000C45B000835
:10691C00AF5C0008AD5C000800000000007D0000CA
:10692C00004100002B000000C45B0008B65C0008AE
:10693C00BD5C000800000000007102000071020044
:10694C0060000000C45B0008BF5C0008BD5C000870
:10695C00008FFDFF00000000008FFDFF62000000B3
:10696C00C45B0008C65C0008CF5C00084006000051
:10697C00C0120000A00A00007D000000C45B0008EB
:10698C00D35C0008CF5C0008C00800008025000024
:10699C00802500007F000000C45B0008DB5C000861
:1069AC00A35D000800000000800C0000800C0000BB
:1069BC0061000000C45B0008E45C0008A35D0008F3
:1069CC0080F3FFFF0000000080F3FFFF7700000062
:1069DC00ED5C0008FC5C0008865C000820000000F0
:1069EC00007D00000019000003000000ED5C0008B1
:1069FC00075D0008125D000820000000007D00000B
:106A0C008002000009000000ED5C00081C5D00081D
:106A1C00216200080000000060000000400000003F
:106A2C0065000000275D0008395D0008AD5C0008BA
:106A3C0000000000007D0000402900001400000050
:106A4C00275D00083F5D00084B5D0008000000005A
:106A5C00200000000000000000000000275D00087E
:106A6C005D5D0008675D000800000000E01F00008D
:106A7C00000000005F0000007E5D0008895D0008DA
:106A8C00D45B00080000000000000200007D000044
:106A9C00010000007E5D0008955D00089F5D000808
:106AAC000000000000000200A00000000200000036
:106ABC007E5D0008A55D0008A35D000800000000D5
:106ACC00800C000040060000080000007E5D0008FD
