:020000040800F2
:10100000005000207D6000087B60000879600008C7
:10101000796000087960000879600008000000002D
:101020000000000000000000000000007B600008DD
:101030007B600008000000007B6000087B60000807
:10104000796000087960000879600008796000081C
:10105000796000087960000879600008796000080C
:1010600079600008796000087960000879600008FC
:1010700079600008796000087960000879600008EC
:10108000796000087960000879600008AD4D0008BB
:101090008D4D00089D4D00087960000879600008BA
:1010A00079600008796000087960000879600008BC
:1010B00079600008111D0008796000087960000857
:1010C000796000087960000879600008796000089C
:1010D000796000087960000879600008796000088C
:1010E000796000087960000879600008796000087C
:1010F000796000087960000879600008796000086C
:10110000796000087960000879600008796000085B
:10111000796000087960000879600008796000084B
:10112000796000087960000879600008796000083B
:10113000796000087960000879600008D94D0008DE
:10114000B94D0008C94D00087960000879600008B1
:10115000F8B5222001F0D0F9C4B21C2001F0D4F976
:10116000012C194D194F03D12B780BB90A233B6081
:101170003B68174E002B0DDD013B80F001013B6009
:10118000C9B21C2001F0CAF91A2001F0B5F92C707F
:101190003060F8BD372001F0AFF9002801DD0121F2
:1011A000EFE700211C2001F0B9F9012CECD11A2045
:1011B00001F0A2F933689842E6D01A2001F09CF9B8
:1011C000013040003860DFE7C8090020C409002072
:1011D000C009002010B50446222001F08DF9012835
:1011E00004D12046BDE8104003F02CB810BD00002B
:1011F0006FF4A463C31870B505460C46072B55D889
:10120000DFE803F0040E18222C36404A04F002FCFA
:101210002146BDE87040024640F2215002F066BA15
:1012200004F0F8FB2146BDE87040024640F222502F
:1012300002F06EBA04F0EEFB2146BDE870400246B3
:1012400040F2235002F0AEBA04F0E4FB2146BDE8C0
:101250007040024640F2245002F0D8BA04F0DAFBA3
:101260002146BDE87040024640F2255002F0FCBA2B
:1012700004F0D0FB2146BDE87040024640F2265003
:1012800002F004BB04F0C6FB2146BDE870400246F4
:1012900040F2275002F00CBB04F0BCFB2146BDE835
:1012A000704002464FF4A56002F020BB114B1B7842
:1012B00033B904F0AFFB21460246284603F0C2FDD5
:1012C0000D4E3378012B14D104F0A4FB21460246C5
:1012D000284602F08DFB094B18703378012B08D19A
:1012E00004F098FB214602462846BDE8704002F013
:1012F0008DBB70BD9F0900209E090020A809002019
:1013000008B5084B1B78012B0AD12F2001F0EEF80D
:10131000054B40B2B3F90010BDE8084002F0FCBC38
:1013200008BD00BF9F090020A0090020818808B5E2
:10133000006804F079FC003818BF012008BD8188DE
:10134000006804F06CBC8188006804F06ABC00008E
:10135000F8B52F4B2520196801F0E0F82D4B272018
:10136000196801F0DBF82C4B2620196801F0D6F83B
:101370000E2001F0BBF80F2001F0B8F807461B2043
:1013800001F0B4F80446222001F0B6F806462348DE
:1013900002F031F840F221114001B0FBF1F13520AB
:1013A00001F0C4F8252001F0A1F88742054610DAC3
:1013B0001B4B1B88312B05D81A48FFF7C4FF1A486E
:1013C000FFF7C1FF2220002101F0A8F8022002F05F
:1013D00039FF022E1AD104EBD474B5EB640F15DA81
:1013E00004F018FB114B1B6803F5FA7398420DD9F2
:1013F0000D48FFF79BFF48B10B48FFF7A4FF032000
:1014000002F020FF0321222001F088F82846F8BDD1
:101410003C0D0020380D0020340D0020380C002039
:10142000FE0D0020F80B0020180C0020AC09002055
:101430005D4B73B509201C8801F05EF884424FF0C3
:1014400008005A4C29DA01F051F820603B2001F0E5
:101450005BF80546062001F04FF80228064669D1E0
:1014600004F0D8FA524B0446186802F0AFFF241A71
:10147000312C17D82A2001F03FF800902B2001F0E2
:101480003BF801900021684602F02EF8002862D156
:101490004848FFF754FF042008E001F071F80369A1
:1014A0002360D3E74348FFF74AFF0620FFF792FE89
:1014B0000020019002F0ACF80190252001F016F810
:1014C000014601A802F0F2F8322001F00FF80446BC
:1014D000122001F00BF801AA0146204602F0C8F8DC
:1014E00028B13448FFF72BFF072002F0ABFE332072
:1014F00000F0FCFF0446132000F0F8FF01AA0146AB
:10150000204602F0B5F828B12A48FFF718FF082056
:1015100002F098FE2E20019901F008F80B2000F04F
:10152000E5FF019B984224483BDDFFF708FF019847
:1015300002B070BD214801F05EFF0090204801F02C
:101540005AFF009901902A2000F0E8FF2B20019912
:1015500000F0E4FF96E7012101A801F0C5FF012E8C
:10156000044608D16846019901F0E8FF70B16CB1FA
:10157000144B5B6801932F2000F0BEFF002898D029
:10158000DDE900012A4602F005F892E70948FFF775
:10159000D6FE0420FFF71EFE00212E2000F0BEFF25
:1015A00086E7FFF7D0FEC2E7FE0D0020C80C002042
:1015B000A4090020D00B0020C80B0020BC0C002088
:1015C000C00C0020E00C0020AF4B2DE9F0419988C1
:1015D000186804F02CFB04F033FBAC4BAC4D1868DE
:1015E00000F05AFF0A21400190FBF1F1452000F084
:1015F0009DFF02F055FE0146232000F08FFF2F20B3
:1016000000F07AFF46B2072000F076FF2B7810F04A
:10161000020F14BF4FF0FF340124012B00F0AC8007
:10162000072000F069FF042875D13C2000F06CFF12
:10163000002869D13D2000F067FF002814BF4FF05B
:10164000FF3401242B78012B14D102F0E5FA002895
:1016500008BF002402F0E0FA022808BF002402F0CC
:10166000DBFA012808BF4FF0FF3402F0D5FA032857
:1016700008BF01242146874C2F2000F04FFFFFF7C1
:1016800067FE2378844F012B78D04FF0804004F020
:1016900011FB824804F00EFB00233B702378002BE3
:1016A00000F0E3802E78012E10D17D4C02F0BAFAC2
:1016B000237833B902F0E6F902F0E4F902F0E2F936
:1016C0002670784B4320197800F028FF2B78012BE7
:1016D00006D00021724A062B117001D102F0C0FC25
:1016E00004F098F9642807D91F2000F005FF18B905
:1016F0006D4B186802F0A2FEBDE8F0416B4B342040
:10170000B3F9001000F00ABF3D2000F0FDFE0028F4
:1017100090D0002496E7072000F0EEFE10F0010FB5
:101720004FF03C0014D100F0EFFE58B93C2000F01F
:10173000EBFE002886D13D2000F0E6FEE0B16442D9
:1017400064B27FE73D2000F0DFFE0028E1D1EDE745
:1017500000F0DAFE06463D2000F0D6FE8642D8D0E4
:101760003C2000F0D1FE00287FF46CAF3D2000F05B
:10177000CBFE0028CDD0E2E7344663E74C4E96F826
:101780000080B8F1010F0CD14A48FFF7DCFD4A4850
:10179000FFF7D9FD4948FFF7D6FD4146442000F048
:1017A000BDFE367866B94348FFF7CDFD4248FFF7E6
:1017B000C6FD4248FFF7C3FD3146442000F0AEFEAF
:1017C0003B782BB900F064FD00F098FD01233B70DD
:1017D0003B4B00211A883148A2F10A03394A5A4387
:1017E000462392FBF3F202F2537292B204F07BFBB7
:1017F0003548FFF79BFD0146402000F08FFE33483F
:10180000FFF794FD0146412000F088FE3048FFF7C5
:101810008DFD0146422000F081FE2E4B3220B3F9AF
:10182000001000F07BFE2C4801F0E5FD06462B4839
:1018300001F0E1FD10218046304602F07BFB284E8E
:1018400010213080404602F075FBB6F90230B6F93F
:101850000010B0809942B8BF1946332000F05EFEF8
:101860002378012B3FF41EAF0FE703F0CDFA1D4B99
:101870003220B3F9001000F051FE1B4B3320B3F9B6
:10188000001000F04BFE0DE7E00B0020B409002033
:101890009E0900209F0900209D090020002C014086
:1018A000A9090020A8090020A4090020300D00206B
:1018B0009C090020980B0020B80B0020C00B0020D2
:1018C000B009002056FAFFFF000C0020080C002091
:1018D000100C0020C40D0020B40C0020B80C002017
:1018E000BA090020020E0020F80D00202DE9F8436F
:1018F000282000F001FE07B2222000F0FDFD044682
:10190000FFF726FD804604F085F802F095FC2220C2
:1019100000F0F2FD012840F04D81FFF789FDAD4A4E
:1019200087EAE7731588A3EBE7739BB29D428CBFF0
:1019300005460025A84E32788AB903F0DFFAA74B96
:101940002F20B3F900704FF43E63C5EBC52595FB1E
:10195000F3F500F0CBFD29B240B203F043FA33783F
:10196000012B0BD140F6AC5045434FF43E6095FB44
:10197000F0F59B4B1D809B4BB3F900703946282036
:1019800000F0CCFD332000F0B1FD362000F0B4FDB6
:10199000DFF88C92054699F80030002818BF43F014
:1019A000010389F8003004F035F88F4B06461868BB
:1019B00002F00CFD361A312E0AD999F800303BB1ED
:1019C0000021362000F0AAFD062002F03BFC002595
:1019D0008648FFF7ABFC05F001010143C9B239208D
:1019E00000F09CFD8248FFF7A1FCC5F340010143D4
:1019F000C9B23A2000F092FD7E48FFF797FCC5F38C
:101A000080010143C9B23B2000F088FD7A48FFF70E
:101A10008DFCC5F3C0010143C9B23C2000F07EFD3E
:101A20007648FFF783FCC5F300110143C9B23D209E
:101A300000F074FDAB0600F1C1807148FFF776FC41
:101A40000146704D3E2000F069FD2B78052B06D134
:101A5000322000F04BFD81B2B8B202F0ADFA2B7823
:101A600093B9322000F042FD0646B8B201F05CFFA7
:101A7000A62341200F3E734393FBF0F3583398B2F3
:101A800001F070FF01F0A0FF2B78012B0DD1282071
:101A900000F02CFD80B202F007F83B2000F026FD9C
:101AA000003818BF012002F021F82E2000F024FD9C
:101AB00000284FF01B00D4BF0026402600F016FD82
:101AC0004045CCBF042700270F2000F00FFD37430F
:101AD0004045D4BF082600263E4394B93A2000F082
:101AE00013FD10B9484B1B785BB14848FFF727FC42
:101AF0000221222000F012FD03F08CFF0224444B4F
:101B000018602B78012B09D1032C07D13E4B1F788D
:101B100027B93946222000F001FD3C462B78012BE5
:101B20000BD0032C09D13A2000F0EEFC074620B977
:101B30000146222000F0F2FC3C46002E42D13A2021
:101B400000F0E2FC00283BD12F4B1F78002C08BF8F
:101B50004FF480763146242000F0E0FC2B78012BF6
:101B600002D1294B1B787BB38FB12A48FFF7E7FBE3
:101B70002948FFF7E8FB2548FFF7E5FB2748FFF773
:101B8000DEFB0121222000F0C9FC02F07DFBFCB944
:101B90002048FFF7D8FB2048FFF7D5FB1B48FFF78D
:101BA000D2FB1E48FFF7CFFB3946BDE8F8432220A1
:101BB00000F0B4BCFFF73CFC0025BBE6012140E788
:101BC0000127C3E70027C5E7002FE1D01C46CCE77B
:101BD000BDE8F883AA0900209F090020FE0D00201F
:101BE000A0090020CA0D0020A4090020280C002014
:101BF000200C0020F00B0020A80B0020B00B0020D0
:101C0000A00B00209E090020A8090020180C00202D
:101C1000AC090020F80B0020D00B0020D80B0020CE
:101C2000B80900201E2838B507D12C4B1C6800F0DD
:101C300063FCC1B2204602F0ABFB022000F05CFC6A
:101C4000274D284C2860032000F056FC206004201B
:101C500000F052FC6860052000F04EFC606014202B
:101C600000F044FC204B1860152000F03FFC1F4B97
:101C70001860112000F03AFC1D4B1860102000F095
:101C800035FC1C4B18600E2000F030FC1E23434333
:101C9000194A5B110020136000F02EFC174BC1B2F3
:101CA0001870302000F03AFC012000F025FC144BA5
:101CB000C1B21870312000F031FC162000F01CFC7D
:101CC000104B1870172000F017FC0F4B18800A20DB
:101CD00000F012FC0D4B188038BD00BFA409002095
:101CE000E80C0020E00C0020F80C0020FC0C002088
:101CF000DC0C0020D80C0020F40C00209F090020F0
:101D00009E0900209C090020B0090020AA0900209B
:101D1000014B186800F090BBB40900202DE9F04198
:101D20000026ADF6282D00F087F99C4F00F0A4FAAC
:101D30009B4B314621209B4C1E7000F0EFFB394637
:101D400005229948994D01F097FB3946062298489B
:101D500001F092FB21460222964801F08DFB2946B4
:101D60000122954801F088FB32462146934801F054
:101D700083FB294602234FF40072914801F008F9D1
:101D80002946022310228F4801F002F9022321463E
:101D90001A468D4801F0FCF82946022320228B4880
:101DA00001F0F6F8294602231022894801F0F0F8E4
:101DB000334621460822874801F0EAF821460423E9
:101DC0008022854801F0E4F8214604234FF40052B4
:101DD000824801F0DDF8294604234FF480628048F0
:101DE00001F0D6F8DFF84C822146042320227D48FA
:101DF00001F0CEF8214604234FF480727A4801F0B6
:101E0000C7F82146404604234FF4007201F0C0F8A1
:101E1000214604234022754801F0BAF829460423DC
:101E20004FF40042724801F0B3F8294604234FF4FE
:101E30008042704801F0ACF8214602234FF48052F2
:101E40006D4801F0A5F8022304226C496C4801F0AA
:101E50009FF82946022308226A4801F099F80423D2
:101E600010223946684801F093F801F04BFA10212E
:101E70004FF0007003F012FC00F02EF900F0A4F90E
:101E800000F0D4F900F0E2FB02F0AAF94620FFF7D7
:101E9000C9FE4046FFF757FA1E2000F02DFB0AACA2
:101EA000C2B25A49204602F0DDFE1E2000F024FB9B
:101EB000574DC2B257490DF5A56002F0D3FE294631
:101EC000204602F022FA29460DF5A56002F01DFA1F
:101ED0004FF4ED71204602F0F9FB40F25A512046D2
:101EE00002F0F4FB4FF49871204602F0EFFB4FF440
:101EF000C971204602F0EAFB40F22151204602F06F
:101F0000E5FB40F22251204602F0E0FB40F2235173
:101F1000204602F0DBFB40F22451204602F0D6FBC3
:101F200040F22551204602F0D1FB40F226512046D6
:101F300002F0CCFB40F22751204602F0C7FB4FF4E1
:101F4000A561204602F0C2FB334B684633491C6052
:101F500000F018FA324B684601223249C3F800D02B
:101F600000F034FA68460A222F4900F02FFA68463A
:101F700064222E4900F02AFA4FF4FA7268462C497E
:101F800000F024FA0421202000F0C8FA00F060FBE1
:101F900030460DF6282DBDE8F08100BF0008014055
:101FA000C909002000100140BC0C0020000C0140B9
:101FB000C00C0020380C0020B40C0020B80C00200D
:101FC000280C0020200C0020F00B0020A80B002083
:101FD000B00B0020A00B0020F80B0020E00B00202D
:101FE000D00B0020C80B0020180C0020B80B0020DC
:101FF000C00B0020980B0020000C002000140140B2
:10200000080C0020100C0020E80B002000640040A9
:10201000F111000800680040A409002000040040FD
:10202000B409002001130008ED180008C9150008C4
:1020300051110008D80B002008B503F049FC02201C
:1020400003F01EFC224B234A40F202301A6003F0D8
:10205000C4FF40F2033003F0C0FF4FF4417003F0BF
:10206000BCFF40F2053003F0B8FF40F2923003F0BD
:10207000B4FF40F2913003F0B0FF40F20B3003F0B8
:10208000ACFF4FF4607003F0A8FF40F2813003F022
:10209000A4FF40F2823003F0A0FF4FF4207003F061
:1020A0009CFF40F2093003F098FF40F2862003F0D5
:1020B00094FF4FF4407003F090FF40F2993003F02A
:1020C0008CFFBDE8084040F29A3003F086BF00BFA5
:1020D0000CED00E00003FA0508B502224FF480631E
:1020E0000321334803F0A8FA4FF4E131314803F0FB
:1020F00013FF08212F4803F023FF4FF400512D4810
:1021000003F027FF0C212B4803F02FFF0021294863
:1021100003F025FF0021274803F02DFF254803F099
:1021200040FF254B1B78EBB1224803F03FFF022113
:10213000224803F0D7FC0221204803F036FD02219B
:102140001F4A1E4803F04CFD002202211B4803F0E9
:1021500001FD02211948002203F0F0FC022117487A
:1021600003F004FD0321174803F0BCFC0321144ACB
:10217000144803F035FD00220321124803F0EAFC65
:10218000002203210F4803F0D9FC03210D4803F07E
:10219000EDFC4FF4405203210A4803F0C3FC094808
:1021A000032103F00BFDBDE80840024803F0E9BE3F
:1021B0000010014000480040C9090020000402400E
:1021C000044800400000024010B5164C042320468D
:1021D0000222032103F030FA0823012220460021C5
:1021E000A4F5444403F028FA20460F4903F094FE76
:1021F0002046082103F0A4FE2046002103F0A9FE9A
:1022000020460C2103F0B1FE2046002103F0A7FE7A
:102210002046002103F0AFFE2046BDE8104003F049
:10222000B0BE00BF0008014020A1070008B5F021A2
:10223000112003F083FF112003F072FFF021102022
:1022400003F07CFF102003F06BFF1D2003F068FFFC
:1022500000211D2003F072FF142003F061FFE02134
:10226000142003F06BFF132003F05AFFBDE8084071
:10227000E021132003F062BF08B503204FF41C7166
:1022800003F0FAFBBDE80840002003F0CDBB0000DE
:1022900010B5184C4FF4807302220321164803F046
:1022A000CBF9204603F006FD0023202219462046E4
:1022B00003F0E3FC2046102103F001FD0722204635
:1022C000002103F000FD0021204603F0C2FD20465E
:1022D00003F019FE20464FF47A72002103F003FE4A
:1022E000204640F6340103F0ECFC2046BDE81040E7
:1022F00003F0DBBC002C01400008014008B50223BC
:1023000003211A461D4803F097F94FF0804003F06F
:10231000D1FC00234FF080401A46194603F0ADFC73
:1023200000214FF0804003F0CAFC4FF0804003F0E2
:10233000ADFC4FF0804003F0B3FC8F214FF08040A4
:1023400003F0BFFC02214FF0804003F0A7FD0622FE
:1023500002214FF0804003F0B6FC02214FF0804094
:1023600003F077FD4FF080404822022103F0BBFDCF
:10237000BDE808404FF0804003F097BC00080140E2
:102380007047000038B50D4604460162084603F068
:102390007DFC284603F07FFC284640F2CF2103F065
:1023A0008EFC28464FF6FF7103F08BFC064B20464F
:1023B000C4E90033C4E902334FF0FF33C4E9043306
:1023C0000023636238BD00BF81230008F8B5436A6B
:1023D0000446032B0E4615462ADC006A03F06AFC0D
:1023E000144F636A0122F95C206A03F06CFC636A93
:1023F0000022F95C206A03F076FD0221636A05EB96
:10240000850505EB850503F10802AD0044F823605E
:10241000994024F81250206A03F022FC0021206A1F
:1024200003F078FD206A03F040FC636A01336362C5
:10243000F8BD00BF5C6100082DE9F04704460025A7
:10244000022600F1100700F1180806FA05FA5146B5
:10245000206A03F009FCD0B1206A03F059FD51460F
:102460008146206A03F006FC236A37F815203433CE
:1024700053F825100A4443F8252054F8253098478E
:10248000206A03F045FDA0EB090028F8150001358E
:10249000042DDAD1BDE8F08730B500F1100100F16C
:1024A00018030A2500200C46228924886A43B2FBBF
:1024B000F4F202318B421044F5D130BD1C2210B52C
:1024C000084C02FB0042D4688C4209DC12698A4243
:1024D00006DB054A42F82010FFF7A4FB002010BDE0
:1024E000FF20FCE71801002000000020014B53F8FA
:1024F0002000704700000020024B53F820004011DC
:10250000704700BF00000020034B53F8200040112B
:10251000431E58425841704700000020024B4901B9
:1025200043F82010704700BF00000020014B43F823
:10253000201070470000002070B506460024074DAB
:102540003146686800F082FC08B9E0B270BD013421
:10255000462C05F11C05F3D14720F7E718010020B0
:102560000023064A9169814201D1D8B270470133F4
:10257000462B02F11C02F5D14720704718010020BC
:102580001C22024B02FB0030704700BF18010020E4
:102590001C22044B02FB0033D3E90303C01A18BF0B
:1025A00001207047180100200023064A064990695F
:1025B00010B1506941F823000133462B02F11C028F
:1025C000F5D170471801002000000020014B19547C
:1025D000704700BFCA090020024B1A5C114319540E
:1025E000704700BFCA090020024A135C23EA0103B6
:1025F00013547047CA090020014B185C704700BF94
:10260000CA090020024B1A68024BC3F8DC2370474A
:102610008C0900201801002010B50A4C0321204627
:1026200003F0D5FA20460321074A03F0E2FA2046D8
:102630000321802203F0EDFA2046BDE8104003217B
:1026400003F0BCBA00000240180A0020FFF7E4BF04
:102650002DE9F04F0024A046404F414DA1B0032189
:10266000384603F0CFFA8146C0F1800608B9FFF77B
:10267000D3FFA246DFF8F0B0564539DCB442B8BF0C
:102680003446002EEBDDC9F17F0915F809300A2B1D
:1026900001D00D2B53D1002320212846AB5500F04B
:1026A000F3FB90F800800446B8F1000F28D10A210E
:1026B000284600F0E9FB04468DF80080237823B912
:1026C0000D21284600F0E0FB04460023DFF89C8043
:1026D0002370D8F80010C1B9FFF79EFF012E04D077
:1026E000204C214E14F8011B29BB0024A046B6E75C
:1026F00015F80A10584603F049FC0AF1010ABBE735
:10270000411C684600F0B0FBD8E7284600F09EFB6D
:10271000044610B108F10808DBE7D8F80030002BB8
:10272000DAD0FFF779FF104803F04DFC6846D8F87F
:102730000430984793E7304603F028FCD2E72B7823
:10274000212B8CD1B8F1000F89D0FFF765FF6846C7
:10275000D8F804309847002481E700BF0000024009
:10276000180A002078660008004800408C6A0008BB
:102770002DE9F041254B1B7833B981B2244803F091
:1027800005FC0020BDE8F081224C23492268234D3E
:102790000B68D201C7B22A440A280E46D75401D08A
:1027A0007F2B2FD1DFF87C801D4F0222404611463F
:1027B00003F0AEF910B93B68002BF6D0022119489E
:1027C00003F005FA326802210132164892B203F092
:1027D00020FA22680221134805EBC21203F009FA1D
:1027E00002221048114603F08DF902210D4803F032
:1027F000E5F92368B3FA83F35B09236000233B60A8
:102800003360BEE701330B60BBE700BFC90900209E
:1028100000480040100A0020140A0020980A0020F6
:10282000C008002000000240704708B503F070FCAB
:1028300001F052BD044B0548196853F8042C083BBD
:102840001B6800F051BD00BFF0F7FF1F9366000842
:102850002DE9F04786B000F065FB0678702E08D1B0
:10286000002001F073FE4D4906B0BDE8F04701F0CD
:1028700033BE632E0AD1002001F068FE01F04DFF47
:10288000474806B0BDE8F04700F02EBD202100F01B
:10289000FBFA03780BB94348F3E700F043FB202130
:1028A000074600F0F1FA037805460BB9642EF2D121
:1028B0000024384605F8014BFFF73EFE0746284640
:1028C00000F030FB472F824601D13748D9E7642E0C
:1028D0000CD1204601F03AFE394602F0F8F80146E4
:1028E000324806B0BDE8F04700F0FEBCA1460DF14D
:1028F00008082021504600F0C7FA037805460BB9B6
:10290000032CC8D1504605F8019B00F0F2FA48F8B4
:102910002400284600F006FB0134042C8246E8D14E
:10292000DDE90248742E4FF00000049DBDF91490BB
:1029300011D101F00BFE434622463946CDE900593C
:1029400001F053FF431D0146042B1CD8DFE803F0C0
:10295000161913100D0001F0F9FD434622463946C1
:10296000CDE9005901F04FFFECE721461048B8E7E8
:1029700041461048B5E729460F48B2E721460F48BF
:10298000AFE70F487DE70F4B0F4A0128D8BF1A4623
:102990000E4806B0BDE8F04700F0A6BCD1290008FB
:1029A0009C660008BE660008D1660008E56600085F
:1029B000FA6600080E6700082267000836670008FC
:1029C0005E670008106800087F6500087A670008E5
:1029D0002DE9F047DDF820809DF824900C4615463F
:1029E0001E46FFF7CDFD47680A4800F07DFCB9F1AF
:1029F000000F0CD0084800F077FC2B4622463946E1
:102A0000CDE90868BDE8F047044800F06DBC044813
:102A1000F1E700BFA4670008A9670008B1670008D4
:102A2000AD670008F8B50C4800F05EFC00240B4FC1
:102A3000E6B23046FFF7A4FD05463046FFF7DCFD61
:102A4000C30704D4D5E90112384600F04DFC013427
:102A5000462CEDD1F8BD00BFC2670008E46700084E
:102A6000F8B50024084EE5B22846FFF789FD47680F
:102A70002846FFF73BFD013402463946304600F058
:102A800033FC462CEFD1F8BDEE6700082DE9F0418C
:102A900000F048FA0446104FDFF840802C21204611
:102AA00000F0F2F900230678054603702046FFF790
:102AB00043FD47280CD0FFF719FD014640462C4640
:102AC00000F012FC2C2E04F8016BE7D0BDE8F08179
:102AD00021463846F3E700BFF7670008F2670008B1
:102AE0002DE9F04F2F488DB000F0FEFB0026202787
:102AF000DFF8C480DFF8C490DFF8C4A0F5B2284640
:102B0000FFF73EFD04462846FFF776FD10F0010B67
:102B10003AD16268A368284605920493FFF7E6FC61
:102B2000DDE9043239460090404600F0DDFB5846AE
:102B300001F00CFD0DF11F0302930BAB01930AABE7
:102B40000093294609AB08AA01F0E2FB78B19DF891
:102B50001F10154A154B1648002908BF134601934C
:102B60000B9B08990093DDE9092300F0BDFB284683
:102B7000FFF70EFD88B1236850460093E168D4E961
:102B8000042300F0B1FB2C270136462EB6D10948AC
:102B900000F0AAFB0DB0BDE8F08F484600F0A4FBA2
:102BA000F1E700BF1C6800081668000811680008FB
:102BB00044680008DD6800081E680008CC6800084A
:102BC00085680008F7B5114800F08EFB104800F04A
:102BD0008BFB00250F4FEEB23046FFF7D1FC0446C9
:102BE0003046FFF7D5FC60B13046FFF705FDC3075F
:102BF00007D46369384600936168D4E9032300F081
:102C000073FB0135462DE6D103B0F0BDE368000843
:102C1000FA6800081669000808B501F071FA014663
:102C2000064800F061FB002001F090FC01F0B4FFC9
:102C3000BDE80840024800F057BB00BF2969000802
:102C40004569000808B5FFF7AFFCBDE8084001483A
:102C500000F04ABB556900082DE9F04F85B000F03F
:102C600061F9044600F045F920210546204600F0B0
:102C70000BF903782BB92C4805B0BDE8F04F00F0F4
:102C800033BB0026B046DFF8B090441C2C21204610
:102C900000F0FAF8074690F800A080F8008020467F
:102CA000FFF74AFC3C46472804F801AB1DD004ABB3
:102CB000334403F80C0C01363B782C2B01D1092E40
:102CC000E4DD1A4803F07BF9DFF86080DFF86C90F0
:102CD0002021404603F07BF9044618B9002D08DC9A
:102CE0006A1C06D005B0BDE8F08F484600F0FCFA3B
:102CF000E2E70F4FDFF848A00DF1040BA6420BD01E
:102D00001BF80400FFF7F2FB39460246504600F07C
:102D1000EBFA4F460134F1E7064800F0E5FA6B1C88
:102D2000D6D0013DD4E700BF6769000800480040E5
:102D3000106800080E680008D16600081D700008C1
:102D400086690008F8B500F0EDF82021074600F08C
:102D50009BF80378044623B91648BDE8F84000F014
:102D6000C3BA002606703846FFF7E6FB472805463B
:102D70001AD06378212B0AD07E2B08D02F2B06D0B7
:102D8000611C0D4800F062F820B10C48E5E701260F
:102D9000A11CF6E7012128461EB1FFF725FC0848D3
:102DA000DBE7FFF719FCFAE73946BDE8F8400548CC
:102DB00000F09ABA8B6900089B690008A2690008B4
:102DC000B1690008C269000838B500F0ABF82021ED
:102DD000044600F059F8037823B90F48BDE838409D
:102DE00000F082BA002300F8013B00F022F905460A
:102DF0002046FFF7A1FB472807D02946FFF75EFBD7
:102E000008B90648EAE70648E8E72146BDE8384041
:102E1000044800F069BA00BFD9690008F4690008E5
:102E2000FD690008C269000808B501F0D9F930B998
:102E3000FEF7F8FE0348BDE8084000F055BA024826
:102E4000F9E700BF126A0008266A0008431E01392C
:102E500013F8010F11F8012F10B10AB19042F7D009
:102E6000801A18BF01207047013911F8013F0BB9D2
:102E70000370704700F8013BF7E7034600201A5C37
:102E800002B970470130FAE70346184613F8012BE0
:102E90000AB18A42F9D1704700290346F0B520DA19
:102EA0002D2003F8010B012049421D46C71A91FB52
:102EB000F2FC02FB1C11303129702C46BCF10001E0
:102EC00005F101051E4605EB0700F0DC00232B7021
:102ED000B4420BD93378227806F8012B04F8013973
:102EE000F6E704D13022417002700120F0BD0020CD
:102EF000DBE730B503782D2B11D14FF0FF340130D3
:102F000000210A25431E01E005FB012113F8012FD2
:102F1000303AD0B20928F7D904FB01F030BD0124C2
:102F2000EEE7000010B5134C02780146A2F10A0347
:102F3000DBB2162B00F1010017D9A2B10846FFF74A
:102F40009CFF0C4C013808448142024609D2137898
:102F500001380A3BDBB2162B03D824FA03F3DB0754
:102F6000F2D400235370084610BD24FA03F3DA07A5
:102F7000DAD4E3E709004000002310B5934200D102
:102F800010BD51F8234040F823400133F6E700001C
:102F9000013BDBB2032B70B50C4615460160828005
:102FA00011D80B4A0B48D15C0B4AC65CD25C2B464D
:102FB000204602F041FB012E09D129462046BDE8FA
:102FC000704002F02CBE002602223146EFE770BDB1
:102FD000146B00081C6B0008186B00080029B4BFB4
:102FE0004FF0FF32012270B5642401FB02F3591146
:102FF00003F01F03634301324FEA6314054604BF25
:103000002D2305F8013B06460A222846FFF744FF18
:103010002E23092C2B54D8BF302305EB0002CEBF42
:10302000501C5370901C21460A22FFF735FF304692
:1030300070BDF0B5027803462D2A15D14FF0FF3050
:10304000013300250A2702E00B4607FB0545194618
:1030500011F8012BA2F13004E6B2092EF4D98AB995
:1030600002EB45125043F0BD0120EAE74901B1FBF4
:10307000F4F17C430A4413F8011F3039CEB2092E13
:10308000F4D9EDE70A2400222746F4E70346084670
:103090002BB11A6811701A6801321A607047FFF775
:1030A00067BB2DE9F843141E06460D4616DC4FF0AB
:1030B0002008DB071FD500235F1B21E00132A95C3C
:1030C0000029FBD1A242ACBF0C46A41A13F0020F98
:1030D0000CBF4FF020084FF03008EAE70022EEE77F
:1030E00041463046FFF7D2FF013F002FF8DC24EACB
:1030F000E473E41AE0E72746F7E73046FFF7C6FF38
:1031000007EB050915F8011B0029F6D12546002D0E
:1031100007DC002CACBF09EB040009F10000BDE89E
:10312000F88341463046FFF7B1FF013DEFE72DE957
:10313000FF478046DDE90C7A15461C4651B930231D
:103140003A46ADF8043001A95346FFF7AAFF04B090
:10315000BDE8F08723B10A2A29D1002927DA49429C
:1031600000238DF80F300E9B0DF10F023A3BB1FB9F
:10317000F5F005FB1016092E88BFF61830368D4283
:1031800002F1FF3902F8016C13D944B1A7B11AF06A
:10319000020F11D02D214046FFF778FF013F534623
:1031A0003A4649464046FFF77CFF2044CFE70024DB
:1031B000D6E701464A46DAE72D23002409F8013C08
:1031C000A2F10209EBE700002DE9F04307460E46A5
:1031D000144600254FF00A08DFF808918BB03378C9
:1031E0003BB917B100223B681A7028460BB0BDE806
:1031F000F083252B6FD17378002BF2D0252B06F1AD
:10320000010267D02D2B0ABF01230023B21C1646F2
:1032100012F8011B302915D00022304610F8011B8E
:10322000A1F1300C5FFA8CFEBEF1090F0DD97329A4
:103230000FD121680434002908BF49463846FFF7FA
:1032400030FF14E043F00203E1E7064608FB02C248
:10325000E3E764290ED161202146CDE90130012345
:1032600000920A22384609680434FFF760FF0544DB
:103270000136B4E7782907D121466120CDE9013034
:10328000009200231022EDE7582902D12146412067
:10329000F4E7752906D161202146CDE9013000927D
:1032A0000023DEE766290AD1216807A8CDE90423B7
:1032B0000434FFF793FEDDE9042307A9BEE7632981
:1032C000D6D1216804348DF8181000218DF819101A
:1032D00006A9B3E7164638463178FFF7D7FE013521
:1032E000C6E700BF206B00080FB407B504AA52F868
:1032F000041B00200192FFF767FF03B05DF804EBA9
:1033000004B0704707B52D4801F0D2FE2B4801F0FC
:10331000D4FE2A4801F0DBFE284801F0D3FE01214B
:10332000264801F0B0FE254801F080FE0023244A23
:103330000193019B934203DC019B01330193F8E766
:103340001E4801F083FE1D4801F093FE05211D4A31
:103350001A4801F0C1FE194801F007FF01211A4A7D
:103360001A4802F03DFC0121194A184802F041FCBC
:103370004FF480720121154802F0ECFB4FF480629B
:103380000121124802F0DAFB3C2201210F4802F031
:1033900040FC01210D4802F0E9FB01210B4802F03D
:1033A000EEFB0121094802F009FC044801F0D3FEBC
:1033B000024803B05DF804EB01F040BE0024014078
:1033C0007F380100300C00204C24014000000240F6
:1033D0003C0C002003468B42084606DD914203DC8C
:1033E0009342A8BF1346184670479342FBDC9142B4
:1033F000A8BF1046704773B56E46056805F11E04F8
:10340000963534F80A2C34F8141C34F81E0CFFF7E7
:10341000E1FF1E34AC4226F8020BF2D1BDF80230B7
:10342000BDF800001844BDF804301844BDF806305B
:103430001844C0F38F0002B070BD00000D4B9842DD
:103440000BD003F5806398420DD0A3F5006398423A
:103450000ED107290CDCC8B27047012908DC01F144
:103460000800C0B27047052902DC01F10A00F8E744
:1034700010207047000C0140012370B593400C46AA
:1034800015460022064611469BB2204602F0D4F8AB
:1034900029462046FFF7D2FF3368034A9B1A034AA6
:1034A000C3F34F03D05470BD3C0C0020300C0020FF
:1034B000074B084A991C1360074A1160074A191DF7
:1034C0001160074A991D1160064A0833136070475E
:1034D0003C0C0020BC0C0020C00C0020380C00204C
:1034E000B40C0020B80C0020124B30B553F821204A
:1034F000114B53F821401346A242A8BF234601684E
:1035000001F1C8059D4206DBA242B8BF224602F186
:10351000C804A14203DD013B0360002030BD994295
:1035200003DA013B03600120F8E79142C8BF026063
:10353000F9E700BFE00C0020E80C0020F0B5134FC5
:10354000134E7D6874686422A54218DD0B1B53433B
:103550002C1B93FBF4F3D31A02683968541A6422C3
:1035600062433468641A92FBF4F29B1A002BB8BFD2
:103570005B42642BCABF016001200020F0BD491BE3
:103580004A43631B92FBF3F3E6E700BFE80C00201D
:10359000E00C0020034670B572B31848184D00685F
:1035A0006E688E420EDC8C1B4FF448616143154CF3
:1035B0006468A41B91FBF4F141436420491191FB21
:1035C000F0F1481EBAB9104A2C6811681B1B5A0149
:1035D00001F5486353430B4A5B111268121B93FBBE
:1035E000F2F35B1A43BF584320F01F0090FBF1F049
:1035F000184648BF404270BD0448CFE7C40C0020C5
:10360000E80C0020E00C0020D40C0020D00C00209E
:10361000124B134A1B6811469842A8BF1846114B1B
:103620001B689842B8BF18461368834207DC0E49EE
:1036300009680B449842A8BF1846106070470028DC
:10364000FBDC03EAE373834205DB084A12689B1A3A
:103650009842B8BF18460860704700BFF80C0020B9
:10366000CC0C0020FC0C0020C80C0020000D002019
:10367000884212DD3F318142ACBF4FF4C860002068
:103680001368002B0CDB8342A8BF0346B0F5486FDC
:10369000ACBF00200120136070474FF44860EFE793
:1036A00041428B42B8BF0B46F0E7000010B50468FA
:1036B000002C0BDB0B4B1B68C91A01EB810121EAC3
:1036C000E1729442A8BF1446046010BD064B1B680B
:1036D000C91A01EB810101EAE1739C42B8BF1C46A3
:1036E000F2E700BFF40C0020F00C0020064A13881B
:1036F000013313804FF47A72D1F8023093FBF2F366
:10370000024A1360704700BF400D0020380D0020B2
:103710001C4B70B51A88D1F80210013292B21A808F
:103720004FF47A7391FBF3F1174B184C1960184B57
:103730002488184D1B88952A88B2234498BF288076
:10374000154C2E88A0EB03039BB298BF2380B14297
:1037500002DA962A88BF2880104D2E88B14202DDF9
:10376000962A88BF28802188994202D9962A88BF44
:1037700023800B490888984202D2962A88BF0B8082
:1037800070BD00BF400D00203C0D00202A0D002020
:10379000280D00202E0D0020060D00202C0D0020ED
:1037A000040D0020144A8878138801339BB21380DB
:1037B000CA78124940EA02204FF47A72B0FBF2F262
:1037C000B0F57A6F28BF0E480A8022BF0088121A0F
:1037D0000A80952B0A880B4901D80A8004E00888E2
:1037E000904201D9962BF8D107490888904202D21D
:1037F000962B88BF0A807047400D0020280D0020BE
:103800002A0D00200A0D0020080D0020124B10B5D3
:103810001A881248013292B21A80CB788978952A98
:1038200041EA03214FF47A73B1FBF3F303800C48B0
:1038300001D8038008E004889C4205D9962A03D069
:1038400042F6F724A142F4D806490888984202D2E9
:10385000962A88BF0B8010BD400D00202A0D002045
:103860000E0D00200C0D0020064A13880133138032
:10387000CA788B7843EA02230A22B3FBF2F3024AA6
:1038800013807047400D0020300D0020064A138839
:10389000013313804FF47A72D1F8023093FBF2F3C4
:1038A000024A1360704700BF400D0020340D002015
:1038B00010B54FF46164094A094813880133138035
:1038C000D1F80220074B08491A600B680A60D31A26
:1038D00093FBF4F304682344036010BD400D002003
:1038E000100D0020140D0020200D002010B54FF405
:1038F0007A74094A0948138801331380D1F80220E9
:10390000074B08491A600B680A60D31A93FBF4F35B
:1039100004682344036010BD400D00201C0D0020EE
:10392000180D0020240D0020B0F52F4F07B528BF3B
:103930004FF42F400523B0F5965F38BF4FF49650F3
:10394000ADF800300023ADF802000120019300F033
:10395000FDFD08236A4640F2163100F03AFD03B03F
:103960005DF804FB07B5164B00201A788DF80100AE
:103970008DF80020C522ADF80220124A019011787E
:103980000131C9B2152994BF11701070127812B9A3
:1039900011221A7003E0082A0DD00F2A0DD0012041
:1039A00000F0D4FD08236A4640F2293100F011FDF1
:1039B00003B05DF804FB8622EBE7D922E9E700BFFC
:1039C000430D0020420D002007B50022074B0120C7
:1039D000CDE9002300F0BAFD08236A4640F24551C4
:1039E00000F0F7FC03B05DF804FB00BF7E10001888
:1039F000B0F5987F044B05D10A78452A0CBF012207
:103A000000221A7018787047540D0020B0F5C97F55
:103A100021D10B68154A23F07F431360144A934267
:103A20001AD002F598423D3293420BD0114A93428C
:103A300011D10322104B1A700822104B1A707822F1
:103A40000F4B07E000220C4B1A7003220B4B1A702D
:103A5000E1220B4B1A7070470122074B1A700222A9
:103A6000064B1A70D222064BF4E700BF480D002027
:103A70002D04800074038000550D0020C90800202B
:103A8000CA08002048F2612307B50120ADF80030D4
:103A900000F05CFD02236A4640F2323100F099FCEE
:103AA00003B05DF804FB000040F2EE23984207B536
:103AB00038BF18460B4B18600B4B800000930388EF
:103AC0000120ADF8043049F68013ADF8063000F05F
:103AD0003DFD08236A46AA2100F07BFC03B05DF897
:103AE00004FB00BF500D00205F59FF002DE9F3419A
:103AF000414B424C197822780F278B1800268DF8FD
:103B00000010FF21054603F5E47303EB13230120A6
:103B10008DF80110ADF802708DF805308DF8062093
:103B20008DF8046000F012FD6A460723BA2100F008
:103B300050FCB54214BF64220422314DDFF8D4801A
:103B4000297801208B1803F5FC7303EB13238DF800
:103B500000304EF22103ADF8023041F621738DF8AA
:103B60000110ADF804308DF806708DF8072000F0D4
:103B7000EDFC6A46A821082300F02BFC214F98F8A1
:103B8000003001208DF800303B788DF801304DF683
:103B90007973ADF802301C4B019300F0D7FC082379
:103BA0006A46A92100F015FC1849194A0B782078BB
:103BB00001330B702B78013001332B7098F80030F3
:103BC0002070013388F800303B7801333B70137864
:103BD0000133DBB25C2B13700BD1BE230B70D023EF
:103BE0002B70E92388F800304D23137080233E703A
:103BF000237002B0BDE8F081C9080020C808002089
:103C0000C5080020440D00201DC7E021C408002085
:103C1000C7080020C6080020014B1878704700BF75
:103C2000550D002013B5114B114C1B7801208DF858
:103C300000300C238DF801308F238DF8023023786B
:103C40008DF80330F0238DF8043000F07FFC05235D
:103C50006A464FF4E97100F0BCFB23781033DBB205
:103C6000ED2B08BF0D23237002B010BDCA08002041
:103C70004C0D002038B505461A4C0721204601F0AE
:103C800031FF20460721184A01F0AAFF2A462046A4
:103C9000072101F0AEFF50222046072101F0B9FFB5
:103CA0002046072101F081FF2046072101F05EFF39
:103CB00020460022072101F04DFF20460022072167
:103CC00001F03CFF20464FF48052072101F02AFF0B
:103CD0002046072101F072FFBDE83840034802F09A
:103CE00065B900BF000002400444004000440040A9
:103CF0000022084910B513460C4611F8010B013299
:103D00000344622A9BB2F8D1B4F86200C31A584245
:103D1000584110BD5C0D0020F8B5734D2B78042B75
:103D200040D8DFE803F0034057598D0006216F4863
:103D300001F0D8FE06216E4A6C4801F051FF0621C1
:103D40006C4A6A4801F055FF64220621674801F079
:103D500060FF0621654801F01FFF0621634801F05E
:103D600005FF00220621614801F0F4FE0022062131
:103D70005E4801F0E3FE002206215C4801F0D2FE1D
:103D800006215A4801F01AFF5B4802F00AF90022A6
:103D90005A4B1A805A4B9988186801F042FF2B78C9
:103DA00001332B70F8BD564B564C9988186801F0BA
:103DB00036FF23781BB95448FFF75CFFEFE7534801
:103DC000FFF758FF4B4B5B78002BE8D02378013B83
:103DD0002370E4E70323E4E7FFF78AFF454B40B392
:103DE000464A1288642A24D1B3F852204849053A39
:103DF00002EBD27252100A8093F82B1093F82A200B
:103E000042EA012243490A8093F8571093F856205A
:103E100042EA012240490A80D9799A7942EA01228C
:103E20003E490A8093F82010DA7F42EA01223C4999
:103E30000A80002283F8622083F863200423B0E71D
:103E4000384E002848D130800024374F2920B6F959
:103E500000103C80FEF762FB314A30491288098825
:103E6000294B0A44712112B292FBF1F239781A708F
:103E7000B7F90020880083F84B0049429011524264
:103E8000C9B2C2F3072259719A71D9721A73317883
:103E9000727883F84C009976DA7683F8201083F8EC
:103EA000212021462246184613F8014B01312244B5
:103EB0004E2992B2F8D11D4B80F84E201A80121272
:103EC00080F84F201A4A1388642B8EBF00230133D9
:103ED0009BB21380002364E7202802D02030B3D1A6
:103EE00049423180B0E700BFC00D00200000024011
:103EF000044400405C0D002000440040CE0D002032
:103F0000E80B0020CB0800201C090020CC08002072
:103F1000C20D0020C40D0020C60D0020C80D0020D9
:103F2000CA0D0020580D0020560D00205A0D00200B
:103F3000CC0D00201429F0B539D80B291D4D88BFB0
:103F400005390C0105EB01118E7A4FF6FF72012E37
:103F500018BF0122CF6891F809C000213B881344A3
:103F60009BB28C451FD9012E37F8112011D1824206
:103F700016DB101A4001D31A5B01400190FBF3F0ED
:103F80002A19127A2C59504301FB0241C0EB41100F
:103F90000CE02EB9824203DC801A40019B1AEBE749
:103FA00013460131DDE72C4460684001F0BD00207C
:103FB000FCE700BF906D0008B0F52F4F7FB528BF1C
:103FC0004FF42F400523B0F5965F38BF4FF496505D
:103FD0000022ADF80030204BADF8020018880192A5
:103FE000152888BF1A801A88A2F10800062830D93F
:103FF0000F2A34BF1120D92001321A80C523ADF811
:104000000A300023CDE90333144B8DF8080001205A
:104010008DF80910059300F099FA6A46082340F2DA
:10402000163100F0D6F9012000F090FA082340F292
:1040300029310DEB030200F0CCF9012000F086FAE3
:10404000082340F2455104AA00F0C3F907B05DF817
:1040500004FB8620D0E700BFD00D00207E100018A2
:1040600030B5204A204B89B0CDE901231F49204BB0
:10407000204CCDE90313204B204D05930023ADF8D0
:104080001930237808AA63F07F038DF818302B6865
:104090000120134413F81C2C8DF81B2013F8182C46
:1040A0008DF81C2013F8142C8DF81D2013F8102CFB
:1040B00013F80C3C8DF81E208DF81F3000F046FAE6
:1040C00008234FF4B06106AA00F083F92B6801338E
:1040D00003F003032B602378013303F00F032370F5
:1040E00009B030BD0F287F281E1000107056F05602
:1040F0000C48A748D20D002046902890D40D0020EF
:104100002DE9F047ADF5006D6D46002401F0CEFCC1
:104110002E46A846A146E7B23846FEF739FAF0B96E
:10412000FF274FF6FF7A4FF0FF3905EBC406FF2C4F
:1041300006F1080635D04FF0FF3006F8067C06F889
:10414000057C26F808AC46F8049C01F0B7FC4FF05B
:10415000FF3001F0B3FC0134C5F8F807E7E7FF2CA6
:1041600006F108061DD03846FEF70AFA824606F820
:10417000069C3846FEF740FADAF8183006F8050CC7
:1041800026F8083C3846FEF7B1F9074646F8040C15
:1041900056F8080C01F092FC384601F08FFC01340F
:1041A000B9E74FF0FF33C5F8FC3701F03FFF0A488D
:1041B00001F006FA084C094E204655F8041B043459
:1041C00001F04EFFB442F7D101F03CFFD8F8F807F8
:1041D0000DF5006DBDE8F08700F801080000020849
:1041E00070B5144C01F062FC4FF4FF71204601F0F1
:1041F0006BFCD4F8F837834219D10025EC0004F1A8
:10420000006404F5FC342088FEF7AAF94728064626
:1042100008D0238833B16168FEF788F93046E17829
:10422000FEF7D4F90135FF2DE8D1002070BD4FF025
:10423000FF30FBE700F80108014B1860704700BF32
:10424000E80D002030B50B4C235C93B90A4B1D6878
:104250007DB10A4B0A490B4A18700B6802F833000B
:1042600002EBC30255600122134403F003032254FE
:104270000B6030BDDC0D0020E80D0020EC0D0020AF
:10428000D80D00206C09002000231946034A013391
:10429000092B02F8011BFAD1704700BFDC0D00208A
:1042A000014B1878704700BFEC0D0020074B10B48D
:1042B00003EBC1021479064A53F8313052F8242036
:1042C000014610BC0348FFF70FB800BF707000082C
:1042D000B8700008846F000838B5094C636823B9CA
:1042E000BDE838400748FEF7FFBF0025606830B1E1
:1042F00014F8081B0135FFF7D9FF042DF6D138BD9E
:104300006C090020946F00087047C0F8E0147047F3
:104310002DE9F04F00240B9E074634704FF0010941
:1043200004464FF6FF7AE51BB5F5E17F29DCB4F8CA
:1043300000E0D64525D004F1020C654695F90580CC
:10434000B8F1000F1BDDB5F800B08B4511D101208D
:10435000C2F800E02A791A60099BB5F90220C3F877
:1043600000800A9B1A60BDE8F08F00F5FA742746BA
:10437000D9E70635A5EB0C08B8F12A0FDEDD32349B
:10438000D1E7347886F80090002CEED00020EAE7E0
:104390000C220023514330B50B4C8BB0621895684A
:1043A0005268CDE9073305926258CDE90133CDE972
:1043B00003320122069500921946D0F8FC0400F061
:1043C000E5FE0BB030BD00BFC4700008D0F8E803B4
:1043D0007047F7B504460E46D0F8FC040121154697
:1043E0001F4600F0C9FF002331461A46CDE900758B
:1043F000D4F8FC0400F0C5FF002811DAD4F8DC344E
:10440000132B0DDC0C2000FB03402A680133C0F89D
:10441000F0236A68A0F8EC63C0F8F423C4F8DC3435
:10442000D4F8DC34002B07DD0121D4F8FC0403B000
:10443000BDE8F04000F09CBF03B0F0BD2DE9F74FA0
:1044400006464FF6FF7900F1320535F8323C2F462B
:104450004B4539D000234FF0010BCDE90033A5F1D6
:10446000300AA5F12A0414F9013CA046002B1EDDF8
:1044700014F8060CFEF73AF834F9043C14F8022C50
:10448000584314F9013C1F2A0BFA03F303F1FF33DD
:1044900003EA60131BD9203A9340019A1343019316
:1044A000A8EB0A08B8F12A0F04F10604DBDD35F8A1
:1044B000321C00236A463046BF1BFFF78AFFB7F560
:1044C000E17F05F13205C0DD03B0BDE8F08F934018
:1044D000009A13430093E3E72DE9F04F0446814629
:1044E00000274FF6FF7A85B0CDE90201A4EB09035E
:1044F000B3F5E17F22DC238853451FD004F1020B82
:1045000004F1080515F9013CA846002B11DD15F84A
:10451000022C15F8060C019735F9041C039E009136
:104520002188A8EB0B08B047B8F12A0F05F1060562
:10453000E8DD3234DAE7A1460127D7E7029B03F52D
:10454000FA74002FF7D005B0BDE8F08F0128DABF6C
:10455000024B53F820000020704700BFF00D0020F0
:1045600073B504460C250826D4F8DC34002B17DD7F
:10457000013B6B43E21803F57C732344B2F8EC1360
:10458000CDE900630023D4F8FC041A4600F0F9FEDC
:10459000002805DBD4F8DC34013BC4F8DC34E3E765
:1045A000D4F8DC343BB90121D4F8FC0402B0BDE8F6
:1045B000704000F0E1BE02B070BDF0B51C46268828
:1045C0000F467601B1B20126106885B09B8802962D
:1045D00006400196E688154662887601B6B25B0110
:1045E00052019BB292B2009600F0B2FE00233B60F3
:1045F0002A6801322A60E380A3806380238005B0AB
:10460000F0BD00002DE9FF41002340F20162CDE939
:104610000233ADF80820012204460025D0F8FC142E
:104620000092284A00F2E44691421EBF264B1B68C6
:10463000C3F305230193D4F8F824009BAA4212DDAA
:1046400004AA02EB430236F8021B0133042B22F8C2
:10465000081C009305D16946204602AB01AAFFF76A
:10466000ACFF0135E7E74FF6FF7804F5FA7704F27F
:10467000262535F8322C2E464245009B0BD1009B57
:10468000002B05DD6946204602AB01AAFFF795FF26
:1046900004B0BDE8F08104A901EB43010133042B10
:1046A00021F8082C009305D16946204602AB01AAE7
:1046B000FFF783FFF61BB6F5E17F05F13205D8DD84
:1046C000DDE700BF00640040006A0040D0F8F82435
:1046D00010B5092A0ADC00EB42040132A4F8E41404
:1046E000C0F8F824FFF78EFF012010BD0020FCE782
:1046F0004FF6FF70002301F5FA720880CB714B73FF
:10470000CB744B76CB7781F8253081F82B3081F84C
:10471000313032318A42F0D1704710B5044601463B
:10472000FFF7E6FF204604F5FA71FFF7E1FF2046A8
:10473000BDE81040FFF766BF002310B5CC5AC8187B
:10474000944204D03233B3F5FA7FF7D1002010BD84
:104750002DE9F843B3F5006F8146DDE908760C4694
:104760001546984632DA3F2F33DC202E34DC1A46C9
:10477000FFF7E2FF38B94FF6FF724846FFF7DCFF5C
:1047800068B3A0F80080023090F90530002B01DDFD
:104790000630F9E7013325D0BDF928300580438084
:1047A000077146714FF6FF71002004F1320333F8B0
:1047B000325C1A468D4207D0121BB2F5E17F00F140
:1047C000010003F13203F2DDBDE8F8834FF0FF3062
:1047D000FAE76FF00100F7E76FF00200F4E76FF01F
:1047E0000300F1E76FF00400EEE71FB5BDF91C40D0
:1047F0000294069CCDE9003413460A460146FFF7B1
:10480000A7FF04B010BD30B585B0BDF924500446F3
:104810000295089DCDE9003513460A4600F5FA7168
:10482000FFF796FF05462046FFF7ECFE284605B049
:1048300030BDF7B5B1F801600746B6F5005F0C462C
:104840001CD1C878452841D80B78402B0FD1496836
:10485000FDF734FE60BB232323700823224640F279
:104860008151384603B0BDE8F040FFF7B2BD222BBE
:10487000F3D1FDF73BFE43236060EDE7A6F540531F
:10488000B3F5C05F22D2C97845291FD82378402BC1
:10489000E3D16568C6F30A02C5F3072CEBB22D1409
:1048A000CDE900C575040ED5FFF7ADFF0028D2DABB
:1048B0008023237030232371002363710923A371A4
:1048C0000623E371C9E7FFF790FFEFE7802323702A
:1048D0000023237163710223F1E72DE9F0470546B8
:1048E0000E464FF001088AB0002305930DF11A031C
:1048F00003930DF11B0302930DF1190308AC01930F
:1049000006AB00930122D5F8FC04049407ABF1B286
:1049100000F0AEFD002854D040F20163079A9A429D
:1049200008D19DF81A30082B04D121462846FFF7FC
:1049300080FFD9E7284605F5FA71FFF7FDFE00284C
:1049400039D000F1020900F1080A1AF9011C574692
:10495000002904DC01F05EF8C5F8E803C4E71AF8A2
:10496000024C08FA01F11F2C93BF089B099A203CC6
:1049700023FA04F401F1FF3188BF22FA04F40C4059
:104980003AF9041C1AF8060C64014C43FDF700FECA
:10499000641121463AF8063C48B1D8B2FDF78EFDC5
:1049A000A7EB09072A2F0AF1060ACEDDD2E7D8B213
:1049B000FDF7BCFDF4E721461046D5F8E0349847F2
:1049C00092E70AB0BDE8F0872DE9F04100240F46D8
:1049D00016469846254644450CDA56F8240001F060
:1049E0006DF856F82410054607EB840001F038FBFB
:1049F0000134F0E72846BDE8F08100202DE9F04FB2
:104A0000054685B0009201F1320403934FF6FF731F
:104A100034F8328C0194984539D0A4F130030293D4
:104A2000322300274FF0010C03FB05FE009B03EB34
:104A30000E0AA4F12A0313F9019C1A46B9F1000FDA
:104A400018DD33F8069C039EB14523D006269C460C
:104A500006FB07A95CF806BD0137C9F802B0BCF82F
:104A600004C0A9F806C04FF0000C029E0633961B46
:104A70002A2EE0DDBCF1000F03D1009B013523F8A5
:104A80000E80019B32345B1AB3F5E17FBEDD05B0C9
:104A9000BDE8F08F0130E8E7F0B5044616460D4654
:104AA000FFB001A9FFF724FE3346294601AA20469C
:104AB000FFF7A3FF07462046FFF71AFE33462A46B4
:104AC000204601A9FFF799FF38467FB0F0BD70B5C9
:104AD0000A460D4601460446FFF7DEFF2A46064613
:104AE00004F5FA712046FFF7D7FF304470BD2DE979
:104AF000F0470E464FF6FF7901F1320434F8323CAC
:104B000027464B451CD0A4F1300AA4F12A0515F91B
:104B1000013CA846002B0DDD15F8060CFDF730FD15
:104B2000A8EB0A088369B8F12A0F25F8063C05F1BD
:104B30000605ECDDBF1BB7F5E17F04F13204DDDDD6
:104B4000BDE8F0872DE9F0470E464FF6FF7901F1F9
:104B5000320434F8323C27464B451BD0A4F1300ACE
:104B6000A4F12A0515F9013CA846002B0CDD35F807
:104B7000060CFDF7F5FCA8EB0A08B8F12A0F25F89A
:104B8000060C05F10605EDDDBF1BB7F5E17F04F16D
:104B90003204DEDDBDE8F08773B50446194E00F03F
:104BA00085FF01F043FA022001F036FA304600F0AA
:104BB00007FD04F5FA7521462046FFF798FF2946C0
:104BC0002046FFF794FF224631467D232046FFF71B
:104BD000FBFE2A467D2320460B49FFF7F5FE012305
:104BE00001AA0A4901902046FFF7EEFE01F02AFAD9
:104BF00021462046FFF7A6FF29462046FFF7A2FFE1
:104C000002B070BD00F00108F4F10108E8F30108FA
:104C100038B5114B04461D6800F048FFFA210F48D3
:104C200000F052FF854215D17D2220460B4904F544
:104C3000FA75FEF7A1F97D2228460949FEF79CF98D
:104C400021462046FFF77EFF20462946FFF77AFFE0
:104C5000012038BD0020FCE7E8F3010800F001085E
:104C6000F4F10108F8B5002504460E46424BC0F8A1
:104C7000FC14C0F8E034C0F8E853C0F8DC54C0F8C5
:104C8000F8541746FFF749FD2046FFF7C1FF3B4B9D
:104C90009E421AD003F580639E4241D0D4F8FC04B2
:104CA00000F068FA39462046FFF772FB2046FFF70E
:104CB000A9FCD4F8FC04022100F05AFBD4F8FC044F
:104CC000102100F055FB2046F8BD4FF4006302228E
:104CD00029462B4800F0B0FC4FF40061284800F052
:104CE0009EFF4FF4805302220321254800F0A4FCCC
:104CF000142001F015FAF021142001F01FFA1520FC
:104D000001F00EFAF021152001F018FA132001F03D
:104D100007FAF021132001F011FA1A4B1C60BDE7CD
:104D20004FF4805302222946174800F085FC4FF4C7
:104D30008051154800F073FF4FF400530222032105
:104D4000114800F079FC402001F0EAF9F021402000
:104D500001F0F4F9412001F0E3F9F021412001F0E4
:104D6000EDF93F2001F0DCF9F0213F2001F0E6F9F8
:104D7000044B5C6092E700BF0943000800640040F8
:104D800000080140F00D0020000C0140024B002102
:104D90001868FFF7A2BD00BFF00D0020024B0121F3
:104DA0001868FFF79ABD00BFF00D0020014B18688E
:104DB000FFF7D6BBF00D0020024B00215868FFF72B
:104DC0008CBD00BFF00D0020024B01215868FFF799
:104DD00084BD00BFF00D0020014B5868FFF7C0BB39
:104DE000F00D0020074B28B918802920B3F90010D6
:104DF000FDF794BB202802D02030F6D1494219801B
:104E0000F3E700BFFA0D0020034A1378013303F0E3
:104E100003031370704700BF040E002003B2092083
:104E2000203B03EB830313F5916F93FBF0F004DB5E
:104E3000B3F5906F04DA40B270476FF07F007047AF
:104E40007F207047B0F5ED7F08B51BD14B780A780D
:104E50009B1143EA8203134A13800A794B7943EA90
:104E6000022347F6FF721BB2934208BF00230E4A8B
:104E700013808B7913F0B00F14BF012200220B4B6B
:104E80001A8008BD40F25A539842FAD18878FFF749
:104E9000C5FF074B18804878FFF7C0FF054B188007
:104EA000EFE700BF000E0020FE0D0020FC0D0020EB
:104EB000020E0020F80D00200023F0B50126C3717A
:104EC000441EC51D072214F8017F06FA02FE1EEAE1
:104ED000070F14BF4FF0010E4FF0000E4FFA83FC86
:104EE0000EEB4303BCF1000FDBB2B8BF4B40013AFD
:104EF000EBD2A542E6D1C371F0BD000007B5444B2B
:104F0000444A0093C023ADF80430137885218DF80E
:104F100006300133DBB2032B88BF002368461370D1
:104F2000FFF7CAFF0020FFF711FB08236A464FF482
:104F30008D71FFF74EFA40F2F773374AADF8003043
:104F4000364BB2F90010B3F90030994218BF138004
:104F500003F5006292B2B2F5805F55D21A12C3F324
:104F6000061122F07F020A431B018DF802208DF802
:104F700003302B4A6846137899010133DBB2032BC7
:104F800088BF0023137044238DF80530302341F08F
:104F900007018DF8041085218DF80630FFF78CFF8E
:104FA0000020FFF7D3FA6A4608234FF4EA71FFF7AF
:104FB00010FA00221B4900200B7800928DF8063071
:104FC0000133DBB2032B94BF0B700A70ADF80420E1
:104FD0008DF80720FFF7BAFA6A4640F2DB11082382
:104FE000FFF7F7F90020104BADF8040000938DF89F
:104FF0000600FFF7ABFA07236A4640F20B51FFF7B2
:10500000E8F903B05DF804FB0023ADF80230B0E727
:105010004E4000AA070E0020080E0020FA0D0020C6
:10502000050E0020060E0020000006C08368DB0786
:105030005EBF836843F00103836070478368DB07CA
:1050400042BF836843F0010383607047836800F1C7
:10505000080243F00803836013681B07FCD4704701
:10506000836843F00403836070478068C0F3800066
:10507000704708B50246FFF7F3FF1046FFF7F5FF4C
:105080000028FAD108BD0022134610B501FA02F437
:1050900003321E2A43EA0403F8D10022036101FA15
:1050A00002F40332182A43EA0403F8D1C36010BDA6
:1050B000836823F0010383607047436843F480737F
:1050C00043607047836823F400638360704783689C
:1050D00043F00203836070471029F0B50CD8002517
:1050E00001232F462E46DCB2A14206D2013946EA00
:1050F0000156C66207634563F0BD062C0BD802EB70
:10510000030C1CF801CC03EB830EAEF1050E0CFA78
:105110000EFC45EA0C05A4F1070CBCF1050F0BD8F9
:1051200002EB030C1CF801CC03EB830EAEF1230E53
:105130000CFA0EFC47EA0C070D3C052C09D8D418D4
:1051400014F8014C03EB830CACF1410C04FA0CF4A1
:1051500026430133C7E7836800F1080243F4800364
:10516000836013685B02FCD47047836843F48073E8
:1051700083607047044B98420CBF40F2192040F204
:105180001A2000F037BF00BF006400402DE9F34152
:1051900004689DF8208024F00204046004689DF8EF
:1051A00024E044F0010404604FF6FF749DF828C029
:1051B0009DF83C609DF840700194019C051D013CE8
:1051C000019414B14468E407F7D52C68E40770D55E
:1051D0000024C461002951D0016841F080010160C0
:1051E000002A4FD0026842F040020260002B4DD0EE
:1051F000036843F0200303600368B8F1000F49D04F
:1052000043F0100303600368BEF1000F45D043F084
:10521000080303600368BCF1000F41D043F00403AE
:105220000360C369002F3ED043F00043C361C369EC
:10523000002E3BD043F08043C3610E9B0D99013B90
:10524000C3F309030B430C99C2690B430B990B433E
:105250001343C361036823F0010303604FF6FF7338
:105260000193019B013B019313B12B68DB07F8D439
:10527000286800F0010002B0BDE8F081016821F06B
:105280008001ACE7026822F04002AEE7036823F039
:105290002003B0E723F01003B4E723F00803B8E7D6
:1052A00023F00403BCE723F00043BFE723F080436F
:1052B000C2E70120DFE70000F0B501241F4E844063
:1052C00035689DF81C7045F001053560E6431C4DBE
:1052D000D5F800C00CEA060CC5F800C0DFF86CC0B9
:1052E00009B3DCF800102143CCF800101549F2B1E5
:1052F0000A68224300F1006000F6C8400A60C0005E
:105300000360069A059B43600F4B9AB11A682243CB
:105310001A6017B12B681C432C60084A136823F0ED
:1053200001031360F0BDDCF800103140DCE70A68CF
:105330003240DFE71A6816401E60EAE70066004068
:105340001C66004004660040146600400C66004085
:1053500030B4BDF808409DF8105044EA034302936E
:10536000049542EA014330BC01220021FFF7A4BFAB
:105370004369194341617047436923EA010141616F
:1053800070472DE9F041804680689DF818E046019D
:10539000079D2AD4D8F8080004012AD4D8F80800B8
:1053A000C00050D54FF4D076022006EB080422B39B
:1053B000C90041F0040146F808101BB1236843F00E
:1053C00002032360636823F00F03636062680EF0DA
:1053D0000F03134363600EF1FF33072B2AD8DFE876
:1053E00003F02623201B1815120E4FF4C076002060
:1053F000DBE74FF4C8760120D7E74905DBE7002754
:10540000EB7963F31F67AB7963F317476B7963F34A
:105410000F272B7963F307074FF0000CEB7863F34A
:105420001F6CAB7863F3174C6B7863F30F2C2B78FE
:1054300063F3070CC4F808C0E760236843F0010376
:105440002360BDE8F0814FF0FF30FAE721B9C3686F
:1054500043F02003C3607047036943F020030361F6
:10546000704719B9C06800F0030070470069FAE797
:105470002DE9F3470546DDE90AA80E469946DDE920
:105480000E43FFF7EEFF4FF4E07107464FF4D8707C
:10549000CDE9000102A901EB860151F8081C55F87D
:1054A00001C068181CF0040C15BF4FF0010C8AF8FD
:1054B00000C08AF800C055F801C016BF55F801C0F9
:1054C0004FEA5C5C4FEADC0CC9F800C0695811F087
:1054D000020118BF012188F8001041684FEA112C21
:1054E0000C9981F800C0416801F00F0C0D9981F80A
:1054F00000C013B14168090C19808168C368C1F309
:10550000072021706070C1F30740C1F30761E170AB
:10551000C3F3072123716171C3F30741C3F3076329
:10552000A070A171E3711AB131462846FFF78EFFD2
:10553000384602B0BDE8F087064B1868064B1B885A
:10554000B3F5007F82BF054B1B68184300F03500A0
:10555000704700BF0C200240E0F7FF1F4C200240C4
:1055600038B504460D4600F075FD114B1B88B3F5A8
:10557000007F18D90F4B9C4215D90F4A136843F08E
:1055800001031360258000F065FD094B1B88B3F50E
:10559000007F0AD9074B9C4207D9074A136823F0BA
:1055A0000103136038BD054AE8E7044AF6E700BF87
:1055B000E0F7FF1FFFFF07085020024010200240C5
:1055C00010B5044600F046FD154B1B88B3F5007F6F
:1055D0001DD9144B9C421AD9134B1A6842F002028F
:1055E0001A60124A14601A6842F040021A6000F011
:1055F00031FD0B4B1B88B3F5007F0FD9094B9C4243
:105600000CD9094A136823F00203136010BD084B3C
:105610001A6842F002021A60064AE3E7044AF1E718
:10562000E0F7FF1FFFFF0708502002405420024010
:1056300010200240142002402DE9F04300264FF0D4
:105640000F0E43F6F8789C46036847684CFA06F458
:10565000E4071BD5072E94BF9946B946B4B28BBF59
:105660004444A400A400A4B288BFA4B20EFA04F576
:1056700029EA0509A51C02FA05F501FA04F42C43F0
:1056800044EA0904082E2CBF274623460136102E73
:10569000DCD103604760BDE8F0830000034A136873
:1056A00023F0E06319430143116070470400014097
:1056B000024A136843F08073136070470010024081
:1056C000062822D8DFE800F004090E13181D1F0079
:1056D0000F4B1868C0F3406070470D4B1868C0F35B
:1056E000C06070470A4B1868C0F340707047084BA1
:1056F0001868C0F340407047054B1868C0F340007D
:105700007047044BF9E7044BF7E70020704700BFF0
:10571000001002402010024024100240024608B54A
:105720001046FFF7CDFF0028FAD008BD06280CD898
:10573000DFE800F004060C11161B1D00FFF7B8BFD0
:105740000C4A136843F0806313607047094A13687A
:1057500043F08053F8E7074A136843F48033F3E7D4
:10576000044A136843F00103EEE7034AF9E7034AEA
:10577000F7E700BF00100240201002402410024052
:10578000034A136823F0030318431060704700BFF7
:1057900004100240034A136823F4701343EA804064
:1057A0001060704704100240034A136823F48033EA
:1057B00043EA00401060704704100240034A136837
:1057C00023F4003343EA4040106070470410024065
:1057D000024B186800F40040704700BF20100240E0
:1057E000024A136843F400431360704720100240DC
:1057F00006283DD8DFE800F0373737263704150094
:105800001C4B1A6842F001021A601A689007FCD516
:105810001A6822F440721A601A6842F480721A60A0
:105820007047154B1A6842F001021A601A68910716
:10583000FCD5104B1A6822F440721A601A6842F4C0
:105840000072ECE70D4B1A6842F480321A601A6855
:105850009203FCD5074B1A6822F440721A601A684A
:1058600042F44072DBE7034A136823F44073136089
:10587000704700BF20100240241002400010024078
:10588000034A136823F4404343EA803010607047B2
:1058900004100240034A136823F4605343EAC02013
:1058A0001060704704100240034A136823F4E06359
:1058B00043EA00201060704704100240034A136856
:1058C00023F0F00343EA0010106070470410024018
:1058D00008B50420FFF72AFF0420FFF71FFF002070
:1058E000FFF74EFF0320FFF721FF0320FFF716FF0E
:1058F0000120FFF745FF0020FFF7E0FF0320FFF73F
:10590000BFFF0420FFF7D0FF0020FFF7C3FF0220F6
:1059100000F082FB0720FFF73DFF0120FFF744FF67
:105920000020FFF74BFFFFF7C3FE0020FFF7F6FE56
:105930000220FFF725FF044B044A05491360054A7E
:105940001160054A136008BD00A24A0490090020B6
:10595000005125029409002098090020044B1A6880
:105960009206FCD51A6842F010021A60704700BF18
:1059700004280040044B1A6822F010021A601A68CA
:105980009206FCD5704700BF0428004038B5044695
:1059900000254FF4677000F020FB40F29B3000F0D0
:1059A0001CFB00F055F92046FFF722FF0D4C0E4B73
:1059B0001D602560FFF714FFFFF7D0FF0B4B0C4A6B
:1059C0001D605D601D615D614FF6FF731360536084
:1059D000FFF7D0FF236823F00803236023681B0729
:1059E000FCD538BD042800400028004008280040AD
:1059F0002028004008B5FFF7B1FF054B82B2C0F385
:105A000003401A6043F8040CBDE80840FFF7B2BF3A
:105A10000C280040034B186804331B6843EA00401D
:105A2000704700BF1828004008B5FFF797FF044BE8
:105A3000020C80B21A605860BDE80840FFF79ABFB8
:105A40001828004008B54FF4677000F0C6FA40F21D
:105A50009B3000F0C2FA00F0FBF8064B1A6822F007
:105A600008021A601A681107FCD51A689206FCD55C
:105A700008BD00BF0428004038B505464FF46770E4
:105A80000C4600F0AAFA40F29B3000F0A6FAFFF7AD
:105A90009FFE18B1BDE83840FFF7D4BF2846FFF796
:105AA00075FF2046BDE83840FFF7A4BF024A1368DF
:105AB00043F001031360704708300240014B186047
:105AC0001868704700300240002310B5044A8B422A
:105AD00001DB106810BD50F8234001331460F6E775
:105AE0000030024014230022013903FB01039A60B5
:105AF000DA601A615A618B000F21426899401143A4
:105B0000416070470139890002FA01F14160704734
:105B100001390368890002FA01F1194214BF01201A
:105B20000020704714230139594308300B5823F4DF
:105B300040530B500B581A430A5070471423013935
:105B4000594308300B5823F440630B500B581A4349
:105B50000A50704714230139594308300B5823F475
:105B600040730B500B581A430A50704714230139E5
:105B7000594308300B5843F080030B5070471423EF
:105B80000139594308300B5843F020030B500B5890
:105B900023F480430B5070471423013959430830D4
:105BA0000B5823F010030B5070471423013959434D
:105BB00008300B5843F010030B5070471423013981
:105BC000594308300B5843F001030B50704714231E
:105BD0000139594308300B5823F001030B5070472B
:105BE0001423013903FB01008368DB0758BF0261FE
:105BF00070471423013903FB01008368DB0758BF9A
:105C0000426170471423013959430C30085880B25F
:105C100070471423013959430C300A507047016111
:105C20007047090401617047806808407047C36885
:105C300001EA030221EA030141EA024101617047DE
:105C40004AF6AA22014B1A60704700BF003000409C
:105C5000024A136843F48073136070470070004079
:105C6000C3681943C160704703690B4214BF012028
:105C700000207047C9430161704710B504681343A1
:105C800024F45C740B432343036010BD036843F0AA
:105C9000800303607047036823F0100303607047BC
:105CA000036823F0080303607047036843F00103AF
:105CB00003607047036823F001030360704781624B
:105CC0007047C162704706297AD8DFE801F004798D
:105CD000337963799200836923F0030383618369D5
:105CE0008361836923F070038361072A68D8DFE842
:105CF00002F03304090D1115191D836943F01003D7
:105D000083617047836943F02003F9E7836943F0B7
:105D10003003F5E7836943F04003F1E7836943F01B
:105D20005003EDE7836943F06003E9E7836943F0DB
:105D30007003E5E7836923F44073836183698361BA
:105D4000836923F4E0438361072A39D8DFE802F04E
:105D500004060A0E12161A1E8369D1E7836943F4FA
:105D60008053CDE7836943F40053C9E7836943F463
:105D70004053C5E7836943F48043C1E7836943F433
:105D8000A043BDE7836943F4C043B9E7836943F4A3
:105D9000E043B5E7C36923F00303C361C369C3618B
:105DA000C36923F07003C361072A09D8DFE802F052
:105DB0003304090D1115191DC36943F01003C361A4
:105DC0007047C36943F02003F9E7C36943F0300328
:105DD000F5E7C36943F04003F1E7C36943F05003BB
:105DE000EDE7C36943F06003E9E7C36943F070037B
:105DF000E5E7C36923F44073C361C369C361C36941
:105E000023F4E043C361072ADAD8DFE802F004068E
:105E10000A0E12161A1EC369D1E7C36943F48053F0
:105E2000CDE7C36943F40053C9E7C36943F4405362
:105E3000C5E7C36943F48043C1E7C36943F4A043A2
:105E4000BDE7C36943F4C043B9E7C36943F4E04322
:105E5000B5E7062909D8DFE801F0041509190D1D79
:105E60001100036A43F0010303627047036A43F0C1
:105E70001003F9E7036A43F48073F5E7036A43F418
:105E80008053F1E7036A43F00403EDE7036A43F04C
:105E90004003E9E7036A43F48063E5E7062909D88C
:105EA000DFE801F0041509190D1D1100036A23F044
:105EB000010303627047036A23F01003F9E7036AE2
:105EC00023F48073F5E7036A23F48053F1E7036A50
:105ED00023F00403EDE7036A23F04003E9E7036AD4
:105EE00023F48063E5E706290CD8DFE801F0040B12
:105EF000060B080B0A004263704782637047C26357
:105F0000704702647047436C43F400434364704736
:105F1000406A704741627047064A074B90421B68CF
:105F200004BF064B1B6803EB5103B3FBF1F1816027
:105F3000704700BF003801409409002098090020F4
:105F4000C36808290CBF23F4805343F48053C36013
:105F50007047036923F44053194301617047C368D4
:105F600023F4C0631943C1607047C36823F00C0376
:105F70001943C1607047436923F440731943416179
:105F80007047C36843F40053C360704738B5044694
:105F90000D4600F018F829462046BDE8384000F0CC
:105FA0000AB8436943F0400343617047436943F0D3
:105FB000800343617047C1F3080141607047406846
:105FC000C0F30800704703681B06FCD570470368E0
:105FD0000B4214BF012000207047430900F01F024C
:105FE000012003F1804303F504331968904008430E
:105FF0001860704700F01F024309012003F180433D
:1060000003F5043319689040014319601A6822EAC5
:106010000000186070470000034A136823F007036C
:1060200018431060704700BF00200240034B044A31
:106030001A6002F188321A60704700BF04200240E3
:1060400023016745024A136843F0800313607047D9
:106050001020024008B5FFF76FFAC307FBD408BD54
:1060600038B505460C4689B2FFF77AFA210CA81C10
:10607000BDE83840FFF774BAFEE77047002238B534
:106080001849194C19485318834217D30021184A4C
:10609000934217D3174A184C1368184D43F40073F2
:1060A0001360AC4211D3164C164DAC4211D3FBF722
:1060B00035FE154C154DAC420FD338BD1359535016
:1060C0000432E0E719600433E2E754F8043B9847F0
:1060D000E7E754F8043B9847E7E754F8043B984750
:1060E000E9E700BF00000020FC7000089C090020C8
:1060F0000C0E002014ED00E0F4700008F4700008AD
:10610000F4700008FC700008FC700008FC700008C7
:10611000014B024A1A60FEE70CED00E00400FA05AC
:10612000012243099B0003F1604300F01F0003F5C7
:10613000614302FA00F0186070470000432893BFE3
:1061400000F16040044B00F00F0000F564408CBF8C
:10615000C1540170704700BF14ED00E00002040656
:1061600056656869636C65204D6F64756C650049A0
:106170006E76657274657200303D4C6561665F478E
:10618000656E312C20313D4753343530482C203258
:106190003D5573657243414E2C20333D5A6F6D62FD
:1061A00069650056656869636C6500303D424D570E
:1061B0005F4534362C20313D424D575F4536352CF6
:1061C00020323D557365722C20333D4E6F6E652035
:1061D0002C20353D424D575F453339202C20363D2C
:1061E000564147005468726F74746C6500706F7428
:1061F0006D696E0064696700706F746D617800701E
:106200006F74326D696E00706F74326D61780070FA
:106210006F746D6F646500303D53696E676C6552D5
:106220006567656E2C20313D4475616C4368616E15
:106230006E656C2C20323D43414E006469726D6F77
:10624000646500303D427574746F6E2C20313D538F
:1062500077697463682C20323D427574746F6E5296
:10626000657665727365642C20333D53776974637A
:106270006852657665727365642C20343D446566AA
:1062800061756C74466F7277617264007468726FC6
:106290007472616D7000252F31306D7300746872F7
:1062A0006F7472616D7072706D007265766C696D7D
:1062B0000062726B6F7574002500626D736C696D9E
:1062C0006869676800626D736C696D6C6F770075E3
:1062D00064636D696E0056007564636C696D006976
:1062E00064636D6178006964636D696E00746D70DC
:1062F00068736D617800C2B04300746D706D6D613C
:1063000078007468726F746D6178007468726F746D
:106310006D696E0047656172626F7820436F6E74BD
:10632000726F6C004745415200303D4C4F572C2056
:10633000313D484947482C20323D4155544F004F8C
:10634000696C50756D700043727569736520436F99
:106350006E74726F6C0063727569736573746570C7
:106360000063727569736572616D700072706D2F74
:106370003130306D7300726567656E6C6576656C83
:1063800000436F6E746163746F7220436F6E74723A
:106390006F6C007564637377006372756973656C05
:1063A0006967687400303D4F66662C20313D4F6E42
:1063B0002C20323D6E61006572726C69676874737F
:1063C00000303D4F66662C20343D4550432C20382C
:1063D0003D656E67696E6500436F6D6D756E6963CF
:1063E0006174696F6E0063616E737065656400301F
:1063F0003D3235306B2C20313D3530306B2C203226
:106400003D3830306B2C20333D314D0063616E7070
:106410006572696F6400303D3130306D732C20310E
:106420003D31306D730076657273696F6E00343D77
:10643000312E30302E4100687776657200303D5243
:106440006576312C20313D526576322C20323D521A
:106450006576332C20333D5465736C61006F706D2D
:106460006F646500303D4F66662C20313D52756E7D
:106470002C20323D5072656368617267652C203351
:106480003D5063684661696C006C6173746572723B
:106490000073746174757300303D4E6F6E652C200F
:1064A000313D5564634C6F772C20323D5564634811
:1064B0006967682C20343D55646342656C6F77557D
:1064C000646353772C20383D5564634C696D2C20F0
:1064D00031363D456D637953746F702C2033323DF6
:1064E0004D50726F742C2036343D506F745072656D
:1064F000737365642C203132383D546D7048732CB1
:10650000203235363D576169745374617274007579
:10651000646300706F776572006B57006964630095
:10652000746F7271756500706F7400706F743200F3
:10653000706F746272616B65006272616B6570721C
:1065400065737375726500706F746E6F6D0064694A
:1065500072002D313D526576657273652C20303D99
:106560004E65757472616C2C20313D466F72776197
:10657000726400696E760076656800746D70687389
:1065800000746D706D00746D706175780075617563
:10659000780063616E696F00313D437275697365A0
:1065A0002C20323D53746172742C20343D42726150
:1065B0006B652C20383D4677642C2031363D526582
:1065C000762C2033323D426D7300637275697365BA
:1065D00073706565640063727569736573747400C4
:1065E000303D4E6F6E652C20313D4F6E2C20323D7C
:1065F00044697361626C652C20343D5365744E2C84
:1066000020383D536574500064696E5F637275692C
:1066100073650064696E5F73746172740064696E9F
:106620005F6272616B650064696E5F666F7277614D
:1066300072640064696E5F7265766572736500648A
:10664000696E5F626D730068616E6462726B0047B1
:10665000656172310047656172320047656172336E
:1066600000543135537461740047656172464200CD
:106670006370756C6F616400556E6B6E6F776E2022
:10668000636F6D6D616E642073657175656E6365B2
:106690000D0A002558255825580D0A00416C6C201C
:1066A0006D65737361676520646566696E69746999
:1066B0006F6E7320636C65617265640D0A004D69CD
:1066C0007373696E6720617267756D656E740D0A0C
:1066D00000556E6B6E6F776E20706172616D6574C0
:1066E00065720D0A00256420656E747269657320F9
:1066F00072656D6F7665640D0A00496E76616C692E
:10670000642043414E2049642025780D0A00496EDB
:1067100076616C6964204F66667365742025640D2C
:106720000A00496E76616C6964206C656E677468F6
:106730002025640D0A0043616E6E6F74206D6170D8
:1067400020616E796D6F7265206974656D73207458
:106750006F2043414E2069642025640D0A004D617D
:1067600078206D65737361676520636F756E742043
:10677000726561636865640D0A0043414E206D6176
:1067800070207375636365737366756C2C20256464
:10679000206D657373616765257320616374697625
:1067A000650D0A0063616E20007278200074782005
:1067B0000025732025642025642025642025640D90
:1067C0000A00417661696C61626C6520706172617A
:1067D0006D657465727320616E642076616C756599
:1067E000730D0A002573205B25735D0D0A00257368
:1067F000090925660D0A00556E6B6E6F776E207065
:106800006172616D657465723A20272573270D0AE0
:1068100000747275650066616C7365007B002563AA
:106820000D0A202020222573223A207B22756E69D2
:1068300074223A222573222C2276616C7565223AE5
:1068400025662C002263616E6964223A25642C223D
:1068500063616E6F6666736574223A25642C2263E9
:10686000616E6C656E677468223A25642C226361E0
:106870006E6761696E223A25642C226973727822F0
:106880003A25732C00226973706172616D223A742B
:106890007275652C226D696E696D756D223A25667B
:1068A0002C226D6178696D756D223A25662C226403
:1068B000656661756C74223A25662C226361746585
:1068C000676F7279223A222573227D0022697370E4
:1068D0006172616D223A66616C73657D000D0A7D9F
:1068E0000D0A00506172616D657465722061747487
:1068F000726962757465730D0A004E616D650909F0
:106900006D696E202D206D6178205B646566617510
:106910006C745D0D0A00257309092566202D20255C
:1069200066205B25665D0D0A00506172616D6574BD
:106930006572732073746F7265642C204352433DFB
:1069400025780D0A0043414E4D41502073746F72FB
:1069500065640D0A0044656661756C7473206C6F24
:10696000616465640D0A0055736167653A2073744C
:106970007265616D206E2076616C312C76616C32AF
:106980002E2E2E0D0A0025732566004E6F20666C94
:10699000616720676976656E0D0A006869646465E1
:1069A0006E00556E6B6E6F776E20666C61670D0AB8
:1069B00000466C6167206368616E6765204F4B0D10
:1069C0000A00556E6B6E6F776E20706172616D6537
:1069D0007465722025730D0A004E6F20706172611C
:1069E0006D657465722076616C7565206769766582
:1069F0006E0D0A00536574204F4B0D0A0056616CF2
:106A00007565206F7574206F662072616E67650D05
:106A10000A00506172616D6574657273206C6F61FC
:106A20006465640D0A00506172616D657465722061
:106A3000435243206572726F720D0A0067657400DD
:106A4000666C61670073747265616D006465666190
:106A5000756C747300616C6C006C697374006174A4
:106A60007200736176650068656C70006A736F6EA2
:106A70000063616E0073657269616C006572726FAC
:106A8000727300726573657400000000856A000807
:106A9000C92D00083C6A00088D2A0008406A0008D9
:106AA000452D0008456A0008592C00084C6A00086A
:106AB000452C0008556A0008612A0008596A000838
:106AC000252A00085E6A0008C52B0008626A0008D3
:106AD000192C000873660008292E0008676A000850
